{
	"schemaVersion": "2.0.0",
	"contractName": "Exchange",
	"compilerOutput": {
		"abi": [
			{
				"constant": true,
				"inputs": [
					{
						"name": "",
						"type": "bytes32"
					}
				],
				"name": "filled",
				"outputs": [
					{
						"name": "",
						"type": "uint256"
					}
				],
				"payable": false,
				"stateMutability": "view",
				"type": "function"
			},
			{
				"constant": false,
				"inputs": [
					{
						"components": [
							{
								"name": "makerAddress",
								"type": "address"
							},
							{
								"name": "takerAddress",
								"type": "address"
							},
							{
								"name": "feeRecipientAddress",
								"type": "address"
							},
							{
								"name": "senderAddress",
								"type": "address"
							},
							{
								"name": "makerAssetAmount",
								"type": "uint256"
							},
							{
								"name": "takerAssetAmount",
								"type": "uint256"
							},
							{
								"name": "makerFee",
								"type": "uint256"
							},
							{
								"name": "takerFee",
								"type": "uint256"
							},
							{
								"name": "expirationTimeSeconds",
								"type": "uint256"
							},
							{
								"name": "salt",
								"type": "uint256"
							},
							{
								"name": "makerAssetData",
								"type": "bytes"
							},
							{
								"name": "takerAssetData",
								"type": "bytes"
							}
						],
						"name": "orders",
						"type": "tuple[]"
					},
					{
						"name": "takerAssetFillAmounts",
						"type": "uint256[]"
					},
					{
						"name": "signatures",
						"type": "bytes[]"
					}
				],
				"name": "batchFillOrders",
				"outputs": [],
				"payable": false,
				"stateMutability": "nonpayable",
				"type": "function"
			},
			{
				"constant": true,
				"inputs": [
					{
						"name": "",
						"type": "bytes32"
					}
				],
				"name": "cancelled",
				"outputs": [
					{
						"name": "",
						"type": "bool"
					}
				],
				"payable": false,
				"stateMutability": "view",
				"type": "function"
			},
			{
				"constant": false,
				"inputs": [
					{
						"name": "hash",
						"type": "bytes32"
					},
					{
						"name": "signer",
						"type": "address"
					},
					{
						"name": "signature",
						"type": "bytes"
					}
				],
				"name": "preSign",
				"outputs": [],
				"payable": false,
				"stateMutability": "nonpayable",
				"type": "function"
			},
			{
				"constant": true,
				"inputs": [
					{
						"name": "",
						"type": "uint8"
					}
				],
				"name": "assetProxies",
				"outputs": [
					{
						"name": "",
						"type": "address"
					}
				],
				"payable": false,
				"stateMutability": "view",
				"type": "function"
			},
			{
				"constant": false,
				"inputs": [
					{
						"components": [
							{
								"name": "makerAddress",
								"type": "address"
							},
							{
								"name": "takerAddress",
								"type": "address"
							},
							{
								"name": "feeRecipientAddress",
								"type": "address"
							},
							{
								"name": "senderAddress",
								"type": "address"
							},
							{
								"name": "makerAssetAmount",
								"type": "uint256"
							},
							{
								"name": "takerAssetAmount",
								"type": "uint256"
							},
							{
								"name": "makerFee",
								"type": "uint256"
							},
							{
								"name": "takerFee",
								"type": "uint256"
							},
							{
								"name": "expirationTimeSeconds",
								"type": "uint256"
							},
							{
								"name": "salt",
								"type": "uint256"
							},
							{
								"name": "makerAssetData",
								"type": "bytes"
							},
							{
								"name": "takerAssetData",
								"type": "bytes"
							}
						],
						"name": "leftOrder",
						"type": "tuple"
					},
					{
						"components": [
							{
								"name": "makerAddress",
								"type": "address"
							},
							{
								"name": "takerAddress",
								"type": "address"
							},
							{
								"name": "feeRecipientAddress",
								"type": "address"
							},
							{
								"name": "senderAddress",
								"type": "address"
							},
							{
								"name": "makerAssetAmount",
								"type": "uint256"
							},
							{
								"name": "takerAssetAmount",
								"type": "uint256"
							},
							{
								"name": "makerFee",
								"type": "uint256"
							},
							{
								"name": "takerFee",
								"type": "uint256"
							},
							{
								"name": "expirationTimeSeconds",
								"type": "uint256"
							},
							{
								"name": "salt",
								"type": "uint256"
							},
							{
								"name": "makerAssetData",
								"type": "bytes"
							},
							{
								"name": "takerAssetData",
								"type": "bytes"
							}
						],
						"name": "rightOrder",
						"type": "tuple"
					},
					{
						"name": "leftSignature",
						"type": "bytes"
					},
					{
						"name": "rightSignature",
						"type": "bytes"
					}
				],
				"name": "matchOrders",
				"outputs": [
					{
						"components": [
							{
								"components": [
									{
										"name": "makerAssetFilledAmount",
										"type": "uint256"
									},
									{
										"name": "takerAssetFilledAmount",
										"type": "uint256"
									},
									{
										"name": "makerFeePaid",
										"type": "uint256"
									},
									{
										"name": "takerFeePaid",
										"type": "uint256"
									}
								],
								"name": "left",
								"type": "tuple"
							},
							{
								"components": [
									{
										"name": "makerAssetFilledAmount",
										"type": "uint256"
									},
									{
										"name": "takerAssetFilledAmount",
										"type": "uint256"
									},
									{
										"name": "makerFeePaid",
										"type": "uint256"
									},
									{
										"name": "takerFeePaid",
										"type": "uint256"
									}
								],
								"name": "right",
								"type": "tuple"
							},
							{
								"name": "leftMakerAssetSpreadAmount",
								"type": "uint256"
							}
						],
						"name": "matchedFillResults",
						"type": "tuple"
					}
				],
				"payable": false,
				"stateMutability": "nonpayable",
				"type": "function"
			},
			{
				"constant": false,
				"inputs": [
					{
						"components": [
							{
								"name": "makerAddress",
								"type": "address"
							},
							{
								"name": "takerAddress",
								"type": "address"
							},
							{
								"name": "feeRecipientAddress",
								"type": "address"
							},
							{
								"name": "senderAddress",
								"type": "address"
							},
							{
								"name": "makerAssetAmount",
								"type": "uint256"
							},
							{
								"name": "takerAssetAmount",
								"type": "uint256"
							},
							{
								"name": "makerFee",
								"type": "uint256"
							},
							{
								"name": "takerFee",
								"type": "uint256"
							},
							{
								"name": "expirationTimeSeconds",
								"type": "uint256"
							},
							{
								"name": "salt",
								"type": "uint256"
							},
							{
								"name": "makerAssetData",
								"type": "bytes"
							},
							{
								"name": "takerAssetData",
								"type": "bytes"
							}
						],
						"name": "order",
						"type": "tuple"
					},
					{
						"name": "takerAssetFillAmount",
						"type": "uint256"
					},
					{
						"name": "signature",
						"type": "bytes"
					}
				],
				"name": "fillOrderNoThrow",
				"outputs": [
					{
						"components": [
							{
								"name": "makerAssetFilledAmount",
								"type": "uint256"
							},
							{
								"name": "takerAssetFilledAmount",
								"type": "uint256"
							},
							{
								"name": "makerFeePaid",
								"type": "uint256"
							},
							{
								"name": "takerFeePaid",
								"type": "uint256"
							}
						],
						"name": "fillResults",
						"type": "tuple"
					}
				],
				"payable": false,
				"stateMutability": "nonpayable",
				"type": "function"
			},
			{
				"constant": false,
				"inputs": [
					{
						"components": [
							{
								"name": "makerAddress",
								"type": "address"
							},
							{
								"name": "takerAddress",
								"type": "address"
							},
							{
								"name": "feeRecipientAddress",
								"type": "address"
							},
							{
								"name": "senderAddress",
								"type": "address"
							},
							{
								"name": "makerAssetAmount",
								"type": "uint256"
							},
							{
								"name": "takerAssetAmount",
								"type": "uint256"
							},
							{
								"name": "makerFee",
								"type": "uint256"
							},
							{
								"name": "takerFee",
								"type": "uint256"
							},
							{
								"name": "expirationTimeSeconds",
								"type": "uint256"
							},
							{
								"name": "salt",
								"type": "uint256"
							},
							{
								"name": "makerAssetData",
								"type": "bytes"
							},
							{
								"name": "takerAssetData",
								"type": "bytes"
							}
						],
						"name": "orders",
						"type": "tuple[]"
					}
				],
				"name": "batchCancelOrders",
				"outputs": [],
				"payable": false,
				"stateMutability": "nonpayable",
				"type": "function"
			},
			{
				"constant": false,
				"inputs": [
					{
						"components": [
							{
								"name": "makerAddress",
								"type": "address"
							},
							{
								"name": "takerAddress",
								"type": "address"
							},
							{
								"name": "feeRecipientAddress",
								"type": "address"
							},
							{
								"name": "senderAddress",
								"type": "address"
							},
							{
								"name": "makerAssetAmount",
								"type": "uint256"
							},
							{
								"name": "takerAssetAmount",
								"type": "uint256"
							},
							{
								"name": "makerFee",
								"type": "uint256"
							},
							{
								"name": "takerFee",
								"type": "uint256"
							},
							{
								"name": "expirationTimeSeconds",
								"type": "uint256"
							},
							{
								"name": "salt",
								"type": "uint256"
							},
							{
								"name": "makerAssetData",
								"type": "bytes"
							},
							{
								"name": "takerAssetData",
								"type": "bytes"
							}
						],
						"name": "orders",
						"type": "tuple[]"
					},
					{
						"name": "takerAssetFillAmounts",
						"type": "uint256[]"
					},
					{
						"name": "signatures",
						"type": "bytes[]"
					}
				],
				"name": "batchFillOrKillOrders",
				"outputs": [],
				"payable": false,
				"stateMutability": "nonpayable",
				"type": "function"
			},
			{
				"constant": false,
				"inputs": [
					{
						"name": "salt",
						"type": "uint256"
					}
				],
				"name": "cancelOrdersUpTo",
				"outputs": [],
				"payable": false,
				"stateMutability": "nonpayable",
				"type": "function"
			},
			{
				"constant": false,
				"inputs": [
					{
						"components": [
							{
								"name": "makerAddress",
								"type": "address"
							},
							{
								"name": "takerAddress",
								"type": "address"
							},
							{
								"name": "feeRecipientAddress",
								"type": "address"
							},
							{
								"name": "senderAddress",
								"type": "address"
							},
							{
								"name": "makerAssetAmount",
								"type": "uint256"
							},
							{
								"name": "takerAssetAmount",
								"type": "uint256"
							},
							{
								"name": "makerFee",
								"type": "uint256"
							},
							{
								"name": "takerFee",
								"type": "uint256"
							},
							{
								"name": "expirationTimeSeconds",
								"type": "uint256"
							},
							{
								"name": "salt",
								"type": "uint256"
							},
							{
								"name": "makerAssetData",
								"type": "bytes"
							},
							{
								"name": "takerAssetData",
								"type": "bytes"
							}
						],
						"name": "orders",
						"type": "tuple[]"
					},
					{
						"name": "takerAssetFillAmounts",
						"type": "uint256[]"
					},
					{
						"name": "signatures",
						"type": "bytes[]"
					}
				],
				"name": "batchFillOrdersNoThrow",
				"outputs": [],
				"payable": false,
				"stateMutability": "nonpayable",
				"type": "function"
			},
			{
				"constant": false,
				"inputs": [
					{
						"name": "assetProxyId",
						"type": "uint8"
					},
					{
						"name": "newAssetProxy",
						"type": "address"
					},
					{
						"name": "oldAssetProxy",
						"type": "address"
					}
				],
				"name": "registerAssetProxy",
				"outputs": [],
				"payable": false,
				"stateMutability": "nonpayable",
				"type": "function"
			},
			{
				"constant": true,
				"inputs": [
					{
						"name": "",
						"type": "bytes32"
					}
				],
				"name": "transactions",
				"outputs": [
					{
						"name": "",
						"type": "bool"
					}
				],
				"payable": false,
				"stateMutability": "view",
				"type": "function"
			},
			{
				"constant": false,
				"inputs": [
					{
						"components": [
							{
								"name": "makerAddress",
								"type": "address"
							},
							{
								"name": "takerAddress",
								"type": "address"
							},
							{
								"name": "feeRecipientAddress",
								"type": "address"
							},
							{
								"name": "senderAddress",
								"type": "address"
							},
							{
								"name": "makerAssetAmount",
								"type": "uint256"
							},
							{
								"name": "takerAssetAmount",
								"type": "uint256"
							},
							{
								"name": "makerFee",
								"type": "uint256"
							},
							{
								"name": "takerFee",
								"type": "uint256"
							},
							{
								"name": "expirationTimeSeconds",
								"type": "uint256"
							},
							{
								"name": "salt",
								"type": "uint256"
							},
							{
								"name": "makerAssetData",
								"type": "bytes"
							},
							{
								"name": "takerAssetData",
								"type": "bytes"
							}
						],
						"name": "order",
						"type": "tuple"
					},
					{
						"name": "takerAssetFillAmount",
						"type": "uint256"
					},
					{
						"name": "signature",
						"type": "bytes"
					}
				],
				"name": "fillOrKillOrder",
				"outputs": [
					{
						"components": [
							{
								"name": "makerAssetFilledAmount",
								"type": "uint256"
							},
							{
								"name": "takerAssetFilledAmount",
								"type": "uint256"
							},
							{
								"name": "makerFeePaid",
								"type": "uint256"
							},
							{
								"name": "takerFeePaid",
								"type": "uint256"
							}
						],
						"name": "fillResults",
						"type": "tuple"
					}
				],
				"payable": false,
				"stateMutability": "nonpayable",
				"type": "function"
			},
			{
				"constant": true,
				"inputs": [
					{
						"name": "",
						"type": "address"
					}
				],
				"name": "makerEpoch",
				"outputs": [
					{
						"name": "",
						"type": "uint256"
					}
				],
				"payable": false,
				"stateMutability": "view",
				"type": "function"
			},
			{
				"constant": false,
				"inputs": [
					{
						"name": "validator",
						"type": "address"
					},
					{
						"name": "approval",
						"type": "bool"
					}
				],
				"name": "setSignatureValidatorApproval",
				"outputs": [],
				"payable": false,
				"stateMutability": "nonpayable",
				"type": "function"
			},
			{
				"constant": true,
				"inputs": [
					{
						"name": "",
						"type": "address"
					},
					{
						"name": "",
						"type": "address"
					}
				],
				"name": "allowedValidators",
				"outputs": [
					{
						"name": "",
						"type": "bool"
					}
				],
				"payable": false,
				"stateMutability": "view",
				"type": "function"
			},
			{
				"constant": false,
				"inputs": [
					{
						"components": [
							{
								"name": "makerAddress",
								"type": "address"
							},
							{
								"name": "takerAddress",
								"type": "address"
							},
							{
								"name": "feeRecipientAddress",
								"type": "address"
							},
							{
								"name": "senderAddress",
								"type": "address"
							},
							{
								"name": "makerAssetAmount",
								"type": "uint256"
							},
							{
								"name": "takerAssetAmount",
								"type": "uint256"
							},
							{
								"name": "makerFee",
								"type": "uint256"
							},
							{
								"name": "takerFee",
								"type": "uint256"
							},
							{
								"name": "expirationTimeSeconds",
								"type": "uint256"
							},
							{
								"name": "salt",
								"type": "uint256"
							},
							{
								"name": "makerAssetData",
								"type": "bytes"
							},
							{
								"name": "takerAssetData",
								"type": "bytes"
							}
						],
						"name": "orders",
						"type": "tuple[]"
					},
					{
						"name": "takerAssetFillAmount",
						"type": "uint256"
					},
					{
						"name": "signatures",
						"type": "bytes[]"
					}
				],
				"name": "marketSellOrders",
				"outputs": [
					{
						"components": [
							{
								"name": "makerAssetFilledAmount",
								"type": "uint256"
							},
							{
								"name": "takerAssetFilledAmount",
								"type": "uint256"
							},
							{
								"name": "makerFeePaid",
								"type": "uint256"
							},
							{
								"name": "takerFeePaid",
								"type": "uint256"
							}
						],
						"name": "totalFillResults",
						"type": "tuple"
					}
				],
				"payable": false,
				"stateMutability": "nonpayable",
				"type": "function"
			},
			{
				"constant": true,
				"inputs": [
					{
						"name": "",
						"type": "bytes32"
					},
					{
						"name": "",
						"type": "address"
					}
				],
				"name": "preSigned",
				"outputs": [
					{
						"name": "",
						"type": "bool"
					}
				],
				"payable": false,
				"stateMutability": "view",
				"type": "function"
			},
			{
				"constant": true,
				"inputs": [],
				"name": "owner",
				"outputs": [
					{
						"name": "",
						"type": "address"
					}
				],
				"payable": false,
				"stateMutability": "view",
				"type": "function"
			},
			{
				"constant": true,
				"inputs": [
					{
						"name": "assetProxyId",
						"type": "uint8"
					}
				],
				"name": "getAssetProxy",
				"outputs": [
					{
						"name": "",
						"type": "address"
					}
				],
				"payable": false,
				"stateMutability": "view",
				"type": "function"
			},
			{
				"constant": false,
				"inputs": [
					{
						"components": [
							{
								"name": "makerAddress",
								"type": "address"
							},
							{
								"name": "takerAddress",
								"type": "address"
							},
							{
								"name": "feeRecipientAddress",
								"type": "address"
							},
							{
								"name": "senderAddress",
								"type": "address"
							},
							{
								"name": "makerAssetAmount",
								"type": "uint256"
							},
							{
								"name": "takerAssetAmount",
								"type": "uint256"
							},
							{
								"name": "makerFee",
								"type": "uint256"
							},
							{
								"name": "takerFee",
								"type": "uint256"
							},
							{
								"name": "expirationTimeSeconds",
								"type": "uint256"
							},
							{
								"name": "salt",
								"type": "uint256"
							},
							{
								"name": "makerAssetData",
								"type": "bytes"
							},
							{
								"name": "takerAssetData",
								"type": "bytes"
							}
						],
						"name": "orders",
						"type": "tuple[]"
					},
					{
						"name": "makerAssetFillAmount",
						"type": "uint256"
					},
					{
						"name": "signatures",
						"type": "bytes[]"
					}
				],
				"name": "marketBuyOrdersNoThrow",
				"outputs": [
					{
						"components": [
							{
								"name": "makerAssetFilledAmount",
								"type": "uint256"
							},
							{
								"name": "takerAssetFilledAmount",
								"type": "uint256"
							},
							{
								"name": "makerFeePaid",
								"type": "uint256"
							},
							{
								"name": "takerFeePaid",
								"type": "uint256"
							}
						],
						"name": "totalFillResults",
						"type": "tuple"
					}
				],
				"payable": false,
				"stateMutability": "nonpayable",
				"type": "function"
			},
			{
				"constant": false,
				"inputs": [
					{
						"components": [
							{
								"name": "makerAddress",
								"type": "address"
							},
							{
								"name": "takerAddress",
								"type": "address"
							},
							{
								"name": "feeRecipientAddress",
								"type": "address"
							},
							{
								"name": "senderAddress",
								"type": "address"
							},
							{
								"name": "makerAssetAmount",
								"type": "uint256"
							},
							{
								"name": "takerAssetAmount",
								"type": "uint256"
							},
							{
								"name": "makerFee",
								"type": "uint256"
							},
							{
								"name": "takerFee",
								"type": "uint256"
							},
							{
								"name": "expirationTimeSeconds",
								"type": "uint256"
							},
							{
								"name": "salt",
								"type": "uint256"
							},
							{
								"name": "makerAssetData",
								"type": "bytes"
							},
							{
								"name": "takerAssetData",
								"type": "bytes"
							}
						],
						"name": "order",
						"type": "tuple"
					},
					{
						"name": "takerAssetFillAmount",
						"type": "uint256"
					},
					{
						"name": "signature",
						"type": "bytes"
					}
				],
				"name": "fillOrder",
				"outputs": [
					{
						"components": [
							{
								"name": "makerAssetFilledAmount",
								"type": "uint256"
							},
							{
								"name": "takerAssetFilledAmount",
								"type": "uint256"
							},
							{
								"name": "makerFeePaid",
								"type": "uint256"
							},
							{
								"name": "takerFeePaid",
								"type": "uint256"
							}
						],
						"name": "fillResults",
						"type": "tuple"
					}
				],
				"payable": false,
				"stateMutability": "nonpayable",
				"type": "function"
			},
			{
				"constant": false,
				"inputs": [
					{
						"name": "salt",
						"type": "uint256"
					},
					{
						"name": "signer",
						"type": "address"
					},
					{
						"name": "data",
						"type": "bytes"
					},
					{
						"name": "signature",
						"type": "bytes"
					}
				],
				"name": "executeTransaction",
				"outputs": [],
				"payable": false,
				"stateMutability": "nonpayable",
				"type": "function"
			},
			{
				"constant": true,
				"inputs": [
					{
						"components": [
							{
								"name": "makerAddress",
								"type": "address"
							},
							{
								"name": "takerAddress",
								"type": "address"
							},
							{
								"name": "feeRecipientAddress",
								"type": "address"
							},
							{
								"name": "senderAddress",
								"type": "address"
							},
							{
								"name": "makerAssetAmount",
								"type": "uint256"
							},
							{
								"name": "takerAssetAmount",
								"type": "uint256"
							},
							{
								"name": "makerFee",
								"type": "uint256"
							},
							{
								"name": "takerFee",
								"type": "uint256"
							},
							{
								"name": "expirationTimeSeconds",
								"type": "uint256"
							},
							{
								"name": "salt",
								"type": "uint256"
							},
							{
								"name": "makerAssetData",
								"type": "bytes"
							},
							{
								"name": "takerAssetData",
								"type": "bytes"
							}
						],
						"name": "order",
						"type": "tuple"
					}
				],
				"name": "getOrderInfo",
				"outputs": [
					{
						"components": [
							{
								"name": "orderStatus",
								"type": "uint8"
							},
							{
								"name": "orderHash",
								"type": "bytes32"
							},
							{
								"name": "orderTakerAssetFilledAmount",
								"type": "uint256"
							}
						],
						"name": "orderInfo",
						"type": "tuple"
					}
				],
				"payable": false,
				"stateMutability": "view",
				"type": "function"
			},
			{
				"constant": false,
				"inputs": [
					{
						"components": [
							{
								"name": "makerAddress",
								"type": "address"
							},
							{
								"name": "takerAddress",
								"type": "address"
							},
							{
								"name": "feeRecipientAddress",
								"type": "address"
							},
							{
								"name": "senderAddress",
								"type": "address"
							},
							{
								"name": "makerAssetAmount",
								"type": "uint256"
							},
							{
								"name": "takerAssetAmount",
								"type": "uint256"
							},
							{
								"name": "makerFee",
								"type": "uint256"
							},
							{
								"name": "takerFee",
								"type": "uint256"
							},
							{
								"name": "expirationTimeSeconds",
								"type": "uint256"
							},
							{
								"name": "salt",
								"type": "uint256"
							},
							{
								"name": "makerAssetData",
								"type": "bytes"
							},
							{
								"name": "takerAssetData",
								"type": "bytes"
							}
						],
						"name": "order",
						"type": "tuple"
					}
				],
				"name": "cancelOrder",
				"outputs": [],
				"payable": false,
				"stateMutability": "nonpayable",
				"type": "function"
			},
			{
				"constant": true,
				"inputs": [],
				"name": "ZRX_ASSET_DATA",
				"outputs": [
					{
						"name": "",
						"type": "bytes"
					}
				],
				"payable": false,
				"stateMutability": "view",
				"type": "function"
			},
			{
				"constant": false,
				"inputs": [
					{
						"components": [
							{
								"name": "makerAddress",
								"type": "address"
							},
							{
								"name": "takerAddress",
								"type": "address"
							},
							{
								"name": "feeRecipientAddress",
								"type": "address"
							},
							{
								"name": "senderAddress",
								"type": "address"
							},
							{
								"name": "makerAssetAmount",
								"type": "uint256"
							},
							{
								"name": "takerAssetAmount",
								"type": "uint256"
							},
							{
								"name": "makerFee",
								"type": "uint256"
							},
							{
								"name": "takerFee",
								"type": "uint256"
							},
							{
								"name": "expirationTimeSeconds",
								"type": "uint256"
							},
							{
								"name": "salt",
								"type": "uint256"
							},
							{
								"name": "makerAssetData",
								"type": "bytes"
							},
							{
								"name": "takerAssetData",
								"type": "bytes"
							}
						],
						"name": "orders",
						"type": "tuple[]"
					},
					{
						"name": "takerAssetFillAmount",
						"type": "uint256"
					},
					{
						"name": "signatures",
						"type": "bytes[]"
					}
				],
				"name": "marketSellOrdersNoThrow",
				"outputs": [
					{
						"components": [
							{
								"name": "makerAssetFilledAmount",
								"type": "uint256"
							},
							{
								"name": "takerAssetFilledAmount",
								"type": "uint256"
							},
							{
								"name": "makerFeePaid",
								"type": "uint256"
							},
							{
								"name": "takerFeePaid",
								"type": "uint256"
							}
						],
						"name": "totalFillResults",
						"type": "tuple"
					}
				],
				"payable": false,
				"stateMutability": "nonpayable",
				"type": "function"
			},
			{
				"constant": false,
				"inputs": [
					{
						"components": [
							{
								"name": "makerAddress",
								"type": "address"
							},
							{
								"name": "takerAddress",
								"type": "address"
							},
							{
								"name": "feeRecipientAddress",
								"type": "address"
							},
							{
								"name": "senderAddress",
								"type": "address"
							},
							{
								"name": "makerAssetAmount",
								"type": "uint256"
							},
							{
								"name": "takerAssetAmount",
								"type": "uint256"
							},
							{
								"name": "makerFee",
								"type": "uint256"
							},
							{
								"name": "takerFee",
								"type": "uint256"
							},
							{
								"name": "expirationTimeSeconds",
								"type": "uint256"
							},
							{
								"name": "salt",
								"type": "uint256"
							},
							{
								"name": "makerAssetData",
								"type": "bytes"
							},
							{
								"name": "takerAssetData",
								"type": "bytes"
							}
						],
						"name": "orders",
						"type": "tuple[]"
					},
					{
						"name": "makerAssetFillAmount",
						"type": "uint256"
					},
					{
						"name": "signatures",
						"type": "bytes[]"
					}
				],
				"name": "marketBuyOrders",
				"outputs": [
					{
						"components": [
							{
								"name": "makerAssetFilledAmount",
								"type": "uint256"
							},
							{
								"name": "takerAssetFilledAmount",
								"type": "uint256"
							},
							{
								"name": "makerFeePaid",
								"type": "uint256"
							},
							{
								"name": "takerFeePaid",
								"type": "uint256"
							}
						],
						"name": "totalFillResults",
						"type": "tuple"
					}
				],
				"payable": false,
				"stateMutability": "nonpayable",
				"type": "function"
			},
			{
				"constant": true,
				"inputs": [],
				"name": "currentContextAddress",
				"outputs": [
					{
						"name": "",
						"type": "address"
					}
				],
				"payable": false,
				"stateMutability": "view",
				"type": "function"
			},
			{
				"constant": false,
				"inputs": [
					{
						"name": "newOwner",
						"type": "address"
					}
				],
				"name": "transferOwnership",
				"outputs": [],
				"payable": false,
				"stateMutability": "nonpayable",
				"type": "function"
			},
			{
				"constant": true,
				"inputs": [],
				"name": "VERSION",
				"outputs": [
					{
						"name": "",
						"type": "string"
					}
				],
				"payable": false,
				"stateMutability": "view",
				"type": "function"
			},
			{
				"inputs": [
					{
						"name": "_zrxAssetData",
						"type": "bytes"
					}
				],
				"payable": false,
				"stateMutability": "nonpayable",
				"type": "constructor"
			},
			{
				"anonymous": false,
				"inputs": [
					{
						"indexed": true,
						"name": "makerAddress",
						"type": "address"
					},
					{
						"indexed": false,
						"name": "takerAddress",
						"type": "address"
					},
					{
						"indexed": true,
						"name": "feeRecipientAddress",
						"type": "address"
					},
					{
						"indexed": false,
						"name": "makerAssetFilledAmount",
						"type": "uint256"
					},
					{
						"indexed": false,
						"name": "takerAssetFilledAmount",
						"type": "uint256"
					},
					{
						"indexed": false,
						"name": "makerFeePaid",
						"type": "uint256"
					},
					{
						"indexed": false,
						"name": "takerFeePaid",
						"type": "uint256"
					},
					{
						"indexed": true,
						"name": "orderHash",
						"type": "bytes32"
					},
					{
						"indexed": false,
						"name": "makerAssetData",
						"type": "bytes"
					},
					{
						"indexed": false,
						"name": "takerAssetData",
						"type": "bytes"
					}
				],
				"name": "Fill",
				"type": "event"
			},
			{
				"anonymous": false,
				"inputs": [
					{
						"indexed": true,
						"name": "makerAddress",
						"type": "address"
					},
					{
						"indexed": true,
						"name": "feeRecipientAddress",
						"type": "address"
					},
					{
						"indexed": true,
						"name": "orderHash",
						"type": "bytes32"
					},
					{
						"indexed": false,
						"name": "makerAssetData",
						"type": "bytes"
					},
					{
						"indexed": false,
						"name": "takerAssetData",
						"type": "bytes"
					}
				],
				"name": "Cancel",
				"type": "event"
			},
			{
				"anonymous": false,
				"inputs": [
					{
						"indexed": true,
						"name": "makerAddress",
						"type": "address"
					},
					{
						"indexed": false,
						"name": "makerEpoch",
						"type": "uint256"
					}
				],
				"name": "CancelUpTo",
				"type": "event"
			},
			{
				"anonymous": false,
				"inputs": [
					{
						"indexed": false,
						"name": "id",
						"type": "uint8"
					},
					{
						"indexed": false,
						"name": "newAssetProxy",
						"type": "address"
					},
					{
						"indexed": false,
						"name": "oldAssetProxy",
						"type": "address"
					}
				],
				"name": "AssetProxySet",
				"type": "event"
			}
		],
		"evm": {
			"bytecode": {
				"linkReferences": {},
				"object": "0x60806040523480156200001157600080fd5b50604051620046793803806200467983398101806040526200003791908101906200016a565b805181906200004e90600090602084019062000069565b505060018054600160a060020a03191633179055506200022c565b828054600181600116156101000203166002900490600052602060002090601f016020900481019282601f10620000ac57805160ff1916838001178555620000dc565b82800160010185558215620000dc579182015b82811115620000dc578251825591602001919060010190620000bf565b50620000ea929150620000ee565b5090565b6200010b91905b80821115620000ea5760008155600101620000f5565b90565b6000601f820183136200012057600080fd5b8151620001376200013182620001d1565b620001aa565b915080825260208301602083018583830111156200015457600080fd5b62000161838284620001f9565b50505092915050565b6000602082840312156200017d57600080fd5b81516001604060020a038111156200019457600080fd5b620001a2848285016200010e565b949350505050565b6040518181016001604060020a0381118282101715620001c957600080fd5b604052919050565b60006001604060020a03821115620001e857600080fd5b506020601f91909101601f19160190565b60005b8381101562000216578181015183820152602001620001fc565b8381111562000226576000848401525b50505050565b61443d806200023c6000396000f3006080604052600436106101955763ffffffff7c0100000000000000000000000000000000000000000000000000000000600035041663288cdc91811461019a578063297bb70b146101d05780632ac12622146101f25780633683ef8e1461021f578063380771641461023f5780633c28d8611461026c5780633e228bae146102995780634ac14782146102c65780634d0ae546146102e65780634f9559b11461030657806350dde190146103265780635c78d0c714610346578063642f2eaf1461036657806364a3bc15146103865780636f3627f8146103a657806377fcce68146103c65780637b8e3514146103e65780637e1d98081461040657806382c174d0146104265780638da5cb5b1461044657806392c1421e14610468578063a3e2038014610488578063b4be83d5146104a8578063bfc8bfce146104c8578063c75e0a81146104e8578063d46b02c314610515578063db123b1a14610535578063dd1c7d1814610557578063e5fa431b14610577578063eea086ba14610597578063f2fde38b146105ac578063ffa1ad74146105cc575b600080fd5b3480156101a657600080fd5b506101ba6101b5366004613c8e565b6105e1565b6040516101c791906142f2565b60405180910390f35b3480156101dc57600080fd5b506101f06101eb366004613b93565b6105f3565b005b3480156101fe57600080fd5b5061021261020d366004613c8e565b61065e565b6040516101c791906141ad565b34801561022b57600080fd5b506101f061023a366004613ccb565b610673565b34801561024b57600080fd5b5061025f61025a366004613f33565b610741565b6040516101c791906142a9565b34801561027857600080fd5b5061028c610287366004613d68565b61075c565b6040516101c791906142d5565b3480156102a557600080fd5b506102b96102b4366004613e28565b610848565b6040516101c791906142c7565b3480156102d257600080fd5b506101f06102e1366004613b5e565b610a58565b3480156102f257600080fd5b506101f0610301366004613b93565b610a90565b34801561031257600080fd5b506101f0610321366004613c8e565b610af5565b34801561033257600080fd5b506101f0610341366004613b93565b610bdc565b34801561035257600080fd5b506101f0610361366004613f6f565b610c41565b34801561037257600080fd5b50610212610381366004613c8e565b610e71565b34801561039257600080fd5b506102b96103a1366004613e28565b610e86565b3480156103b257600080fd5b506101ba6103c1366004613ad6565b610f03565b3480156103d257600080fd5b506101f06103e1366004613b2e565b610f15565b3480156103f257600080fd5b50610212610401366004613af4565b610f5a565b34801561041257600080fd5b506102b9610421366004613c27565b610f7a565b34801561043257600080fd5b50610212610441366004613cac565b611052565b34801561045257600080fd5b5061045b611072565b6040516101c7919061412a565b34801561047457600080fd5b5061045b610483366004613f33565b611081565b34801561049457600080fd5b506102b96104a3366004613c27565b61109f565b3480156104b457600080fd5b506102b96104c3366004613e28565b6111af565b3480156104d457600080fd5b506101f06104e3366004613e9a565b611233565b3480156104f457600080fd5b50610508610503366004613d33565b611565565b6040516101c791906142e4565b34801561052157600080fd5b506101f0610530366004613d33565b611641565b34801561054157600080fd5b5061054a61166c565b6040516101c79190614246565b34801561056357600080fd5b506102b9610572366004613c27565b6116fa565b34801561058357600080fd5b506102b9610592366004613c27565b6117c0565b3480156105a357600080fd5b5061045b61189b565b3480156105b857600080fd5b506101f06105c7366004613ad6565b6118aa565b3480156105d857600080fd5b5061054a611912565b60026020526000908152604090205481565b60005b83518110156106585761064f848281518110151561061057fe5b90602001906020020151848381518110151561062857fe5b90602001906020020151848481518110151561064057fe5b906020019060200201516111af565b506001016105f6565b50505050565b60036020526000908152604090205460ff1681565b6106ae848484848080601f01602080910402602001604051908101604052809392919081815260200183838082843750611949945050505050565b60408051808201909152601181527f494e56414c49445f5349474e4154555245000000000000000000000000000000602082015290151561070e5760405160e560020a62461bcd0281526004016107059190614246565b60405180910390fd5b5050506000918252600560209081526040808420600160a060020a0390931684529190529020805460ff19166001179055565b600960205260009081526040902054600160a060020a031681565b6107646136fc565b61076c61372b565b61077461372b565b610160808801516101408089019190915288015190870152600061079788611565565b92506107a287611565565b91506107ac612125565b90506107b88888612154565b6107cc8888856040015185604001516121d4565b8051602001519094506107e690899085908490808b612298565b60208085015101516107ff90889084908490808a612298565b6108188882856020015186604001518860000151612538565b6108318782846020015185604001518860200151612538565b61083d888883876125d7565b505050949350505050565b61085061374b565b604080517fb4be83d5000000000000000000000000000000000000000000000000000000008082526060600483018181528851606485019081526020808b01516084870152958a015160a48601529189015160c4850152608089015160e485015260a089015161010485015260c089015161012485015260e0890151610144850152610100890151610164850152610120890151610184850152610140890180516101a486019081526101608b01516101c487015261018090525180516101e48601819052939591938493926024870192849261020489019291820191601f82010460005b81811015610953578351855260209485019490930192600101610935565b50505050818103610160808401919091528c0151805180835260209283019291820191601f82010460005b8181101561099c57835185526020948501949093019260010161097e565b5050508b84525084810360209384019081528a518083529093918201918b81019190601f82010460005b818110156109e45783518552602094850194909301926001016109c6565b5060808a8b86038c305af4808015610a035760018114610a2157610a44565b60008e52600060208f0152600060408f0152600060608f0152610a44565b8b518e5260208c015160208f015260408c015160408f015260608c015160608f01525b505050505050505050505050509392505050565b60005b8151811015610a8c57610a848282815181101515610a7557fe5b90602001906020020151611641565b600101610a5b565b5050565b60005b835181101561065857610aec8482815181101515610aad57fe5b906020019060200201518483815181101515610ac557fe5b906020019060200201518484815181101515610add57fe5b90602001906020020151610e86565b50600101610a93565b6000806000610b02612125565b600160a060020a038116600090815260046020908152604091829020548251808401909352601783527f494e56414c49445f4e45575f4d414b45525f45504f434800000000000000000091830191909152919450600186019350909150818311610b825760405160e560020a62461bcd0281526004016107059190614246565b50600160a060020a03831660008181526004602052604090819020849055517f666a5047451d0c744e58819166260f8048fe2786e33b3c1115af94887a451ca790610bce9085906142f2565b60405180910390a250505050565b60005b835181101561065857610c388482815181101515610bf957fe5b906020019060200201518483815181101515610c1157fe5b906020019060200201518484815181101515610c2957fe5b90602001906020020151610848565b50600101610bdf565b60015460009081908190600160a060020a03163314610c755760405160e560020a62461bcd028152600401610705906142b7565b60ff8616600090815260096020908152604091829020548251808401909352601483527f41535345545f50524f58595f4d49534d4154434800000000000000000000000091830191909152600160a060020a03908116945085168414610cf15760405160e560020a62461bcd0281526004016107059190614246565b50849150600160a060020a03821615610df55781600160a060020a031663ae25532e6040518163ffffffff167c0100000000000000000000000000000000000000000000000000000000028152600401602060405180830381600087803b158015610d5b57600080fd5b505af1158015610d6f573d6000803e3d6000fd5b505050506040513d601f19601f82011682018060405250610d939190810190613f51565b60408051808201909152601781527f41535345545f50524f58595f49445f4d49534d41544348000000000000000000602082015290915060ff80831690881614610df35760405160e560020a62461bcd0281526004016107059190614246565b505b60ff861660009081526009602052604090819020805473ffffffffffffffffffffffffffffffffffffffff1916600160a060020a038516179055517f27ef5f484e50f2daf7c2d82c60fe4ce409009541176eb64095beac369db1d26090610e6190889088908890614300565b60405180910390a1505050505050565b60076020526000908152604090205460ff1681565b610e8e61374b565b610e998484846111af565b9050828160200151146040805190810160405280601481526020017f434f4d504c4554455f46494c4c5f4641494c4544000000000000000000000000815250901515610efb5760405160e560020a62461bcd0281526004016107059190614246565b509392505050565b60046020526000908152604090205481565b6000610f1f612125565b600160a060020a03908116600090815260066020908152604080832096909316825294909452909220805460ff191691151591909117905550565b600660209081526000928352604080842090915290825290205460ff1681565b610f8261374b565b6060600080610f8f61374b565b876000815181101515610f9e57fe5b9060200190602002015161016001519350600092505b875183101561104757838884815181101515610fcc57fe5b906020019060200201516101600181905250610fec8786602001516127b3565b91506110188884815181101515610fff57fe5b9060200190602002015183888681518110151561064057fe5b84516001018552905061102b85826127c5565b868560200151141561103c57611047565b600190920191610fb4565b505050509392505050565b600560209081526000928352604080842090915290825290205460ff1681565b600154600160a060020a031681565b60ff16600090815260096020526040902054600160a060020a031690565b6110a761374b565b606060008060006110b661374b565b8860008151811015156110c557fe5b9060200190602002015161014001519450600093505b88518410156111a3578489858151811015156110f357fe5b602090810290910101516101400152855161110f9089906127b3565b9250611152898581518110151561112257fe5b9060200190602002015160a001518a8681518110151561113e57fe5b906020019060200201516080015185612827565b915061117e898581518110151561116557fe5b90602001906020020151838987815181101515610c2957fe5b905061118a86826127c5565b8551881415611198576111a3565b6001909301926110db565b50505050509392505050565b6111b761374b565b6111bf61372b565b60008060006111cd88611565565b93506111d7612125565b92506111eb8860a0015185604001516127b3565b91506111f78783612844565b90506112078885858a858b612298565b611211888261285c565b945061122888848660200151876040015189612538565b6110478884876128c6565b60085460408051808201909152601281527f5245454e5452414e43595f494c4c4547414c00000000000000000000000000006020820152600091600160a060020a0316156112975760405160e560020a62461bcd0281526004016107059190614246565b5030868887876040516020018086600160a060020a0316600160a060020a03166c0100000000000000000000000002815260140185600160a060020a0316600160a060020a03166c010000000000000000000000000281526014018481526020018383808284378201915050955050505050506040516020818303038152906040526040518082805190602001908083835b602083106113485780518252601f199092019160209182019101611329565b51815160209384036101000a60001901801990921691161790526040805192909401829003822060008181526007835285902054838601909552600f83527f494e56414c49445f54585f48415348000000000000000000000000000000000091830191909152955093505060ff161590506113d95760405160e560020a62461bcd0281526004016107059190614246565b50600160a060020a03861633146114a657611425818785858080601f01602080910402602001604051908101604052809392919081815260200183838082843750611949945050505050565b60408051808201909152601481527f494e56414c49445f54585f5349474e4154555245000000000000000000000000602082015290151561147c5760405160e560020a62461bcd0281526004016107059190614246565b506008805473ffffffffffffffffffffffffffffffffffffffff1916600160a060020a0388161790555b60008181526007602052604090819020805460ff191660011790555130908690869080838380828437820191505092505050600060405180830381855af460408051808201909152601081527f4641494c45445f455845435554494f4e00000000000000000000000000000000602082015292501515905061153e5760405160e560020a62461bcd0281526004016107059190614246565b50506008805473ffffffffffffffffffffffffffffffffffffffff19169055505050505050565b61156d61372b565b611576826129f2565b6020820152608082015115156115935760015b60ff16815261163c565b60a082015115156115a5576002611589565b61010082015142106115b8576004611589565b60208082015160009081526003909152604090205460ff16156115dc576006611589565b6101208201518251600160a060020a03166000908152600460205260409020541115611609576006611589565b602080820151600090815260029091526040908190205490820181905260a083015111611637576005611589565b600381525b919050565b61164961372b565b61165282611565565b905061165e8282613166565b610a8c8282602001516132af565b6000805460408051602060026001851615610100026000190190941693909304601f810184900484028201840190925281815292918301828280156116f25780601f106116c7576101008083540402835291602001916116f2565b820191906000526020600020905b8154815290600101906020018083116116d557829003601f168201915b505050505081565b61170261374b565b606060008061170f61374b565b87600081518110151561171e57fe5b9060200190602002015161016001519350600092505b87518310156110475783888481518110151561174c57fe5b90602001906020020151610160018190525061176c8786602001516127b3565b9150611798888481518110151561177f57fe5b90602001906020020151838886815181101515610c2957fe5b90506117a485826127c5565b86856020015114156117b557611047565b600190920191611734565b6117c861374b565b606060008060006117d761374b565b8860008151811015156117e657fe5b9060200190602002015161014001519450600093505b88518410156111a35784898581518110151561181457fe5b60209081029091010151610140015285516118309089906127b3565b9250611843898581518110151561112257fe5b915061186f898581518110151561185657fe5b9060200190602002015183898781518110151561064057fe5b85516001018652905061188286826127c5565b8551881415611890576111a3565b6001909301926117fc565b600854600160a060020a031681565b600154600160a060020a031633146118d75760405160e560020a62461bcd028152600401610705906142b7565b600160a060020a0381161561190f576001805473ffffffffffffffffffffffffffffffffffffffff1916600160a060020a0383161790555b50565b60408051808201909152600b81527f322e302e312d616c706861000000000000000000000000000000000000000000602082015281565b6000806000806000806000808851116040805190810160405280601e81526020017f4c454e4754485f475245415445525f5448414e5f305f524551554952454400008152509015156119b15760405160e560020a62461bcd0281526004016107059190614246565b506119bb8861332b565b60f860020a900460ff1660088111156119d057fe5b955060008660088111156119e057fe5b1415611a3457604080518082018252601181527f5349474e41545552455f494c4c4547414c0000000000000000000000000000006020820152905160e560020a62461bcd0281526107059190600401614246565b6001866008811115611a4257fe5b1415611aaa57875160408051808201909152601181527f4c454e4754485f315f524551554952454400000000000000000000000000000060208201529015611aa05760405160e560020a62461bcd0281526004016107059190614246565b5060009650612118565b6002866008811115611ab857fe5b1415611bc057875160408051808201909152601281527f4c454e4754485f36365f52455155495245440000000000000000000000000000602082015290604114611b185760405160e560020a62461bcd0281526004016107059190614246565b50876000815181101515611b2857fe5b016020015160f860020a908190048102049450611b468860016133e0565b9350611b538860216133e0565b925060018a86868660405160008152602001604052604051611b789493929190614211565b60206040516020810390808403906000865af1158015611b9c573d6000803e3d6000fd5b5050604051601f190151600160a060020a038b811690821614985092506121189050565b6003866008811115611bce57fe5b1415611d7a57875160408051808201909152601281527f4c454e4754485f36365f52455155495245440000000000000000000000000000602082015290604114611c2e5760405160e560020a62461bcd0281526004016107059190614246565b50876000815181101515611c3e57fe5b016020015160f860020a908190048102049450611c5c8860016133e0565b9350611c698860216133e0565b925060016040805190810160405280601c81526020017f19457468657265756d205369676e6564204d6573736167653a0a3332000000008152508b6040516020018083805190602001908083835b60208310611cd65780518252601f199092019160209182019101611cb7565b51815160209384036101000a600019018019909216911617905292019384525060408051808503815293820190819052835193945092839250908401908083835b60208310611d365780518252601f199092019160209182019101611d17565b51815160209384036101000a60001901801990921691161790526040805192909401829003822060008352910192839052611b789450925089918991508890614211565b6004866008811115611d8857fe5b1415611dfa57875160408051808201909152601181527f4c454e4754485f315f524551554952454400000000000000000000000000000060208201529015611de65760405160e560020a62461bcd0281526004016107059190614246565b50600160a060020a03891633149650612118565b6005866008811115611e0857fe5b1415611eae576040517f1626ba7e000000000000000000000000000000000000000000000000000000008152600160a060020a038a1690631626ba7e90611e55908d908c906004016141f1565b602060405180830381600087803b158015611e6f57600080fd5b505af1158015611e83573d6000803e3d6000fd5b505050506040513d601f19601f82011682018060405250611ea79190810190613c70565b9650612118565b6006866008811115611ebc57fe5b1415611f4f57611ecb88613474565b600160a060020a03808b1660009081526006602090815260408083209385168352929052205490915060ff161515611f065760009650612118565b6040517f93634702000000000000000000000000000000000000000000000000000000008152600160a060020a03821690639363470290611e55908d908d908d906004016141bb565b6007866008811115611f5d57fe5b1415611f905760008a8152600560209081526040808320600160a060020a038d16845290915290205460ff169650612118565b6008866008811115611f9e57fe5b141561208957875160408051808201909152601281527f4c454e4754485f36365f52455155495245440000000000000000000000000000602082015290604114611ffe5760405160e560020a62461bcd0281526004016107059190614246565b5087600081518110151561200e57fe5b016020015160f860020a90819004810204945061202c8860016133e0565b93506120398860216133e0565b604080518082018252601b8082527f19457468657265756d205369676e6564204d6573736167653a0a4100000000006020808401918252935194975060019492938f930191829190808383611cd6565b600786600881111561209757fe5b14156120ca5760008a8152600560209081526040808320600160a060020a038d16845290915290205460ff169650612118565b604080518082018252601581527f5349474e41545552455f554e535550504f5254454400000000000000000000006020820152905160e560020a62461bcd0281526107059190600401614246565b5050505050509392505050565b6008546000908190600160a060020a03161561214c57600854600160a060020a031661214e565b335b92915050565b6121668260a001518260a00151613518565b61217883608001518360800151613518565b60408051808201909152601881527f4e454741544956455f5350524541445f5245515549524544000000000000000060208201529111156121cf5760405160e560020a62461bcd0281526004016107059190614246565b505050565b6121dc6136fc565b6000806000806121f08960a00151886127b3565b93506122008860a00151876127b3565b9250612210838960800151613518565b61221e858a60a00151613518565b11612240578391506122398860a00151896080015184612827565b9050612259565b82905061225688608001518960a0015183612827565b91505b612263898361285c565b855261226f888261285c565b602080870182905286515191015161228791906127b3565b604086015250505050949350505050565b845160408051808201909152601081527f4f524445525f554e46494c4c41424c450000000000000000000000000000000060208201529060ff166003146122f55760405160e560020a62461bcd0281526004016107059190614246565b5060408051808201909152601481527f494e56414c49445f54414b45525f414d4f554e54000000000000000000000000602082015283151561234d5760405160e560020a62461bcd0281526004016107059190614246565b506060860151600160a060020a0316156123c857606086015160408051808201909152600e81527f494e56414c49445f53454e444552000000000000000000000000000000000000602082015290600160a060020a031633146123c65760405160e560020a62461bcd0281526004016107059190614246565b505b6020860151600160a060020a03161561244f5783600160a060020a03168660200151600160a060020a0316146040805190810160405280600d81526020017f494e56414c49445f54414b45520000000000000000000000000000000000000081525090151561244d5760405160e560020a62461bcd0281526004016107059190614246565b505b604085015115156124c65761246d8560200151876000015183611949565b60408051808201909152601781527f494e56414c49445f4f524445525f5349474e415455524500000000000000000060208201529015156124c45760405160e560020a62461bcd0281526004016107059190614246565b505b6124d9828760a00151886080015161353c565b60408051808201909152600e81527f524f554e44494e475f4552524f520000000000000000000000000000000000006020820152901561252f5760405160e560020a62461bcd0281526004016107059190614246565b50505050505050565b612546828260200151613592565b600084815260026020908152604091829020929092558681015187518451938501518584015160608701516101408c01516101608d015196518b98600160a060020a039788169897909616967fde19f18e1b56e6eada7ed95cca8398b602be32f5864640537ee9a9a3532bb29d966125c8968f96919590949193909290614138565b60405180910390a45050505050565b60008060606125ea87610140015161332b565b60f860020a9004925061260186610140015161332b565b60008054604080516020601f6002600019610100600188161502019095169490940493840181900481028201810190925282815260f860020a90940495508301828280156126905780601f1061266557610100808354040283529160200191612690565b820191906000526020600020905b81548152906001019060200180831161267357829003601f168201915b505050505090506126b987610140015184896000015189600001518860200151602001516135a1565b610140860151865188518651602001516126d79392869290916135a1565b6126f18761014001518489600001518888604001516135a1565b61270f81600189600001518a604001518860000151604001516135a1565b61272d816001886000015189604001518860200151604001516135a1565b8560400151600160a060020a03168760400151600160a060020a0316141561277f5761277a816001878a604001516127758960000151606001518a6020015160600151613592565b6135a1565b61252f565b612799816001878a604001518860000151606001516135a1565b61252f8160018789604001518860200151606001516135a1565b6000828211156127bf57fe5b50900390565b815181516127d39190613592565b8252602080830151908201516127e99190613592565b6020830152604080830151908201516128029190613592565b60408301526060808301519082015161281b9190613592565b60609092019190915250565b600061283c6128368584613518565b84613648565b949350505050565b60008183106128535781612855565b825b9392505050565b61286461374b565b6020810182905260a08301516080840151612880918491612827565b8152602081015160a084015160c085015161289c929190612827565b6040820152602081015160a084015160e08501516128bb929190612827565b606082015292915050565b60008060606128d986610140015161332b565b60f860020a900492506128f086610160015161332b565b60008054604080516020601f6002600019610100600188161502019095169490940493840181900481028201810190925282815260f860020a909404955083018282801561297f5780601f106129545761010080835404028352916020019161297f565b820191906000526020600020905b81548152906001019060200180831161296257829003601f168201915b505050505090506129a08661014001518488600001518888600001516135a1565b6129ba8661016001518387896000015188602001516135a1565b6129d48160018860000151896040015188604001516135a1565b6129ea81600187896040015188606001516135a1565b505050505050565b600060405160200180807f446f6d61696e536570617261746f72286164647265737320636f6e747261637481526020017f290000000000000000000000000000000000000000000000000000000000000081525060210190506040516020818303038152906040526040518082805190602001908083835b60208310612a895780518252601f199092019160209182019101612a6a565b51815160209384036101000a600019018019909216911617905260408051929094018290038220306c0100000000000000000000000002838301528451601481850301815260349093019485905282519096509194508392508401908083835b60208310612b085780518252601f199092019160209182019101612ae9565b51815160209384036101000a6000190180199092169116179052604080519290940182900382207f4f72646572280000000000000000000000000000000000000000000000000000838301527f61646472657373206d616b6572416464726573732c000000000000000000000060268401527f616464726573732074616b6572416464726573732c0000000000000000000000603b8401527f6164647265737320666565526563697069656e74416464726573732c0000000060508401527f616464726573732073656e646572416464726573732c00000000000000000000606c8401527f75696e74323536206d616b65724173736574416d6f756e742c0000000000000060828401527f75696e743235362074616b65724173736574416d6f756e742c00000000000000609b8401527f75696e74323536206d616b65724665652c00000000000000000000000000000060b48401527f75696e743235362074616b65724665652c00000000000000000000000000000060c58401527f75696e743235362065787069726174696f6e54696d655365636f6e64732c000060d68401527f75696e743235362073616c742c0000000000000000000000000000000000000060f48401527f6279746573206d616b65724173736574446174612c00000000000000000000006101018401527f62797465732074616b65724173736574446174612c00000000000000000000006101168401527f290000000000000000000000000000000000000000000000000000000000000061012b840152845180840361010c01815261012c9093019485905282519096509194508392508401908083835b60208310612d8b5780518252601f199092019160209182019101612d6c565b6001836020036101000a0380198251168184511680821785525050505050509050019150506040518091039020846000015185602001518660400151876060015188608001518960a001518a60c001518b60e001518c61010001518d61012001518e61014001516040516020018082805190602001908083835b60208310612e245780518252601f199092019160209182019101612e05565b6001836020036101000a0380198251168184511680821785525050505050509050019150506040516020818303038152906040526040518082805190602001908083835b60208310612e875780518252601f199092019160209182019101612e68565b6001836020036101000a03801982511681845116808217855250505050505090500191505060405180910390208f61016001516040516020018082805190602001908083835b60208310612eec5780518252601f199092019160209182019101612ecd565b6001836020036101000a0380198251168184511680821785525050505050509050019150506040516020818303038152906040526040518082805190602001908083835b60208310612f4f5780518252601f199092019160209182019101612f30565b6001836020036101000a0380198251168184511680821785525050505050509050019150506040518091039020604051602001808d600160a060020a0316600160a060020a03166c010000000000000000000000000281526014018c600160a060020a0316600160a060020a03166c010000000000000000000000000281526014018b600160a060020a0316600160a060020a03166c010000000000000000000000000281526014018a600160a060020a0316600160a060020a03166c01000000000000000000000000028152601401898152602001888152602001878152602001868152602001858152602001848152602001836000191660001916815260200182600019166000191681526020019c505050505050505050505050506040516020818303038152906040526040518082805190602001908083835b602083106130ab5780518252601f19909201916020918201910161308c565b51815160001960209485036101000a019081169019919091161790526040805194909201849003842084820199909952838201979097526060830195909552506080808201969096528351808203909601865260a001928390525050825190918291908401908083835b602083106131345780518252601f199092019160209182019101613115565b5181516020939093036101000a6000190180199091169216919091179052604051920182900390912095945050505050565b805160408051808201909152601081527f4f524445525f554e46494c4c41424c4500000000000000000000000000000000602082015260009160ff166003146131c55760405160e560020a62461bcd0281526004016107059190614246565b506060830151600160a060020a03161561324057606083015160408051808201909152600e81527f494e56414c49445f53454e444552000000000000000000000000000000000000602082015290600160a060020a0316331461323e5760405160e560020a62461bcd0281526004016107059190614246565b505b613248612125565b835160408051808201909152600d81527f494e56414c49445f4d414b4552000000000000000000000000000000000000006020820152919250600160a060020a038084169116146106585760405160e560020a62461bcd0281526004016107059190614246565b60008181526003602052604090819020805460ff1916600117905582810151835161014085015161016086015193518594600160a060020a039485169493909316927fb1ad640e9e79b6fdbc3c415dc2914ab54e753d2971f51eab910f7aa317a3163a9261331f92909190614284565b60405180910390a45050565b600080825111606060405190810160405280602181526020017f475245415445525f5448414e5f5a45524f5f4c454e4754485f5245515549524581526020017f44000000000000000000000000000000000000000000000000000000000000008152509015156133b15760405160e560020a62461bcd0281526004016107059190614246565b508151829060001981019081106133c457fe5b01602001518251600019019092525060f860020a908190040290565b60008160200183511015606060405190810160405280602681526020017f475245415445525f4f525f455155414c5f544f5f33325f4c454e4754485f524581526020017f515549524544000000000000000000000000000000000000000000000000000081525090151561346a5760405160e560020a62461bcd0281526004016107059190614246565b5050016020015190565b6000601482511015606060405190810160405280602681526020017f475245415445525f4f525f455155414c5f544f5f32305f4c454e4754485f524581526020017f51554952454400000000000000000000000000000000000000000000000000008152509015156134fc5760405160e560020a62461bcd0281526004016107059190614246565b5061350b82601484510361365f565b8251601319019092525090565b6000828202831580613534575082848281151561353157fe5b04145b151561285557fe5b60008060008480151561354b57fe5b86850991508115156135605760009250613589565b61357f61357083620f4240613518565b61357a8887613518565b613648565b6103e88111935090505b50509392505050565b60008282018381101561285557fe5b6000808211156129ea575060ff8416600090815260096020526040908190205490517fa85e59e4000000000000000000000000000000000000000000000000000000008152600160a060020a0390911690819063a85e59e49061360e908990889088908890600401614257565b600060405180830381600087803b15801561362857600080fd5b505af115801561363c573d6000803e3d6000fd5b50505050505050505050565b600080828481151561365657fe5b04949350505050565b60008160140183511015606060405190810160405280602681526020017f475245415445525f4f525f455155414c5f544f5f32305f4c454e4754485f524581526020017f51554952454400000000000000000000000000000000000000000000000000008152509015156136e95760405160e560020a62461bcd0281526004016107059190614246565b50500160140151600160a060020a031690565b6101206040519081016040528061371161374b565b815260200161371e61374b565b8152602001600081525090565b604080516060810182526000808252602082018190529181019190915290565b608060405190810160405280600081526020016000815260200160008152602001600081525090565b6000612855823561439c565b6000601f8201831361379157600080fd5b81356137a461379f8261434f565b614328565b81815260209384019390925082018360005b838110156137e257813586016137cc8882613926565b84525060209283019291909101906001016137b6565b5050505092915050565b6000601f820183136137fd57600080fd5b813561380b61379f8261434f565b81815260209384019390925082018360005b838110156137e257813586016138338882613975565b845250602092830192919091019060010161381d565b6000601f8201831361385a57600080fd5b813561386861379f8261434f565b9150818183526020840193506020810190508385602084028201111561388d57600080fd5b60005b838110156137e257816138a388826138d1565b8452506020928301929190910190600101613890565b600061285582356143a8565b600061285582516143a8565b600061285582356143ad565b600080601f830184136138ef57600080fd5b50813567ffffffffffffffff81111561390757600080fd5b60208301915083600182028301111561391f57600080fd5b9250929050565b6000601f8201831361393757600080fd5b813561394561379f82614370565b9150808252602083016020830185838301111561396157600080fd5b61396c8382846143c1565b50505092915050565b6000610180828403121561398857600080fd5b613993610180614328565b905060006139a18484613774565b82525060206139b284848301613774565b60208301525060406139c684828501613774565b60408301525060606139da84828501613774565b60608301525060806139ee848285016138d1565b60808301525060a0613a02848285016138d1565b60a08301525060c0613a16848285016138d1565b60c08301525060e0613a2a848285016138d1565b60e083015250610100613a3f848285016138d1565b61010083015250610120613a55848285016138d1565b6101208301525061014082013567ffffffffffffffff811115613a7757600080fd5b613a8384828501613926565b6101408301525061016082013567ffffffffffffffff811115613aa557600080fd5b613ab184828501613926565b6101608301525092915050565b600061285582356143b0565b600061285582516143b0565b600060208284031215613ae857600080fd5b600061283c8484613774565b60008060408385031215613b0757600080fd5b6000613b138585613774565b9250506020613b2485828601613774565b9150509250929050565b60008060408385031215613b4157600080fd5b6000613b4d8585613774565b9250506020613b24858286016138b9565b600060208284031215613b7057600080fd5b813567ffffffffffffffff811115613b8757600080fd5b61283c848285016137ec565b600080600060608486031215613ba857600080fd5b833567ffffffffffffffff811115613bbf57600080fd5b613bcb868287016137ec565b935050602084013567ffffffffffffffff811115613be857600080fd5b613bf486828701613849565b925050604084013567ffffffffffffffff811115613c1157600080fd5b613c1d86828701613780565b9150509250925092565b600080600060608486031215613c3c57600080fd5b833567ffffffffffffffff811115613c5357600080fd5b613c5f868287016137ec565b9350506020613bf4868287016138d1565b600060208284031215613c8257600080fd5b600061283c84846138c5565b600060208284031215613ca057600080fd5b600061283c84846138d1565b60008060408385031215613cbf57600080fd5b6000613b1385856138d1565b60008060008060608587031215613ce157600080fd5b6000613ced87876138d1565b9450506020613cfe87828801613774565b935050604085013567ffffffffffffffff811115613d1b57600080fd5b613d27878288016138dd565b95989497509550505050565b600060208284031215613d4557600080fd5b813567ffffffffffffffff811115613d5c57600080fd5b61283c84828501613975565b60008060008060808587031215613d7e57600080fd5b843567ffffffffffffffff811115613d9557600080fd5b613da187828801613975565b945050602085013567ffffffffffffffff811115613dbe57600080fd5b613dca87828801613975565b935050604085013567ffffffffffffffff811115613de757600080fd5b613df387828801613926565b925050606085013567ffffffffffffffff811115613e1057600080fd5b613e1c87828801613926565b91505092959194509250565b600080600060608486031215613e3d57600080fd5b833567ffffffffffffffff811115613e5457600080fd5b613e6086828701613975565b9350506020613e71868287016138d1565b925050604084013567ffffffffffffffff811115613e8e57600080fd5b613c1d86828701613926565b60008060008060008060808789031215613eb357600080fd5b6000613ebf89896138d1565b9650506020613ed089828a01613774565b955050604087013567ffffffffffffffff811115613eed57600080fd5b613ef989828a016138dd565b9450945050606087013567ffffffffffffffff811115613f1857600080fd5b613f2489828a016138dd565b92509250509295509295509295565b600060208284031215613f4557600080fd5b600061283c8484613abe565b600060208284031215613f6357600080fd5b600061283c8484613aca565b600080600060608486031215613f8457600080fd5b6000613f908686613abe565b9350506020613fa186828701613774565b9250506040613c1d86828701613774565b613fbb8161439c565b82525050565b613fbb816143a8565b613fbb816143ad565b6000613fde82614398565b808452613ff28160208601602086016143cd565b613ffb816143f9565b9093016020019392505050565b613fbb816143b6565b603381527f4f6e6c7920636f6e7472616374206f776e657220697320616c6c6f776564207460208201527f6f2063616c6c2074686973206d6574686f642e00000000000000000000000000604082015260600190565b805160808301906140788482613fca565b50602082015161408b6020850182613fca565b50604082015161409e6040850182613fca565b5060608201516106586060850182613fca565b80516101208301906140c38482614067565b5060208201516140d66080850182614067565b506040820151610658610100850182613fca565b805160608301906140fb8482614121565b50602082015161410e6020850182613fca565b5060408201516106586040850182613fca565b613fbb816143b0565b6020810161214e8284613fb2565b60e08101614146828a613fb2565b6141536020830189613fca565b6141606040830188613fca565b61416d6060830187613fca565b61417a6080830186613fca565b81810360a083015261418c8185613fd3565b905081810360c08301526141a08184613fd3565b9998505050505050505050565b6020810161214e8284613fc1565b606081016141c98286613fca565b6141d66020830185613fb2565b81810360408301526141e88184613fd3565b95945050505050565b604081016141ff8285613fca565b818103602083015261283c8184613fd3565b6080810161421f8287613fca565b61422c6020830186614121565b6142396040830185613fca565b6141e86060830184613fca565b602080825281016128558184613fd3565b608080825281016142688187613fd3565b90506142776020830186613fb2565b6142396040830185613fb2565b604080825281016142958185613fd3565b9050818103602083015261283c8184613fd3565b6020810161214e8284614008565b6020808252810161214e81614011565b6080810161214e8284614067565b610120810161214e82846140b1565b6060810161214e82846140ea565b6020810161214e8284613fca565b6060810161430e8286614121565b61431b6020830185613fb2565b61283c6040830184613fb2565b60405181810167ffffffffffffffff8111828210171561434757600080fd5b604052919050565b600067ffffffffffffffff82111561436657600080fd5b5060209081020190565b600067ffffffffffffffff82111561438757600080fd5b506020601f91909101601f19160190565b5190565b600160a060020a031690565b151590565b90565b60ff1690565b600061214e8261439c565b82818337506000910152565b60005b838110156143e85781810151838201526020016143d0565b838111156106585750506000910152565b601f01601f1916905600a265627a7a72305820aa15081f1cc4c308bb1e6468209a88e970986453ca6d1ae40dabd6c4679b38286c6578706572696d656e74616cf50037",
				"opcodes": "PUSH1 0x80 PUSH1 0x40 MSTORE CALLVALUE DUP1 ISZERO PUSH3 0x11 JUMPI PUSH1 0x0 DUP1 REVERT JUMPDEST POP PUSH1 0x40 MLOAD PUSH3 0x4679 CODESIZE SUB DUP1 PUSH3 0x4679 DUP4 CODECOPY DUP2 ADD DUP1 PUSH1 0x40 MSTORE PUSH3 0x37 SWAP2 SWAP1 DUP2 ADD SWAP1 PUSH3 0x16A JUMP JUMPDEST DUP1 MLOAD DUP2 SWAP1 PUSH3 0x4E SWAP1 PUSH1 0x0 SWAP1 PUSH1 0x20 DUP5 ADD SWAP1 PUSH3 0x69 JUMP JUMPDEST POP POP PUSH1 0x1 DUP1 SLOAD PUSH1 0x1 PUSH1 0xA0 PUSH1 0x2 EXP SUB NOT AND CALLER OR SWAP1 SSTORE POP PUSH3 0x22C JUMP JUMPDEST DUP3 DUP1 SLOAD PUSH1 0x1 DUP2 PUSH1 0x1 AND ISZERO PUSH2 0x100 MUL SUB AND PUSH1 0x2 SWAP1 DIV SWAP1 PUSH1 0x0 MSTORE PUSH1 0x20 PUSH1 0x0 KECCAK256 SWAP1 PUSH1 0x1F ADD PUSH1 0x20 SWAP1 DIV DUP2 ADD SWAP3 DUP3 PUSH1 0x1F LT PUSH3 0xAC JUMPI DUP1 MLOAD PUSH1 0xFF NOT AND DUP4 DUP1 ADD OR DUP6 SSTORE PUSH3 0xDC JUMP JUMPDEST DUP3 DUP1 ADD PUSH1 0x1 ADD DUP6 SSTORE DUP3 ISZERO PUSH3 0xDC JUMPI SWAP2 DUP3 ADD JUMPDEST DUP3 DUP2 GT ISZERO PUSH3 0xDC JUMPI DUP3 MLOAD DUP3 SSTORE SWAP2 PUSH1 0x20 ADD SWAP2 SWAP1 PUSH1 0x1 ADD SWAP1 PUSH3 0xBF JUMP JUMPDEST POP PUSH3 0xEA SWAP3 SWAP2 POP PUSH3 0xEE JUMP JUMPDEST POP SWAP1 JUMP JUMPDEST PUSH3 0x10B SWAP2 SWAP1 JUMPDEST DUP1 DUP3 GT ISZERO PUSH3 0xEA JUMPI PUSH1 0x0 DUP2 SSTORE PUSH1 0x1 ADD PUSH3 0xF5 JUMP JUMPDEST SWAP1 JUMP JUMPDEST PUSH1 0x0 PUSH1 0x1F DUP3 ADD DUP4 SGT PUSH3 0x120 JUMPI PUSH1 0x0 DUP1 REVERT JUMPDEST DUP2 MLOAD PUSH3 0x137 PUSH3 0x131 DUP3 PUSH3 0x1D1 JUMP JUMPDEST PUSH3 0x1AA JUMP JUMPDEST SWAP2 POP DUP1 DUP3 MSTORE PUSH1 0x20 DUP4 ADD PUSH1 0x20 DUP4 ADD DUP6 DUP4 DUP4 ADD GT ISZERO PUSH3 0x154 JUMPI PUSH1 0x0 DUP1 REVERT JUMPDEST PUSH3 0x161 DUP4 DUP3 DUP5 PUSH3 0x1F9 JUMP JUMPDEST POP POP POP SWAP3 SWAP2 POP POP JUMP JUMPDEST PUSH1 0x0 PUSH1 0x20 DUP3 DUP5 SUB SLT ISZERO PUSH3 0x17D JUMPI PUSH1 0x0 DUP1 REVERT JUMPDEST DUP2 MLOAD PUSH1 0x1 PUSH1 0x40 PUSH1 0x2 EXP SUB DUP2 GT ISZERO PUSH3 0x194 JUMPI PUSH1 0x0 DUP1 REVERT JUMPDEST PUSH3 0x1A2 DUP5 DUP3 DUP6 ADD PUSH3 0x10E JUMP JUMPDEST SWAP5 SWAP4 POP POP POP POP JUMP JUMPDEST PUSH1 0x40 MLOAD DUP2 DUP2 ADD PUSH1 0x1 PUSH1 0x40 PUSH1 0x2 EXP SUB DUP2 GT DUP3 DUP3 LT OR ISZERO PUSH3 0x1C9 JUMPI PUSH1 0x0 DUP1 REVERT JUMPDEST PUSH1 0x40 MSTORE SWAP2 SWAP1 POP JUMP JUMPDEST PUSH1 0x0 PUSH1 0x1 PUSH1 0x40 PUSH1 0x2 EXP SUB DUP3 GT ISZERO PUSH3 0x1E8 JUMPI PUSH1 0x0 DUP1 REVERT JUMPDEST POP PUSH1 0x20 PUSH1 0x1F SWAP2 SWAP1 SWAP2 ADD PUSH1 0x1F NOT AND ADD SWAP1 JUMP JUMPDEST PUSH1 0x0 JUMPDEST DUP4 DUP2 LT ISZERO PUSH3 0x216 JUMPI DUP2 DUP2 ADD MLOAD DUP4 DUP3 ADD MSTORE PUSH1 0x20 ADD PUSH3 0x1FC JUMP JUMPDEST DUP4 DUP2 GT ISZERO PUSH3 0x226 JUMPI PUSH1 0x0 DUP5 DUP5 ADD MSTORE JUMPDEST POP POP POP POP JUMP JUMPDEST PUSH2 0x443D DUP1 PUSH3 0x23C PUSH1 0x0 CODECOPY PUSH1 0x0 RETURN STOP PUSH1 0x80 PUSH1 0x40 MSTORE PUSH1 0x4 CALLDATASIZE LT PUSH2 0x195 JUMPI PUSH4 0xFFFFFFFF PUSH29 0x100000000000000000000000000000000000000000000000000000000 PUSH1 0x0 CALLDATALOAD DIV AND PUSH4 0x288CDC91 DUP2 EQ PUSH2 0x19A JUMPI DUP1 PUSH4 0x297BB70B EQ PUSH2 0x1D0 JUMPI DUP1 PUSH4 0x2AC12622 EQ PUSH2 0x1F2 JUMPI DUP1 PUSH4 0x3683EF8E EQ PUSH2 0x21F JUMPI DUP1 PUSH4 0x38077164 EQ PUSH2 0x23F JUMPI DUP1 PUSH4 0x3C28D861 EQ PUSH2 0x26C JUMPI DUP1 PUSH4 0x3E228BAE EQ PUSH2 0x299 JUMPI DUP1 PUSH4 0x4AC14782 EQ PUSH2 0x2C6 JUMPI DUP1 PUSH4 0x4D0AE546 EQ PUSH2 0x2E6 JUMPI DUP1 PUSH4 0x4F9559B1 EQ PUSH2 0x306 JUMPI DUP1 PUSH4 0x50DDE190 EQ PUSH2 0x326 JUMPI DUP1 PUSH4 0x5C78D0C7 EQ PUSH2 0x346 JUMPI DUP1 PUSH4 0x642F2EAF EQ PUSH2 0x366 JUMPI DUP1 PUSH4 0x64A3BC15 EQ PUSH2 0x386 JUMPI DUP1 PUSH4 0x6F3627F8 EQ PUSH2 0x3A6 JUMPI DUP1 PUSH4 0x77FCCE68 EQ PUSH2 0x3C6 JUMPI DUP1 PUSH4 0x7B8E3514 EQ PUSH2 0x3E6 JUMPI DUP1 PUSH4 0x7E1D9808 EQ PUSH2 0x406 JUMPI DUP1 PUSH4 0x82C174D0 EQ PUSH2 0x426 JUMPI DUP1 PUSH4 0x8DA5CB5B EQ PUSH2 0x446 JUMPI DUP1 PUSH4 0x92C1421E EQ PUSH2 0x468 JUMPI DUP1 PUSH4 0xA3E20380 EQ PUSH2 0x488 JUMPI DUP1 PUSH4 0xB4BE83D5 EQ PUSH2 0x4A8 JUMPI DUP1 PUSH4 0xBFC8BFCE EQ PUSH2 0x4C8 JUMPI DUP1 PUSH4 0xC75E0A81 EQ PUSH2 0x4E8 JUMPI DUP1 PUSH4 0xD46B02C3 EQ PUSH2 0x515 JUMPI DUP1 PUSH4 0xDB123B1A EQ PUSH2 0x535 JUMPI DUP1 PUSH4 0xDD1C7D18 EQ PUSH2 0x557 JUMPI DUP1 PUSH4 0xE5FA431B EQ PUSH2 0x577 JUMPI DUP1 PUSH4 0xEEA086BA EQ PUSH2 0x597 JUMPI DUP1 PUSH4 0xF2FDE38B EQ PUSH2 0x5AC JUMPI DUP1 PUSH4 0xFFA1AD74 EQ PUSH2 0x5CC JUMPI JUMPDEST PUSH1 0x0 DUP1 REVERT JUMPDEST CALLVALUE DUP1 ISZERO PUSH2 0x1A6 JUMPI PUSH1 0x0 DUP1 REVERT JUMPDEST POP PUSH2 0x1BA PUSH2 0x1B5 CALLDATASIZE PUSH1 0x4 PUSH2 0x3C8E JUMP JUMPDEST PUSH2 0x5E1 JUMP JUMPDEST PUSH1 0x40 MLOAD PUSH2 0x1C7 SWAP2 SWAP1 PUSH2 0x42F2 JUMP JUMPDEST PUSH1 0x40 MLOAD DUP1 SWAP2 SUB SWAP1 RETURN JUMPDEST CALLVALUE DUP1 ISZERO PUSH2 0x1DC JUMPI PUSH1 0x0 DUP1 REVERT JUMPDEST POP PUSH2 0x1F0 PUSH2 0x1EB CALLDATASIZE PUSH1 0x4 PUSH2 0x3B93 JUMP JUMPDEST PUSH2 0x5F3 JUMP JUMPDEST STOP JUMPDEST CALLVALUE DUP1 ISZERO PUSH2 0x1FE JUMPI PUSH1 0x0 DUP1 REVERT JUMPDEST POP PUSH2 0x212 PUSH2 0x20D CALLDATASIZE PUSH1 0x4 PUSH2 0x3C8E JUMP JUMPDEST PUSH2 0x65E JUMP JUMPDEST PUSH1 0x40 MLOAD PUSH2 0x1C7 SWAP2 SWAP1 PUSH2 0x41AD JUMP JUMPDEST CALLVALUE DUP1 ISZERO PUSH2 0x22B JUMPI PUSH1 0x0 DUP1 REVERT JUMPDEST POP PUSH2 0x1F0 PUSH2 0x23A CALLDATASIZE PUSH1 0x4 PUSH2 0x3CCB JUMP JUMPDEST PUSH2 0x673 JUMP JUMPDEST CALLVALUE DUP1 ISZERO PUSH2 0x24B JUMPI PUSH1 0x0 DUP1 REVERT JUMPDEST POP PUSH2 0x25F PUSH2 0x25A CALLDATASIZE PUSH1 0x4 PUSH2 0x3F33 JUMP JUMPDEST PUSH2 0x741 JUMP JUMPDEST PUSH1 0x40 MLOAD PUSH2 0x1C7 SWAP2 SWAP1 PUSH2 0x42A9 JUMP JUMPDEST CALLVALUE DUP1 ISZERO PUSH2 0x278 JUMPI PUSH1 0x0 DUP1 REVERT JUMPDEST POP PUSH2 0x28C PUSH2 0x287 CALLDATASIZE PUSH1 0x4 PUSH2 0x3D68 JUMP JUMPDEST PUSH2 0x75C JUMP JUMPDEST PUSH1 0x40 MLOAD PUSH2 0x1C7 SWAP2 SWAP1 PUSH2 0x42D5 JUMP JUMPDEST CALLVALUE DUP1 ISZERO PUSH2 0x2A5 JUMPI PUSH1 0x0 DUP1 REVERT JUMPDEST POP PUSH2 0x2B9 PUSH2 0x2B4 CALLDATASIZE PUSH1 0x4 PUSH2 0x3E28 JUMP JUMPDEST PUSH2 0x848 JUMP JUMPDEST PUSH1 0x40 MLOAD PUSH2 0x1C7 SWAP2 SWAP1 PUSH2 0x42C7 JUMP JUMPDEST CALLVALUE DUP1 ISZERO PUSH2 0x2D2 JUMPI PUSH1 0x0 DUP1 REVERT JUMPDEST POP PUSH2 0x1F0 PUSH2 0x2E1 CALLDATASIZE PUSH1 0x4 PUSH2 0x3B5E JUMP JUMPDEST PUSH2 0xA58 JUMP JUMPDEST CALLVALUE DUP1 ISZERO PUSH2 0x2F2 JUMPI PUSH1 0x0 DUP1 REVERT JUMPDEST POP PUSH2 0x1F0 PUSH2 0x301 CALLDATASIZE PUSH1 0x4 PUSH2 0x3B93 JUMP JUMPDEST PUSH2 0xA90 JUMP JUMPDEST CALLVALUE DUP1 ISZERO PUSH2 0x312 JUMPI PUSH1 0x0 DUP1 REVERT JUMPDEST POP PUSH2 0x1F0 PUSH2 0x321 CALLDATASIZE PUSH1 0x4 PUSH2 0x3C8E JUMP JUMPDEST PUSH2 0xAF5 JUMP JUMPDEST CALLVALUE DUP1 ISZERO PUSH2 0x332 JUMPI PUSH1 0x0 DUP1 REVERT JUMPDEST POP PUSH2 0x1F0 PUSH2 0x341 CALLDATASIZE PUSH1 0x4 PUSH2 0x3B93 JUMP JUMPDEST PUSH2 0xBDC JUMP JUMPDEST CALLVALUE DUP1 ISZERO PUSH2 0x352 JUMPI PUSH1 0x0 DUP1 REVERT JUMPDEST POP PUSH2 0x1F0 PUSH2 0x361 CALLDATASIZE PUSH1 0x4 PUSH2 0x3F6F JUMP JUMPDEST PUSH2 0xC41 JUMP JUMPDEST CALLVALUE DUP1 ISZERO PUSH2 0x372 JUMPI PUSH1 0x0 DUP1 REVERT JUMPDEST POP PUSH2 0x212 PUSH2 0x381 CALLDATASIZE PUSH1 0x4 PUSH2 0x3C8E JUMP JUMPDEST PUSH2 0xE71 JUMP JUMPDEST CALLVALUE DUP1 ISZERO PUSH2 0x392 JUMPI PUSH1 0x0 DUP1 REVERT JUMPDEST POP PUSH2 0x2B9 PUSH2 0x3A1 CALLDATASIZE PUSH1 0x4 PUSH2 0x3E28 JUMP JUMPDEST PUSH2 0xE86 JUMP JUMPDEST CALLVALUE DUP1 ISZERO PUSH2 0x3B2 JUMPI PUSH1 0x0 DUP1 REVERT JUMPDEST POP PUSH2 0x1BA PUSH2 0x3C1 CALLDATASIZE PUSH1 0x4 PUSH2 0x3AD6 JUMP JUMPDEST PUSH2 0xF03 JUMP JUMPDEST CALLVALUE DUP1 ISZERO PUSH2 0x3D2 JUMPI PUSH1 0x0 DUP1 REVERT JUMPDEST POP PUSH2 0x1F0 PUSH2 0x3E1 CALLDATASIZE PUSH1 0x4 PUSH2 0x3B2E JUMP JUMPDEST PUSH2 0xF15 JUMP JUMPDEST CALLVALUE DUP1 ISZERO PUSH2 0x3F2 JUMPI PUSH1 0x0 DUP1 REVERT JUMPDEST POP PUSH2 0x212 PUSH2 0x401 CALLDATASIZE PUSH1 0x4 PUSH2 0x3AF4 JUMP JUMPDEST PUSH2 0xF5A JUMP JUMPDEST CALLVALUE DUP1 ISZERO PUSH2 0x412 JUMPI PUSH1 0x0 DUP1 REVERT JUMPDEST POP PUSH2 0x2B9 PUSH2 0x421 CALLDATASIZE PUSH1 0x4 PUSH2 0x3C27 JUMP JUMPDEST PUSH2 0xF7A JUMP JUMPDEST CALLVALUE DUP1 ISZERO PUSH2 0x432 JUMPI PUSH1 0x0 DUP1 REVERT JUMPDEST POP PUSH2 0x212 PUSH2 0x441 CALLDATASIZE PUSH1 0x4 PUSH2 0x3CAC JUMP JUMPDEST PUSH2 0x1052 JUMP JUMPDEST CALLVALUE DUP1 ISZERO PUSH2 0x452 JUMPI PUSH1 0x0 DUP1 REVERT JUMPDEST POP PUSH2 0x45B PUSH2 0x1072 JUMP JUMPDEST PUSH1 0x40 MLOAD PUSH2 0x1C7 SWAP2 SWAP1 PUSH2 0x412A JUMP JUMPDEST CALLVALUE DUP1 ISZERO PUSH2 0x474 JUMPI PUSH1 0x0 DUP1 REVERT JUMPDEST POP PUSH2 0x45B PUSH2 0x483 CALLDATASIZE PUSH1 0x4 PUSH2 0x3F33 JUMP JUMPDEST PUSH2 0x1081 JUMP JUMPDEST CALLVALUE DUP1 ISZERO PUSH2 0x494 JUMPI PUSH1 0x0 DUP1 REVERT JUMPDEST POP PUSH2 0x2B9 PUSH2 0x4A3 CALLDATASIZE PUSH1 0x4 PUSH2 0x3C27 JUMP JUMPDEST PUSH2 0x109F JUMP JUMPDEST CALLVALUE DUP1 ISZERO PUSH2 0x4B4 JUMPI PUSH1 0x0 DUP1 REVERT JUMPDEST POP PUSH2 0x2B9 PUSH2 0x4C3 CALLDATASIZE PUSH1 0x4 PUSH2 0x3E28 JUMP JUMPDEST PUSH2 0x11AF JUMP JUMPDEST CALLVALUE DUP1 ISZERO PUSH2 0x4D4 JUMPI PUSH1 0x0 DUP1 REVERT JUMPDEST POP PUSH2 0x1F0 PUSH2 0x4E3 CALLDATASIZE PUSH1 0x4 PUSH2 0x3E9A JUMP JUMPDEST PUSH2 0x1233 JUMP JUMPDEST CALLVALUE DUP1 ISZERO PUSH2 0x4F4 JUMPI PUSH1 0x0 DUP1 REVERT JUMPDEST POP PUSH2 0x508 PUSH2 0x503 CALLDATASIZE PUSH1 0x4 PUSH2 0x3D33 JUMP JUMPDEST PUSH2 0x1565 JUMP JUMPDEST PUSH1 0x40 MLOAD PUSH2 0x1C7 SWAP2 SWAP1 PUSH2 0x42E4 JUMP JUMPDEST CALLVALUE DUP1 ISZERO PUSH2 0x521 JUMPI PUSH1 0x0 DUP1 REVERT JUMPDEST POP PUSH2 0x1F0 PUSH2 0x530 CALLDATASIZE PUSH1 0x4 PUSH2 0x3D33 JUMP JUMPDEST PUSH2 0x1641 JUMP JUMPDEST CALLVALUE DUP1 ISZERO PUSH2 0x541 JUMPI PUSH1 0x0 DUP1 REVERT JUMPDEST POP PUSH2 0x54A PUSH2 0x166C JUMP JUMPDEST PUSH1 0x40 MLOAD PUSH2 0x1C7 SWAP2 SWAP1 PUSH2 0x4246 JUMP JUMPDEST CALLVALUE DUP1 ISZERO PUSH2 0x563 JUMPI PUSH1 0x0 DUP1 REVERT JUMPDEST POP PUSH2 0x2B9 PUSH2 0x572 CALLDATASIZE PUSH1 0x4 PUSH2 0x3C27 JUMP JUMPDEST PUSH2 0x16FA JUMP JUMPDEST CALLVALUE DUP1 ISZERO PUSH2 0x583 JUMPI PUSH1 0x0 DUP1 REVERT JUMPDEST POP PUSH2 0x2B9 PUSH2 0x592 CALLDATASIZE PUSH1 0x4 PUSH2 0x3C27 JUMP JUMPDEST PUSH2 0x17C0 JUMP JUMPDEST CALLVALUE DUP1 ISZERO PUSH2 0x5A3 JUMPI PUSH1 0x0 DUP1 REVERT JUMPDEST POP PUSH2 0x45B PUSH2 0x189B JUMP JUMPDEST CALLVALUE DUP1 ISZERO PUSH2 0x5B8 JUMPI PUSH1 0x0 DUP1 REVERT JUMPDEST POP PUSH2 0x1F0 PUSH2 0x5C7 CALLDATASIZE PUSH1 0x4 PUSH2 0x3AD6 JUMP JUMPDEST PUSH2 0x18AA JUMP JUMPDEST CALLVALUE DUP1 ISZERO PUSH2 0x5D8 JUMPI PUSH1 0x0 DUP1 REVERT JUMPDEST POP PUSH2 0x54A PUSH2 0x1912 JUMP JUMPDEST PUSH1 0x2 PUSH1 0x20 MSTORE PUSH1 0x0 SWAP1 DUP2 MSTORE PUSH1 0x40 SWAP1 KECCAK256 SLOAD DUP2 JUMP JUMPDEST PUSH1 0x0 JUMPDEST DUP4 MLOAD DUP2 LT ISZERO PUSH2 0x658 JUMPI PUSH2 0x64F DUP5 DUP3 DUP2 MLOAD DUP2 LT ISZERO ISZERO PUSH2 0x610 JUMPI INVALID JUMPDEST SWAP1 PUSH1 0x20 ADD SWAP1 PUSH1 0x20 MUL ADD MLOAD DUP5 DUP4 DUP2 MLOAD DUP2 LT ISZERO ISZERO PUSH2 0x628 JUMPI INVALID JUMPDEST SWAP1 PUSH1 0x20 ADD SWAP1 PUSH1 0x20 MUL ADD MLOAD DUP5 DUP5 DUP2 MLOAD DUP2 LT ISZERO ISZERO PUSH2 0x640 JUMPI INVALID JUMPDEST SWAP1 PUSH1 0x20 ADD SWAP1 PUSH1 0x20 MUL ADD MLOAD PUSH2 0x11AF JUMP JUMPDEST POP PUSH1 0x1 ADD PUSH2 0x5F6 JUMP JUMPDEST POP POP POP POP JUMP JUMPDEST PUSH1 0x3 PUSH1 0x20 MSTORE PUSH1 0x0 SWAP1 DUP2 MSTORE PUSH1 0x40 SWAP1 KECCAK256 SLOAD PUSH1 0xFF AND DUP2 JUMP JUMPDEST PUSH2 0x6AE DUP5 DUP5 DUP5 DUP5 DUP1 DUP1 PUSH1 0x1F ADD PUSH1 0x20 DUP1 SWAP2 DIV MUL PUSH1 0x20 ADD PUSH1 0x40 MLOAD SWAP1 DUP2 ADD PUSH1 0x40 MSTORE DUP1 SWAP4 SWAP3 SWAP2 SWAP1 DUP2 DUP2 MSTORE PUSH1 0x20 ADD DUP4 DUP4 DUP1 DUP3 DUP5 CALLDATACOPY POP PUSH2 0x1949 SWAP5 POP POP POP POP POP JUMP JUMPDEST PUSH1 0x40 DUP1 MLOAD DUP1 DUP3 ADD SWAP1 SWAP2 MSTORE PUSH1 0x11 DUP2 MSTORE PUSH32 0x494E56414C49445F5349474E4154555245000000000000000000000000000000 PUSH1 0x20 DUP3 ADD MSTORE SWAP1 ISZERO ISZERO PUSH2 0x70E JUMPI PUSH1 0x40 MLOAD PUSH1 0xE5 PUSH1 0x2 EXP PUSH3 0x461BCD MUL DUP2 MSTORE PUSH1 0x4 ADD PUSH2 0x705 SWAP2 SWAP1 PUSH2 0x4246 JUMP JUMPDEST PUSH1 0x40 MLOAD DUP1 SWAP2 SUB SWAP1 REVERT JUMPDEST POP POP POP PUSH1 0x0 SWAP2 DUP3 MSTORE PUSH1 0x5 PUSH1 0x20 SWAP1 DUP2 MSTORE PUSH1 0x40 DUP1 DUP5 KECCAK256 PUSH1 0x1 PUSH1 0xA0 PUSH1 0x2 EXP SUB SWAP1 SWAP4 AND DUP5 MSTORE SWAP2 SWAP1 MSTORE SWAP1 KECCAK256 DUP1 SLOAD PUSH1 0xFF NOT AND PUSH1 0x1 OR SWAP1 SSTORE JUMP JUMPDEST PUSH1 0x9 PUSH1 0x20 MSTORE PUSH1 0x0 SWAP1 DUP2 MSTORE PUSH1 0x40 SWAP1 KECCAK256 SLOAD PUSH1 0x1 PUSH1 0xA0 PUSH1 0x2 EXP SUB AND DUP2 JUMP JUMPDEST PUSH2 0x764 PUSH2 0x36FC JUMP JUMPDEST PUSH2 0x76C PUSH2 0x372B JUMP JUMPDEST PUSH2 0x774 PUSH2 0x372B JUMP JUMPDEST PUSH2 0x160 DUP1 DUP9 ADD MLOAD PUSH2 0x140 DUP1 DUP10 ADD SWAP2 SWAP1 SWAP2 MSTORE DUP9 ADD MLOAD SWAP1 DUP8 ADD MSTORE PUSH1 0x0 PUSH2 0x797 DUP9 PUSH2 0x1565 JUMP JUMPDEST SWAP3 POP PUSH2 0x7A2 DUP8 PUSH2 0x1565 JUMP JUMPDEST SWAP2 POP PUSH2 0x7AC PUSH2 0x2125 JUMP JUMPDEST SWAP1 POP PUSH2 0x7B8 DUP9 DUP9 PUSH2 0x2154 JUMP JUMPDEST PUSH2 0x7CC DUP9 DUP9 DUP6 PUSH1 0x40 ADD MLOAD DUP6 PUSH1 0x40 ADD MLOAD PUSH2 0x21D4 JUMP JUMPDEST DUP1 MLOAD PUSH1 0x20 ADD MLOAD SWAP1 SWAP5 POP PUSH2 0x7E6 SWAP1 DUP10 SWAP1 DUP6 SWAP1 DUP5 SWAP1 DUP1 DUP12 PUSH2 0x2298 JUMP JUMPDEST PUSH1 0x20 DUP1 DUP6 ADD MLOAD ADD MLOAD PUSH2 0x7FF SWAP1 DUP9 SWAP1 DUP5 SWAP1 DUP5 SWAP1 DUP1 DUP11 PUSH2 0x2298 JUMP JUMPDEST PUSH2 0x818 DUP9 DUP3 DUP6 PUSH1 0x20 ADD MLOAD DUP7 PUSH1 0x40 ADD MLOAD DUP9 PUSH1 0x0 ADD MLOAD PUSH2 0x2538 JUMP JUMPDEST PUSH2 0x831 DUP8 DUP3 DUP5 PUSH1 0x20 ADD MLOAD DUP6 PUSH1 0x40 ADD MLOAD DUP9 PUSH1 0x20 ADD MLOAD PUSH2 0x2538 JUMP JUMPDEST PUSH2 0x83D DUP9 DUP9 DUP4 DUP8 PUSH2 0x25D7 JUMP JUMPDEST POP POP POP SWAP5 SWAP4 POP POP POP POP JUMP JUMPDEST PUSH2 0x850 PUSH2 0x374B JUMP JUMPDEST PUSH1 0x40 DUP1 MLOAD PUSH32 0xB4BE83D500000000000000000000000000000000000000000000000000000000 DUP1 DUP3 MSTORE PUSH1 0x60 PUSH1 0x4 DUP4 ADD DUP2 DUP2 MSTORE DUP9 MLOAD PUSH1 0x64 DUP6 ADD SWAP1 DUP2 MSTORE PUSH1 0x20 DUP1 DUP12 ADD MLOAD PUSH1 0x84 DUP8 ADD MSTORE SWAP6 DUP11 ADD MLOAD PUSH1 0xA4 DUP7 ADD MSTORE SWAP2 DUP10 ADD MLOAD PUSH1 0xC4 DUP6 ADD MSTORE PUSH1 0x80 DUP10 ADD MLOAD PUSH1 0xE4 DUP6 ADD MSTORE PUSH1 0xA0 DUP10 ADD MLOAD PUSH2 0x104 DUP6 ADD MSTORE PUSH1 0xC0 DUP10 ADD MLOAD PUSH2 0x124 DUP6 ADD MSTORE PUSH1 0xE0 DUP10 ADD MLOAD PUSH2 0x144 DUP6 ADD MSTORE PUSH2 0x100 DUP10 ADD MLOAD PUSH2 0x164 DUP6 ADD MSTORE PUSH2 0x120 DUP10 ADD MLOAD PUSH2 0x184 DUP6 ADD MSTORE PUSH2 0x140 DUP10 ADD DUP1 MLOAD PUSH2 0x1A4 DUP7 ADD SWAP1 DUP2 MSTORE PUSH2 0x160 DUP12 ADD MLOAD PUSH2 0x1C4 DUP8 ADD MSTORE PUSH2 0x180 SWAP1 MSTORE MLOAD DUP1 MLOAD PUSH2 0x1E4 DUP7 ADD DUP2 SWAP1 MSTORE SWAP4 SWAP6 SWAP2 SWAP4 DUP5 SWAP4 SWAP3 PUSH1 0x24 DUP8 ADD SWAP3 DUP5 SWAP3 PUSH2 0x204 DUP10 ADD SWAP3 SWAP2 DUP3 ADD SWAP2 PUSH1 0x1F DUP3 ADD DIV PUSH1 0x0 JUMPDEST DUP2 DUP2 LT ISZERO PUSH2 0x953 JUMPI DUP4 MLOAD DUP6 MSTORE PUSH1 0x20 SWAP5 DUP6 ADD SWAP5 SWAP1 SWAP4 ADD SWAP3 PUSH1 0x1 ADD PUSH2 0x935 JUMP JUMPDEST POP POP POP POP DUP2 DUP2 SUB PUSH2 0x160 DUP1 DUP5 ADD SWAP2 SWAP1 SWAP2 MSTORE DUP13 ADD MLOAD DUP1 MLOAD DUP1 DUP4 MSTORE PUSH1 0x20 SWAP3 DUP4 ADD SWAP3 SWAP2 DUP3 ADD SWAP2 PUSH1 0x1F DUP3 ADD DIV PUSH1 0x0 JUMPDEST DUP2 DUP2 LT ISZERO PUSH2 0x99C JUMPI DUP4 MLOAD DUP6 MSTORE PUSH1 0x20 SWAP5 DUP6 ADD SWAP5 SWAP1 SWAP4 ADD SWAP3 PUSH1 0x1 ADD PUSH2 0x97E JUMP JUMPDEST POP POP POP DUP12 DUP5 MSTORE POP DUP5 DUP2 SUB PUSH1 0x20 SWAP4 DUP5 ADD SWAP1 DUP2 MSTORE DUP11 MLOAD DUP1 DUP4 MSTORE SWAP1 SWAP4 SWAP2 DUP3 ADD SWAP2 DUP12 DUP2 ADD SWAP2 SWAP1 PUSH1 0x1F DUP3 ADD DIV PUSH1 0x0 JUMPDEST DUP2 DUP2 LT ISZERO PUSH2 0x9E4 JUMPI DUP4 MLOAD DUP6 MSTORE PUSH1 0x20 SWAP5 DUP6 ADD SWAP5 SWAP1 SWAP4 ADD SWAP3 PUSH1 0x1 ADD PUSH2 0x9C6 JUMP JUMPDEST POP PUSH1 0x80 DUP11 DUP12 DUP7 SUB DUP13 ADDRESS GAS DELEGATECALL DUP1 DUP1 ISZERO PUSH2 0xA03 JUMPI PUSH1 0x1 DUP2 EQ PUSH2 0xA21 JUMPI PUSH2 0xA44 JUMP JUMPDEST PUSH1 0x0 DUP15 MSTORE PUSH1 0x0 PUSH1 0x20 DUP16 ADD MSTORE PUSH1 0x0 PUSH1 0x40 DUP16 ADD MSTORE PUSH1 0x0 PUSH1 0x60 DUP16 ADD MSTORE PUSH2 0xA44 JUMP JUMPDEST DUP12 MLOAD DUP15 MSTORE PUSH1 0x20 DUP13 ADD MLOAD PUSH1 0x20 DUP16 ADD MSTORE PUSH1 0x40 DUP13 ADD MLOAD PUSH1 0x40 DUP16 ADD MSTORE PUSH1 0x60 DUP13 ADD MLOAD PUSH1 0x60 DUP16 ADD MSTORE JUMPDEST POP POP POP POP POP POP POP POP POP POP POP POP POP SWAP4 SWAP3 POP POP POP JUMP JUMPDEST PUSH1 0x0 JUMPDEST DUP2 MLOAD DUP2 LT ISZERO PUSH2 0xA8C JUMPI PUSH2 0xA84 DUP3 DUP3 DUP2 MLOAD DUP2 LT ISZERO ISZERO PUSH2 0xA75 JUMPI INVALID JUMPDEST SWAP1 PUSH1 0x20 ADD SWAP1 PUSH1 0x20 MUL ADD MLOAD PUSH2 0x1641 JUMP JUMPDEST PUSH1 0x1 ADD PUSH2 0xA5B JUMP JUMPDEST POP POP JUMP JUMPDEST PUSH1 0x0 JUMPDEST DUP4 MLOAD DUP2 LT ISZERO PUSH2 0x658 JUMPI PUSH2 0xAEC DUP5 DUP3 DUP2 MLOAD DUP2 LT ISZERO ISZERO PUSH2 0xAAD JUMPI INVALID JUMPDEST SWAP1 PUSH1 0x20 ADD SWAP1 PUSH1 0x20 MUL ADD MLOAD DUP5 DUP4 DUP2 MLOAD DUP2 LT ISZERO ISZERO PUSH2 0xAC5 JUMPI INVALID JUMPDEST SWAP1 PUSH1 0x20 ADD SWAP1 PUSH1 0x20 MUL ADD MLOAD DUP5 DUP5 DUP2 MLOAD DUP2 LT ISZERO ISZERO PUSH2 0xADD JUMPI INVALID JUMPDEST SWAP1 PUSH1 0x20 ADD SWAP1 PUSH1 0x20 MUL ADD MLOAD PUSH2 0xE86 JUMP JUMPDEST POP PUSH1 0x1 ADD PUSH2 0xA93 JUMP JUMPDEST PUSH1 0x0 DUP1 PUSH1 0x0 PUSH2 0xB02 PUSH2 0x2125 JUMP JUMPDEST PUSH1 0x1 PUSH1 0xA0 PUSH1 0x2 EXP SUB DUP2 AND PUSH1 0x0 SWAP1 DUP2 MSTORE PUSH1 0x4 PUSH1 0x20 SWAP1 DUP2 MSTORE PUSH1 0x40 SWAP2 DUP3 SWAP1 KECCAK256 SLOAD DUP3 MLOAD DUP1 DUP5 ADD SWAP1 SWAP4 MSTORE PUSH1 0x17 DUP4 MSTORE PUSH32 0x494E56414C49445F4E45575F4D414B45525F45504F4348000000000000000000 SWAP2 DUP4 ADD SWAP2 SWAP1 SWAP2 MSTORE SWAP2 SWAP5 POP PUSH1 0x1 DUP7 ADD SWAP4 POP SWAP1 SWAP2 POP DUP2 DUP4 GT PUSH2 0xB82 JUMPI PUSH1 0x40 MLOAD PUSH1 0xE5 PUSH1 0x2 EXP PUSH3 0x461BCD MUL DUP2 MSTORE PUSH1 0x4 ADD PUSH2 0x705 SWAP2 SWAP1 PUSH2 0x4246 JUMP JUMPDEST POP PUSH1 0x1 PUSH1 0xA0 PUSH1 0x2 EXP SUB DUP4 AND PUSH1 0x0 DUP2 DUP2 MSTORE PUSH1 0x4 PUSH1 0x20 MSTORE PUSH1 0x40 SWAP1 DUP2 SWAP1 KECCAK256 DUP5 SWAP1 SSTORE MLOAD PUSH32 0x666A5047451D0C744E58819166260F8048FE2786E33B3C1115AF94887A451CA7 SWAP1 PUSH2 0xBCE SWAP1 DUP6 SWAP1 PUSH2 0x42F2 JUMP JUMPDEST PUSH1 0x40 MLOAD DUP1 SWAP2 SUB SWAP1 LOG2 POP POP POP POP JUMP JUMPDEST PUSH1 0x0 JUMPDEST DUP4 MLOAD DUP2 LT ISZERO PUSH2 0x658 JUMPI PUSH2 0xC38 DUP5 DUP3 DUP2 MLOAD DUP2 LT ISZERO ISZERO PUSH2 0xBF9 JUMPI INVALID JUMPDEST SWAP1 PUSH1 0x20 ADD SWAP1 PUSH1 0x20 MUL ADD MLOAD DUP5 DUP4 DUP2 MLOAD DUP2 LT ISZERO ISZERO PUSH2 0xC11 JUMPI INVALID JUMPDEST SWAP1 PUSH1 0x20 ADD SWAP1 PUSH1 0x20 MUL ADD MLOAD DUP5 DUP5 DUP2 MLOAD DUP2 LT ISZERO ISZERO PUSH2 0xC29 JUMPI INVALID JUMPDEST SWAP1 PUSH1 0x20 ADD SWAP1 PUSH1 0x20 MUL ADD MLOAD PUSH2 0x848 JUMP JUMPDEST POP PUSH1 0x1 ADD PUSH2 0xBDF JUMP JUMPDEST PUSH1 0x1 SLOAD PUSH1 0x0 SWAP1 DUP2 SWAP1 DUP2 SWAP1 PUSH1 0x1 PUSH1 0xA0 PUSH1 0x2 EXP SUB AND CALLER EQ PUSH2 0xC75 JUMPI PUSH1 0x40 MLOAD PUSH1 0xE5 PUSH1 0x2 EXP PUSH3 0x461BCD MUL DUP2 MSTORE PUSH1 0x4 ADD PUSH2 0x705 SWAP1 PUSH2 0x42B7 JUMP JUMPDEST PUSH1 0xFF DUP7 AND PUSH1 0x0 SWAP1 DUP2 MSTORE PUSH1 0x9 PUSH1 0x20 SWAP1 DUP2 MSTORE PUSH1 0x40 SWAP2 DUP3 SWAP1 KECCAK256 SLOAD DUP3 MLOAD DUP1 DUP5 ADD SWAP1 SWAP4 MSTORE PUSH1 0x14 DUP4 MSTORE PUSH32 0x41535345545F50524F58595F4D49534D41544348000000000000000000000000 SWAP2 DUP4 ADD SWAP2 SWAP1 SWAP2 MSTORE PUSH1 0x1 PUSH1 0xA0 PUSH1 0x2 EXP SUB SWAP1 DUP2 AND SWAP5 POP DUP6 AND DUP5 EQ PUSH2 0xCF1 JUMPI PUSH1 0x40 MLOAD PUSH1 0xE5 PUSH1 0x2 EXP PUSH3 0x461BCD MUL DUP2 MSTORE PUSH1 0x4 ADD PUSH2 0x705 SWAP2 SWAP1 PUSH2 0x4246 JUMP JUMPDEST POP DUP5 SWAP2 POP PUSH1 0x1 PUSH1 0xA0 PUSH1 0x2 EXP SUB DUP3 AND ISZERO PUSH2 0xDF5 JUMPI DUP2 PUSH1 0x1 PUSH1 0xA0 PUSH1 0x2 EXP SUB AND PUSH4 0xAE25532E PUSH1 0x40 MLOAD DUP2 PUSH4 0xFFFFFFFF AND PUSH29 0x100000000000000000000000000000000000000000000000000000000 MUL DUP2 MSTORE PUSH1 0x4 ADD PUSH1 0x20 PUSH1 0x40 MLOAD DUP1 DUP4 SUB DUP2 PUSH1 0x0 DUP8 DUP1 EXTCODESIZE ISZERO DUP1 ISZERO PUSH2 0xD5B JUMPI PUSH1 0x0 DUP1 REVERT JUMPDEST POP GAS CALL ISZERO DUP1 ISZERO PUSH2 0xD6F JUMPI RETURNDATASIZE PUSH1 0x0 DUP1 RETURNDATACOPY RETURNDATASIZE PUSH1 0x0 REVERT JUMPDEST POP POP POP POP PUSH1 0x40 MLOAD RETURNDATASIZE PUSH1 0x1F NOT PUSH1 0x1F DUP3 ADD AND DUP3 ADD DUP1 PUSH1 0x40 MSTORE POP PUSH2 0xD93 SWAP2 SWAP1 DUP2 ADD SWAP1 PUSH2 0x3F51 JUMP JUMPDEST PUSH1 0x40 DUP1 MLOAD DUP1 DUP3 ADD SWAP1 SWAP2 MSTORE PUSH1 0x17 DUP2 MSTORE PUSH32 0x41535345545F50524F58595F49445F4D49534D41544348000000000000000000 PUSH1 0x20 DUP3 ADD MSTORE SWAP1 SWAP2 POP PUSH1 0xFF DUP1 DUP4 AND SWAP1 DUP9 AND EQ PUSH2 0xDF3 JUMPI PUSH1 0x40 MLOAD PUSH1 0xE5 PUSH1 0x2 EXP PUSH3 0x461BCD MUL DUP2 MSTORE PUSH1 0x4 ADD PUSH2 0x705 SWAP2 SWAP1 PUSH2 0x4246 JUMP JUMPDEST POP JUMPDEST PUSH1 0xFF DUP7 AND PUSH1 0x0 SWAP1 DUP2 MSTORE PUSH1 0x9 PUSH1 0x20 MSTORE PUSH1 0x40 SWAP1 DUP2 SWAP1 KECCAK256 DUP1 SLOAD PUSH20 0xFFFFFFFFFFFFFFFFFFFFFFFFFFFFFFFFFFFFFFFF NOT AND PUSH1 0x1 PUSH1 0xA0 PUSH1 0x2 EXP SUB DUP6 AND OR SWAP1 SSTORE MLOAD PUSH32 0x27EF5F484E50F2DAF7C2D82C60FE4CE409009541176EB64095BEAC369DB1D260 SWAP1 PUSH2 0xE61 SWAP1 DUP9 SWAP1 DUP9 SWAP1 DUP9 SWAP1 PUSH2 0x4300 JUMP JUMPDEST PUSH1 0x40 MLOAD DUP1 SWAP2 SUB SWAP1 LOG1 POP POP POP POP POP POP JUMP JUMPDEST PUSH1 0x7 PUSH1 0x20 MSTORE PUSH1 0x0 SWAP1 DUP2 MSTORE PUSH1 0x40 SWAP1 KECCAK256 SLOAD PUSH1 0xFF AND DUP2 JUMP JUMPDEST PUSH2 0xE8E PUSH2 0x374B JUMP JUMPDEST PUSH2 0xE99 DUP5 DUP5 DUP5 PUSH2 0x11AF JUMP JUMPDEST SWAP1 POP DUP3 DUP2 PUSH1 0x20 ADD MLOAD EQ PUSH1 0x40 DUP1 MLOAD SWAP1 DUP2 ADD PUSH1 0x40 MSTORE DUP1 PUSH1 0x14 DUP2 MSTORE PUSH1 0x20 ADD PUSH32 0x434F4D504C4554455F46494C4C5F4641494C4544000000000000000000000000 DUP2 MSTORE POP SWAP1 ISZERO ISZERO PUSH2 0xEFB JUMPI PUSH1 0x40 MLOAD PUSH1 0xE5 PUSH1 0x2 EXP PUSH3 0x461BCD MUL DUP2 MSTORE PUSH1 0x4 ADD PUSH2 0x705 SWAP2 SWAP1 PUSH2 0x4246 JUMP JUMPDEST POP SWAP4 SWAP3 POP POP POP JUMP JUMPDEST PUSH1 0x4 PUSH1 0x20 MSTORE PUSH1 0x0 SWAP1 DUP2 MSTORE PUSH1 0x40 SWAP1 KECCAK256 SLOAD DUP2 JUMP JUMPDEST PUSH1 0x0 PUSH2 0xF1F PUSH2 0x2125 JUMP JUMPDEST PUSH1 0x1 PUSH1 0xA0 PUSH1 0x2 EXP SUB SWAP1 DUP2 AND PUSH1 0x0 SWAP1 DUP2 MSTORE PUSH1 0x6 PUSH1 0x20 SWAP1 DUP2 MSTORE PUSH1 0x40 DUP1 DUP4 KECCAK256 SWAP7 SWAP1 SWAP4 AND DUP3 MSTORE SWAP5 SWAP1 SWAP5 MSTORE SWAP1 SWAP3 KECCAK256 DUP1 SLOAD PUSH1 0xFF NOT AND SWAP2 ISZERO ISZERO SWAP2 SWAP1 SWAP2 OR SWAP1 SSTORE POP JUMP JUMPDEST PUSH1 0x6 PUSH1 0x20 SWAP1 DUP2 MSTORE PUSH1 0x0 SWAP3 DUP4 MSTORE PUSH1 0x40 DUP1 DUP5 KECCAK256 SWAP1 SWAP2 MSTORE SWAP1 DUP3 MSTORE SWAP1 KECCAK256 SLOAD PUSH1 0xFF AND DUP2 JUMP JUMPDEST PUSH2 0xF82 PUSH2 0x374B JUMP JUMPDEST PUSH1 0x60 PUSH1 0x0 DUP1 PUSH2 0xF8F PUSH2 0x374B JUMP JUMPDEST DUP8 PUSH1 0x0 DUP2 MLOAD DUP2 LT ISZERO ISZERO PUSH2 0xF9E JUMPI INVALID JUMPDEST SWAP1 PUSH1 0x20 ADD SWAP1 PUSH1 0x20 MUL ADD MLOAD PUSH2 0x160 ADD MLOAD SWAP4 POP PUSH1 0x0 SWAP3 POP JUMPDEST DUP8 MLOAD DUP4 LT ISZERO PUSH2 0x1047 JUMPI DUP4 DUP9 DUP5 DUP2 MLOAD DUP2 LT ISZERO ISZERO PUSH2 0xFCC JUMPI INVALID JUMPDEST SWAP1 PUSH1 0x20 ADD SWAP1 PUSH1 0x20 MUL ADD MLOAD PUSH2 0x160 ADD DUP2 SWAP1 MSTORE POP PUSH2 0xFEC DUP8 DUP7 PUSH1 0x20 ADD MLOAD PUSH2 0x27B3 JUMP JUMPDEST SWAP2 POP PUSH2 0x1018 DUP9 DUP5 DUP2 MLOAD DUP2 LT ISZERO ISZERO PUSH2 0xFFF JUMPI INVALID JUMPDEST SWAP1 PUSH1 0x20 ADD SWAP1 PUSH1 0x20 MUL ADD MLOAD DUP4 DUP9 DUP7 DUP2 MLOAD DUP2 LT ISZERO ISZERO PUSH2 0x640 JUMPI INVALID JUMPDEST DUP5 MLOAD PUSH1 0x1 ADD DUP6 MSTORE SWAP1 POP PUSH2 0x102B DUP6 DUP3 PUSH2 0x27C5 JUMP JUMPDEST DUP7 DUP6 PUSH1 0x20 ADD MLOAD EQ ISZERO PUSH2 0x103C JUMPI PUSH2 0x1047 JUMP JUMPDEST PUSH1 0x1 SWAP1 SWAP3 ADD SWAP2 PUSH2 0xFB4 JUMP JUMPDEST POP POP POP POP SWAP4 SWAP3 POP POP POP JUMP JUMPDEST PUSH1 0x5 PUSH1 0x20 SWAP1 DUP2 MSTORE PUSH1 0x0 SWAP3 DUP4 MSTORE PUSH1 0x40 DUP1 DUP5 KECCAK256 SWAP1 SWAP2 MSTORE SWAP1 DUP3 MSTORE SWAP1 KECCAK256 SLOAD PUSH1 0xFF AND DUP2 JUMP JUMPDEST PUSH1 0x1 SLOAD PUSH1 0x1 PUSH1 0xA0 PUSH1 0x2 EXP SUB AND DUP2 JUMP JUMPDEST PUSH1 0xFF AND PUSH1 0x0 SWAP1 DUP2 MSTORE PUSH1 0x9 PUSH1 0x20 MSTORE PUSH1 0x40 SWAP1 KECCAK256 SLOAD PUSH1 0x1 PUSH1 0xA0 PUSH1 0x2 EXP SUB AND SWAP1 JUMP JUMPDEST PUSH2 0x10A7 PUSH2 0x374B JUMP JUMPDEST PUSH1 0x60 PUSH1 0x0 DUP1 PUSH1 0x0 PUSH2 0x10B6 PUSH2 0x374B JUMP JUMPDEST DUP9 PUSH1 0x0 DUP2 MLOAD DUP2 LT ISZERO ISZERO PUSH2 0x10C5 JUMPI INVALID JUMPDEST SWAP1 PUSH1 0x20 ADD SWAP1 PUSH1 0x20 MUL ADD MLOAD PUSH2 0x140 ADD MLOAD SWAP5 POP PUSH1 0x0 SWAP4 POP JUMPDEST DUP9 MLOAD DUP5 LT ISZERO PUSH2 0x11A3 JUMPI DUP5 DUP10 DUP6 DUP2 MLOAD DUP2 LT ISZERO ISZERO PUSH2 0x10F3 JUMPI INVALID JUMPDEST PUSH1 0x20 SWAP1 DUP2 MUL SWAP1 SWAP2 ADD ADD MLOAD PUSH2 0x140 ADD MSTORE DUP6 MLOAD PUSH2 0x110F SWAP1 DUP10 SWAP1 PUSH2 0x27B3 JUMP JUMPDEST SWAP3 POP PUSH2 0x1152 DUP10 DUP6 DUP2 MLOAD DUP2 LT ISZERO ISZERO PUSH2 0x1122 JUMPI INVALID JUMPDEST SWAP1 PUSH1 0x20 ADD SWAP1 PUSH1 0x20 MUL ADD MLOAD PUSH1 0xA0 ADD MLOAD DUP11 DUP7 DUP2 MLOAD DUP2 LT ISZERO ISZERO PUSH2 0x113E JUMPI INVALID JUMPDEST SWAP1 PUSH1 0x20 ADD SWAP1 PUSH1 0x20 MUL ADD MLOAD PUSH1 0x80 ADD MLOAD DUP6 PUSH2 0x2827 JUMP JUMPDEST SWAP2 POP PUSH2 0x117E DUP10 DUP6 DUP2 MLOAD DUP2 LT ISZERO ISZERO PUSH2 0x1165 JUMPI INVALID JUMPDEST SWAP1 PUSH1 0x20 ADD SWAP1 PUSH1 0x20 MUL ADD MLOAD DUP4 DUP10 DUP8 DUP2 MLOAD DUP2 LT ISZERO ISZERO PUSH2 0xC29 JUMPI INVALID JUMPDEST SWAP1 POP PUSH2 0x118A DUP7 DUP3 PUSH2 0x27C5 JUMP JUMPDEST DUP6 MLOAD DUP9 EQ ISZERO PUSH2 0x1198 JUMPI PUSH2 0x11A3 JUMP JUMPDEST PUSH1 0x1 SWAP1 SWAP4 ADD SWAP3 PUSH2 0x10DB JUMP JUMPDEST POP POP POP POP POP SWAP4 SWAP3 POP POP POP JUMP JUMPDEST PUSH2 0x11B7 PUSH2 0x374B JUMP JUMPDEST PUSH2 0x11BF PUSH2 0x372B JUMP JUMPDEST PUSH1 0x0 DUP1 PUSH1 0x0 PUSH2 0x11CD DUP9 PUSH2 0x1565 JUMP JUMPDEST SWAP4 POP PUSH2 0x11D7 PUSH2 0x2125 JUMP JUMPDEST SWAP3 POP PUSH2 0x11EB DUP9 PUSH1 0xA0 ADD MLOAD DUP6 PUSH1 0x40 ADD MLOAD PUSH2 0x27B3 JUMP JUMPDEST SWAP2 POP PUSH2 0x11F7 DUP8 DUP4 PUSH2 0x2844 JUMP JUMPDEST SWAP1 POP PUSH2 0x1207 DUP9 DUP6 DUP6 DUP11 DUP6 DUP12 PUSH2 0x2298 JUMP JUMPDEST PUSH2 0x1211 DUP9 DUP3 PUSH2 0x285C JUMP JUMPDEST SWAP5 POP PUSH2 0x1228 DUP9 DUP5 DUP7 PUSH1 0x20 ADD MLOAD DUP8 PUSH1 0x40 ADD MLOAD DUP10 PUSH2 0x2538 JUMP JUMPDEST PUSH2 0x1047 DUP9 DUP5 DUP8 PUSH2 0x28C6 JUMP JUMPDEST PUSH1 0x8 SLOAD PUSH1 0x40 DUP1 MLOAD DUP1 DUP3 ADD SWAP1 SWAP2 MSTORE PUSH1 0x12 DUP2 MSTORE PUSH32 0x5245454E5452414E43595F494C4C4547414C0000000000000000000000000000 PUSH1 0x20 DUP3 ADD MSTORE PUSH1 0x0 SWAP2 PUSH1 0x1 PUSH1 0xA0 PUSH1 0x2 EXP SUB AND ISZERO PUSH2 0x1297 JUMPI PUSH1 0x40 MLOAD PUSH1 0xE5 PUSH1 0x2 EXP PUSH3 0x461BCD MUL DUP2 MSTORE PUSH1 0x4 ADD PUSH2 0x705 SWAP2 SWAP1 PUSH2 0x4246 JUMP JUMPDEST POP ADDRESS DUP7 DUP9 DUP8 DUP8 PUSH1 0x40 MLOAD PUSH1 0x20 ADD DUP1 DUP7 PUSH1 0x1 PUSH1 0xA0 PUSH1 0x2 EXP SUB AND PUSH1 0x1 PUSH1 0xA0 PUSH1 0x2 EXP SUB AND PUSH13 0x1000000000000000000000000 MUL DUP2 MSTORE PUSH1 0x14 ADD DUP6 PUSH1 0x1 PUSH1 0xA0 PUSH1 0x2 EXP SUB AND PUSH1 0x1 PUSH1 0xA0 PUSH1 0x2 EXP SUB AND PUSH13 0x1000000000000000000000000 MUL DUP2 MSTORE PUSH1 0x14 ADD DUP5 DUP2 MSTORE PUSH1 0x20 ADD DUP4 DUP4 DUP1 DUP3 DUP5 CALLDATACOPY DUP3 ADD SWAP2 POP POP SWAP6 POP POP POP POP POP POP PUSH1 0x40 MLOAD PUSH1 0x20 DUP2 DUP4 SUB SUB DUP2 MSTORE SWAP1 PUSH1 0x40 MSTORE PUSH1 0x40 MLOAD DUP1 DUP3 DUP1 MLOAD SWAP1 PUSH1 0x20 ADD SWAP1 DUP1 DUP4 DUP4 JUMPDEST PUSH1 0x20 DUP4 LT PUSH2 0x1348 JUMPI DUP1 MLOAD DUP3 MSTORE PUSH1 0x1F NOT SWAP1 SWAP3 ADD SWAP2 PUSH1 0x20 SWAP2 DUP3 ADD SWAP2 ADD PUSH2 0x1329 JUMP JUMPDEST MLOAD DUP2 MLOAD PUSH1 0x20 SWAP4 DUP5 SUB PUSH2 0x100 EXP PUSH1 0x0 NOT ADD DUP1 NOT SWAP1 SWAP3 AND SWAP2 AND OR SWAP1 MSTORE PUSH1 0x40 DUP1 MLOAD SWAP3 SWAP1 SWAP5 ADD DUP3 SWAP1 SUB DUP3 KECCAK256 PUSH1 0x0 DUP2 DUP2 MSTORE PUSH1 0x7 DUP4 MSTORE DUP6 SWAP1 KECCAK256 SLOAD DUP4 DUP7 ADD SWAP1 SWAP6 MSTORE PUSH1 0xF DUP4 MSTORE PUSH32 0x494E56414C49445F54585F484153480000000000000000000000000000000000 SWAP2 DUP4 ADD SWAP2 SWAP1 SWAP2 MSTORE SWAP6 POP SWAP4 POP POP PUSH1 0xFF AND ISZERO SWAP1 POP PUSH2 0x13D9 JUMPI PUSH1 0x40 MLOAD PUSH1 0xE5 PUSH1 0x2 EXP PUSH3 0x461BCD MUL DUP2 MSTORE PUSH1 0x4 ADD PUSH2 0x705 SWAP2 SWAP1 PUSH2 0x4246 JUMP JUMPDEST POP PUSH1 0x1 PUSH1 0xA0 PUSH1 0x2 EXP SUB DUP7 AND CALLER EQ PUSH2 0x14A6 JUMPI PUSH2 0x1425 DUP2 DUP8 DUP6 DUP6 DUP1 DUP1 PUSH1 0x1F ADD PUSH1 0x20 DUP1 SWAP2 DIV MUL PUSH1 0x20 ADD PUSH1 0x40 MLOAD SWAP1 DUP2 ADD PUSH1 0x40 MSTORE DUP1 SWAP4 SWAP3 SWAP2 SWAP1 DUP2 DUP2 MSTORE PUSH1 0x20 ADD DUP4 DUP4 DUP1 DUP3 DUP5 CALLDATACOPY POP PUSH2 0x1949 SWAP5 POP POP POP POP POP JUMP JUMPDEST PUSH1 0x40 DUP1 MLOAD DUP1 DUP3 ADD SWAP1 SWAP2 MSTORE PUSH1 0x14 DUP2 MSTORE PUSH32 0x494E56414C49445F54585F5349474E4154555245000000000000000000000000 PUSH1 0x20 DUP3 ADD MSTORE SWAP1 ISZERO ISZERO PUSH2 0x147C JUMPI PUSH1 0x40 MLOAD PUSH1 0xE5 PUSH1 0x2 EXP PUSH3 0x461BCD MUL DUP2 MSTORE PUSH1 0x4 ADD PUSH2 0x705 SWAP2 SWAP1 PUSH2 0x4246 JUMP JUMPDEST POP PUSH1 0x8 DUP1 SLOAD PUSH20 0xFFFFFFFFFFFFFFFFFFFFFFFFFFFFFFFFFFFFFFFF NOT AND PUSH1 0x1 PUSH1 0xA0 PUSH1 0x2 EXP SUB DUP9 AND OR SWAP1 SSTORE JUMPDEST PUSH1 0x0 DUP2 DUP2 MSTORE PUSH1 0x7 PUSH1 0x20 MSTORE PUSH1 0x40 SWAP1 DUP2 SWAP1 KECCAK256 DUP1 SLOAD PUSH1 0xFF NOT AND PUSH1 0x1 OR SWAP1 SSTORE MLOAD ADDRESS SWAP1 DUP7 SWAP1 DUP7 SWAP1 DUP1 DUP4 DUP4 DUP1 DUP3 DUP5 CALLDATACOPY DUP3 ADD SWAP2 POP POP SWAP3 POP POP POP PUSH1 0x0 PUSH1 0x40 MLOAD DUP1 DUP4 SUB DUP2 DUP6 GAS DELEGATECALL PUSH1 0x40 DUP1 MLOAD DUP1 DUP3 ADD SWAP1 SWAP2 MSTORE PUSH1 0x10 DUP2 MSTORE PUSH32 0x4641494C45445F455845435554494F4E00000000000000000000000000000000 PUSH1 0x20 DUP3 ADD MSTORE SWAP3 POP ISZERO ISZERO SWAP1 POP PUSH2 0x153E JUMPI PUSH1 0x40 MLOAD PUSH1 0xE5 PUSH1 0x2 EXP PUSH3 0x461BCD MUL DUP2 MSTORE PUSH1 0x4 ADD PUSH2 0x705 SWAP2 SWAP1 PUSH2 0x4246 JUMP JUMPDEST POP POP PUSH1 0x8 DUP1 SLOAD PUSH20 0xFFFFFFFFFFFFFFFFFFFFFFFFFFFFFFFFFFFFFFFF NOT AND SWAP1 SSTORE POP POP POP POP POP POP JUMP JUMPDEST PUSH2 0x156D PUSH2 0x372B JUMP JUMPDEST PUSH2 0x1576 DUP3 PUSH2 0x29F2 JUMP JUMPDEST PUSH1 0x20 DUP3 ADD MSTORE PUSH1 0x80 DUP3 ADD MLOAD ISZERO ISZERO PUSH2 0x1593 JUMPI PUSH1 0x1 JUMPDEST PUSH1 0xFF AND DUP2 MSTORE PUSH2 0x163C JUMP JUMPDEST PUSH1 0xA0 DUP3 ADD MLOAD ISZERO ISZERO PUSH2 0x15A5 JUMPI PUSH1 0x2 PUSH2 0x1589 JUMP JUMPDEST PUSH2 0x100 DUP3 ADD MLOAD TIMESTAMP LT PUSH2 0x15B8 JUMPI PUSH1 0x4 PUSH2 0x1589 JUMP JUMPDEST PUSH1 0x20 DUP1 DUP3 ADD MLOAD PUSH1 0x0 SWAP1 DUP2 MSTORE PUSH1 0x3 SWAP1 SWAP2 MSTORE PUSH1 0x40 SWAP1 KECCAK256 SLOAD PUSH1 0xFF AND ISZERO PUSH2 0x15DC JUMPI PUSH1 0x6 PUSH2 0x1589 JUMP JUMPDEST PUSH2 0x120 DUP3 ADD MLOAD DUP3 MLOAD PUSH1 0x1 PUSH1 0xA0 PUSH1 0x2 EXP SUB AND PUSH1 0x0 SWAP1 DUP2 MSTORE PUSH1 0x4 PUSH1 0x20 MSTORE PUSH1 0x40 SWAP1 KECCAK256 SLOAD GT ISZERO PUSH2 0x1609 JUMPI PUSH1 0x6 PUSH2 0x1589 JUMP JUMPDEST PUSH1 0x20 DUP1 DUP3 ADD MLOAD PUSH1 0x0 SWAP1 DUP2 MSTORE PUSH1 0x2 SWAP1 SWAP2 MSTORE PUSH1 0x40 SWAP1 DUP2 SWAP1 KECCAK256 SLOAD SWAP1 DUP3 ADD DUP2 SWAP1 MSTORE PUSH1 0xA0 DUP4 ADD MLOAD GT PUSH2 0x1637 JUMPI PUSH1 0x5 PUSH2 0x1589 JUMP JUMPDEST PUSH1 0x3 DUP2 MSTORE JUMPDEST SWAP2 SWAP1 POP JUMP JUMPDEST PUSH2 0x1649 PUSH2 0x372B JUMP JUMPDEST PUSH2 0x1652 DUP3 PUSH2 0x1565 JUMP JUMPDEST SWAP1 POP PUSH2 0x165E DUP3 DUP3 PUSH2 0x3166 JUMP JUMPDEST PUSH2 0xA8C DUP3 DUP3 PUSH1 0x20 ADD MLOAD PUSH2 0x32AF JUMP JUMPDEST PUSH1 0x0 DUP1 SLOAD PUSH1 0x40 DUP1 MLOAD PUSH1 0x20 PUSH1 0x2 PUSH1 0x1 DUP6 AND ISZERO PUSH2 0x100 MUL PUSH1 0x0 NOT ADD SWAP1 SWAP5 AND SWAP4 SWAP1 SWAP4 DIV PUSH1 0x1F DUP2 ADD DUP5 SWAP1 DIV DUP5 MUL DUP3 ADD DUP5 ADD SWAP1 SWAP3 MSTORE DUP2 DUP2 MSTORE SWAP3 SWAP2 DUP4 ADD DUP3 DUP3 DUP1 ISZERO PUSH2 0x16F2 JUMPI DUP1 PUSH1 0x1F LT PUSH2 0x16C7 JUMPI PUSH2 0x100 DUP1 DUP4 SLOAD DIV MUL DUP4 MSTORE SWAP2 PUSH1 0x20 ADD SWAP2 PUSH2 0x16F2 JUMP JUMPDEST DUP3 ADD SWAP2 SWAP1 PUSH1 0x0 MSTORE PUSH1 0x20 PUSH1 0x0 KECCAK256 SWAP1 JUMPDEST DUP2 SLOAD DUP2 MSTORE SWAP1 PUSH1 0x1 ADD SWAP1 PUSH1 0x20 ADD DUP1 DUP4 GT PUSH2 0x16D5 JUMPI DUP3 SWAP1 SUB PUSH1 0x1F AND DUP3 ADD SWAP2 JUMPDEST POP POP POP POP POP DUP2 JUMP JUMPDEST PUSH2 0x1702 PUSH2 0x374B JUMP JUMPDEST PUSH1 0x60 PUSH1 0x0 DUP1 PUSH2 0x170F PUSH2 0x374B JUMP JUMPDEST DUP8 PUSH1 0x0 DUP2 MLOAD DUP2 LT ISZERO ISZERO PUSH2 0x171E JUMPI INVALID JUMPDEST SWAP1 PUSH1 0x20 ADD SWAP1 PUSH1 0x20 MUL ADD MLOAD PUSH2 0x160 ADD MLOAD SWAP4 POP PUSH1 0x0 SWAP3 POP JUMPDEST DUP8 MLOAD DUP4 LT ISZERO PUSH2 0x1047 JUMPI DUP4 DUP9 DUP5 DUP2 MLOAD DUP2 LT ISZERO ISZERO PUSH2 0x174C JUMPI INVALID JUMPDEST SWAP1 PUSH1 0x20 ADD SWAP1 PUSH1 0x20 MUL ADD MLOAD PUSH2 0x160 ADD DUP2 SWAP1 MSTORE POP PUSH2 0x176C DUP8 DUP7 PUSH1 0x20 ADD MLOAD PUSH2 0x27B3 JUMP JUMPDEST SWAP2 POP PUSH2 0x1798 DUP9 DUP5 DUP2 MLOAD DUP2 LT ISZERO ISZERO PUSH2 0x177F JUMPI INVALID JUMPDEST SWAP1 PUSH1 0x20 ADD SWAP1 PUSH1 0x20 MUL ADD MLOAD DUP4 DUP9 DUP7 DUP2 MLOAD DUP2 LT ISZERO ISZERO PUSH2 0xC29 JUMPI INVALID JUMPDEST SWAP1 POP PUSH2 0x17A4 DUP6 DUP3 PUSH2 0x27C5 JUMP JUMPDEST DUP7 DUP6 PUSH1 0x20 ADD MLOAD EQ ISZERO PUSH2 0x17B5 JUMPI PUSH2 0x1047 JUMP JUMPDEST PUSH1 0x1 SWAP1 SWAP3 ADD SWAP2 PUSH2 0x1734 JUMP JUMPDEST PUSH2 0x17C8 PUSH2 0x374B JUMP JUMPDEST PUSH1 0x60 PUSH1 0x0 DUP1 PUSH1 0x0 PUSH2 0x17D7 PUSH2 0x374B JUMP JUMPDEST DUP9 PUSH1 0x0 DUP2 MLOAD DUP2 LT ISZERO ISZERO PUSH2 0x17E6 JUMPI INVALID JUMPDEST SWAP1 PUSH1 0x20 ADD SWAP1 PUSH1 0x20 MUL ADD MLOAD PUSH2 0x140 ADD MLOAD SWAP5 POP PUSH1 0x0 SWAP4 POP JUMPDEST DUP9 MLOAD DUP5 LT ISZERO PUSH2 0x11A3 JUMPI DUP5 DUP10 DUP6 DUP2 MLOAD DUP2 LT ISZERO ISZERO PUSH2 0x1814 JUMPI INVALID JUMPDEST PUSH1 0x20 SWAP1 DUP2 MUL SWAP1 SWAP2 ADD ADD MLOAD PUSH2 0x140 ADD MSTORE DUP6 MLOAD PUSH2 0x1830 SWAP1 DUP10 SWAP1 PUSH2 0x27B3 JUMP JUMPDEST SWAP3 POP PUSH2 0x1843 DUP10 DUP6 DUP2 MLOAD DUP2 LT ISZERO ISZERO PUSH2 0x1122 JUMPI INVALID JUMPDEST SWAP2 POP PUSH2 0x186F DUP10 DUP6 DUP2 MLOAD DUP2 LT ISZERO ISZERO PUSH2 0x1856 JUMPI INVALID JUMPDEST SWAP1 PUSH1 0x20 ADD SWAP1 PUSH1 0x20 MUL ADD MLOAD DUP4 DUP10 DUP8 DUP2 MLOAD DUP2 LT ISZERO ISZERO PUSH2 0x640 JUMPI INVALID JUMPDEST DUP6 MLOAD PUSH1 0x1 ADD DUP7 MSTORE SWAP1 POP PUSH2 0x1882 DUP7 DUP3 PUSH2 0x27C5 JUMP JUMPDEST DUP6 MLOAD DUP9 EQ ISZERO PUSH2 0x1890 JUMPI PUSH2 0x11A3 JUMP JUMPDEST PUSH1 0x1 SWAP1 SWAP4 ADD SWAP3 PUSH2 0x17FC JUMP JUMPDEST PUSH1 0x8 SLOAD PUSH1 0x1 PUSH1 0xA0 PUSH1 0x2 EXP SUB AND DUP2 JUMP JUMPDEST PUSH1 0x1 SLOAD PUSH1 0x1 PUSH1 0xA0 PUSH1 0x2 EXP SUB AND CALLER EQ PUSH2 0x18D7 JUMPI PUSH1 0x40 MLOAD PUSH1 0xE5 PUSH1 0x2 EXP PUSH3 0x461BCD MUL DUP2 MSTORE PUSH1 0x4 ADD PUSH2 0x705 SWAP1 PUSH2 0x42B7 JUMP JUMPDEST PUSH1 0x1 PUSH1 0xA0 PUSH1 0x2 EXP SUB DUP2 AND ISZERO PUSH2 0x190F JUMPI PUSH1 0x1 DUP1 SLOAD PUSH20 0xFFFFFFFFFFFFFFFFFFFFFFFFFFFFFFFFFFFFFFFF NOT AND PUSH1 0x1 PUSH1 0xA0 PUSH1 0x2 EXP SUB DUP4 AND OR SWAP1 SSTORE JUMPDEST POP JUMP JUMPDEST PUSH1 0x40 DUP1 MLOAD DUP1 DUP3 ADD SWAP1 SWAP2 MSTORE PUSH1 0xB DUP2 MSTORE PUSH32 0x322E302E312D616C706861000000000000000000000000000000000000000000 PUSH1 0x20 DUP3 ADD MSTORE DUP2 JUMP JUMPDEST PUSH1 0x0 DUP1 PUSH1 0x0 DUP1 PUSH1 0x0 DUP1 PUSH1 0x0 DUP1 DUP9 MLOAD GT PUSH1 0x40 DUP1 MLOAD SWAP1 DUP2 ADD PUSH1 0x40 MSTORE DUP1 PUSH1 0x1E DUP2 MSTORE PUSH1 0x20 ADD PUSH32 0x4C454E4754485F475245415445525F5448414E5F305F52455155495245440000 DUP2 MSTORE POP SWAP1 ISZERO ISZERO PUSH2 0x19B1 JUMPI PUSH1 0x40 MLOAD PUSH1 0xE5 PUSH1 0x2 EXP PUSH3 0x461BCD MUL DUP2 MSTORE PUSH1 0x4 ADD PUSH2 0x705 SWAP2 SWAP1 PUSH2 0x4246 JUMP JUMPDEST POP PUSH2 0x19BB DUP9 PUSH2 0x332B JUMP JUMPDEST PUSH1 0xF8 PUSH1 0x2 EXP SWAP1 DIV PUSH1 0xFF AND PUSH1 0x8 DUP2 GT ISZERO PUSH2 0x19D0 JUMPI INVALID JUMPDEST SWAP6 POP PUSH1 0x0 DUP7 PUSH1 0x8 DUP2 GT ISZERO PUSH2 0x19E0 JUMPI INVALID JUMPDEST EQ ISZERO PUSH2 0x1A34 JUMPI PUSH1 0x40 DUP1 MLOAD DUP1 DUP3 ADD DUP3 MSTORE PUSH1 0x11 DUP2 MSTORE PUSH32 0x5349474E41545552455F494C4C4547414C000000000000000000000000000000 PUSH1 0x20 DUP3 ADD MSTORE SWAP1 MLOAD PUSH1 0xE5 PUSH1 0x2 EXP PUSH3 0x461BCD MUL DUP2 MSTORE PUSH2 0x705 SWAP2 SWAP1 PUSH1 0x4 ADD PUSH2 0x4246 JUMP JUMPDEST PUSH1 0x1 DUP7 PUSH1 0x8 DUP2 GT ISZERO PUSH2 0x1A42 JUMPI INVALID JUMPDEST EQ ISZERO PUSH2 0x1AAA JUMPI DUP8 MLOAD PUSH1 0x40 DUP1 MLOAD DUP1 DUP3 ADD SWAP1 SWAP2 MSTORE PUSH1 0x11 DUP2 MSTORE PUSH32 0x4C454E4754485F315F5245515549524544000000000000000000000000000000 PUSH1 0x20 DUP3 ADD MSTORE SWAP1 ISZERO PUSH2 0x1AA0 JUMPI PUSH1 0x40 MLOAD PUSH1 0xE5 PUSH1 0x2 EXP PUSH3 0x461BCD MUL DUP2 MSTORE PUSH1 0x4 ADD PUSH2 0x705 SWAP2 SWAP1 PUSH2 0x4246 JUMP JUMPDEST POP PUSH1 0x0 SWAP7 POP PUSH2 0x2118 JUMP JUMPDEST PUSH1 0x2 DUP7 PUSH1 0x8 DUP2 GT ISZERO PUSH2 0x1AB8 JUMPI INVALID JUMPDEST EQ ISZERO PUSH2 0x1BC0 JUMPI DUP8 MLOAD PUSH1 0x40 DUP1 MLOAD DUP1 DUP3 ADD SWAP1 SWAP2 MSTORE PUSH1 0x12 DUP2 MSTORE PUSH32 0x4C454E4754485F36365F52455155495245440000000000000000000000000000 PUSH1 0x20 DUP3 ADD MSTORE SWAP1 PUSH1 0x41 EQ PUSH2 0x1B18 JUMPI PUSH1 0x40 MLOAD PUSH1 0xE5 PUSH1 0x2 EXP PUSH3 0x461BCD MUL DUP2 MSTORE PUSH1 0x4 ADD PUSH2 0x705 SWAP2 SWAP1 PUSH2 0x4246 JUMP JUMPDEST POP DUP8 PUSH1 0x0 DUP2 MLOAD DUP2 LT ISZERO ISZERO PUSH2 0x1B28 JUMPI INVALID JUMPDEST ADD PUSH1 0x20 ADD MLOAD PUSH1 0xF8 PUSH1 0x2 EXP SWAP1 DUP2 SWAP1 DIV DUP2 MUL DIV SWAP5 POP PUSH2 0x1B46 DUP9 PUSH1 0x1 PUSH2 0x33E0 JUMP JUMPDEST SWAP4 POP PUSH2 0x1B53 DUP9 PUSH1 0x21 PUSH2 0x33E0 JUMP JUMPDEST SWAP3 POP PUSH1 0x1 DUP11 DUP7 DUP7 DUP7 PUSH1 0x40 MLOAD PUSH1 0x0 DUP2 MSTORE PUSH1 0x20 ADD PUSH1 0x40 MSTORE PUSH1 0x40 MLOAD PUSH2 0x1B78 SWAP5 SWAP4 SWAP3 SWAP2 SWAP1 PUSH2 0x4211 JUMP JUMPDEST PUSH1 0x20 PUSH1 0x40 MLOAD PUSH1 0x20 DUP2 SUB SWAP1 DUP1 DUP5 SUB SWAP1 PUSH1 0x0 DUP7 GAS CALL ISZERO DUP1 ISZERO PUSH2 0x1B9C JUMPI RETURNDATASIZE PUSH1 0x0 DUP1 RETURNDATACOPY RETURNDATASIZE PUSH1 0x0 REVERT JUMPDEST POP POP PUSH1 0x40 MLOAD PUSH1 0x1F NOT ADD MLOAD PUSH1 0x1 PUSH1 0xA0 PUSH1 0x2 EXP SUB DUP12 DUP2 AND SWAP1 DUP3 AND EQ SWAP9 POP SWAP3 POP PUSH2 0x2118 SWAP1 POP JUMP JUMPDEST PUSH1 0x3 DUP7 PUSH1 0x8 DUP2 GT ISZERO PUSH2 0x1BCE JUMPI INVALID JUMPDEST EQ ISZERO PUSH2 0x1D7A JUMPI DUP8 MLOAD PUSH1 0x40 DUP1 MLOAD DUP1 DUP3 ADD SWAP1 SWAP2 MSTORE PUSH1 0x12 DUP2 MSTORE PUSH32 0x4C454E4754485F36365F52455155495245440000000000000000000000000000 PUSH1 0x20 DUP3 ADD MSTORE SWAP1 PUSH1 0x41 EQ PUSH2 0x1C2E JUMPI PUSH1 0x40 MLOAD PUSH1 0xE5 PUSH1 0x2 EXP PUSH3 0x461BCD MUL DUP2 MSTORE PUSH1 0x4 ADD PUSH2 0x705 SWAP2 SWAP1 PUSH2 0x4246 JUMP JUMPDEST POP DUP8 PUSH1 0x0 DUP2 MLOAD DUP2 LT ISZERO ISZERO PUSH2 0x1C3E JUMPI INVALID JUMPDEST ADD PUSH1 0x20 ADD MLOAD PUSH1 0xF8 PUSH1 0x2 EXP SWAP1 DUP2 SWAP1 DIV DUP2 MUL DIV SWAP5 POP PUSH2 0x1C5C DUP9 PUSH1 0x1 PUSH2 0x33E0 JUMP JUMPDEST SWAP4 POP PUSH2 0x1C69 DUP9 PUSH1 0x21 PUSH2 0x33E0 JUMP JUMPDEST SWAP3 POP PUSH1 0x1 PUSH1 0x40 DUP1 MLOAD SWAP1 DUP2 ADD PUSH1 0x40 MSTORE DUP1 PUSH1 0x1C DUP2 MSTORE PUSH1 0x20 ADD PUSH32 0x19457468657265756D205369676E6564204D6573736167653A0A333200000000 DUP2 MSTORE POP DUP12 PUSH1 0x40 MLOAD PUSH1 0x20 ADD DUP1 DUP4 DUP1 MLOAD SWAP1 PUSH1 0x20 ADD SWAP1 DUP1 DUP4 DUP4 JUMPDEST PUSH1 0x20 DUP4 LT PUSH2 0x1CD6 JUMPI DUP1 MLOAD DUP3 MSTORE PUSH1 0x1F NOT SWAP1 SWAP3 ADD SWAP2 PUSH1 0x20 SWAP2 DUP3 ADD SWAP2 ADD PUSH2 0x1CB7 JUMP JUMPDEST MLOAD DUP2 MLOAD PUSH1 0x20 SWAP4 DUP5 SUB PUSH2 0x100 EXP PUSH1 0x0 NOT ADD DUP1 NOT SWAP1 SWAP3 AND SWAP2 AND OR SWAP1 MSTORE SWAP3 ADD SWAP4 DUP5 MSTORE POP PUSH1 0x40 DUP1 MLOAD DUP1 DUP6 SUB DUP2 MSTORE SWAP4 DUP3 ADD SWAP1 DUP2 SWAP1 MSTORE DUP4 MLOAD SWAP4 SWAP5 POP SWAP3 DUP4 SWAP3 POP SWAP1 DUP5 ADD SWAP1 DUP1 DUP4 DUP4 JUMPDEST PUSH1 0x20 DUP4 LT PUSH2 0x1D36 JUMPI DUP1 MLOAD DUP3 MSTORE PUSH1 0x1F NOT SWAP1 SWAP3 ADD SWAP2 PUSH1 0x20 SWAP2 DUP3 ADD SWAP2 ADD PUSH2 0x1D17 JUMP JUMPDEST MLOAD DUP2 MLOAD PUSH1 0x20 SWAP4 DUP5 SUB PUSH2 0x100 EXP PUSH1 0x0 NOT ADD DUP1 NOT SWAP1 SWAP3 AND SWAP2 AND OR SWAP1 MSTORE PUSH1 0x40 DUP1 MLOAD SWAP3 SWAP1 SWAP5 ADD DUP3 SWAP1 SUB DUP3 KECCAK256 PUSH1 0x0 DUP4 MSTORE SWAP2 ADD SWAP3 DUP4 SWAP1 MSTORE PUSH2 0x1B78 SWAP5 POP SWAP3 POP DUP10 SWAP2 DUP10 SWAP2 POP DUP9 SWAP1 PUSH2 0x4211 JUMP JUMPDEST PUSH1 0x4 DUP7 PUSH1 0x8 DUP2 GT ISZERO PUSH2 0x1D88 JUMPI INVALID JUMPDEST EQ ISZERO PUSH2 0x1DFA JUMPI DUP8 MLOAD PUSH1 0x40 DUP1 MLOAD DUP1 DUP3 ADD SWAP1 SWAP2 MSTORE PUSH1 0x11 DUP2 MSTORE PUSH32 0x4C454E4754485F315F5245515549524544000000000000000000000000000000 PUSH1 0x20 DUP3 ADD MSTORE SWAP1 ISZERO PUSH2 0x1DE6 JUMPI PUSH1 0x40 MLOAD PUSH1 0xE5 PUSH1 0x2 EXP PUSH3 0x461BCD MUL DUP2 MSTORE PUSH1 0x4 ADD PUSH2 0x705 SWAP2 SWAP1 PUSH2 0x4246 JUMP JUMPDEST POP PUSH1 0x1 PUSH1 0xA0 PUSH1 0x2 EXP SUB DUP10 AND CALLER EQ SWAP7 POP PUSH2 0x2118 JUMP JUMPDEST PUSH1 0x5 DUP7 PUSH1 0x8 DUP2 GT ISZERO PUSH2 0x1E08 JUMPI INVALID JUMPDEST EQ ISZERO PUSH2 0x1EAE JUMPI PUSH1 0x40 MLOAD PUSH32 0x1626BA7E00000000000000000000000000000000000000000000000000000000 DUP2 MSTORE PUSH1 0x1 PUSH1 0xA0 PUSH1 0x2 EXP SUB DUP11 AND SWAP1 PUSH4 0x1626BA7E SWAP1 PUSH2 0x1E55 SWAP1 DUP14 SWAP1 DUP13 SWAP1 PUSH1 0x4 ADD PUSH2 0x41F1 JUMP JUMPDEST PUSH1 0x20 PUSH1 0x40 MLOAD DUP1 DUP4 SUB DUP2 PUSH1 0x0 DUP8 DUP1 EXTCODESIZE ISZERO DUP1 ISZERO PUSH2 0x1E6F JUMPI PUSH1 0x0 DUP1 REVERT JUMPDEST POP GAS CALL ISZERO DUP1 ISZERO PUSH2 0x1E83 JUMPI RETURNDATASIZE PUSH1 0x0 DUP1 RETURNDATACOPY RETURNDATASIZE PUSH1 0x0 REVERT JUMPDEST POP POP POP POP PUSH1 0x40 MLOAD RETURNDATASIZE PUSH1 0x1F NOT PUSH1 0x1F DUP3 ADD AND DUP3 ADD DUP1 PUSH1 0x40 MSTORE POP PUSH2 0x1EA7 SWAP2 SWAP1 DUP2 ADD SWAP1 PUSH2 0x3C70 JUMP JUMPDEST SWAP7 POP PUSH2 0x2118 JUMP JUMPDEST PUSH1 0x6 DUP7 PUSH1 0x8 DUP2 GT ISZERO PUSH2 0x1EBC JUMPI INVALID JUMPDEST EQ ISZERO PUSH2 0x1F4F JUMPI PUSH2 0x1ECB DUP9 PUSH2 0x3474 JUMP JUMPDEST PUSH1 0x1 PUSH1 0xA0 PUSH1 0x2 EXP SUB DUP1 DUP12 AND PUSH1 0x0 SWAP1 DUP2 MSTORE PUSH1 0x6 PUSH1 0x20 SWAP1 DUP2 MSTORE PUSH1 0x40 DUP1 DUP4 KECCAK256 SWAP4 DUP6 AND DUP4 MSTORE SWAP3 SWAP1 MSTORE KECCAK256 SLOAD SWAP1 SWAP2 POP PUSH1 0xFF AND ISZERO ISZERO PUSH2 0x1F06 JUMPI PUSH1 0x0 SWAP7 POP PUSH2 0x2118 JUMP JUMPDEST PUSH1 0x40 MLOAD PUSH32 0x9363470200000000000000000000000000000000000000000000000000000000 DUP2 MSTORE PUSH1 0x1 PUSH1 0xA0 PUSH1 0x2 EXP SUB DUP3 AND SWAP1 PUSH4 0x93634702 SWAP1 PUSH2 0x1E55 SWAP1 DUP14 SWAP1 DUP14 SWAP1 DUP14 SWAP1 PUSH1 0x4 ADD PUSH2 0x41BB JUMP JUMPDEST PUSH1 0x7 DUP7 PUSH1 0x8 DUP2 GT ISZERO PUSH2 0x1F5D JUMPI INVALID JUMPDEST EQ ISZERO PUSH2 0x1F90 JUMPI PUSH1 0x0 DUP11 DUP2 MSTORE PUSH1 0x5 PUSH1 0x20 SWAP1 DUP2 MSTORE PUSH1 0x40 DUP1 DUP4 KECCAK256 PUSH1 0x1 PUSH1 0xA0 PUSH1 0x2 EXP SUB DUP14 AND DUP5 MSTORE SWAP1 SWAP2 MSTORE SWAP1 KECCAK256 SLOAD PUSH1 0xFF AND SWAP7 POP PUSH2 0x2118 JUMP JUMPDEST PUSH1 0x8 DUP7 PUSH1 0x8 DUP2 GT ISZERO PUSH2 0x1F9E JUMPI INVALID JUMPDEST EQ ISZERO PUSH2 0x2089 JUMPI DUP8 MLOAD PUSH1 0x40 DUP1 MLOAD DUP1 DUP3 ADD SWAP1 SWAP2 MSTORE PUSH1 0x12 DUP2 MSTORE PUSH32 0x4C454E4754485F36365F52455155495245440000000000000000000000000000 PUSH1 0x20 DUP3 ADD MSTORE SWAP1 PUSH1 0x41 EQ PUSH2 0x1FFE JUMPI PUSH1 0x40 MLOAD PUSH1 0xE5 PUSH1 0x2 EXP PUSH3 0x461BCD MUL DUP2 MSTORE PUSH1 0x4 ADD PUSH2 0x705 SWAP2 SWAP1 PUSH2 0x4246 JUMP JUMPDEST POP DUP8 PUSH1 0x0 DUP2 MLOAD DUP2 LT ISZERO ISZERO PUSH2 0x200E JUMPI INVALID JUMPDEST ADD PUSH1 0x20 ADD MLOAD PUSH1 0xF8 PUSH1 0x2 EXP SWAP1 DUP2 SWAP1 DIV DUP2 MUL DIV SWAP5 POP PUSH2 0x202C DUP9 PUSH1 0x1 PUSH2 0x33E0 JUMP JUMPDEST SWAP4 POP PUSH2 0x2039 DUP9 PUSH1 0x21 PUSH2 0x33E0 JUMP JUMPDEST PUSH1 0x40 DUP1 MLOAD DUP1 DUP3 ADD DUP3 MSTORE PUSH1 0x1B DUP1 DUP3 MSTORE PUSH32 0x19457468657265756D205369676E6564204D6573736167653A0A410000000000 PUSH1 0x20 DUP1 DUP5 ADD SWAP2 DUP3 MSTORE SWAP4 MLOAD SWAP5 SWAP8 POP PUSH1 0x1 SWAP5 SWAP3 SWAP4 DUP16 SWAP4 ADD SWAP2 DUP3 SWAP2 SWAP1 DUP1 DUP4 DUP4 PUSH2 0x1CD6 JUMP JUMPDEST PUSH1 0x7 DUP7 PUSH1 0x8 DUP2 GT ISZERO PUSH2 0x2097 JUMPI INVALID JUMPDEST EQ ISZERO PUSH2 0x20CA JUMPI PUSH1 0x0 DUP11 DUP2 MSTORE PUSH1 0x5 PUSH1 0x20 SWAP1 DUP2 MSTORE PUSH1 0x40 DUP1 DUP4 KECCAK256 PUSH1 0x1 PUSH1 0xA0 PUSH1 0x2 EXP SUB DUP14 AND DUP5 MSTORE SWAP1 SWAP2 MSTORE SWAP1 KECCAK256 SLOAD PUSH1 0xFF AND SWAP7 POP PUSH2 0x2118 JUMP JUMPDEST PUSH1 0x40 DUP1 MLOAD DUP1 DUP3 ADD DUP3 MSTORE PUSH1 0x15 DUP2 MSTORE PUSH32 0x5349474E41545552455F554E535550504F525445440000000000000000000000 PUSH1 0x20 DUP3 ADD MSTORE SWAP1 MLOAD PUSH1 0xE5 PUSH1 0x2 EXP PUSH3 0x461BCD MUL DUP2 MSTORE PUSH2 0x705 SWAP2 SWAP1 PUSH1 0x4 ADD PUSH2 0x4246 JUMP JUMPDEST POP POP POP POP POP POP SWAP4 SWAP3 POP POP POP JUMP JUMPDEST PUSH1 0x8 SLOAD PUSH1 0x0 SWAP1 DUP2 SWAP1 PUSH1 0x1 PUSH1 0xA0 PUSH1 0x2 EXP SUB AND ISZERO PUSH2 0x214C JUMPI PUSH1 0x8 SLOAD PUSH1 0x1 PUSH1 0xA0 PUSH1 0x2 EXP SUB AND PUSH2 0x214E JUMP JUMPDEST CALLER JUMPDEST SWAP3 SWAP2 POP POP JUMP JUMPDEST PUSH2 0x2166 DUP3 PUSH1 0xA0 ADD MLOAD DUP3 PUSH1 0xA0 ADD MLOAD PUSH2 0x3518 JUMP JUMPDEST PUSH2 0x2178 DUP4 PUSH1 0x80 ADD MLOAD DUP4 PUSH1 0x80 ADD MLOAD PUSH2 0x3518 JUMP JUMPDEST PUSH1 0x40 DUP1 MLOAD DUP1 DUP3 ADD SWAP1 SWAP2 MSTORE PUSH1 0x18 DUP2 MSTORE PUSH32 0x4E454741544956455F5350524541445F52455155495245440000000000000000 PUSH1 0x20 DUP3 ADD MSTORE SWAP2 GT ISZERO PUSH2 0x21CF JUMPI PUSH1 0x40 MLOAD PUSH1 0xE5 PUSH1 0x2 EXP PUSH3 0x461BCD MUL DUP2 MSTORE PUSH1 0x4 ADD PUSH2 0x705 SWAP2 SWAP1 PUSH2 0x4246 JUMP JUMPDEST POP POP POP JUMP JUMPDEST PUSH2 0x21DC PUSH2 0x36FC JUMP JUMPDEST PUSH1 0x0 DUP1 PUSH1 0x0 DUP1 PUSH2 0x21F0 DUP10 PUSH1 0xA0 ADD MLOAD DUP9 PUSH2 0x27B3 JUMP JUMPDEST SWAP4 POP PUSH2 0x2200 DUP9 PUSH1 0xA0 ADD MLOAD DUP8 PUSH2 0x27B3 JUMP JUMPDEST SWAP3 POP PUSH2 0x2210 DUP4 DUP10 PUSH1 0x80 ADD MLOAD PUSH2 0x3518 JUMP JUMPDEST PUSH2 0x221E DUP6 DUP11 PUSH1 0xA0 ADD MLOAD PUSH2 0x3518 JUMP JUMPDEST GT PUSH2 0x2240 JUMPI DUP4 SWAP2 POP PUSH2 0x2239 DUP9 PUSH1 0xA0 ADD MLOAD DUP10 PUSH1 0x80 ADD MLOAD DUP5 PUSH2 0x2827 JUMP JUMPDEST SWAP1 POP PUSH2 0x2259 JUMP JUMPDEST DUP3 SWAP1 POP PUSH2 0x2256 DUP9 PUSH1 0x80 ADD MLOAD DUP10 PUSH1 0xA0 ADD MLOAD DUP4 PUSH2 0x2827 JUMP JUMPDEST SWAP2 POP JUMPDEST PUSH2 0x2263 DUP10 DUP4 PUSH2 0x285C JUMP JUMPDEST DUP6 MSTORE PUSH2 0x226F DUP9 DUP3 PUSH2 0x285C JUMP JUMPDEST PUSH1 0x20 DUP1 DUP8 ADD DUP3 SWAP1 MSTORE DUP7 MLOAD MLOAD SWAP2 ADD MLOAD PUSH2 0x2287 SWAP2 SWAP1 PUSH2 0x27B3 JUMP JUMPDEST PUSH1 0x40 DUP7 ADD MSTORE POP POP POP POP SWAP5 SWAP4 POP POP POP POP JUMP JUMPDEST DUP5 MLOAD PUSH1 0x40 DUP1 MLOAD DUP1 DUP3 ADD SWAP1 SWAP2 MSTORE PUSH1 0x10 DUP2 MSTORE PUSH32 0x4F524445525F554E46494C4C41424C4500000000000000000000000000000000 PUSH1 0x20 DUP3 ADD MSTORE SWAP1 PUSH1 0xFF AND PUSH1 0x3 EQ PUSH2 0x22F5 JUMPI PUSH1 0x40 MLOAD PUSH1 0xE5 PUSH1 0x2 EXP PUSH3 0x461BCD MUL DUP2 MSTORE PUSH1 0x4 ADD PUSH2 0x705 SWAP2 SWAP1 PUSH2 0x4246 JUMP JUMPDEST POP PUSH1 0x40 DUP1 MLOAD DUP1 DUP3 ADD SWAP1 SWAP2 MSTORE PUSH1 0x14 DUP2 MSTORE PUSH32 0x494E56414C49445F54414B45525F414D4F554E54000000000000000000000000 PUSH1 0x20 DUP3 ADD MSTORE DUP4 ISZERO ISZERO PUSH2 0x234D JUMPI PUSH1 0x40 MLOAD PUSH1 0xE5 PUSH1 0x2 EXP PUSH3 0x461BCD MUL DUP2 MSTORE PUSH1 0x4 ADD PUSH2 0x705 SWAP2 SWAP1 PUSH2 0x4246 JUMP JUMPDEST POP PUSH1 0x60 DUP7 ADD MLOAD PUSH1 0x1 PUSH1 0xA0 PUSH1 0x2 EXP SUB AND ISZERO PUSH2 0x23C8 JUMPI PUSH1 0x60 DUP7 ADD MLOAD PUSH1 0x40 DUP1 MLOAD DUP1 DUP3 ADD SWAP1 SWAP2 MSTORE PUSH1 0xE DUP2 MSTORE PUSH32 0x494E56414C49445F53454E444552000000000000000000000000000000000000 PUSH1 0x20 DUP3 ADD MSTORE SWAP1 PUSH1 0x1 PUSH1 0xA0 PUSH1 0x2 EXP SUB AND CALLER EQ PUSH2 0x23C6 JUMPI PUSH1 0x40 MLOAD PUSH1 0xE5 PUSH1 0x2 EXP PUSH3 0x461BCD MUL DUP2 MSTORE PUSH1 0x4 ADD PUSH2 0x705 SWAP2 SWAP1 PUSH2 0x4246 JUMP JUMPDEST POP JUMPDEST PUSH1 0x20 DUP7 ADD MLOAD PUSH1 0x1 PUSH1 0xA0 PUSH1 0x2 EXP SUB AND ISZERO PUSH2 0x244F JUMPI DUP4 PUSH1 0x1 PUSH1 0xA0 PUSH1 0x2 EXP SUB AND DUP7 PUSH1 0x20 ADD MLOAD PUSH1 0x1 PUSH1 0xA0 PUSH1 0x2 EXP SUB AND EQ PUSH1 0x40 DUP1 MLOAD SWAP1 DUP2 ADD PUSH1 0x40 MSTORE DUP1 PUSH1 0xD DUP2 MSTORE PUSH1 0x20 ADD PUSH32 0x494E56414C49445F54414B455200000000000000000000000000000000000000 DUP2 MSTORE POP SWAP1 ISZERO ISZERO PUSH2 0x244D JUMPI PUSH1 0x40 MLOAD PUSH1 0xE5 PUSH1 0x2 EXP PUSH3 0x461BCD MUL DUP2 MSTORE PUSH1 0x4 ADD PUSH2 0x705 SWAP2 SWAP1 PUSH2 0x4246 JUMP JUMPDEST POP JUMPDEST PUSH1 0x40 DUP6 ADD MLOAD ISZERO ISZERO PUSH2 0x24C6 JUMPI PUSH2 0x246D DUP6 PUSH1 0x20 ADD MLOAD DUP8 PUSH1 0x0 ADD MLOAD DUP4 PUSH2 0x1949 JUMP JUMPDEST PUSH1 0x40 DUP1 MLOAD DUP1 DUP3 ADD SWAP1 SWAP2 MSTORE PUSH1 0x17 DUP2 MSTORE PUSH32 0x494E56414C49445F4F524445525F5349474E4154555245000000000000000000 PUSH1 0x20 DUP3 ADD MSTORE SWAP1 ISZERO ISZERO PUSH2 0x24C4 JUMPI PUSH1 0x40 MLOAD PUSH1 0xE5 PUSH1 0x2 EXP PUSH3 0x461BCD MUL DUP2 MSTORE PUSH1 0x4 ADD PUSH2 0x705 SWAP2 SWAP1 PUSH2 0x4246 JUMP JUMPDEST POP JUMPDEST PUSH2 0x24D9 DUP3 DUP8 PUSH1 0xA0 ADD MLOAD DUP9 PUSH1 0x80 ADD MLOAD PUSH2 0x353C JUMP JUMPDEST PUSH1 0x40 DUP1 MLOAD DUP1 DUP3 ADD SWAP1 SWAP2 MSTORE PUSH1 0xE DUP2 MSTORE PUSH32 0x524F554E44494E475F4552524F52000000000000000000000000000000000000 PUSH1 0x20 DUP3 ADD MSTORE SWAP1 ISZERO PUSH2 0x252F JUMPI PUSH1 0x40 MLOAD PUSH1 0xE5 PUSH1 0x2 EXP PUSH3 0x461BCD MUL DUP2 MSTORE PUSH1 0x4 ADD PUSH2 0x705 SWAP2 SWAP1 PUSH2 0x4246 JUMP JUMPDEST POP POP POP POP POP POP POP JUMP JUMPDEST PUSH2 0x2546 DUP3 DUP3 PUSH1 0x20 ADD MLOAD PUSH2 0x3592 JUMP JUMPDEST PUSH1 0x0 DUP5 DUP2 MSTORE PUSH1 0x2 PUSH1 0x20 SWAP1 DUP2 MSTORE PUSH1 0x40 SWAP2 DUP3 SWAP1 KECCAK256 SWAP3 SWAP1 SWAP3 SSTORE DUP7 DUP2 ADD MLOAD DUP8 MLOAD DUP5 MLOAD SWAP4 DUP6 ADD MLOAD DUP6 DUP5 ADD MLOAD PUSH1 0x60 DUP8 ADD MLOAD PUSH2 0x140 DUP13 ADD MLOAD PUSH2 0x160 DUP14 ADD MLOAD SWAP7 MLOAD DUP12 SWAP9 PUSH1 0x1 PUSH1 0xA0 PUSH1 0x2 EXP SUB SWAP8 DUP9 AND SWAP9 SWAP8 SWAP1 SWAP7 AND SWAP7 PUSH32 0xDE19F18E1B56E6EADA7ED95CCA8398B602BE32F5864640537EE9A9A3532BB29D SWAP7 PUSH2 0x25C8 SWAP7 DUP16 SWAP7 SWAP2 SWAP6 SWAP1 SWAP5 SWAP2 SWAP4 SWAP1 SWAP3 SWAP1 PUSH2 0x4138 JUMP JUMPDEST PUSH1 0x40 MLOAD DUP1 SWAP2 SUB SWAP1 LOG4 POP POP POP POP POP JUMP JUMPDEST PUSH1 0x0 DUP1 PUSH1 0x60 PUSH2 0x25EA DUP8 PUSH2 0x140 ADD MLOAD PUSH2 0x332B JUMP JUMPDEST PUSH1 0xF8 PUSH1 0x2 EXP SWAP1 DIV SWAP3 POP PUSH2 0x2601 DUP7 PUSH2 0x140 ADD MLOAD PUSH2 0x332B JUMP JUMPDEST PUSH1 0x0 DUP1 SLOAD PUSH1 0x40 DUP1 MLOAD PUSH1 0x20 PUSH1 0x1F PUSH1 0x2 PUSH1 0x0 NOT PUSH2 0x100 PUSH1 0x1 DUP9 AND ISZERO MUL ADD SWAP1 SWAP6 AND SWAP5 SWAP1 SWAP5 DIV SWAP4 DUP5 ADD DUP2 SWAP1 DIV DUP2 MUL DUP3 ADD DUP2 ADD SWAP1 SWAP3 MSTORE DUP3 DUP2 MSTORE PUSH1 0xF8 PUSH1 0x2 EXP SWAP1 SWAP5 DIV SWAP6 POP DUP4 ADD DUP3 DUP3 DUP1 ISZERO PUSH2 0x2690 JUMPI DUP1 PUSH1 0x1F LT PUSH2 0x2665 JUMPI PUSH2 0x100 DUP1 DUP4 SLOAD DIV MUL DUP4 MSTORE SWAP2 PUSH1 0x20 ADD SWAP2 PUSH2 0x2690 JUMP JUMPDEST DUP3 ADD SWAP2 SWAP1 PUSH1 0x0 MSTORE PUSH1 0x20 PUSH1 0x0 KECCAK256 SWAP1 JUMPDEST DUP2 SLOAD DUP2 MSTORE SWAP1 PUSH1 0x1 ADD SWAP1 PUSH1 0x20 ADD DUP1 DUP4 GT PUSH2 0x2673 JUMPI DUP3 SWAP1 SUB PUSH1 0x1F AND DUP3 ADD SWAP2 JUMPDEST POP POP POP POP POP SWAP1 POP PUSH2 0x26B9 DUP8 PUSH2 0x140 ADD MLOAD DUP5 DUP10 PUSH1 0x0 ADD MLOAD DUP10 PUSH1 0x0 ADD MLOAD DUP9 PUSH1 0x20 ADD MLOAD PUSH1 0x20 ADD MLOAD PUSH2 0x35A1 JUMP JUMPDEST PUSH2 0x140 DUP7 ADD MLOAD DUP7 MLOAD DUP9 MLOAD DUP7 MLOAD PUSH1 0x20 ADD MLOAD PUSH2 0x26D7 SWAP4 SWAP3 DUP7 SWAP3 SWAP1 SWAP2 PUSH2 0x35A1 JUMP JUMPDEST PUSH2 0x26F1 DUP8 PUSH2 0x140 ADD MLOAD DUP5 DUP10 PUSH1 0x0 ADD MLOAD DUP9 DUP9 PUSH1 0x40 ADD MLOAD PUSH2 0x35A1 JUMP JUMPDEST PUSH2 0x270F DUP2 PUSH1 0x1 DUP10 PUSH1 0x0 ADD MLOAD DUP11 PUSH1 0x40 ADD MLOAD DUP9 PUSH1 0x0 ADD MLOAD PUSH1 0x40 ADD MLOAD PUSH2 0x35A1 JUMP JUMPDEST PUSH2 0x272D DUP2 PUSH1 0x1 DUP9 PUSH1 0x0 ADD MLOAD DUP10 PUSH1 0x40 ADD MLOAD DUP9 PUSH1 0x20 ADD MLOAD PUSH1 0x40 ADD MLOAD PUSH2 0x35A1 JUMP JUMPDEST DUP6 PUSH1 0x40 ADD MLOAD PUSH1 0x1 PUSH1 0xA0 PUSH1 0x2 EXP SUB AND DUP8 PUSH1 0x40 ADD MLOAD PUSH1 0x1 PUSH1 0xA0 PUSH1 0x2 EXP SUB AND EQ ISZERO PUSH2 0x277F JUMPI PUSH2 0x277A DUP2 PUSH1 0x1 DUP8 DUP11 PUSH1 0x40 ADD MLOAD PUSH2 0x2775 DUP10 PUSH1 0x0 ADD MLOAD PUSH1 0x60 ADD MLOAD DUP11 PUSH1 0x20 ADD MLOAD PUSH1 0x60 ADD MLOAD PUSH2 0x3592 JUMP JUMPDEST PUSH2 0x35A1 JUMP JUMPDEST PUSH2 0x252F JUMP JUMPDEST PUSH2 0x2799 DUP2 PUSH1 0x1 DUP8 DUP11 PUSH1 0x40 ADD MLOAD DUP9 PUSH1 0x0 ADD MLOAD PUSH1 0x60 ADD MLOAD PUSH2 0x35A1 JUMP JUMPDEST PUSH2 0x252F DUP2 PUSH1 0x1 DUP8 DUP10 PUSH1 0x40 ADD MLOAD DUP9 PUSH1 0x20 ADD MLOAD PUSH1 0x60 ADD MLOAD PUSH2 0x35A1 JUMP JUMPDEST PUSH1 0x0 DUP3 DUP3 GT ISZERO PUSH2 0x27BF JUMPI INVALID JUMPDEST POP SWAP1 SUB SWAP1 JUMP JUMPDEST DUP2 MLOAD DUP2 MLOAD PUSH2 0x27D3 SWAP2 SWAP1 PUSH2 0x3592 JUMP JUMPDEST DUP3 MSTORE PUSH1 0x20 DUP1 DUP4 ADD MLOAD SWAP1 DUP3 ADD MLOAD PUSH2 0x27E9 SWAP2 SWAP1 PUSH2 0x3592 JUMP JUMPDEST PUSH1 0x20 DUP4 ADD MSTORE PUSH1 0x40 DUP1 DUP4 ADD MLOAD SWAP1 DUP3 ADD MLOAD PUSH2 0x2802 SWAP2 SWAP1 PUSH2 0x3592 JUMP JUMPDEST PUSH1 0x40 DUP4 ADD MSTORE PUSH1 0x60 DUP1 DUP4 ADD MLOAD SWAP1 DUP3 ADD MLOAD PUSH2 0x281B SWAP2 SWAP1 PUSH2 0x3592 JUMP JUMPDEST PUSH1 0x60 SWAP1 SWAP3 ADD SWAP2 SWAP1 SWAP2 MSTORE POP JUMP JUMPDEST PUSH1 0x0 PUSH2 0x283C PUSH2 0x2836 DUP6 DUP5 PUSH2 0x3518 JUMP JUMPDEST DUP5 PUSH2 0x3648 JUMP JUMPDEST SWAP5 SWAP4 POP POP POP POP JUMP JUMPDEST PUSH1 0x0 DUP2 DUP4 LT PUSH2 0x2853 JUMPI DUP2 PUSH2 0x2855 JUMP JUMPDEST DUP3 JUMPDEST SWAP4 SWAP3 POP POP POP JUMP JUMPDEST PUSH2 0x2864 PUSH2 0x374B JUMP JUMPDEST PUSH1 0x20 DUP2 ADD DUP3 SWAP1 MSTORE PUSH1 0xA0 DUP4 ADD MLOAD PUSH1 0x80 DUP5 ADD MLOAD PUSH2 0x2880 SWAP2 DUP5 SWAP2 PUSH2 0x2827 JUMP JUMPDEST DUP2 MSTORE PUSH1 0x20 DUP2 ADD MLOAD PUSH1 0xA0 DUP5 ADD MLOAD PUSH1 0xC0 DUP6 ADD MLOAD PUSH2 0x289C SWAP3 SWAP2 SWAP1 PUSH2 0x2827 JUMP JUMPDEST PUSH1 0x40 DUP3 ADD MSTORE PUSH1 0x20 DUP2 ADD MLOAD PUSH1 0xA0 DUP5 ADD MLOAD PUSH1 0xE0 DUP6 ADD MLOAD PUSH2 0x28BB SWAP3 SWAP2 SWAP1 PUSH2 0x2827 JUMP JUMPDEST PUSH1 0x60 DUP3 ADD MSTORE SWAP3 SWAP2 POP POP JUMP JUMPDEST PUSH1 0x0 DUP1 PUSH1 0x60 PUSH2 0x28D9 DUP7 PUSH2 0x140 ADD MLOAD PUSH2 0x332B JUMP JUMPDEST PUSH1 0xF8 PUSH1 0x2 EXP SWAP1 DIV SWAP3 POP PUSH2 0x28F0 DUP7 PUSH2 0x160 ADD MLOAD PUSH2 0x332B JUMP JUMPDEST PUSH1 0x0 DUP1 SLOAD PUSH1 0x40 DUP1 MLOAD PUSH1 0x20 PUSH1 0x1F PUSH1 0x2 PUSH1 0x0 NOT PUSH2 0x100 PUSH1 0x1 DUP9 AND ISZERO MUL ADD SWAP1 SWAP6 AND SWAP5 SWAP1 SWAP5 DIV SWAP4 DUP5 ADD DUP2 SWAP1 DIV DUP2 MUL DUP3 ADD DUP2 ADD SWAP1 SWAP3 MSTORE DUP3 DUP2 MSTORE PUSH1 0xF8 PUSH1 0x2 EXP SWAP1 SWAP5 DIV SWAP6 POP DUP4 ADD DUP3 DUP3 DUP1 ISZERO PUSH2 0x297F JUMPI DUP1 PUSH1 0x1F LT PUSH2 0x2954 JUMPI PUSH2 0x100 DUP1 DUP4 SLOAD DIV MUL DUP4 MSTORE SWAP2 PUSH1 0x20 ADD SWAP2 PUSH2 0x297F JUMP JUMPDEST DUP3 ADD SWAP2 SWAP1 PUSH1 0x0 MSTORE PUSH1 0x20 PUSH1 0x0 KECCAK256 SWAP1 JUMPDEST DUP2 SLOAD DUP2 MSTORE SWAP1 PUSH1 0x1 ADD SWAP1 PUSH1 0x20 ADD DUP1 DUP4 GT PUSH2 0x2962 JUMPI DUP3 SWAP1 SUB PUSH1 0x1F AND DUP3 ADD SWAP2 JUMPDEST POP POP POP POP POP SWAP1 POP PUSH2 0x29A0 DUP7 PUSH2 0x140 ADD MLOAD DUP5 DUP9 PUSH1 0x0 ADD MLOAD DUP9 DUP9 PUSH1 0x0 ADD MLOAD PUSH2 0x35A1 JUMP JUMPDEST PUSH2 0x29BA DUP7 PUSH2 0x160 ADD MLOAD DUP4 DUP8 DUP10 PUSH1 0x0 ADD MLOAD DUP9 PUSH1 0x20 ADD MLOAD PUSH2 0x35A1 JUMP JUMPDEST PUSH2 0x29D4 DUP2 PUSH1 0x1 DUP9 PUSH1 0x0 ADD MLOAD DUP10 PUSH1 0x40 ADD MLOAD DUP9 PUSH1 0x40 ADD MLOAD PUSH2 0x35A1 JUMP JUMPDEST PUSH2 0x29EA DUP2 PUSH1 0x1 DUP8 DUP10 PUSH1 0x40 ADD MLOAD DUP9 PUSH1 0x60 ADD MLOAD PUSH2 0x35A1 JUMP JUMPDEST POP POP POP POP POP POP JUMP JUMPDEST PUSH1 0x0 PUSH1 0x40 MLOAD PUSH1 0x20 ADD DUP1 DUP1 PUSH32 0x446F6D61696E536570617261746F72286164647265737320636F6E7472616374 DUP2 MSTORE PUSH1 0x20 ADD PUSH32 0x2900000000000000000000000000000000000000000000000000000000000000 DUP2 MSTORE POP PUSH1 0x21 ADD SWAP1 POP PUSH1 0x40 MLOAD PUSH1 0x20 DUP2 DUP4 SUB SUB DUP2 MSTORE SWAP1 PUSH1 0x40 MSTORE PUSH1 0x40 MLOAD DUP1 DUP3 DUP1 MLOAD SWAP1 PUSH1 0x20 ADD SWAP1 DUP1 DUP4 DUP4 JUMPDEST PUSH1 0x20 DUP4 LT PUSH2 0x2A89 JUMPI DUP1 MLOAD DUP3 MSTORE PUSH1 0x1F NOT SWAP1 SWAP3 ADD SWAP2 PUSH1 0x20 SWAP2 DUP3 ADD SWAP2 ADD PUSH2 0x2A6A JUMP JUMPDEST MLOAD DUP2 MLOAD PUSH1 0x20 SWAP4 DUP5 SUB PUSH2 0x100 EXP PUSH1 0x0 NOT ADD DUP1 NOT SWAP1 SWAP3 AND SWAP2 AND OR SWAP1 MSTORE PUSH1 0x40 DUP1 MLOAD SWAP3 SWAP1 SWAP5 ADD DUP3 SWAP1 SUB DUP3 KECCAK256 ADDRESS PUSH13 0x1000000000000000000000000 MUL DUP4 DUP4 ADD MSTORE DUP5 MLOAD PUSH1 0x14 DUP2 DUP6 SUB ADD DUP2 MSTORE PUSH1 0x34 SWAP1 SWAP4 ADD SWAP5 DUP6 SWAP1 MSTORE DUP3 MLOAD SWAP1 SWAP7 POP SWAP2 SWAP5 POP DUP4 SWAP3 POP DUP5 ADD SWAP1 DUP1 DUP4 DUP4 JUMPDEST PUSH1 0x20 DUP4 LT PUSH2 0x2B08 JUMPI DUP1 MLOAD DUP3 MSTORE PUSH1 0x1F NOT SWAP1 SWAP3 ADD SWAP2 PUSH1 0x20 SWAP2 DUP3 ADD SWAP2 ADD PUSH2 0x2AE9 JUMP JUMPDEST MLOAD DUP2 MLOAD PUSH1 0x20 SWAP4 DUP5 SUB PUSH2 0x100 EXP PUSH1 0x0 NOT ADD DUP1 NOT SWAP1 SWAP3 AND SWAP2 AND OR SWAP1 MSTORE PUSH1 0x40 DUP1 MLOAD SWAP3 SWAP1 SWAP5 ADD DUP3 SWAP1 SUB DUP3 KECCAK256 PUSH32 0x4F72646572280000000000000000000000000000000000000000000000000000 DUP4 DUP4 ADD MSTORE PUSH32 0x61646472657373206D616B6572416464726573732C0000000000000000000000 PUSH1 0x26 DUP5 ADD MSTORE PUSH32 0x616464726573732074616B6572416464726573732C0000000000000000000000 PUSH1 0x3B DUP5 ADD MSTORE PUSH32 0x6164647265737320666565526563697069656E74416464726573732C00000000 PUSH1 0x50 DUP5 ADD MSTORE PUSH32 0x616464726573732073656E646572416464726573732C00000000000000000000 PUSH1 0x6C DUP5 ADD MSTORE PUSH32 0x75696E74323536206D616B65724173736574416D6F756E742C00000000000000 PUSH1 0x82 DUP5 ADD MSTORE PUSH32 0x75696E743235362074616B65724173736574416D6F756E742C00000000000000 PUSH1 0x9B DUP5 ADD MSTORE PUSH32 0x75696E74323536206D616B65724665652C000000000000000000000000000000 PUSH1 0xB4 DUP5 ADD MSTORE PUSH32 0x75696E743235362074616B65724665652C000000000000000000000000000000 PUSH1 0xC5 DUP5 ADD MSTORE PUSH32 0x75696E743235362065787069726174696F6E54696D655365636F6E64732C0000 PUSH1 0xD6 DUP5 ADD MSTORE PUSH32 0x75696E743235362073616C742C00000000000000000000000000000000000000 PUSH1 0xF4 DUP5 ADD MSTORE PUSH32 0x6279746573206D616B65724173736574446174612C0000000000000000000000 PUSH2 0x101 DUP5 ADD MSTORE PUSH32 0x62797465732074616B65724173736574446174612C0000000000000000000000 PUSH2 0x116 DUP5 ADD MSTORE PUSH32 0x2900000000000000000000000000000000000000000000000000000000000000 PUSH2 0x12B DUP5 ADD MSTORE DUP5 MLOAD DUP1 DUP5 SUB PUSH2 0x10C ADD DUP2 MSTORE PUSH2 0x12C SWAP1 SWAP4 ADD SWAP5 DUP6 SWAP1 MSTORE DUP3 MLOAD SWAP1 SWAP7 POP SWAP2 SWAP5 POP DUP4 SWAP3 POP DUP5 ADD SWAP1 DUP1 DUP4 DUP4 JUMPDEST PUSH1 0x20 DUP4 LT PUSH2 0x2D8B JUMPI DUP1 MLOAD DUP3 MSTORE PUSH1 0x1F NOT SWAP1 SWAP3 ADD SWAP2 PUSH1 0x20 SWAP2 DUP3 ADD SWAP2 ADD PUSH2 0x2D6C JUMP JUMPDEST PUSH1 0x1 DUP4 PUSH1 0x20 SUB PUSH2 0x100 EXP SUB DUP1 NOT DUP3 MLOAD AND DUP2 DUP5 MLOAD AND DUP1 DUP3 OR DUP6 MSTORE POP POP POP POP POP POP SWAP1 POP ADD SWAP2 POP POP PUSH1 0x40 MLOAD DUP1 SWAP2 SUB SWAP1 KECCAK256 DUP5 PUSH1 0x0 ADD MLOAD DUP6 PUSH1 0x20 ADD MLOAD DUP7 PUSH1 0x40 ADD MLOAD DUP8 PUSH1 0x60 ADD MLOAD DUP9 PUSH1 0x80 ADD MLOAD DUP10 PUSH1 0xA0 ADD MLOAD DUP11 PUSH1 0xC0 ADD MLOAD DUP12 PUSH1 0xE0 ADD MLOAD DUP13 PUSH2 0x100 ADD MLOAD DUP14 PUSH2 0x120 ADD MLOAD DUP15 PUSH2 0x140 ADD MLOAD PUSH1 0x40 MLOAD PUSH1 0x20 ADD DUP1 DUP3 DUP1 MLOAD SWAP1 PUSH1 0x20 ADD SWAP1 DUP1 DUP4 DUP4 JUMPDEST PUSH1 0x20 DUP4 LT PUSH2 0x2E24 JUMPI DUP1 MLOAD DUP3 MSTORE PUSH1 0x1F NOT SWAP1 SWAP3 ADD SWAP2 PUSH1 0x20 SWAP2 DUP3 ADD SWAP2 ADD PUSH2 0x2E05 JUMP JUMPDEST PUSH1 0x1 DUP4 PUSH1 0x20 SUB PUSH2 0x100 EXP SUB DUP1 NOT DUP3 MLOAD AND DUP2 DUP5 MLOAD AND DUP1 DUP3 OR DUP6 MSTORE POP POP POP POP POP POP SWAP1 POP ADD SWAP2 POP POP PUSH1 0x40 MLOAD PUSH1 0x20 DUP2 DUP4 SUB SUB DUP2 MSTORE SWAP1 PUSH1 0x40 MSTORE PUSH1 0x40 MLOAD DUP1 DUP3 DUP1 MLOAD SWAP1 PUSH1 0x20 ADD SWAP1 DUP1 DUP4 DUP4 JUMPDEST PUSH1 0x20 DUP4 LT PUSH2 0x2E87 JUMPI DUP1 MLOAD DUP3 MSTORE PUSH1 0x1F NOT SWAP1 SWAP3 ADD SWAP2 PUSH1 0x20 SWAP2 DUP3 ADD SWAP2 ADD PUSH2 0x2E68 JUMP JUMPDEST PUSH1 0x1 DUP4 PUSH1 0x20 SUB PUSH2 0x100 EXP SUB DUP1 NOT DUP3 MLOAD AND DUP2 DUP5 MLOAD AND DUP1 DUP3 OR DUP6 MSTORE POP POP POP POP POP POP SWAP1 POP ADD SWAP2 POP POP PUSH1 0x40 MLOAD DUP1 SWAP2 SUB SWAP1 KECCAK256 DUP16 PUSH2 0x160 ADD MLOAD PUSH1 0x40 MLOAD PUSH1 0x20 ADD DUP1 DUP3 DUP1 MLOAD SWAP1 PUSH1 0x20 ADD SWAP1 DUP1 DUP4 DUP4 JUMPDEST PUSH1 0x20 DUP4 LT PUSH2 0x2EEC JUMPI DUP1 MLOAD DUP3 MSTORE PUSH1 0x1F NOT SWAP1 SWAP3 ADD SWAP2 PUSH1 0x20 SWAP2 DUP3 ADD SWAP2 ADD PUSH2 0x2ECD JUMP JUMPDEST PUSH1 0x1 DUP4 PUSH1 0x20 SUB PUSH2 0x100 EXP SUB DUP1 NOT DUP3 MLOAD AND DUP2 DUP5 MLOAD AND DUP1 DUP3 OR DUP6 MSTORE POP POP POP POP POP POP SWAP1 POP ADD SWAP2 POP POP PUSH1 0x40 MLOAD PUSH1 0x20 DUP2 DUP4 SUB SUB DUP2 MSTORE SWAP1 PUSH1 0x40 MSTORE PUSH1 0x40 MLOAD DUP1 DUP3 DUP1 MLOAD SWAP1 PUSH1 0x20 ADD SWAP1 DUP1 DUP4 DUP4 JUMPDEST PUSH1 0x20 DUP4 LT PUSH2 0x2F4F JUMPI DUP1 MLOAD DUP3 MSTORE PUSH1 0x1F NOT SWAP1 SWAP3 ADD SWAP2 PUSH1 0x20 SWAP2 DUP3 ADD SWAP2 ADD PUSH2 0x2F30 JUMP JUMPDEST PUSH1 0x1 DUP4 PUSH1 0x20 SUB PUSH2 0x100 EXP SUB DUP1 NOT DUP3 MLOAD AND DUP2 DUP5 MLOAD AND DUP1 DUP3 OR DUP6 MSTORE POP POP POP POP POP POP SWAP1 POP ADD SWAP2 POP POP PUSH1 0x40 MLOAD DUP1 SWAP2 SUB SWAP1 KECCAK256 PUSH1 0x40 MLOAD PUSH1 0x20 ADD DUP1 DUP14 PUSH1 0x1 PUSH1 0xA0 PUSH1 0x2 EXP SUB AND PUSH1 0x1 PUSH1 0xA0 PUSH1 0x2 EXP SUB AND PUSH13 0x1000000000000000000000000 MUL DUP2 MSTORE PUSH1 0x14 ADD DUP13 PUSH1 0x1 PUSH1 0xA0 PUSH1 0x2 EXP SUB AND PUSH1 0x1 PUSH1 0xA0 PUSH1 0x2 EXP SUB AND PUSH13 0x1000000000000000000000000 MUL DUP2 MSTORE PUSH1 0x14 ADD DUP12 PUSH1 0x1 PUSH1 0xA0 PUSH1 0x2 EXP SUB AND PUSH1 0x1 PUSH1 0xA0 PUSH1 0x2 EXP SUB AND PUSH13 0x1000000000000000000000000 MUL DUP2 MSTORE PUSH1 0x14 ADD DUP11 PUSH1 0x1 PUSH1 0xA0 PUSH1 0x2 EXP SUB AND PUSH1 0x1 PUSH1 0xA0 PUSH1 0x2 EXP SUB AND PUSH13 0x1000000000000000000000000 MUL DUP2 MSTORE PUSH1 0x14 ADD DUP10 DUP2 MSTORE PUSH1 0x20 ADD DUP9 DUP2 MSTORE PUSH1 0x20 ADD DUP8 DUP2 MSTORE PUSH1 0x20 ADD DUP7 DUP2 MSTORE PUSH1 0x20 ADD DUP6 DUP2 MSTORE PUSH1 0x20 ADD DUP5 DUP2 MSTORE PUSH1 0x20 ADD DUP4 PUSH1 0x0 NOT AND PUSH1 0x0 NOT AND DUP2 MSTORE PUSH1 0x20 ADD DUP3 PUSH1 0x0 NOT AND PUSH1 0x0 NOT AND DUP2 MSTORE PUSH1 0x20 ADD SWAP13 POP POP POP POP POP POP POP POP POP POP POP POP POP PUSH1 0x40 MLOAD PUSH1 0x20 DUP2 DUP4 SUB SUB DUP2 MSTORE SWAP1 PUSH1 0x40 MSTORE PUSH1 0x40 MLOAD DUP1 DUP3 DUP1 MLOAD SWAP1 PUSH1 0x20 ADD SWAP1 DUP1 DUP4 DUP4 JUMPDEST PUSH1 0x20 DUP4 LT PUSH2 0x30AB JUMPI DUP1 MLOAD DUP3 MSTORE PUSH1 0x1F NOT SWAP1 SWAP3 ADD SWAP2 PUSH1 0x20 SWAP2 DUP3 ADD SWAP2 ADD PUSH2 0x308C JUMP JUMPDEST MLOAD DUP2 MLOAD PUSH1 0x0 NOT PUSH1 0x20 SWAP5 DUP6 SUB PUSH2 0x100 EXP ADD SWAP1 DUP2 AND SWAP1 NOT SWAP2 SWAP1 SWAP2 AND OR SWAP1 MSTORE PUSH1 0x40 DUP1 MLOAD SWAP5 SWAP1 SWAP3 ADD DUP5 SWAP1 SUB DUP5 KECCAK256 DUP5 DUP3 ADD SWAP10 SWAP1 SWAP10 MSTORE DUP4 DUP3 ADD SWAP8 SWAP1 SWAP8 MSTORE PUSH1 0x60 DUP4 ADD SWAP6 SWAP1 SWAP6 MSTORE POP PUSH1 0x80 DUP1 DUP3 ADD SWAP7 SWAP1 SWAP7 MSTORE DUP4 MLOAD DUP1 DUP3 SUB SWAP1 SWAP7 ADD DUP7 MSTORE PUSH1 0xA0 ADD SWAP3 DUP4 SWAP1 MSTORE POP POP DUP3 MLOAD SWAP1 SWAP2 DUP3 SWAP2 SWAP1 DUP5 ADD SWAP1 DUP1 DUP4 DUP4 JUMPDEST PUSH1 0x20 DUP4 LT PUSH2 0x3134 JUMPI DUP1 MLOAD DUP3 MSTORE PUSH1 0x1F NOT SWAP1 SWAP3 ADD SWAP2 PUSH1 0x20 SWAP2 DUP3 ADD SWAP2 ADD PUSH2 0x3115 JUMP JUMPDEST MLOAD DUP2 MLOAD PUSH1 0x20 SWAP4 SWAP1 SWAP4 SUB PUSH2 0x100 EXP PUSH1 0x0 NOT ADD DUP1 NOT SWAP1 SWAP2 AND SWAP3 AND SWAP2 SWAP1 SWAP2 OR SWAP1 MSTORE PUSH1 0x40 MLOAD SWAP3 ADD DUP3 SWAP1 SUB SWAP1 SWAP2 KECCAK256 SWAP6 SWAP5 POP POP POP POP POP JUMP JUMPDEST DUP1 MLOAD PUSH1 0x40 DUP1 MLOAD DUP1 DUP3 ADD SWAP1 SWAP2 MSTORE PUSH1 0x10 DUP2 MSTORE PUSH32 0x4F524445525F554E46494C4C41424C4500000000000000000000000000000000 PUSH1 0x20 DUP3 ADD MSTORE PUSH1 0x0 SWAP2 PUSH1 0xFF AND PUSH1 0x3 EQ PUSH2 0x31C5 JUMPI PUSH1 0x40 MLOAD PUSH1 0xE5 PUSH1 0x2 EXP PUSH3 0x461BCD MUL DUP2 MSTORE PUSH1 0x4 ADD PUSH2 0x705 SWAP2 SWAP1 PUSH2 0x4246 JUMP JUMPDEST POP PUSH1 0x60 DUP4 ADD MLOAD PUSH1 0x1 PUSH1 0xA0 PUSH1 0x2 EXP SUB AND ISZERO PUSH2 0x3240 JUMPI PUSH1 0x60 DUP4 ADD MLOAD PUSH1 0x40 DUP1 MLOAD DUP1 DUP3 ADD SWAP1 SWAP2 MSTORE PUSH1 0xE DUP2 MSTORE PUSH32 0x494E56414C49445F53454E444552000000000000000000000000000000000000 PUSH1 0x20 DUP3 ADD MSTORE SWAP1 PUSH1 0x1 PUSH1 0xA0 PUSH1 0x2 EXP SUB AND CALLER EQ PUSH2 0x323E JUMPI PUSH1 0x40 MLOAD PUSH1 0xE5 PUSH1 0x2 EXP PUSH3 0x461BCD MUL DUP2 MSTORE PUSH1 0x4 ADD PUSH2 0x705 SWAP2 SWAP1 PUSH2 0x4246 JUMP JUMPDEST POP JUMPDEST PUSH2 0x3248 PUSH2 0x2125 JUMP JUMPDEST DUP4 MLOAD PUSH1 0x40 DUP1 MLOAD DUP1 DUP3 ADD SWAP1 SWAP2 MSTORE PUSH1 0xD DUP2 MSTORE PUSH32 0x494E56414C49445F4D414B455200000000000000000000000000000000000000 PUSH1 0x20 DUP3 ADD MSTORE SWAP2 SWAP3 POP PUSH1 0x1 PUSH1 0xA0 PUSH1 0x2 EXP SUB DUP1 DUP5 AND SWAP2 AND EQ PUSH2 0x658 JUMPI PUSH1 0x40 MLOAD PUSH1 0xE5 PUSH1 0x2 EXP PUSH3 0x461BCD MUL DUP2 MSTORE PUSH1 0x4 ADD PUSH2 0x705 SWAP2 SWAP1 PUSH2 0x4246 JUMP JUMPDEST PUSH1 0x0 DUP2 DUP2 MSTORE PUSH1 0x3 PUSH1 0x20 MSTORE PUSH1 0x40 SWAP1 DUP2 SWAP1 KECCAK256 DUP1 SLOAD PUSH1 0xFF NOT AND PUSH1 0x1 OR SWAP1 SSTORE DUP3 DUP2 ADD MLOAD DUP4 MLOAD PUSH2 0x140 DUP6 ADD MLOAD PUSH2 0x160 DUP7 ADD MLOAD SWAP4 MLOAD DUP6 SWAP5 PUSH1 0x1 PUSH1 0xA0 PUSH1 0x2 EXP SUB SWAP5 DUP6 AND SWAP5 SWAP4 SWAP1 SWAP4 AND SWAP3 PUSH32 0xB1AD640E9E79B6FDBC3C415DC2914AB54E753D2971F51EAB910F7AA317A3163A SWAP3 PUSH2 0x331F SWAP3 SWAP1 SWAP2 SWAP1 PUSH2 0x4284 JUMP JUMPDEST PUSH1 0x40 MLOAD DUP1 SWAP2 SUB SWAP1 LOG4 POP POP JUMP JUMPDEST PUSH1 0x0 DUP1 DUP3 MLOAD GT PUSH1 0x60 PUSH1 0x40 MLOAD SWAP1 DUP2 ADD PUSH1 0x40 MSTORE DUP1 PUSH1 0x21 DUP2 MSTORE PUSH1 0x20 ADD PUSH32 0x475245415445525F5448414E5F5A45524F5F4C454E4754485F52455155495245 DUP2 MSTORE PUSH1 0x20 ADD PUSH32 0x4400000000000000000000000000000000000000000000000000000000000000 DUP2 MSTORE POP SWAP1 ISZERO ISZERO PUSH2 0x33B1 JUMPI PUSH1 0x40 MLOAD PUSH1 0xE5 PUSH1 0x2 EXP PUSH3 0x461BCD MUL DUP2 MSTORE PUSH1 0x4 ADD PUSH2 0x705 SWAP2 SWAP1 PUSH2 0x4246 JUMP JUMPDEST POP DUP2 MLOAD DUP3 SWAP1 PUSH1 0x0 NOT DUP2 ADD SWAP1 DUP2 LT PUSH2 0x33C4 JUMPI INVALID JUMPDEST ADD PUSH1 0x20 ADD MLOAD DUP3 MLOAD PUSH1 0x0 NOT ADD SWAP1 SWAP3 MSTORE POP PUSH1 0xF8 PUSH1 0x2 EXP SWAP1 DUP2 SWAP1 DIV MUL SWAP1 JUMP JUMPDEST PUSH1 0x0 DUP2 PUSH1 0x20 ADD DUP4 MLOAD LT ISZERO PUSH1 0x60 PUSH1 0x40 MLOAD SWAP1 DUP2 ADD PUSH1 0x40 MSTORE DUP1 PUSH1 0x26 DUP2 MSTORE PUSH1 0x20 ADD PUSH32 0x475245415445525F4F525F455155414C5F544F5F33325F4C454E4754485F5245 DUP2 MSTORE PUSH1 0x20 ADD PUSH32 0x5155495245440000000000000000000000000000000000000000000000000000 DUP2 MSTORE POP SWAP1 ISZERO ISZERO PUSH2 0x346A JUMPI PUSH1 0x40 MLOAD PUSH1 0xE5 PUSH1 0x2 EXP PUSH3 0x461BCD MUL DUP2 MSTORE PUSH1 0x4 ADD PUSH2 0x705 SWAP2 SWAP1 PUSH2 0x4246 JUMP JUMPDEST POP POP ADD PUSH1 0x20 ADD MLOAD SWAP1 JUMP JUMPDEST PUSH1 0x0 PUSH1 0x14 DUP3 MLOAD LT ISZERO PUSH1 0x60 PUSH1 0x40 MLOAD SWAP1 DUP2 ADD PUSH1 0x40 MSTORE DUP1 PUSH1 0x26 DUP2 MSTORE PUSH1 0x20 ADD PUSH32 0x475245415445525F4F525F455155414C5F544F5F32305F4C454E4754485F5245 DUP2 MSTORE PUSH1 0x20 ADD PUSH32 0x5155495245440000000000000000000000000000000000000000000000000000 DUP2 MSTORE POP SWAP1 ISZERO ISZERO PUSH2 0x34FC JUMPI PUSH1 0x40 MLOAD PUSH1 0xE5 PUSH1 0x2 EXP PUSH3 0x461BCD MUL DUP2 MSTORE PUSH1 0x4 ADD PUSH2 0x705 SWAP2 SWAP1 PUSH2 0x4246 JUMP JUMPDEST POP PUSH2 0x350B DUP3 PUSH1 0x14 DUP5 MLOAD SUB PUSH2 0x365F JUMP JUMPDEST DUP3 MLOAD PUSH1 0x13 NOT ADD SWAP1 SWAP3 MSTORE POP SWAP1 JUMP JUMPDEST PUSH1 0x0 DUP3 DUP3 MUL DUP4 ISZERO DUP1 PUSH2 0x3534 JUMPI POP DUP3 DUP5 DUP3 DUP2 ISZERO ISZERO PUSH2 0x3531 JUMPI INVALID JUMPDEST DIV EQ JUMPDEST ISZERO ISZERO PUSH2 0x2855 JUMPI INVALID JUMPDEST PUSH1 0x0 DUP1 PUSH1 0x0 DUP5 DUP1 ISZERO ISZERO PUSH2 0x354B JUMPI INVALID JUMPDEST DUP7 DUP6 MULMOD SWAP2 POP DUP2 ISZERO ISZERO PUSH2 0x3560 JUMPI PUSH1 0x0 SWAP3 POP PUSH2 0x3589 JUMP JUMPDEST PUSH2 0x357F PUSH2 0x3570 DUP4 PUSH3 0xF4240 PUSH2 0x3518 JUMP JUMPDEST PUSH2 0x357A DUP9 DUP8 PUSH2 0x3518 JUMP JUMPDEST PUSH2 0x3648 JUMP JUMPDEST PUSH2 0x3E8 DUP2 GT SWAP4 POP SWAP1 POP JUMPDEST POP POP SWAP4 SWAP3 POP POP POP JUMP JUMPDEST PUSH1 0x0 DUP3 DUP3 ADD DUP4 DUP2 LT ISZERO PUSH2 0x2855 JUMPI INVALID JUMPDEST PUSH1 0x0 DUP1 DUP3 GT ISZERO PUSH2 0x29EA JUMPI POP PUSH1 0xFF DUP5 AND PUSH1 0x0 SWAP1 DUP2 MSTORE PUSH1 0x9 PUSH1 0x20 MSTORE PUSH1 0x40 SWAP1 DUP2 SWAP1 KECCAK256 SLOAD SWAP1 MLOAD PUSH32 0xA85E59E400000000000000000000000000000000000000000000000000000000 DUP2 MSTORE PUSH1 0x1 PUSH1 0xA0 PUSH1 0x2 EXP SUB SWAP1 SWAP2 AND SWAP1 DUP2 SWAP1 PUSH4 0xA85E59E4 SWAP1 PUSH2 0x360E SWAP1 DUP10 SWAP1 DUP9 SWAP1 DUP9 SWAP1 DUP9 SWAP1 PUSH1 0x4 ADD PUSH2 0x4257 JUMP JUMPDEST PUSH1 0x0 PUSH1 0x40 MLOAD DUP1 DUP4 SUB DUP2 PUSH1 0x0 DUP8 DUP1 EXTCODESIZE ISZERO DUP1 ISZERO PUSH2 0x3628 JUMPI PUSH1 0x0 DUP1 REVERT JUMPDEST POP GAS CALL ISZERO DUP1 ISZERO PUSH2 0x363C JUMPI RETURNDATASIZE PUSH1 0x0 DUP1 RETURNDATACOPY RETURNDATASIZE PUSH1 0x0 REVERT JUMPDEST POP POP POP POP POP POP POP POP POP POP JUMP JUMPDEST PUSH1 0x0 DUP1 DUP3 DUP5 DUP2 ISZERO ISZERO PUSH2 0x3656 JUMPI INVALID JUMPDEST DIV SWAP5 SWAP4 POP POP POP POP JUMP JUMPDEST PUSH1 0x0 DUP2 PUSH1 0x14 ADD DUP4 MLOAD LT ISZERO PUSH1 0x60 PUSH1 0x40 MLOAD SWAP1 DUP2 ADD PUSH1 0x40 MSTORE DUP1 PUSH1 0x26 DUP2 MSTORE PUSH1 0x20 ADD PUSH32 0x475245415445525F4F525F455155414C5F544F5F32305F4C454E4754485F5245 DUP2 MSTORE PUSH1 0x20 ADD PUSH32 0x5155495245440000000000000000000000000000000000000000000000000000 DUP2 MSTORE POP SWAP1 ISZERO ISZERO PUSH2 0x36E9 JUMPI PUSH1 0x40 MLOAD PUSH1 0xE5 PUSH1 0x2 EXP PUSH3 0x461BCD MUL DUP2 MSTORE PUSH1 0x4 ADD PUSH2 0x705 SWAP2 SWAP1 PUSH2 0x4246 JUMP JUMPDEST POP POP ADD PUSH1 0x14 ADD MLOAD PUSH1 0x1 PUSH1 0xA0 PUSH1 0x2 EXP SUB AND SWAP1 JUMP JUMPDEST PUSH2 0x120 PUSH1 0x40 MLOAD SWAP1 DUP2 ADD PUSH1 0x40 MSTORE DUP1 PUSH2 0x3711 PUSH2 0x374B JUMP JUMPDEST DUP2 MSTORE PUSH1 0x20 ADD PUSH2 0x371E PUSH2 0x374B JUMP JUMPDEST DUP2 MSTORE PUSH1 0x20 ADD PUSH1 0x0 DUP2 MSTORE POP SWAP1 JUMP JUMPDEST PUSH1 0x40 DUP1 MLOAD PUSH1 0x60 DUP2 ADD DUP3 MSTORE PUSH1 0x0 DUP1 DUP3 MSTORE PUSH1 0x20 DUP3 ADD DUP2 SWAP1 MSTORE SWAP2 DUP2 ADD SWAP2 SWAP1 SWAP2 MSTORE SWAP1 JUMP JUMPDEST PUSH1 0x80 PUSH1 0x40 MLOAD SWAP1 DUP2 ADD PUSH1 0x40 MSTORE DUP1 PUSH1 0x0 DUP2 MSTORE PUSH1 0x20 ADD PUSH1 0x0 DUP2 MSTORE PUSH1 0x20 ADD PUSH1 0x0 DUP2 MSTORE PUSH1 0x20 ADD PUSH1 0x0 DUP2 MSTORE POP SWAP1 JUMP JUMPDEST PUSH1 0x0 PUSH2 0x2855 DUP3 CALLDATALOAD PUSH2 0x439C JUMP JUMPDEST PUSH1 0x0 PUSH1 0x1F DUP3 ADD DUP4 SGT PUSH2 0x3791 JUMPI PUSH1 0x0 DUP1 REVERT JUMPDEST DUP2 CALLDATALOAD PUSH2 0x37A4 PUSH2 0x379F DUP3 PUSH2 0x434F JUMP JUMPDEST PUSH2 0x4328 JUMP JUMPDEST DUP2 DUP2 MSTORE PUSH1 0x20 SWAP4 DUP5 ADD SWAP4 SWAP1 SWAP3 POP DUP3 ADD DUP4 PUSH1 0x0 JUMPDEST DUP4 DUP2 LT ISZERO PUSH2 0x37E2 JUMPI DUP2 CALLDATALOAD DUP7 ADD PUSH2 0x37CC DUP9 DUP3 PUSH2 0x3926 JUMP JUMPDEST DUP5 MSTORE POP PUSH1 0x20 SWAP3 DUP4 ADD SWAP3 SWAP2 SWAP1 SWAP2 ADD SWAP1 PUSH1 0x1 ADD PUSH2 0x37B6 JUMP JUMPDEST POP POP POP POP SWAP3 SWAP2 POP POP JUMP JUMPDEST PUSH1 0x0 PUSH1 0x1F DUP3 ADD DUP4 SGT PUSH2 0x37FD JUMPI PUSH1 0x0 DUP1 REVERT JUMPDEST DUP2 CALLDATALOAD PUSH2 0x380B PUSH2 0x379F DUP3 PUSH2 0x434F JUMP JUMPDEST DUP2 DUP2 MSTORE PUSH1 0x20 SWAP4 DUP5 ADD SWAP4 SWAP1 SWAP3 POP DUP3 ADD DUP4 PUSH1 0x0 JUMPDEST DUP4 DUP2 LT ISZERO PUSH2 0x37E2 JUMPI DUP2 CALLDATALOAD DUP7 ADD PUSH2 0x3833 DUP9 DUP3 PUSH2 0x3975 JUMP JUMPDEST DUP5 MSTORE POP PUSH1 0x20 SWAP3 DUP4 ADD SWAP3 SWAP2 SWAP1 SWAP2 ADD SWAP1 PUSH1 0x1 ADD PUSH2 0x381D JUMP JUMPDEST PUSH1 0x0 PUSH1 0x1F DUP3 ADD DUP4 SGT PUSH2 0x385A JUMPI PUSH1 0x0 DUP1 REVERT JUMPDEST DUP2 CALLDATALOAD PUSH2 0x3868 PUSH2 0x379F DUP3 PUSH2 0x434F JUMP JUMPDEST SWAP2 POP DUP2 DUP2 DUP4 MSTORE PUSH1 0x20 DUP5 ADD SWAP4 POP PUSH1 0x20 DUP2 ADD SWAP1 POP DUP4 DUP6 PUSH1 0x20 DUP5 MUL DUP3 ADD GT ISZERO PUSH2 0x388D JUMPI PUSH1 0x0 DUP1 REVERT JUMPDEST PUSH1 0x0 JUMPDEST DUP4 DUP2 LT ISZERO PUSH2 0x37E2 JUMPI DUP2 PUSH2 0x38A3 DUP9 DUP3 PUSH2 0x38D1 JUMP JUMPDEST DUP5 MSTORE POP PUSH1 0x20 SWAP3 DUP4 ADD SWAP3 SWAP2 SWAP1 SWAP2 ADD SWAP1 PUSH1 0x1 ADD PUSH2 0x3890 JUMP JUMPDEST PUSH1 0x0 PUSH2 0x2855 DUP3 CALLDATALOAD PUSH2 0x43A8 JUMP JUMPDEST PUSH1 0x0 PUSH2 0x2855 DUP3 MLOAD PUSH2 0x43A8 JUMP JUMPDEST PUSH1 0x0 PUSH2 0x2855 DUP3 CALLDATALOAD PUSH2 0x43AD JUMP JUMPDEST PUSH1 0x0 DUP1 PUSH1 0x1F DUP4 ADD DUP5 SGT PUSH2 0x38EF JUMPI PUSH1 0x0 DUP1 REVERT JUMPDEST POP DUP2 CALLDATALOAD PUSH8 0xFFFFFFFFFFFFFFFF DUP2 GT ISZERO PUSH2 0x3907 JUMPI PUSH1 0x0 DUP1 REVERT JUMPDEST PUSH1 0x20 DUP4 ADD SWAP2 POP DUP4 PUSH1 0x1 DUP3 MUL DUP4 ADD GT ISZERO PUSH2 0x391F JUMPI PUSH1 0x0 DUP1 REVERT JUMPDEST SWAP3 POP SWAP3 SWAP1 POP JUMP JUMPDEST PUSH1 0x0 PUSH1 0x1F DUP3 ADD DUP4 SGT PUSH2 0x3937 JUMPI PUSH1 0x0 DUP1 REVERT JUMPDEST DUP2 CALLDATALOAD PUSH2 0x3945 PUSH2 0x379F DUP3 PUSH2 0x4370 JUMP JUMPDEST SWAP2 POP DUP1 DUP3 MSTORE PUSH1 0x20 DUP4 ADD PUSH1 0x20 DUP4 ADD DUP6 DUP4 DUP4 ADD GT ISZERO PUSH2 0x3961 JUMPI PUSH1 0x0 DUP1 REVERT JUMPDEST PUSH2 0x396C DUP4 DUP3 DUP5 PUSH2 0x43C1 JUMP JUMPDEST POP POP POP SWAP3 SWAP2 POP POP JUMP JUMPDEST PUSH1 0x0 PUSH2 0x180 DUP3 DUP5 SUB SLT ISZERO PUSH2 0x3988 JUMPI PUSH1 0x0 DUP1 REVERT JUMPDEST PUSH2 0x3993 PUSH2 0x180 PUSH2 0x4328 JUMP JUMPDEST SWAP1 POP PUSH1 0x0 PUSH2 0x39A1 DUP5 DUP5 PUSH2 0x3774 JUMP JUMPDEST DUP3 MSTORE POP PUSH1 0x20 PUSH2 0x39B2 DUP5 DUP5 DUP4 ADD PUSH2 0x3774 JUMP JUMPDEST PUSH1 0x20 DUP4 ADD MSTORE POP PUSH1 0x40 PUSH2 0x39C6 DUP5 DUP3 DUP6 ADD PUSH2 0x3774 JUMP JUMPDEST PUSH1 0x40 DUP4 ADD MSTORE POP PUSH1 0x60 PUSH2 0x39DA DUP5 DUP3 DUP6 ADD PUSH2 0x3774 JUMP JUMPDEST PUSH1 0x60 DUP4 ADD MSTORE POP PUSH1 0x80 PUSH2 0x39EE DUP5 DUP3 DUP6 ADD PUSH2 0x38D1 JUMP JUMPDEST PUSH1 0x80 DUP4 ADD MSTORE POP PUSH1 0xA0 PUSH2 0x3A02 DUP5 DUP3 DUP6 ADD PUSH2 0x38D1 JUMP JUMPDEST PUSH1 0xA0 DUP4 ADD MSTORE POP PUSH1 0xC0 PUSH2 0x3A16 DUP5 DUP3 DUP6 ADD PUSH2 0x38D1 JUMP JUMPDEST PUSH1 0xC0 DUP4 ADD MSTORE POP PUSH1 0xE0 PUSH2 0x3A2A DUP5 DUP3 DUP6 ADD PUSH2 0x38D1 JUMP JUMPDEST PUSH1 0xE0 DUP4 ADD MSTORE POP PUSH2 0x100 PUSH2 0x3A3F DUP5 DUP3 DUP6 ADD PUSH2 0x38D1 JUMP JUMPDEST PUSH2 0x100 DUP4 ADD MSTORE POP PUSH2 0x120 PUSH2 0x3A55 DUP5 DUP3 DUP6 ADD PUSH2 0x38D1 JUMP JUMPDEST PUSH2 0x120 DUP4 ADD MSTORE POP PUSH2 0x140 DUP3 ADD CALLDATALOAD PUSH8 0xFFFFFFFFFFFFFFFF DUP2 GT ISZERO PUSH2 0x3A77 JUMPI PUSH1 0x0 DUP1 REVERT JUMPDEST PUSH2 0x3A83 DUP5 DUP3 DUP6 ADD PUSH2 0x3926 JUMP JUMPDEST PUSH2 0x140 DUP4 ADD MSTORE POP PUSH2 0x160 DUP3 ADD CALLDATALOAD PUSH8 0xFFFFFFFFFFFFFFFF DUP2 GT ISZERO PUSH2 0x3AA5 JUMPI PUSH1 0x0 DUP1 REVERT JUMPDEST PUSH2 0x3AB1 DUP5 DUP3 DUP6 ADD PUSH2 0x3926 JUMP JUMPDEST PUSH2 0x160 DUP4 ADD MSTORE POP SWAP3 SWAP2 POP POP JUMP JUMPDEST PUSH1 0x0 PUSH2 0x2855 DUP3 CALLDATALOAD PUSH2 0x43B0 JUMP JUMPDEST PUSH1 0x0 PUSH2 0x2855 DUP3 MLOAD PUSH2 0x43B0 JUMP JUMPDEST PUSH1 0x0 PUSH1 0x20 DUP3 DUP5 SUB SLT ISZERO PUSH2 0x3AE8 JUMPI PUSH1 0x0 DUP1 REVERT JUMPDEST PUSH1 0x0 PUSH2 0x283C DUP5 DUP5 PUSH2 0x3774 JUMP JUMPDEST PUSH1 0x0 DUP1 PUSH1 0x40 DUP4 DUP6 SUB SLT ISZERO PUSH2 0x3B07 JUMPI PUSH1 0x0 DUP1 REVERT JUMPDEST PUSH1 0x0 PUSH2 0x3B13 DUP6 DUP6 PUSH2 0x3774 JUMP JUMPDEST SWAP3 POP POP PUSH1 0x20 PUSH2 0x3B24 DUP6 DUP3 DUP7 ADD PUSH2 0x3774 JUMP JUMPDEST SWAP2 POP POP SWAP3 POP SWAP3 SWAP1 POP JUMP JUMPDEST PUSH1 0x0 DUP1 PUSH1 0x40 DUP4 DUP6 SUB SLT ISZERO PUSH2 0x3B41 JUMPI PUSH1 0x0 DUP1 REVERT JUMPDEST PUSH1 0x0 PUSH2 0x3B4D DUP6 DUP6 PUSH2 0x3774 JUMP JUMPDEST SWAP3 POP POP PUSH1 0x20 PUSH2 0x3B24 DUP6 DUP3 DUP7 ADD PUSH2 0x38B9 JUMP JUMPDEST PUSH1 0x0 PUSH1 0x20 DUP3 DUP5 SUB SLT ISZERO PUSH2 0x3B70 JUMPI PUSH1 0x0 DUP1 REVERT JUMPDEST DUP2 CALLDATALOAD PUSH8 0xFFFFFFFFFFFFFFFF DUP2 GT ISZERO PUSH2 0x3B87 JUMPI PUSH1 0x0 DUP1 REVERT JUMPDEST PUSH2 0x283C DUP5 DUP3 DUP6 ADD PUSH2 0x37EC JUMP JUMPDEST PUSH1 0x0 DUP1 PUSH1 0x0 PUSH1 0x60 DUP5 DUP7 SUB SLT ISZERO PUSH2 0x3BA8 JUMPI PUSH1 0x0 DUP1 REVERT JUMPDEST DUP4 CALLDATALOAD PUSH8 0xFFFFFFFFFFFFFFFF DUP2 GT ISZERO PUSH2 0x3BBF JUMPI PUSH1 0x0 DUP1 REVERT JUMPDEST PUSH2 0x3BCB DUP7 DUP3 DUP8 ADD PUSH2 0x37EC JUMP JUMPDEST SWAP4 POP POP PUSH1 0x20 DUP5 ADD CALLDATALOAD PUSH8 0xFFFFFFFFFFFFFFFF DUP2 GT ISZERO PUSH2 0x3BE8 JUMPI PUSH1 0x0 DUP1 REVERT JUMPDEST PUSH2 0x3BF4 DUP7 DUP3 DUP8 ADD PUSH2 0x3849 JUMP JUMPDEST SWAP3 POP POP PUSH1 0x40 DUP5 ADD CALLDATALOAD PUSH8 0xFFFFFFFFFFFFFFFF DUP2 GT ISZERO PUSH2 0x3C11 JUMPI PUSH1 0x0 DUP1 REVERT JUMPDEST PUSH2 0x3C1D DUP7 DUP3 DUP8 ADD PUSH2 0x3780 JUMP JUMPDEST SWAP2 POP POP SWAP3 POP SWAP3 POP SWAP3 JUMP JUMPDEST PUSH1 0x0 DUP1 PUSH1 0x0 PUSH1 0x60 DUP5 DUP7 SUB SLT ISZERO PUSH2 0x3C3C JUMPI PUSH1 0x0 DUP1 REVERT JUMPDEST DUP4 CALLDATALOAD PUSH8 0xFFFFFFFFFFFFFFFF DUP2 GT ISZERO PUSH2 0x3C53 JUMPI PUSH1 0x0 DUP1 REVERT JUMPDEST PUSH2 0x3C5F DUP7 DUP3 DUP8 ADD PUSH2 0x37EC JUMP JUMPDEST SWAP4 POP POP PUSH1 0x20 PUSH2 0x3BF4 DUP7 DUP3 DUP8 ADD PUSH2 0x38D1 JUMP JUMPDEST PUSH1 0x0 PUSH1 0x20 DUP3 DUP5 SUB SLT ISZERO PUSH2 0x3C82 JUMPI PUSH1 0x0 DUP1 REVERT JUMPDEST PUSH1 0x0 PUSH2 0x283C DUP5 DUP5 PUSH2 0x38C5 JUMP JUMPDEST PUSH1 0x0 PUSH1 0x20 DUP3 DUP5 SUB SLT ISZERO PUSH2 0x3CA0 JUMPI PUSH1 0x0 DUP1 REVERT JUMPDEST PUSH1 0x0 PUSH2 0x283C DUP5 DUP5 PUSH2 0x38D1 JUMP JUMPDEST PUSH1 0x0 DUP1 PUSH1 0x40 DUP4 DUP6 SUB SLT ISZERO PUSH2 0x3CBF JUMPI PUSH1 0x0 DUP1 REVERT JUMPDEST PUSH1 0x0 PUSH2 0x3B13 DUP6 DUP6 PUSH2 0x38D1 JUMP JUMPDEST PUSH1 0x0 DUP1 PUSH1 0x0 DUP1 PUSH1 0x60 DUP6 DUP8 SUB SLT ISZERO PUSH2 0x3CE1 JUMPI PUSH1 0x0 DUP1 REVERT JUMPDEST PUSH1 0x0 PUSH2 0x3CED DUP8 DUP8 PUSH2 0x38D1 JUMP JUMPDEST SWAP5 POP POP PUSH1 0x20 PUSH2 0x3CFE DUP8 DUP3 DUP9 ADD PUSH2 0x3774 JUMP JUMPDEST SWAP4 POP POP PUSH1 0x40 DUP6 ADD CALLDATALOAD PUSH8 0xFFFFFFFFFFFFFFFF DUP2 GT ISZERO PUSH2 0x3D1B JUMPI PUSH1 0x0 DUP1 REVERT JUMPDEST PUSH2 0x3D27 DUP8 DUP3 DUP9 ADD PUSH2 0x38DD JUMP JUMPDEST SWAP6 SWAP9 SWAP5 SWAP8 POP SWAP6 POP POP POP POP JUMP JUMPDEST PUSH1 0x0 PUSH1 0x20 DUP3 DUP5 SUB SLT ISZERO PUSH2 0x3D45 JUMPI PUSH1 0x0 DUP1 REVERT JUMPDEST DUP2 CALLDATALOAD PUSH8 0xFFFFFFFFFFFFFFFF DUP2 GT ISZERO PUSH2 0x3D5C JUMPI PUSH1 0x0 DUP1 REVERT JUMPDEST PUSH2 0x283C DUP5 DUP3 DUP6 ADD PUSH2 0x3975 JUMP JUMPDEST PUSH1 0x0 DUP1 PUSH1 0x0 DUP1 PUSH1 0x80 DUP6 DUP8 SUB SLT ISZERO PUSH2 0x3D7E JUMPI PUSH1 0x0 DUP1 REVERT JUMPDEST DUP5 CALLDATALOAD PUSH8 0xFFFFFFFFFFFFFFFF DUP2 GT ISZERO PUSH2 0x3D95 JUMPI PUSH1 0x0 DUP1 REVERT JUMPDEST PUSH2 0x3DA1 DUP8 DUP3 DUP9 ADD PUSH2 0x3975 JUMP JUMPDEST SWAP5 POP POP PUSH1 0x20 DUP6 ADD CALLDATALOAD PUSH8 0xFFFFFFFFFFFFFFFF DUP2 GT ISZERO PUSH2 0x3DBE JUMPI PUSH1 0x0 DUP1 REVERT JUMPDEST PUSH2 0x3DCA DUP8 DUP3 DUP9 ADD PUSH2 0x3975 JUMP JUMPDEST SWAP4 POP POP PUSH1 0x40 DUP6 ADD CALLDATALOAD PUSH8 0xFFFFFFFFFFFFFFFF DUP2 GT ISZERO PUSH2 0x3DE7 JUMPI PUSH1 0x0 DUP1 REVERT JUMPDEST PUSH2 0x3DF3 DUP8 DUP3 DUP9 ADD PUSH2 0x3926 JUMP JUMPDEST SWAP3 POP POP PUSH1 0x60 DUP6 ADD CALLDATALOAD PUSH8 0xFFFFFFFFFFFFFFFF DUP2 GT ISZERO PUSH2 0x3E10 JUMPI PUSH1 0x0 DUP1 REVERT JUMPDEST PUSH2 0x3E1C DUP8 DUP3 DUP9 ADD PUSH2 0x3926 JUMP JUMPDEST SWAP2 POP POP SWAP3 SWAP6 SWAP2 SWAP5 POP SWAP3 POP JUMP JUMPDEST PUSH1 0x0 DUP1 PUSH1 0x0 PUSH1 0x60 DUP5 DUP7 SUB SLT ISZERO PUSH2 0x3E3D JUMPI PUSH1 0x0 DUP1 REVERT JUMPDEST DUP4 CALLDATALOAD PUSH8 0xFFFFFFFFFFFFFFFF DUP2 GT ISZERO PUSH2 0x3E54 JUMPI PUSH1 0x0 DUP1 REVERT JUMPDEST PUSH2 0x3E60 DUP7 DUP3 DUP8 ADD PUSH2 0x3975 JUMP JUMPDEST SWAP4 POP POP PUSH1 0x20 PUSH2 0x3E71 DUP7 DUP3 DUP8 ADD PUSH2 0x38D1 JUMP JUMPDEST SWAP3 POP POP PUSH1 0x40 DUP5 ADD CALLDATALOAD PUSH8 0xFFFFFFFFFFFFFFFF DUP2 GT ISZERO PUSH2 0x3E8E JUMPI PUSH1 0x0 DUP1 REVERT JUMPDEST PUSH2 0x3C1D DUP7 DUP3 DUP8 ADD PUSH2 0x3926 JUMP JUMPDEST PUSH1 0x0 DUP1 PUSH1 0x0 DUP1 PUSH1 0x0 DUP1 PUSH1 0x80 DUP8 DUP10 SUB SLT ISZERO PUSH2 0x3EB3 JUMPI PUSH1 0x0 DUP1 REVERT JUMPDEST PUSH1 0x0 PUSH2 0x3EBF DUP10 DUP10 PUSH2 0x38D1 JUMP JUMPDEST SWAP7 POP POP PUSH1 0x20 PUSH2 0x3ED0 DUP10 DUP3 DUP11 ADD PUSH2 0x3774 JUMP JUMPDEST SWAP6 POP POP PUSH1 0x40 DUP8 ADD CALLDATALOAD PUSH8 0xFFFFFFFFFFFFFFFF DUP2 GT ISZERO PUSH2 0x3EED JUMPI PUSH1 0x0 DUP1 REVERT JUMPDEST PUSH2 0x3EF9 DUP10 DUP3 DUP11 ADD PUSH2 0x38DD JUMP JUMPDEST SWAP5 POP SWAP5 POP POP PUSH1 0x60 DUP8 ADD CALLDATALOAD PUSH8 0xFFFFFFFFFFFFFFFF DUP2 GT ISZERO PUSH2 0x3F18 JUMPI PUSH1 0x0 DUP1 REVERT JUMPDEST PUSH2 0x3F24 DUP10 DUP3 DUP11 ADD PUSH2 0x38DD JUMP JUMPDEST SWAP3 POP SWAP3 POP POP SWAP3 SWAP6 POP SWAP3 SWAP6 POP SWAP3 SWAP6 JUMP JUMPDEST PUSH1 0x0 PUSH1 0x20 DUP3 DUP5 SUB SLT ISZERO PUSH2 0x3F45 JUMPI PUSH1 0x0 DUP1 REVERT JUMPDEST PUSH1 0x0 PUSH2 0x283C DUP5 DUP5 PUSH2 0x3ABE JUMP JUMPDEST PUSH1 0x0 PUSH1 0x20 DUP3 DUP5 SUB SLT ISZERO PUSH2 0x3F63 JUMPI PUSH1 0x0 DUP1 REVERT JUMPDEST PUSH1 0x0 PUSH2 0x283C DUP5 DUP5 PUSH2 0x3ACA JUMP JUMPDEST PUSH1 0x0 DUP1 PUSH1 0x0 PUSH1 0x60 DUP5 DUP7 SUB SLT ISZERO PUSH2 0x3F84 JUMPI PUSH1 0x0 DUP1 REVERT JUMPDEST PUSH1 0x0 PUSH2 0x3F90 DUP7 DUP7 PUSH2 0x3ABE JUMP JUMPDEST SWAP4 POP POP PUSH1 0x20 PUSH2 0x3FA1 DUP7 DUP3 DUP8 ADD PUSH2 0x3774 JUMP JUMPDEST SWAP3 POP POP PUSH1 0x40 PUSH2 0x3C1D DUP7 DUP3 DUP8 ADD PUSH2 0x3774 JUMP JUMPDEST PUSH2 0x3FBB DUP2 PUSH2 0x439C JUMP JUMPDEST DUP3 MSTORE POP POP JUMP JUMPDEST PUSH2 0x3FBB DUP2 PUSH2 0x43A8 JUMP JUMPDEST PUSH2 0x3FBB DUP2 PUSH2 0x43AD JUMP JUMPDEST PUSH1 0x0 PUSH2 0x3FDE DUP3 PUSH2 0x4398 JUMP JUMPDEST DUP1 DUP5 MSTORE PUSH2 0x3FF2 DUP2 PUSH1 0x20 DUP7 ADD PUSH1 0x20 DUP7 ADD PUSH2 0x43CD JUMP JUMPDEST PUSH2 0x3FFB DUP2 PUSH2 0x43F9 JUMP JUMPDEST SWAP1 SWAP4 ADD PUSH1 0x20 ADD SWAP4 SWAP3 POP POP POP JUMP JUMPDEST PUSH2 0x3FBB DUP2 PUSH2 0x43B6 JUMP JUMPDEST PUSH1 0x33 DUP2 MSTORE PUSH32 0x4F6E6C7920636F6E7472616374206F776E657220697320616C6C6F7765642074 PUSH1 0x20 DUP3 ADD MSTORE PUSH32 0x6F2063616C6C2074686973206D6574686F642E00000000000000000000000000 PUSH1 0x40 DUP3 ADD MSTORE PUSH1 0x60 ADD SWAP1 JUMP JUMPDEST DUP1 MLOAD PUSH1 0x80 DUP4 ADD SWAP1 PUSH2 0x4078 DUP5 DUP3 PUSH2 0x3FCA JUMP JUMPDEST POP PUSH1 0x20 DUP3 ADD MLOAD PUSH2 0x408B PUSH1 0x20 DUP6 ADD DUP3 PUSH2 0x3FCA JUMP JUMPDEST POP PUSH1 0x40 DUP3 ADD MLOAD PUSH2 0x409E PUSH1 0x40 DUP6 ADD DUP3 PUSH2 0x3FCA JUMP JUMPDEST POP PUSH1 0x60 DUP3 ADD MLOAD PUSH2 0x658 PUSH1 0x60 DUP6 ADD DUP3 PUSH2 0x3FCA JUMP JUMPDEST DUP1 MLOAD PUSH2 0x120 DUP4 ADD SWAP1 PUSH2 0x40C3 DUP5 DUP3 PUSH2 0x4067 JUMP JUMPDEST POP PUSH1 0x20 DUP3 ADD MLOAD PUSH2 0x40D6 PUSH1 0x80 DUP6 ADD DUP3 PUSH2 0x4067 JUMP JUMPDEST POP PUSH1 0x40 DUP3 ADD MLOAD PUSH2 0x658 PUSH2 0x100 DUP6 ADD DUP3 PUSH2 0x3FCA JUMP JUMPDEST DUP1 MLOAD PUSH1 0x60 DUP4 ADD SWAP1 PUSH2 0x40FB DUP5 DUP3 PUSH2 0x4121 JUMP JUMPDEST POP PUSH1 0x20 DUP3 ADD MLOAD PUSH2 0x410E PUSH1 0x20 DUP6 ADD DUP3 PUSH2 0x3FCA JUMP JUMPDEST POP PUSH1 0x40 DUP3 ADD MLOAD PUSH2 0x658 PUSH1 0x40 DUP6 ADD DUP3 PUSH2 0x3FCA JUMP JUMPDEST PUSH2 0x3FBB DUP2 PUSH2 0x43B0 JUMP JUMPDEST PUSH1 0x20 DUP2 ADD PUSH2 0x214E DUP3 DUP5 PUSH2 0x3FB2 JUMP JUMPDEST PUSH1 0xE0 DUP2 ADD PUSH2 0x4146 DUP3 DUP11 PUSH2 0x3FB2 JUMP JUMPDEST PUSH2 0x4153 PUSH1 0x20 DUP4 ADD DUP10 PUSH2 0x3FCA JUMP JUMPDEST PUSH2 0x4160 PUSH1 0x40 DUP4 ADD DUP9 PUSH2 0x3FCA JUMP JUMPDEST PUSH2 0x416D PUSH1 0x60 DUP4 ADD DUP8 PUSH2 0x3FCA JUMP JUMPDEST PUSH2 0x417A PUSH1 0x80 DUP4 ADD DUP7 PUSH2 0x3FCA JUMP JUMPDEST DUP2 DUP2 SUB PUSH1 0xA0 DUP4 ADD MSTORE PUSH2 0x418C DUP2 DUP6 PUSH2 0x3FD3 JUMP JUMPDEST SWAP1 POP DUP2 DUP2 SUB PUSH1 0xC0 DUP4 ADD MSTORE PUSH2 0x41A0 DUP2 DUP5 PUSH2 0x3FD3 JUMP JUMPDEST SWAP10 SWAP9 POP POP POP POP POP POP POP POP POP JUMP JUMPDEST PUSH1 0x20 DUP2 ADD PUSH2 0x214E DUP3 DUP5 PUSH2 0x3FC1 JUMP JUMPDEST PUSH1 0x60 DUP2 ADD PUSH2 0x41C9 DUP3 DUP7 PUSH2 0x3FCA JUMP JUMPDEST PUSH2 0x41D6 PUSH1 0x20 DUP4 ADD DUP6 PUSH2 0x3FB2 JUMP JUMPDEST DUP2 DUP2 SUB PUSH1 0x40 DUP4 ADD MSTORE PUSH2 0x41E8 DUP2 DUP5 PUSH2 0x3FD3 JUMP JUMPDEST SWAP6 SWAP5 POP POP POP POP POP JUMP JUMPDEST PUSH1 0x40 DUP2 ADD PUSH2 0x41FF DUP3 DUP6 PUSH2 0x3FCA JUMP JUMPDEST DUP2 DUP2 SUB PUSH1 0x20 DUP4 ADD MSTORE PUSH2 0x283C DUP2 DUP5 PUSH2 0x3FD3 JUMP JUMPDEST PUSH1 0x80 DUP2 ADD PUSH2 0x421F DUP3 DUP8 PUSH2 0x3FCA JUMP JUMPDEST PUSH2 0x422C PUSH1 0x20 DUP4 ADD DUP7 PUSH2 0x4121 JUMP JUMPDEST PUSH2 0x4239 PUSH1 0x40 DUP4 ADD DUP6 PUSH2 0x3FCA JUMP JUMPDEST PUSH2 0x41E8 PUSH1 0x60 DUP4 ADD DUP5 PUSH2 0x3FCA JUMP JUMPDEST PUSH1 0x20 DUP1 DUP3 MSTORE DUP2 ADD PUSH2 0x2855 DUP2 DUP5 PUSH2 0x3FD3 JUMP JUMPDEST PUSH1 0x80 DUP1 DUP3 MSTORE DUP2 ADD PUSH2 0x4268 DUP2 DUP8 PUSH2 0x3FD3 JUMP JUMPDEST SWAP1 POP PUSH2 0x4277 PUSH1 0x20 DUP4 ADD DUP7 PUSH2 0x3FB2 JUMP JUMPDEST PUSH2 0x4239 PUSH1 0x40 DUP4 ADD DUP6 PUSH2 0x3FB2 JUMP JUMPDEST PUSH1 0x40 DUP1 DUP3 MSTORE DUP2 ADD PUSH2 0x4295 DUP2 DUP6 PUSH2 0x3FD3 JUMP JUMPDEST SWAP1 POP DUP2 DUP2 SUB PUSH1 0x20 DUP4 ADD MSTORE PUSH2 0x283C DUP2 DUP5 PUSH2 0x3FD3 JUMP JUMPDEST PUSH1 0x20 DUP2 ADD PUSH2 0x214E DUP3 DUP5 PUSH2 0x4008 JUMP JUMPDEST PUSH1 0x20 DUP1 DUP3 MSTORE DUP2 ADD PUSH2 0x214E DUP2 PUSH2 0x4011 JUMP JUMPDEST PUSH1 0x80 DUP2 ADD PUSH2 0x214E DUP3 DUP5 PUSH2 0x4067 JUMP JUMPDEST PUSH2 0x120 DUP2 ADD PUSH2 0x214E DUP3 DUP5 PUSH2 0x40B1 JUMP JUMPDEST PUSH1 0x60 DUP2 ADD PUSH2 0x214E DUP3 DUP5 PUSH2 0x40EA JUMP JUMPDEST PUSH1 0x20 DUP2 ADD PUSH2 0x214E DUP3 DUP5 PUSH2 0x3FCA JUMP JUMPDEST PUSH1 0x60 DUP2 ADD PUSH2 0x430E DUP3 DUP7 PUSH2 0x4121 JUMP JUMPDEST PUSH2 0x431B PUSH1 0x20 DUP4 ADD DUP6 PUSH2 0x3FB2 JUMP JUMPDEST PUSH2 0x283C PUSH1 0x40 DUP4 ADD DUP5 PUSH2 0x3FB2 JUMP JUMPDEST PUSH1 0x40 MLOAD DUP2 DUP2 ADD PUSH8 0xFFFFFFFFFFFFFFFF DUP2 GT DUP3 DUP3 LT OR ISZERO PUSH2 0x4347 JUMPI PUSH1 0x0 DUP1 REVERT JUMPDEST PUSH1 0x40 MSTORE SWAP2 SWAP1 POP JUMP JUMPDEST PUSH1 0x0 PUSH8 0xFFFFFFFFFFFFFFFF DUP3 GT ISZERO PUSH2 0x4366 JUMPI PUSH1 0x0 DUP1 REVERT JUMPDEST POP PUSH1 0x20 SWAP1 DUP2 MUL ADD SWAP1 JUMP JUMPDEST PUSH1 0x0 PUSH8 0xFFFFFFFFFFFFFFFF DUP3 GT ISZERO PUSH2 0x4387 JUMPI PUSH1 0x0 DUP1 REVERT JUMPDEST POP PUSH1 0x20 PUSH1 0x1F SWAP2 SWAP1 SWAP2 ADD PUSH1 0x1F NOT AND ADD SWAP1 JUMP JUMPDEST MLOAD SWAP1 JUMP JUMPDEST PUSH1 0x1 PUSH1 0xA0 PUSH1 0x2 EXP SUB AND SWAP1 JUMP JUMPDEST ISZERO ISZERO SWAP1 JUMP JUMPDEST SWAP1 JUMP JUMPDEST PUSH1 0xFF AND SWAP1 JUMP JUMPDEST PUSH1 0x0 PUSH2 0x214E DUP3 PUSH2 0x439C JUMP JUMPDEST DUP3 DUP2 DUP4 CALLDATACOPY POP PUSH1 0x0 SWAP2 ADD MSTORE JUMP JUMPDEST PUSH1 0x0 JUMPDEST DUP4 DUP2 LT ISZERO PUSH2 0x43E8 JUMPI DUP2 DUP2 ADD MLOAD DUP4 DUP3 ADD MSTORE PUSH1 0x20 ADD PUSH2 0x43D0 JUMP JUMPDEST DUP4 DUP2 GT ISZERO PUSH2 0x658 JUMPI POP POP PUSH1 0x0 SWAP2 ADD MSTORE JUMP JUMPDEST PUSH1 0x1F ADD PUSH1 0x1F NOT AND SWAP1 JUMP STOP LOG2 PUSH6 0x627A7A723058 KECCAK256 0xaa ISZERO ADDMOD 0x1f SHR 0xc4 0xc3 ADDMOD 0xbb 0x1e PUSH5 0x68209A88E9 PUSH17 0x986453CA6D1AE40DABD6C4679B38286C65 PUSH25 0x706572696D656E74616CF50037000000000000000000000000 "
			}
		}
	},
	"sourceTreeHashHex": "0x9e3ab9e7277ff2520295801c5e6e1d0bd6607ac92426e13e0459852cece6f9b0",
	"compiler": {
		"name": "solc",
		"version": "soljson-v0.4.24+commit.e67f0147.js",
		"settings": {
			"optimizer": {
				"enabled": true,
				"runs": 200
			},
			"outputSelection": {
				"*": {
					"*": [
						"abi",
						"evm.bytecode.object",
						"evm.bytecode.sourceMap",
						"evm.deployedBytecode.object",
						"evm.deployedBytecode.sourceMap"
					]
				}
			}
		}
	}
}