{
	"schemaVersion": "2.0.0",
	"contractName": "Exchange",
	"compilerOutput": {
		"abi": [
			{
				"constant": true,
				"inputs": [
					{
						"name": "",
						"type": "bytes32"
					}
				],
				"name": "filled",
				"outputs": [
					{
						"name": "",
						"type": "uint256"
					}
				],
				"payable": false,
				"stateMutability": "view",
				"type": "function"
			},
			{
				"constant": false,
				"inputs": [
					{
						"components": [
							{
								"name": "makerAddress",
								"type": "address"
							},
							{
								"name": "takerAddress",
								"type": "address"
							},
							{
								"name": "feeRecipientAddress",
								"type": "address"
							},
							{
								"name": "senderAddress",
								"type": "address"
							},
							{
								"name": "makerAssetAmount",
								"type": "uint256"
							},
							{
								"name": "takerAssetAmount",
								"type": "uint256"
							},
							{
								"name": "makerFee",
								"type": "uint256"
							},
							{
								"name": "takerFee",
								"type": "uint256"
							},
							{
								"name": "expirationTimeSeconds",
								"type": "uint256"
							},
							{
								"name": "salt",
								"type": "uint256"
							},
							{
								"name": "makerAssetData",
								"type": "bytes"
							},
							{
								"name": "takerAssetData",
								"type": "bytes"
							}
						],
						"name": "orders",
						"type": "tuple[]"
					},
					{
						"name": "takerAssetFillAmounts",
						"type": "uint256[]"
					},
					{
						"name": "signatures",
						"type": "bytes[]"
					}
				],
				"name": "batchFillOrders",
				"outputs": [],
				"payable": false,
				"stateMutability": "nonpayable",
				"type": "function"
			},
			{
				"constant": true,
				"inputs": [
					{
						"name": "",
						"type": "bytes32"
					}
				],
				"name": "cancelled",
				"outputs": [
					{
						"name": "",
						"type": "bool"
					}
				],
				"payable": false,
				"stateMutability": "view",
				"type": "function"
			},
			{
				"constant": false,
				"inputs": [
					{
						"name": "hash",
						"type": "bytes32"
					},
					{
						"name": "signer",
						"type": "address"
					},
					{
						"name": "signature",
						"type": "bytes"
					}
				],
				"name": "preSign",
				"outputs": [],
				"payable": false,
				"stateMutability": "nonpayable",
				"type": "function"
			},
			{
				"constant": true,
				"inputs": [
					{
						"name": "",
						"type": "uint8"
					}
				],
				"name": "assetProxies",
				"outputs": [
					{
						"name": "",
						"type": "address"
					}
				],
				"payable": false,
				"stateMutability": "view",
				"type": "function"
			},
			{
				"constant": false,
				"inputs": [
					{
						"components": [
							{
								"name": "makerAddress",
								"type": "address"
							},
							{
								"name": "takerAddress",
								"type": "address"
							},
							{
								"name": "feeRecipientAddress",
								"type": "address"
							},
							{
								"name": "senderAddress",
								"type": "address"
							},
							{
								"name": "makerAssetAmount",
								"type": "uint256"
							},
							{
								"name": "takerAssetAmount",
								"type": "uint256"
							},
							{
								"name": "makerFee",
								"type": "uint256"
							},
							{
								"name": "takerFee",
								"type": "uint256"
							},
							{
								"name": "expirationTimeSeconds",
								"type": "uint256"
							},
							{
								"name": "salt",
								"type": "uint256"
							},
							{
								"name": "makerAssetData",
								"type": "bytes"
							},
							{
								"name": "takerAssetData",
								"type": "bytes"
							}
						],
						"name": "leftOrder",
						"type": "tuple"
					},
					{
						"components": [
							{
								"name": "makerAddress",
								"type": "address"
							},
							{
								"name": "takerAddress",
								"type": "address"
							},
							{
								"name": "feeRecipientAddress",
								"type": "address"
							},
							{
								"name": "senderAddress",
								"type": "address"
							},
							{
								"name": "makerAssetAmount",
								"type": "uint256"
							},
							{
								"name": "takerAssetAmount",
								"type": "uint256"
							},
							{
								"name": "makerFee",
								"type": "uint256"
							},
							{
								"name": "takerFee",
								"type": "uint256"
							},
							{
								"name": "expirationTimeSeconds",
								"type": "uint256"
							},
							{
								"name": "salt",
								"type": "uint256"
							},
							{
								"name": "makerAssetData",
								"type": "bytes"
							},
							{
								"name": "takerAssetData",
								"type": "bytes"
							}
						],
						"name": "rightOrder",
						"type": "tuple"
					},
					{
						"name": "leftSignature",
						"type": "bytes"
					},
					{
						"name": "rightSignature",
						"type": "bytes"
					}
				],
				"name": "matchOrders",
				"outputs": [
					{
						"components": [
							{
								"components": [
									{
										"name": "makerAssetFilledAmount",
										"type": "uint256"
									},
									{
										"name": "takerAssetFilledAmount",
										"type": "uint256"
									},
									{
										"name": "makerFeePaid",
										"type": "uint256"
									},
									{
										"name": "takerFeePaid",
										"type": "uint256"
									}
								],
								"name": "left",
								"type": "tuple"
							},
							{
								"components": [
									{
										"name": "makerAssetFilledAmount",
										"type": "uint256"
									},
									{
										"name": "takerAssetFilledAmount",
										"type": "uint256"
									},
									{
										"name": "makerFeePaid",
										"type": "uint256"
									},
									{
										"name": "takerFeePaid",
										"type": "uint256"
									}
								],
								"name": "right",
								"type": "tuple"
							},
							{
								"name": "leftMakerAssetSpreadAmount",
								"type": "uint256"
							}
						],
						"name": "matchedFillResults",
						"type": "tuple"
					}
				],
				"payable": false,
				"stateMutability": "nonpayable",
				"type": "function"
			},
			{
				"constant": false,
				"inputs": [
					{
						"components": [
							{
								"name": "makerAddress",
								"type": "address"
							},
							{
								"name": "takerAddress",
								"type": "address"
							},
							{
								"name": "feeRecipientAddress",
								"type": "address"
							},
							{
								"name": "senderAddress",
								"type": "address"
							},
							{
								"name": "makerAssetAmount",
								"type": "uint256"
							},
							{
								"name": "takerAssetAmount",
								"type": "uint256"
							},
							{
								"name": "makerFee",
								"type": "uint256"
							},
							{
								"name": "takerFee",
								"type": "uint256"
							},
							{
								"name": "expirationTimeSeconds",
								"type": "uint256"
							},
							{
								"name": "salt",
								"type": "uint256"
							},
							{
								"name": "makerAssetData",
								"type": "bytes"
							},
							{
								"name": "takerAssetData",
								"type": "bytes"
							}
						],
						"name": "order",
						"type": "tuple"
					},
					{
						"name": "takerAssetFillAmount",
						"type": "uint256"
					},
					{
						"name": "signature",
						"type": "bytes"
					}
				],
				"name": "fillOrderNoThrow",
				"outputs": [
					{
						"components": [
							{
								"name": "makerAssetFilledAmount",
								"type": "uint256"
							},
							{
								"name": "takerAssetFilledAmount",
								"type": "uint256"
							},
							{
								"name": "makerFeePaid",
								"type": "uint256"
							},
							{
								"name": "takerFeePaid",
								"type": "uint256"
							}
						],
						"name": "fillResults",
						"type": "tuple"
					}
				],
				"payable": false,
				"stateMutability": "nonpayable",
				"type": "function"
			},
			{
				"constant": false,
				"inputs": [
					{
						"components": [
							{
								"name": "makerAddress",
								"type": "address"
							},
							{
								"name": "takerAddress",
								"type": "address"
							},
							{
								"name": "feeRecipientAddress",
								"type": "address"
							},
							{
								"name": "senderAddress",
								"type": "address"
							},
							{
								"name": "makerAssetAmount",
								"type": "uint256"
							},
							{
								"name": "takerAssetAmount",
								"type": "uint256"
							},
							{
								"name": "makerFee",
								"type": "uint256"
							},
							{
								"name": "takerFee",
								"type": "uint256"
							},
							{
								"name": "expirationTimeSeconds",
								"type": "uint256"
							},
							{
								"name": "salt",
								"type": "uint256"
							},
							{
								"name": "makerAssetData",
								"type": "bytes"
							},
							{
								"name": "takerAssetData",
								"type": "bytes"
							}
						],
						"name": "orders",
						"type": "tuple[]"
					}
				],
				"name": "batchCancelOrders",
				"outputs": [],
				"payable": false,
				"stateMutability": "nonpayable",
				"type": "function"
			},
			{
				"constant": false,
				"inputs": [
					{
						"components": [
							{
								"name": "makerAddress",
								"type": "address"
							},
							{
								"name": "takerAddress",
								"type": "address"
							},
							{
								"name": "feeRecipientAddress",
								"type": "address"
							},
							{
								"name": "senderAddress",
								"type": "address"
							},
							{
								"name": "makerAssetAmount",
								"type": "uint256"
							},
							{
								"name": "takerAssetAmount",
								"type": "uint256"
							},
							{
								"name": "makerFee",
								"type": "uint256"
							},
							{
								"name": "takerFee",
								"type": "uint256"
							},
							{
								"name": "expirationTimeSeconds",
								"type": "uint256"
							},
							{
								"name": "salt",
								"type": "uint256"
							},
							{
								"name": "makerAssetData",
								"type": "bytes"
							},
							{
								"name": "takerAssetData",
								"type": "bytes"
							}
						],
						"name": "orders",
						"type": "tuple[]"
					},
					{
						"name": "takerAssetFillAmounts",
						"type": "uint256[]"
					},
					{
						"name": "signatures",
						"type": "bytes[]"
					}
				],
				"name": "batchFillOrKillOrders",
				"outputs": [],
				"payable": false,
				"stateMutability": "nonpayable",
				"type": "function"
			},
			{
				"constant": false,
				"inputs": [
					{
						"name": "targetOrderEpoch",
						"type": "uint256"
					}
				],
				"name": "cancelOrdersUpTo",
				"outputs": [],
				"payable": false,
				"stateMutability": "nonpayable",
				"type": "function"
			},
			{
				"constant": false,
				"inputs": [
					{
						"components": [
							{
								"name": "makerAddress",
								"type": "address"
							},
							{
								"name": "takerAddress",
								"type": "address"
							},
							{
								"name": "feeRecipientAddress",
								"type": "address"
							},
							{
								"name": "senderAddress",
								"type": "address"
							},
							{
								"name": "makerAssetAmount",
								"type": "uint256"
							},
							{
								"name": "takerAssetAmount",
								"type": "uint256"
							},
							{
								"name": "makerFee",
								"type": "uint256"
							},
							{
								"name": "takerFee",
								"type": "uint256"
							},
							{
								"name": "expirationTimeSeconds",
								"type": "uint256"
							},
							{
								"name": "salt",
								"type": "uint256"
							},
							{
								"name": "makerAssetData",
								"type": "bytes"
							},
							{
								"name": "takerAssetData",
								"type": "bytes"
							}
						],
						"name": "orders",
						"type": "tuple[]"
					},
					{
						"name": "takerAssetFillAmounts",
						"type": "uint256[]"
					},
					{
						"name": "signatures",
						"type": "bytes[]"
					}
				],
				"name": "batchFillOrdersNoThrow",
				"outputs": [],
				"payable": false,
				"stateMutability": "nonpayable",
				"type": "function"
			},
			{
				"constant": false,
				"inputs": [
					{
						"name": "assetProxyId",
						"type": "uint8"
					},
					{
						"name": "newAssetProxy",
						"type": "address"
					},
					{
						"name": "oldAssetProxy",
						"type": "address"
					}
				],
				"name": "registerAssetProxy",
				"outputs": [],
				"payable": false,
				"stateMutability": "nonpayable",
				"type": "function"
			},
			{
				"constant": true,
				"inputs": [
					{
						"name": "",
						"type": "bytes32"
					}
				],
				"name": "transactions",
				"outputs": [
					{
						"name": "",
						"type": "bool"
					}
				],
				"payable": false,
				"stateMutability": "view",
				"type": "function"
			},
			{
				"constant": false,
				"inputs": [
					{
						"components": [
							{
								"name": "makerAddress",
								"type": "address"
							},
							{
								"name": "takerAddress",
								"type": "address"
							},
							{
								"name": "feeRecipientAddress",
								"type": "address"
							},
							{
								"name": "senderAddress",
								"type": "address"
							},
							{
								"name": "makerAssetAmount",
								"type": "uint256"
							},
							{
								"name": "takerAssetAmount",
								"type": "uint256"
							},
							{
								"name": "makerFee",
								"type": "uint256"
							},
							{
								"name": "takerFee",
								"type": "uint256"
							},
							{
								"name": "expirationTimeSeconds",
								"type": "uint256"
							},
							{
								"name": "salt",
								"type": "uint256"
							},
							{
								"name": "makerAssetData",
								"type": "bytes"
							},
							{
								"name": "takerAssetData",
								"type": "bytes"
							}
						],
						"name": "order",
						"type": "tuple"
					},
					{
						"name": "takerAssetFillAmount",
						"type": "uint256"
					},
					{
						"name": "signature",
						"type": "bytes"
					}
				],
				"name": "fillOrKillOrder",
				"outputs": [
					{
						"components": [
							{
								"name": "makerAssetFilledAmount",
								"type": "uint256"
							},
							{
								"name": "takerAssetFilledAmount",
								"type": "uint256"
							},
							{
								"name": "makerFeePaid",
								"type": "uint256"
							},
							{
								"name": "takerFeePaid",
								"type": "uint256"
							}
						],
						"name": "fillResults",
						"type": "tuple"
					}
				],
				"payable": false,
				"stateMutability": "nonpayable",
				"type": "function"
			},
			{
				"constant": false,
				"inputs": [
					{
						"name": "validator",
						"type": "address"
					},
					{
						"name": "approval",
						"type": "bool"
					}
				],
				"name": "setSignatureValidatorApproval",
				"outputs": [],
				"payable": false,
				"stateMutability": "nonpayable",
				"type": "function"
			},
			{
				"constant": true,
				"inputs": [
					{
						"name": "",
						"type": "address"
					},
					{
						"name": "",
						"type": "address"
					}
				],
				"name": "allowedValidators",
				"outputs": [
					{
						"name": "",
						"type": "bool"
					}
				],
				"payable": false,
				"stateMutability": "view",
				"type": "function"
			},
			{
				"constant": false,
				"inputs": [
					{
						"components": [
							{
								"name": "makerAddress",
								"type": "address"
							},
							{
								"name": "takerAddress",
								"type": "address"
							},
							{
								"name": "feeRecipientAddress",
								"type": "address"
							},
							{
								"name": "senderAddress",
								"type": "address"
							},
							{
								"name": "makerAssetAmount",
								"type": "uint256"
							},
							{
								"name": "takerAssetAmount",
								"type": "uint256"
							},
							{
								"name": "makerFee",
								"type": "uint256"
							},
							{
								"name": "takerFee",
								"type": "uint256"
							},
							{
								"name": "expirationTimeSeconds",
								"type": "uint256"
							},
							{
								"name": "salt",
								"type": "uint256"
							},
							{
								"name": "makerAssetData",
								"type": "bytes"
							},
							{
								"name": "takerAssetData",
								"type": "bytes"
							}
						],
						"name": "orders",
						"type": "tuple[]"
					},
					{
						"name": "takerAssetFillAmount",
						"type": "uint256"
					},
					{
						"name": "signatures",
						"type": "bytes[]"
					}
				],
				"name": "marketSellOrders",
				"outputs": [
					{
						"components": [
							{
								"name": "makerAssetFilledAmount",
								"type": "uint256"
							},
							{
								"name": "takerAssetFilledAmount",
								"type": "uint256"
							},
							{
								"name": "makerFeePaid",
								"type": "uint256"
							},
							{
								"name": "takerFeePaid",
								"type": "uint256"
							}
						],
						"name": "totalFillResults",
						"type": "tuple"
					}
				],
				"payable": false,
				"stateMutability": "nonpayable",
				"type": "function"
			},
			{
				"constant": true,
				"inputs": [
					{
						"name": "",
						"type": "bytes32"
					},
					{
						"name": "",
						"type": "address"
					}
				],
				"name": "preSigned",
				"outputs": [
					{
						"name": "",
						"type": "bool"
					}
				],
				"payable": false,
				"stateMutability": "view",
				"type": "function"
			},
			{
				"constant": true,
				"inputs": [],
				"name": "owner",
				"outputs": [
					{
						"name": "",
						"type": "address"
					}
				],
				"payable": false,
				"stateMutability": "view",
				"type": "function"
			},
			{
				"constant": true,
				"inputs": [
					{
						"name": "assetProxyId",
						"type": "uint8"
					}
				],
				"name": "getAssetProxy",
				"outputs": [
					{
						"name": "",
						"type": "address"
					}
				],
				"payable": false,
				"stateMutability": "view",
				"type": "function"
			},
			{
				"constant": false,
				"inputs": [
					{
						"components": [
							{
								"name": "makerAddress",
								"type": "address"
							},
							{
								"name": "takerAddress",
								"type": "address"
							},
							{
								"name": "feeRecipientAddress",
								"type": "address"
							},
							{
								"name": "senderAddress",
								"type": "address"
							},
							{
								"name": "makerAssetAmount",
								"type": "uint256"
							},
							{
								"name": "takerAssetAmount",
								"type": "uint256"
							},
							{
								"name": "makerFee",
								"type": "uint256"
							},
							{
								"name": "takerFee",
								"type": "uint256"
							},
							{
								"name": "expirationTimeSeconds",
								"type": "uint256"
							},
							{
								"name": "salt",
								"type": "uint256"
							},
							{
								"name": "makerAssetData",
								"type": "bytes"
							},
							{
								"name": "takerAssetData",
								"type": "bytes"
							}
						],
						"name": "orders",
						"type": "tuple[]"
					},
					{
						"name": "makerAssetFillAmount",
						"type": "uint256"
					},
					{
						"name": "signatures",
						"type": "bytes[]"
					}
				],
				"name": "marketBuyOrdersNoThrow",
				"outputs": [
					{
						"components": [
							{
								"name": "makerAssetFilledAmount",
								"type": "uint256"
							},
							{
								"name": "takerAssetFilledAmount",
								"type": "uint256"
							},
							{
								"name": "makerFeePaid",
								"type": "uint256"
							},
							{
								"name": "takerFeePaid",
								"type": "uint256"
							}
						],
						"name": "totalFillResults",
						"type": "tuple"
					}
				],
				"payable": false,
				"stateMutability": "nonpayable",
				"type": "function"
			},
			{
				"constant": false,
				"inputs": [
					{
						"components": [
							{
								"name": "makerAddress",
								"type": "address"
							},
							{
								"name": "takerAddress",
								"type": "address"
							},
							{
								"name": "feeRecipientAddress",
								"type": "address"
							},
							{
								"name": "senderAddress",
								"type": "address"
							},
							{
								"name": "makerAssetAmount",
								"type": "uint256"
							},
							{
								"name": "takerAssetAmount",
								"type": "uint256"
							},
							{
								"name": "makerFee",
								"type": "uint256"
							},
							{
								"name": "takerFee",
								"type": "uint256"
							},
							{
								"name": "expirationTimeSeconds",
								"type": "uint256"
							},
							{
								"name": "salt",
								"type": "uint256"
							},
							{
								"name": "makerAssetData",
								"type": "bytes"
							},
							{
								"name": "takerAssetData",
								"type": "bytes"
							}
						],
						"name": "order",
						"type": "tuple"
					},
					{
						"name": "takerAssetFillAmount",
						"type": "uint256"
					},
					{
						"name": "signature",
						"type": "bytes"
					}
				],
				"name": "fillOrder",
				"outputs": [
					{
						"components": [
							{
								"name": "makerAssetFilledAmount",
								"type": "uint256"
							},
							{
								"name": "takerAssetFilledAmount",
								"type": "uint256"
							},
							{
								"name": "makerFeePaid",
								"type": "uint256"
							},
							{
								"name": "takerFeePaid",
								"type": "uint256"
							}
						],
						"name": "fillResults",
						"type": "tuple"
					}
				],
				"payable": false,
				"stateMutability": "nonpayable",
				"type": "function"
			},
			{
				"constant": false,
				"inputs": [
					{
						"name": "salt",
						"type": "uint256"
					},
					{
						"name": "signer",
						"type": "address"
					},
					{
						"name": "data",
						"type": "bytes"
					},
					{
						"name": "signature",
						"type": "bytes"
					}
				],
				"name": "executeTransaction",
				"outputs": [],
				"payable": false,
				"stateMutability": "nonpayable",
				"type": "function"
			},
			{
				"constant": true,
				"inputs": [
					{
						"components": [
							{
								"name": "makerAddress",
								"type": "address"
							},
							{
								"name": "takerAddress",
								"type": "address"
							},
							{
								"name": "feeRecipientAddress",
								"type": "address"
							},
							{
								"name": "senderAddress",
								"type": "address"
							},
							{
								"name": "makerAssetAmount",
								"type": "uint256"
							},
							{
								"name": "takerAssetAmount",
								"type": "uint256"
							},
							{
								"name": "makerFee",
								"type": "uint256"
							},
							{
								"name": "takerFee",
								"type": "uint256"
							},
							{
								"name": "expirationTimeSeconds",
								"type": "uint256"
							},
							{
								"name": "salt",
								"type": "uint256"
							},
							{
								"name": "makerAssetData",
								"type": "bytes"
							},
							{
								"name": "takerAssetData",
								"type": "bytes"
							}
						],
						"name": "order",
						"type": "tuple"
					}
				],
				"name": "getOrderInfo",
				"outputs": [
					{
						"components": [
							{
								"name": "orderStatus",
								"type": "uint8"
							},
							{
								"name": "orderHash",
								"type": "bytes32"
							},
							{
								"name": "orderTakerAssetFilledAmount",
								"type": "uint256"
							}
						],
						"name": "orderInfo",
						"type": "tuple"
					}
				],
				"payable": false,
				"stateMutability": "view",
				"type": "function"
			},
			{
				"constant": false,
				"inputs": [
					{
						"components": [
							{
								"name": "makerAddress",
								"type": "address"
							},
							{
								"name": "takerAddress",
								"type": "address"
							},
							{
								"name": "feeRecipientAddress",
								"type": "address"
							},
							{
								"name": "senderAddress",
								"type": "address"
							},
							{
								"name": "makerAssetAmount",
								"type": "uint256"
							},
							{
								"name": "takerAssetAmount",
								"type": "uint256"
							},
							{
								"name": "makerFee",
								"type": "uint256"
							},
							{
								"name": "takerFee",
								"type": "uint256"
							},
							{
								"name": "expirationTimeSeconds",
								"type": "uint256"
							},
							{
								"name": "salt",
								"type": "uint256"
							},
							{
								"name": "makerAssetData",
								"type": "bytes"
							},
							{
								"name": "takerAssetData",
								"type": "bytes"
							}
						],
						"name": "order",
						"type": "tuple"
					}
				],
				"name": "cancelOrder",
				"outputs": [],
				"payable": false,
				"stateMutability": "nonpayable",
				"type": "function"
			},
			{
				"constant": true,
				"inputs": [
					{
						"name": "",
						"type": "address"
					},
					{
						"name": "",
						"type": "address"
					}
				],
				"name": "orderEpoch",
				"outputs": [
					{
						"name": "",
						"type": "uint256"
					}
				],
				"payable": false,
				"stateMutability": "view",
				"type": "function"
			},
			{
				"constant": false,
				"inputs": [
					{
						"components": [
							{
								"name": "makerAddress",
								"type": "address"
							},
							{
								"name": "takerAddress",
								"type": "address"
							},
							{
								"name": "feeRecipientAddress",
								"type": "address"
							},
							{
								"name": "senderAddress",
								"type": "address"
							},
							{
								"name": "makerAssetAmount",
								"type": "uint256"
							},
							{
								"name": "takerAssetAmount",
								"type": "uint256"
							},
							{
								"name": "makerFee",
								"type": "uint256"
							},
							{
								"name": "takerFee",
								"type": "uint256"
							},
							{
								"name": "expirationTimeSeconds",
								"type": "uint256"
							},
							{
								"name": "salt",
								"type": "uint256"
							},
							{
								"name": "makerAssetData",
								"type": "bytes"
							},
							{
								"name": "takerAssetData",
								"type": "bytes"
							}
						],
						"name": "orders",
						"type": "tuple[]"
					},
					{
						"name": "takerAssetFillAmount",
						"type": "uint256"
					},
					{
						"name": "signatures",
						"type": "bytes[]"
					}
				],
				"name": "marketSellOrdersNoThrow",
				"outputs": [
					{
						"components": [
							{
								"name": "makerAssetFilledAmount",
								"type": "uint256"
							},
							{
								"name": "takerAssetFilledAmount",
								"type": "uint256"
							},
							{
								"name": "makerFeePaid",
								"type": "uint256"
							},
							{
								"name": "takerFeePaid",
								"type": "uint256"
							}
						],
						"name": "totalFillResults",
						"type": "tuple"
					}
				],
				"payable": false,
				"stateMutability": "nonpayable",
				"type": "function"
			},
			{
				"constant": false,
				"inputs": [
					{
						"components": [
							{
								"name": "makerAddress",
								"type": "address"
							},
							{
								"name": "takerAddress",
								"type": "address"
							},
							{
								"name": "feeRecipientAddress",
								"type": "address"
							},
							{
								"name": "senderAddress",
								"type": "address"
							},
							{
								"name": "makerAssetAmount",
								"type": "uint256"
							},
							{
								"name": "takerAssetAmount",
								"type": "uint256"
							},
							{
								"name": "makerFee",
								"type": "uint256"
							},
							{
								"name": "takerFee",
								"type": "uint256"
							},
							{
								"name": "expirationTimeSeconds",
								"type": "uint256"
							},
							{
								"name": "salt",
								"type": "uint256"
							},
							{
								"name": "makerAssetData",
								"type": "bytes"
							},
							{
								"name": "takerAssetData",
								"type": "bytes"
							}
						],
						"name": "orders",
						"type": "tuple[]"
					},
					{
						"name": "makerAssetFillAmount",
						"type": "uint256"
					},
					{
						"name": "signatures",
						"type": "bytes[]"
					}
				],
				"name": "marketBuyOrders",
				"outputs": [
					{
						"components": [
							{
								"name": "makerAssetFilledAmount",
								"type": "uint256"
							},
							{
								"name": "takerAssetFilledAmount",
								"type": "uint256"
							},
							{
								"name": "makerFeePaid",
								"type": "uint256"
							},
							{
								"name": "takerFeePaid",
								"type": "uint256"
							}
						],
						"name": "totalFillResults",
						"type": "tuple"
					}
				],
				"payable": false,
				"stateMutability": "nonpayable",
				"type": "function"
			},
			{
				"constant": true,
				"inputs": [],
				"name": "currentContextAddress",
				"outputs": [
					{
						"name": "",
						"type": "address"
					}
				],
				"payable": false,
				"stateMutability": "view",
				"type": "function"
			},
			{
				"constant": false,
				"inputs": [
					{
						"name": "newOwner",
						"type": "address"
					}
				],
				"name": "transferOwnership",
				"outputs": [],
				"payable": false,
				"stateMutability": "nonpayable",
				"type": "function"
			},
			{
				"constant": true,
				"inputs": [],
				"name": "VERSION",
				"outputs": [
					{
						"name": "",
						"type": "string"
					}
				],
				"payable": false,
				"stateMutability": "view",
				"type": "function"
			},
			{
				"inputs": [
					{
						"name": "_zrxAssetData",
						"type": "bytes"
					}
				],
				"payable": false,
				"stateMutability": "nonpayable",
				"type": "constructor"
			},
			{
				"anonymous": false,
				"inputs": [
					{
						"indexed": false,
						"name": "id",
						"type": "uint8"
					},
					{
						"indexed": false,
						"name": "newAssetProxy",
						"type": "address"
					},
					{
						"indexed": false,
						"name": "oldAssetProxy",
						"type": "address"
					}
				],
				"name": "AssetProxySet",
				"type": "event"
			},
			{
				"anonymous": false,
				"inputs": [
					{
						"indexed": true,
						"name": "makerAddress",
						"type": "address"
					},
					{
						"indexed": false,
						"name": "takerAddress",
						"type": "address"
					},
					{
						"indexed": true,
						"name": "feeRecipientAddress",
						"type": "address"
					},
					{
						"indexed": false,
						"name": "makerAssetFilledAmount",
						"type": "uint256"
					},
					{
						"indexed": false,
						"name": "takerAssetFilledAmount",
						"type": "uint256"
					},
					{
						"indexed": false,
						"name": "makerFeePaid",
						"type": "uint256"
					},
					{
						"indexed": false,
						"name": "takerFeePaid",
						"type": "uint256"
					},
					{
						"indexed": true,
						"name": "orderHash",
						"type": "bytes32"
					},
					{
						"indexed": false,
						"name": "makerAssetData",
						"type": "bytes"
					},
					{
						"indexed": false,
						"name": "takerAssetData",
						"type": "bytes"
					}
				],
				"name": "Fill",
				"type": "event"
			},
			{
				"anonymous": false,
				"inputs": [
					{
						"indexed": true,
						"name": "makerAddress",
						"type": "address"
					},
					{
						"indexed": true,
						"name": "feeRecipientAddress",
						"type": "address"
					},
					{
						"indexed": true,
						"name": "orderHash",
						"type": "bytes32"
					},
					{
						"indexed": false,
						"name": "makerAssetData",
						"type": "bytes"
					},
					{
						"indexed": false,
						"name": "takerAssetData",
						"type": "bytes"
					}
				],
				"name": "Cancel",
				"type": "event"
			},
			{
				"anonymous": false,
				"inputs": [
					{
						"indexed": true,
						"name": "makerAddress",
						"type": "address"
					},
					{
						"indexed": true,
						"name": "senderAddress",
						"type": "address"
					},
					{
						"indexed": false,
						"name": "orderEpoch",
						"type": "uint256"
					}
				],
				"name": "CancelUpTo",
				"type": "event"
			}
		],
		"evm": {
			"bytecode": {
				"linkReferences": {},
				"object": "0x60806040523480156200001157600080fd5b50604051620046203803806200462083398101806040526200003791908101906200016a565b60008054600160a060020a03191633179055805181906200006090600490602084019062000069565b5050506200022c565b828054600181600116156101000203166002900490600052602060002090601f016020900481019282601f10620000ac57805160ff1916838001178555620000dc565b82800160010185558215620000dc579182015b82811115620000dc578251825591602001919060010190620000bf565b50620000ea929150620000ee565b5090565b6200010b91905b80821115620000ea5760008155600101620000f5565b90565b6000601f820183136200012057600080fd5b8151620001376200013182620001d1565b620001aa565b915080825260208301602083018583830111156200015457600080fd5b62000161838284620001f9565b50505092915050565b6000602082840312156200017d57600080fd5b81516001604060020a038111156200019457600080fd5b620001a2848285016200010e565b949350505050565b6040518181016001604060020a0381118282101715620001c957600080fd5b604052919050565b60006001604060020a03821115620001e857600080fd5b506020601f91909101601f19160190565b60005b8381101562000216578181015183820152602001620001fc565b8381111562000226576000848401525b50505050565b6143e4806200023c6000396000f30060806040526004361061018a5763ffffffff7c0100000000000000000000000000000000000000000000000000000000600035041663288cdc91811461018f578063297bb70b146101c55780632ac12622146101e75780633683ef8e1461021457806338077164146102345780633c28d861146102615780633e228bae1461028e5780634ac14782146102bb5780634d0ae546146102db5780634f9559b1146102fb57806350dde1901461031b5780635c78d0c71461033b578063642f2eaf1461035b57806364a3bc151461037b57806377fcce681461039b5780637b8e3514146103bb5780637e1d9808146103db57806382c174d0146103fb5780638da5cb5b1461041b57806392c1421e1461043d578063a3e203801461045d578063b4be83d51461047d578063bfc8bfce1461049d578063c75e0a81146104bd578063d46b02c3146104ea578063d9bfa73e1461050a578063dd1c7d181461052a578063e5fa431b1461054a578063eea086ba1461056a578063f2fde38b1461057f578063ffa1ad741461059f575b600080fd5b34801561019b57600080fd5b506101af6101aa366004613c35565b6105c1565b6040516101bc9190614299565b60405180910390f35b3480156101d157600080fd5b506101e56101e0366004613b3a565b6105d3565b005b3480156101f357600080fd5b50610207610202366004613c35565b61063e565b6040516101bc9190614154565b34801561022057600080fd5b506101e561022f366004613c72565b610653565b34801561024057600080fd5b5061025461024f366004613eda565b610721565b6040516101bc919061423f565b34801561026d57600080fd5b5061028161027c366004613d0f565b61073c565b6040516101bc919061427c565b34801561029a57600080fd5b506102ae6102a9366004613dcf565b610828565b6040516101bc919061426e565b3480156102c757600080fd5b506101e56102d6366004613b05565b610a38565b3480156102e757600080fd5b506101e56102f6366004613b3a565b610a70565b34801561030757600080fd5b506101e5610316366004613c35565b610ad5565b34801561032757600080fd5b506101e5610336366004613b3a565b610bf5565b34801561034757600080fd5b506101e5610356366004613f16565b610c5a565b34801561036757600080fd5b50610207610376366004613c35565b610e88565b34801561038757600080fd5b506102ae610396366004613dcf565b610e9d565b3480156103a757600080fd5b506101e56103b6366004613ad5565b610f1a565b3480156103c757600080fd5b506102076103d6366004613a9b565b610f5f565b3480156103e757600080fd5b506102ae6103f6366004613bce565b610f7f565b34801561040757600080fd5b50610207610416366004613c53565b611057565b34801561042757600080fd5b50610430611077565b6040516101bc91906140d1565b34801561044957600080fd5b50610430610458366004613eda565b611086565b34801561046957600080fd5b506102ae610478366004613bce565b6110a4565b34801561048957600080fd5b506102ae610498366004613dcf565b6111b4565b3480156104a957600080fd5b506101e56104b8366004613e41565b611238565b3480156104c957600080fd5b506104dd6104d8366004613cda565b61156a565b6040516101bc919061428b565b3480156104f657600080fd5b506101e5610505366004613cda565b611659565b34801561051657600080fd5b506101af610525366004613a9b565b611684565b34801561053657600080fd5b506102ae610545366004613bce565b6116a1565b34801561055657600080fd5b506102ae610565366004613bce565b611767565b34801561057657600080fd5b50610430611842565b34801561058b57600080fd5b506101e561059a366004613a7d565b611851565b3480156105ab57600080fd5b506105b46118b9565b6040516101bc919061424d565b60016020526000908152604090205481565b60005b83518110156106385761062f84828151811015156105f057fe5b90602001906020020151848381518110151561060857fe5b90602001906020020151848481518110151561062057fe5b906020019060200201516111b4565b506001016105d6565b50505050565b60026020526000908152604090205460ff1681565b61068e848484848080601f016020809104026020016040519081016040528093929190818152602001838380828437506118f0945050505050565b60408051808201909152601181527f494e56414c49445f5349474e415455524500000000000000000000000000000060208201529015156106ee5760405160e560020a62461bcd0281526004016106e5919061424d565b60405180910390fd5b5050506000918252600560209081526040808420600160a060020a0390931684529190529020805460ff19166001179055565b600960205260009081526040902054600160a060020a031681565b6107446136a3565b61074c6136d2565b6107546136d2565b61016080880151610140808901919091528801519087015260006107778861156a565b92506107828761156a565b915061078c6120cc565b905061079888886120fb565b6107ac88888560400151856040015161217b565b8051602001519094506107c690899085908490808b61223f565b60208085015101516107df90889084908490808a61223f565b6107f888828560200151866040015188600001516124df565b61081187828460200151856040015188602001516124df565b61081d8888838761257e565b505050949350505050565b6108306136f2565b604080517fb4be83d5000000000000000000000000000000000000000000000000000000008082526060600483018181528851606485019081526020808b01516084870152958a015160a48601529189015160c4850152608089015160e485015260a089015161010485015260c089015161012485015260e0890151610144850152610100890151610164850152610120890151610184850152610140890180516101a486019081526101608b01516101c487015261018090525180516101e48601819052939591938493926024870192849261020489019291820191601f82010460005b81811015610933578351855260209485019490930192600101610915565b50505050818103610160808401919091528c0151805180835260209283019291820191601f82010460005b8181101561097c57835185526020948501949093019260010161095e565b5050508b84525084810360209384019081528a518083529093918201918b81019190601f82010460005b818110156109c45783518552602094850194909301926001016109a6565b5060808a8b86038c305af48080156109e35760018114610a0157610a24565b60008e52600060208f0152600060408f0152600060608f0152610a24565b8b518e5260208c015160208f015260408c015160408f015260608c015160608f01525b505050505050505050505050509392505050565b60005b8151811015610a6c57610a648282815181101515610a5557fe5b90602001906020020151611659565b600101610a3b565b5050565b60005b835181101561063857610acc8482815181101515610a8d57fe5b906020019060200201518483815181101515610aa557fe5b906020019060200201518484815181101515610abd57fe5b90602001906020020151610e9d565b50600101610a73565b600080600080610ae36120cc565b9350600160a060020a0384163314610afb5733610afe565b60005b600160a060020a038086166000908152600360209081526040808320938516835292815290829020548251808401909352601783527f494e56414c49445f4e45575f4f524445525f45504f434800000000000000000091830191909152919450600187019350909150818311610b8a5760405160e560020a62461bcd0281526004016106e5919061424d565b50600160a060020a0380851660008181526003602090815260408083209488168084529490915290819020859055517f82af639571738f4ebd4268fb0363d8957ebe1bbb9e78dba5ebd69eed39b154f090610be6908690614299565b60405180910390a35050505050565b60005b835181101561063857610c518482815181101515610c1257fe5b906020019060200201518483815181101515610c2a57fe5b906020019060200201518484815181101515610c4257fe5b90602001906020020151610828565b50600101610bf8565b6000805481908190600160a060020a03163314610c8c5760405160e560020a62461bcd0281526004016106e59061425e565b60ff8616600090815260096020908152604091829020548251808401909352601483527f41535345545f50524f58595f4d49534d4154434800000000000000000000000091830191909152600160a060020a03908116945085168414610d085760405160e560020a62461bcd0281526004016106e5919061424d565b50849150600160a060020a03821615610e0c5781600160a060020a031663ae25532e6040518163ffffffff167c0100000000000000000000000000000000000000000000000000000000028152600401602060405180830381600087803b158015610d7257600080fd5b505af1158015610d86573d6000803e3d6000fd5b505050506040513d601f19601f82011682018060405250610daa9190810190613ef8565b60408051808201909152601781527f41535345545f50524f58595f49445f4d49534d41544348000000000000000000602082015290915060ff80831690881614610e0a5760405160e560020a62461bcd0281526004016106e5919061424d565b505b60ff861660009081526009602052604090819020805473ffffffffffffffffffffffffffffffffffffffff1916600160a060020a038516179055517f27ef5f484e50f2daf7c2d82c60fe4ce409009541176eb64095beac369db1d26090610e78908890889088906142a7565b60405180910390a1505050505050565b60076020526000908152604090205460ff1681565b610ea56136f2565b610eb08484846111b4565b9050828160200151146040805190810160405280601481526020017f434f4d504c4554455f46494c4c5f4641494c4544000000000000000000000000815250901515610f125760405160e560020a62461bcd0281526004016106e5919061424d565b509392505050565b6000610f246120cc565b600160a060020a03908116600090815260066020908152604080832096909316825294909452909220805460ff191691151591909117905550565b600660209081526000928352604080842090915290825290205460ff1681565b610f876136f2565b6060600080610f946136f2565b876000815181101515610fa357fe5b9060200190602002015161016001519350600092505b875183101561104c57838884815181101515610fd157fe5b906020019060200201516101600181905250610ff187866020015161275a565b915061101d888481518110151561100457fe5b9060200190602002015183888681518110151561062057fe5b845160010185529050611030858261276c565b86856020015114156110415761104c565b600190920191610fb9565b505050509392505050565b600560209081526000928352604080842090915290825290205460ff1681565b600054600160a060020a031681565b60ff16600090815260096020526040902054600160a060020a031690565b6110ac6136f2565b606060008060006110bb6136f2565b8860008151811015156110ca57fe5b9060200190602002015161014001519450600093505b88518410156111a8578489858151811015156110f857fe5b602090810290910101516101400152855161111490899061275a565b9250611157898581518110151561112757fe5b9060200190602002015160a001518a8681518110151561114357fe5b9060200190602002015160800151856127ce565b9150611183898581518110151561116a57fe5b90602001906020020151838987815181101515610c4257fe5b905061118f868261276c565b855188141561119d576111a8565b6001909301926110e0565b50505050509392505050565b6111bc6136f2565b6111c46136d2565b60008060006111d28861156a565b93506111dc6120cc565b92506111f08860a00151856040015161275a565b91506111fc87836127eb565b905061120c8885858a858b61223f565b6112168882612803565b945061122d888486602001518760400151896124df565b61104c88848761286d565b60085460408051808201909152601281527f5245454e5452414e43595f494c4c4547414c00000000000000000000000000006020820152600091600160a060020a03161561129c5760405160e560020a62461bcd0281526004016106e5919061424d565b5030868887876040516020018086600160a060020a0316600160a060020a03166c0100000000000000000000000002815260140185600160a060020a0316600160a060020a03166c010000000000000000000000000281526014018481526020018383808284378201915050955050505050506040516020818303038152906040526040518082805190602001908083835b6020831061134d5780518252601f19909201916020918201910161132e565b51815160209384036101000a60001901801990921691161790526040805192909401829003822060008181526007835285902054838601909552600f83527f494e56414c49445f54585f48415348000000000000000000000000000000000091830191909152955093505060ff161590506113de5760405160e560020a62461bcd0281526004016106e5919061424d565b50600160a060020a03861633146114ab5761142a818785858080601f016020809104026020016040519081016040528093929190818152602001838380828437506118f0945050505050565b60408051808201909152601481527f494e56414c49445f54585f5349474e415455524500000000000000000000000060208201529015156114815760405160e560020a62461bcd0281526004016106e5919061424d565b506008805473ffffffffffffffffffffffffffffffffffffffff1916600160a060020a0388161790555b60008181526007602052604090819020805460ff191660011790555130908690869080838380828437820191505092505050600060405180830381855af460408051808201909152601081527f4641494c45445f455845435554494f4e0000000000000000000000000000000060208201529250151590506115435760405160e560020a62461bcd0281526004016106e5919061424d565b50506008805473ffffffffffffffffffffffffffffffffffffffff19169055505050505050565b6115726136d2565b61157b82612999565b6020820152608082015115156115985760015b60ff168152611654565b60a082015115156115aa57600261158e565b61010082015142106115bd57600461158e565b60208082015160009081526002909152604090205460ff16156115e157600661158e565b6101208201518251600160a060020a039081166000908152600360209081526040808320606088015190941683529290522054111561162157600661158e565b602080820151600090815260019091526040908190205490820181905260a08301511161164f57600561158e565b600381525b919050565b6116616136d2565b61166a8261156a565b9050611676828261310d565b610a6c828260200151613256565b600360209081526000928352604080842090915290825290205481565b6116a96136f2565b60606000806116b66136f2565b8760008151811015156116c557fe5b9060200190602002015161016001519350600092505b875183101561104c578388848151811015156116f357fe5b90602001906020020151610160018190525061171387866020015161275a565b915061173f888481518110151561172657fe5b90602001906020020151838886815181101515610c4257fe5b905061174b858261276c565b868560200151141561175c5761104c565b6001909201916116db565b61176f6136f2565b6060600080600061177e6136f2565b88600081518110151561178d57fe5b9060200190602002015161014001519450600093505b88518410156111a8578489858151811015156117bb57fe5b60209081029091010151610140015285516117d790899061275a565b92506117ea898581518110151561112757fe5b915061181689858151811015156117fd57fe5b9060200190602002015183898781518110151561062057fe5b855160010186529050611829868261276c565b8551881415611837576111a8565b6001909301926117a3565b600854600160a060020a031681565b600054600160a060020a0316331461187e5760405160e560020a62461bcd0281526004016106e59061425e565b600160a060020a038116156118b6576000805473ffffffffffffffffffffffffffffffffffffffff1916600160a060020a0383161790555b50565b60408051808201909152600b81527f322e302e312d616c706861000000000000000000000000000000000000000000602082015281565b6000806000806000806000808851116040805190810160405280601e81526020017f4c454e4754485f475245415445525f5448414e5f305f524551554952454400008152509015156119585760405160e560020a62461bcd0281526004016106e5919061424d565b50611962886132d2565b60f860020a900460ff16600881111561197757fe5b9550600086600881111561198757fe5b14156119db57604080518082018252601181527f5349474e41545552455f494c4c4547414c0000000000000000000000000000006020820152905160e560020a62461bcd0281526106e5919060040161424d565b60018660088111156119e957fe5b1415611a5157875160408051808201909152601181527f4c454e4754485f315f524551554952454400000000000000000000000000000060208201529015611a475760405160e560020a62461bcd0281526004016106e5919061424d565b50600096506120bf565b6002866008811115611a5f57fe5b1415611b6757875160408051808201909152601281527f4c454e4754485f36365f52455155495245440000000000000000000000000000602082015290604114611abf5760405160e560020a62461bcd0281526004016106e5919061424d565b50876000815181101515611acf57fe5b016020015160f860020a908190048102049450611aed886001613387565b9350611afa886021613387565b925060018a86868660405160008152602001604052604051611b1f94939291906141b8565b60206040516020810390808403906000865af1158015611b43573d6000803e3d6000fd5b5050604051601f190151600160a060020a038b811690821614985092506120bf9050565b6003866008811115611b7557fe5b1415611d2157875160408051808201909152601281527f4c454e4754485f36365f52455155495245440000000000000000000000000000602082015290604114611bd55760405160e560020a62461bcd0281526004016106e5919061424d565b50876000815181101515611be557fe5b016020015160f860020a908190048102049450611c03886001613387565b9350611c10886021613387565b925060016040805190810160405280601c81526020017f19457468657265756d205369676e6564204d6573736167653a0a3332000000008152508b6040516020018083805190602001908083835b60208310611c7d5780518252601f199092019160209182019101611c5e565b51815160209384036101000a600019018019909216911617905292019384525060408051808503815293820190819052835193945092839250908401908083835b60208310611cdd5780518252601f199092019160209182019101611cbe565b51815160209384036101000a60001901801990921691161790526040805192909401829003822060008352910192839052611b1f94509250899189915088906141b8565b6004866008811115611d2f57fe5b1415611da157875160408051808201909152601181527f4c454e4754485f315f524551554952454400000000000000000000000000000060208201529015611d8d5760405160e560020a62461bcd0281526004016106e5919061424d565b50600160a060020a038916331496506120bf565b6005866008811115611daf57fe5b1415611e55576040517f1626ba7e000000000000000000000000000000000000000000000000000000008152600160a060020a038a1690631626ba7e90611dfc908d908c90600401614198565b602060405180830381600087803b158015611e1657600080fd5b505af1158015611e2a573d6000803e3d6000fd5b505050506040513d601f19601f82011682018060405250611e4e9190810190613c17565b96506120bf565b6006866008811115611e6357fe5b1415611ef657611e728861341b565b600160a060020a03808b1660009081526006602090815260408083209385168352929052205490915060ff161515611ead57600096506120bf565b6040517f93634702000000000000000000000000000000000000000000000000000000008152600160a060020a03821690639363470290611dfc908d908d908d90600401614162565b6007866008811115611f0457fe5b1415611f375760008a8152600560209081526040808320600160a060020a038d16845290915290205460ff1696506120bf565b6008866008811115611f4557fe5b141561203057875160408051808201909152601281527f4c454e4754485f36365f52455155495245440000000000000000000000000000602082015290604114611fa55760405160e560020a62461bcd0281526004016106e5919061424d565b50876000815181101515611fb557fe5b016020015160f860020a908190048102049450611fd3886001613387565b9350611fe0886021613387565b604080518082018252601b8082527f19457468657265756d205369676e6564204d6573736167653a0a4100000000006020808401918252935194975060019492938f930191829190808383611c7d565b600786600881111561203e57fe5b14156120715760008a8152600560209081526040808320600160a060020a038d16845290915290205460ff1696506120bf565b604080518082018252601581527f5349474e41545552455f554e535550504f5254454400000000000000000000006020820152905160e560020a62461bcd0281526106e5919060040161424d565b5050505050509392505050565b6008546000908190600160a060020a0316156120f357600854600160a060020a03166120f5565b335b92915050565b61210d8260a001518260a001516134bf565b61211f836080015183608001516134bf565b60408051808201909152601881527f4e454741544956455f5350524541445f5245515549524544000000000000000060208201529111156121765760405160e560020a62461bcd0281526004016106e5919061424d565b505050565b6121836136a3565b6000806000806121978960a001518861275a565b93506121a78860a001518761275a565b92506121b78389608001516134bf565b6121c5858a60a001516134bf565b116121e7578391506121e08860a001518960800151846127ce565b9050612200565b8290506121fd88608001518960a00151836127ce565b91505b61220a8983612803565b85526122168882612803565b602080870182905286515191015161222e919061275a565b604086015250505050949350505050565b845160408051808201909152601081527f4f524445525f554e46494c4c41424c450000000000000000000000000000000060208201529060ff1660031461229c5760405160e560020a62461bcd0281526004016106e5919061424d565b5060408051808201909152601481527f494e56414c49445f54414b45525f414d4f554e5400000000000000000000000060208201528315156122f45760405160e560020a62461bcd0281526004016106e5919061424d565b506060860151600160a060020a03161561236f57606086015160408051808201909152600e81527f494e56414c49445f53454e444552000000000000000000000000000000000000602082015290600160a060020a0316331461236d5760405160e560020a62461bcd0281526004016106e5919061424d565b505b6020860151600160a060020a0316156123f65783600160a060020a03168660200151600160a060020a0316146040805190810160405280600d81526020017f494e56414c49445f54414b4552000000000000000000000000000000000000008152509015156123f45760405160e560020a62461bcd0281526004016106e5919061424d565b505b6040850151151561246d5761241485602001518760000151836118f0565b60408051808201909152601781527f494e56414c49445f4f524445525f5349474e4154555245000000000000000000602082015290151561246b5760405160e560020a62461bcd0281526004016106e5919061424d565b505b612480828760a0015188608001516134e3565b60408051808201909152600e81527f524f554e44494e475f4552524f52000000000000000000000000000000000000602082015290156124d65760405160e560020a62461bcd0281526004016106e5919061424d565b50505050505050565b6124ed828260200151613539565b600084815260016020908152604091829020929092558681015187518451938501518584015160608701516101408c01516101608d015196518b98600160a060020a039788169897909616967fde19f18e1b56e6eada7ed95cca8398b602be32f5864640537ee9a9a3532bb29d9661256f968f969195909491939092906140df565b60405180910390a45050505050565b60008060606125918761014001516132d2565b60f860020a900492506125a88661014001516132d2565b60048054604080516020601f6002600019610100600188161502019095169490940493840181900481028201810190925282815260f860020a90940495508301828280156126375780601f1061260c57610100808354040283529160200191612637565b820191906000526020600020905b81548152906001019060200180831161261a57829003601f168201915b505050505090506126608761014001518489600001518960000151886020015160200151613548565b6101408601518651885186516020015161267e939286929091613548565b612698876101400151848960000151888860400151613548565b6126b681600189600001518a60400151886000015160400151613548565b6126d481600188600001518960400151886020015160400151613548565b8560400151600160a060020a03168760400151600160a060020a0316141561272657612721816001878a6040015161271c8960000151606001518a6020015160600151613539565b613548565b6124d6565b612740816001878a60400151886000015160600151613548565b6124d6816001878960400151886020015160600151613548565b60008282111561276657fe5b50900390565b8151815161277a9190613539565b8252602080830151908201516127909190613539565b6020830152604080830151908201516127a99190613539565b6040830152606080830151908201516127c29190613539565b60609092019190915250565b60006127e36127dd85846134bf565b846135ef565b949350505050565b60008183106127fa57816127fc565b825b9392505050565b61280b6136f2565b6020810182905260a083015160808401516128279184916127ce565b8152602081015160a084015160c08501516128439291906127ce565b6040820152602081015160a084015160e08501516128629291906127ce565b606082015292915050565b60008060606128808661014001516132d2565b60f860020a900492506128978661016001516132d2565b60048054604080516020601f6002600019610100600188161502019095169490940493840181900481028201810190925282815260f860020a90940495508301828280156129265780601f106128fb57610100808354040283529160200191612926565b820191906000526020600020905b81548152906001019060200180831161290957829003601f168201915b50505050509050612947866101400151848860000151888860000151613548565b612961866101600151838789600001518860200151613548565b61297b816001886000015189604001518860400151613548565b6129918160018789604001518860600151613548565b505050505050565b600060405160200180807f446f6d61696e536570617261746f72286164647265737320636f6e747261637481526020017f290000000000000000000000000000000000000000000000000000000000000081525060210190506040516020818303038152906040526040518082805190602001908083835b60208310612a305780518252601f199092019160209182019101612a11565b51815160209384036101000a600019018019909216911617905260408051929094018290038220306c0100000000000000000000000002838301528451601481850301815260349093019485905282519096509194508392508401908083835b60208310612aaf5780518252601f199092019160209182019101612a90565b51815160209384036101000a6000190180199092169116179052604080519290940182900382207f4f72646572280000000000000000000000000000000000000000000000000000838301527f61646472657373206d616b6572416464726573732c000000000000000000000060268401527f616464726573732074616b6572416464726573732c0000000000000000000000603b8401527f6164647265737320666565526563697069656e74416464726573732c0000000060508401527f616464726573732073656e646572416464726573732c00000000000000000000606c8401527f75696e74323536206d616b65724173736574416d6f756e742c0000000000000060828401527f75696e743235362074616b65724173736574416d6f756e742c00000000000000609b8401527f75696e74323536206d616b65724665652c00000000000000000000000000000060b48401527f75696e743235362074616b65724665652c00000000000000000000000000000060c58401527f75696e743235362065787069726174696f6e54696d655365636f6e64732c000060d68401527f75696e743235362073616c742c0000000000000000000000000000000000000060f48401527f6279746573206d616b65724173736574446174612c00000000000000000000006101018401527f62797465732074616b65724173736574446174612c00000000000000000000006101168401527f290000000000000000000000000000000000000000000000000000000000000061012b840152845180840361010c01815261012c9093019485905282519096509194508392508401908083835b60208310612d325780518252601f199092019160209182019101612d13565b6001836020036101000a0380198251168184511680821785525050505050509050019150506040518091039020846000015185602001518660400151876060015188608001518960a001518a60c001518b60e001518c61010001518d61012001518e61014001516040516020018082805190602001908083835b60208310612dcb5780518252601f199092019160209182019101612dac565b6001836020036101000a0380198251168184511680821785525050505050509050019150506040516020818303038152906040526040518082805190602001908083835b60208310612e2e5780518252601f199092019160209182019101612e0f565b6001836020036101000a03801982511681845116808217855250505050505090500191505060405180910390208f61016001516040516020018082805190602001908083835b60208310612e935780518252601f199092019160209182019101612e74565b6001836020036101000a0380198251168184511680821785525050505050509050019150506040516020818303038152906040526040518082805190602001908083835b60208310612ef65780518252601f199092019160209182019101612ed7565b6001836020036101000a0380198251168184511680821785525050505050509050019150506040518091039020604051602001808d600160a060020a0316600160a060020a03166c010000000000000000000000000281526014018c600160a060020a0316600160a060020a03166c010000000000000000000000000281526014018b600160a060020a0316600160a060020a03166c010000000000000000000000000281526014018a600160a060020a0316600160a060020a03166c01000000000000000000000000028152601401898152602001888152602001878152602001868152602001858152602001848152602001836000191660001916815260200182600019166000191681526020019c505050505050505050505050506040516020818303038152906040526040518082805190602001908083835b602083106130525780518252601f199092019160209182019101613033565b51815160001960209485036101000a019081169019919091161790526040805194909201849003842084820199909952838201979097526060830195909552506080808201969096528351808203909601865260a001928390525050825190918291908401908083835b602083106130db5780518252601f1990920191602091820191016130bc565b5181516020939093036101000a6000190180199091169216919091179052604051920182900390912095945050505050565b805160408051808201909152601081527f4f524445525f554e46494c4c41424c4500000000000000000000000000000000602082015260009160ff1660031461316c5760405160e560020a62461bcd0281526004016106e5919061424d565b506060830151600160a060020a0316156131e757606083015160408051808201909152600e81527f494e56414c49445f53454e444552000000000000000000000000000000000000602082015290600160a060020a031633146131e55760405160e560020a62461bcd0281526004016106e5919061424d565b505b6131ef6120cc565b835160408051808201909152600d81527f494e56414c49445f4d414b4552000000000000000000000000000000000000006020820152919250600160a060020a038084169116146106385760405160e560020a62461bcd0281526004016106e5919061424d565b60008181526002602052604090819020805460ff1916600117905582810151835161014085015161016086015193518594600160a060020a039485169493909316927fb1ad640e9e79b6fdbc3c415dc2914ab54e753d2971f51eab910f7aa317a3163a926132c69290919061421a565b60405180910390a45050565b600080825111606060405190810160405280602181526020017f475245415445525f5448414e5f5a45524f5f4c454e4754485f5245515549524581526020017f44000000000000000000000000000000000000000000000000000000000000008152509015156133585760405160e560020a62461bcd0281526004016106e5919061424d565b5081518290600019810190811061336b57fe5b01602001518251600019019092525060f860020a908190040290565b60008160200183511015606060405190810160405280602681526020017f475245415445525f4f525f455155414c5f544f5f33325f4c454e4754485f524581526020017f51554952454400000000000000000000000000000000000000000000000000008152509015156134115760405160e560020a62461bcd0281526004016106e5919061424d565b5050016020015190565b6000601482511015606060405190810160405280602681526020017f475245415445525f4f525f455155414c5f544f5f32305f4c454e4754485f524581526020017f51554952454400000000000000000000000000000000000000000000000000008152509015156134a35760405160e560020a62461bcd0281526004016106e5919061424d565b506134b2826014845103613606565b8251601319019092525090565b60008282028315806134db57508284828115156134d857fe5b04145b15156127fc57fe5b6000806000848015156134f257fe5b86850991508115156135075760009250613530565b61352661351783620f42406134bf565b61352188876134bf565b6135ef565b6103e88111935090505b50509392505050565b6000828201838110156127fc57fe5b600080821115612991575060ff8416600090815260096020526040908190205490517fa85e59e4000000000000000000000000000000000000000000000000000000008152600160a060020a0390911690819063a85e59e4906135b59089908890889088906004016141ed565b600060405180830381600087803b1580156135cf57600080fd5b505af11580156135e3573d6000803e3d6000fd5b50505050505050505050565b60008082848115156135fd57fe5b04949350505050565b60008160140183511015606060405190810160405280602681526020017f475245415445525f4f525f455155414c5f544f5f32305f4c454e4754485f524581526020017f51554952454400000000000000000000000000000000000000000000000000008152509015156136905760405160e560020a62461bcd0281526004016106e5919061424d565b50500160140151600160a060020a031690565b610120604051908101604052806136b86136f2565b81526020016136c56136f2565b8152602001600081525090565b604080516060810182526000808252602082018190529181019190915290565b608060405190810160405280600081526020016000815260200160008152602001600081525090565b60006127fc8235614343565b6000601f8201831361373857600080fd5b813561374b613746826142f6565b6142cf565b81815260209384019390925082018360005b83811015613789578135860161377388826138cd565b845250602092830192919091019060010161375d565b5050505092915050565b6000601f820183136137a457600080fd5b81356137b2613746826142f6565b81815260209384019390925082018360005b8381101561378957813586016137da888261391c565b84525060209283019291909101906001016137c4565b6000601f8201831361380157600080fd5b813561380f613746826142f6565b9150818183526020840193506020810190508385602084028201111561383457600080fd5b60005b83811015613789578161384a8882613878565b8452506020928301929190910190600101613837565b60006127fc823561434f565b60006127fc825161434f565b60006127fc8235614354565b600080601f8301841361389657600080fd5b50813567ffffffffffffffff8111156138ae57600080fd5b6020830191508360018202830111156138c657600080fd5b9250929050565b6000601f820183136138de57600080fd5b81356138ec61374682614317565b9150808252602083016020830185838301111561390857600080fd5b613913838284614368565b50505092915050565b6000610180828403121561392f57600080fd5b61393a6101806142cf565b90506000613948848461371b565b82525060206139598484830161371b565b602083015250604061396d8482850161371b565b60408301525060606139818482850161371b565b606083015250608061399584828501613878565b60808301525060a06139a984828501613878565b60a08301525060c06139bd84828501613878565b60c08301525060e06139d184828501613878565b60e0830152506101006139e684828501613878565b610100830152506101206139fc84828501613878565b6101208301525061014082013567ffffffffffffffff811115613a1e57600080fd5b613a2a848285016138cd565b6101408301525061016082013567ffffffffffffffff811115613a4c57600080fd5b613a58848285016138cd565b6101608301525092915050565b60006127fc8235614357565b60006127fc8251614357565b600060208284031215613a8f57600080fd5b60006127e3848461371b565b60008060408385031215613aae57600080fd5b6000613aba858561371b565b9250506020613acb8582860161371b565b9150509250929050565b60008060408385031215613ae857600080fd5b6000613af4858561371b565b9250506020613acb85828601613860565b600060208284031215613b1757600080fd5b813567ffffffffffffffff811115613b2e57600080fd5b6127e384828501613793565b600080600060608486031215613b4f57600080fd5b833567ffffffffffffffff811115613b6657600080fd5b613b7286828701613793565b935050602084013567ffffffffffffffff811115613b8f57600080fd5b613b9b868287016137f0565b925050604084013567ffffffffffffffff811115613bb857600080fd5b613bc486828701613727565b9150509250925092565b600080600060608486031215613be357600080fd5b833567ffffffffffffffff811115613bfa57600080fd5b613c0686828701613793565b9350506020613b9b86828701613878565b600060208284031215613c2957600080fd5b60006127e3848461386c565b600060208284031215613c4757600080fd5b60006127e38484613878565b60008060408385031215613c6657600080fd5b6000613aba8585613878565b60008060008060608587031215613c8857600080fd5b6000613c948787613878565b9450506020613ca58782880161371b565b935050604085013567ffffffffffffffff811115613cc257600080fd5b613cce87828801613884565b95989497509550505050565b600060208284031215613cec57600080fd5b813567ffffffffffffffff811115613d0357600080fd5b6127e38482850161391c565b60008060008060808587031215613d2557600080fd5b843567ffffffffffffffff811115613d3c57600080fd5b613d488782880161391c565b945050602085013567ffffffffffffffff811115613d6557600080fd5b613d718782880161391c565b935050604085013567ffffffffffffffff811115613d8e57600080fd5b613d9a878288016138cd565b925050606085013567ffffffffffffffff811115613db757600080fd5b613dc3878288016138cd565b91505092959194509250565b600080600060608486031215613de457600080fd5b833567ffffffffffffffff811115613dfb57600080fd5b613e078682870161391c565b9350506020613e1886828701613878565b925050604084013567ffffffffffffffff811115613e3557600080fd5b613bc4868287016138cd565b60008060008060008060808789031215613e5a57600080fd5b6000613e668989613878565b9650506020613e7789828a0161371b565b955050604087013567ffffffffffffffff811115613e9457600080fd5b613ea089828a01613884565b9450945050606087013567ffffffffffffffff811115613ebf57600080fd5b613ecb89828a01613884565b92509250509295509295509295565b600060208284031215613eec57600080fd5b60006127e38484613a65565b600060208284031215613f0a57600080fd5b60006127e38484613a71565b600080600060608486031215613f2b57600080fd5b6000613f378686613a65565b9350506020613f488682870161371b565b9250506040613bc48682870161371b565b613f6281614343565b82525050565b613f628161434f565b613f6281614354565b6000613f858261433f565b808452613f99816020860160208601614374565b613fa2816143a0565b9093016020019392505050565b613f628161435d565b603381527f4f6e6c7920636f6e7472616374206f776e657220697320616c6c6f776564207460208201527f6f2063616c6c2074686973206d6574686f642e00000000000000000000000000604082015260600190565b8051608083019061401f8482613f71565b5060208201516140326020850182613f71565b5060408201516140456040850182613f71565b5060608201516106386060850182613f71565b805161012083019061406a848261400e565b50602082015161407d608085018261400e565b506040820151610638610100850182613f71565b805160608301906140a284826140c8565b5060208201516140b56020850182613f71565b5060408201516106386040850182613f71565b613f6281614357565b602081016120f58284613f59565b60e081016140ed828a613f59565b6140fa6020830189613f71565b6141076040830188613f71565b6141146060830187613f71565b6141216080830186613f71565b81810360a08301526141338185613f7a565b905081810360c08301526141478184613f7a565b9998505050505050505050565b602081016120f58284613f68565b606081016141708286613f71565b61417d6020830185613f59565b818103604083015261418f8184613f7a565b95945050505050565b604081016141a68285613f71565b81810360208301526127e38184613f7a565b608081016141c68287613f71565b6141d360208301866140c8565b6141e06040830185613f71565b61418f6060830184613f71565b608080825281016141fe8187613f7a565b905061420d6020830186613f59565b6141e06040830185613f59565b6040808252810161422b8185613f7a565b905081810360208301526127e38184613f7a565b602081016120f58284613faf565b602080825281016127fc8184613f7a565b602080825281016120f581613fb8565b608081016120f5828461400e565b61012081016120f58284614058565b606081016120f58284614091565b602081016120f58284613f71565b606081016142b582866140c8565b6142c26020830185613f59565b6127e36040830184613f59565b60405181810167ffffffffffffffff811182821017156142ee57600080fd5b604052919050565b600067ffffffffffffffff82111561430d57600080fd5b5060209081020190565b600067ffffffffffffffff82111561432e57600080fd5b506020601f91909101601f19160190565b5190565b600160a060020a031690565b151590565b90565b60ff1690565b60006120f582614343565b82818337506000910152565b60005b8381101561438f578181015183820152602001614377565b838111156106385750506000910152565b601f01601f1916905600a265627a7a7230582086c90129c0b2182826e4b24ff85aead789f0a84602e99392b1976a504da002936c6578706572696d656e74616cf50037",
				"opcodes": "PUSH1 0x80 PUSH1 0x40 MSTORE CALLVALUE DUP1 ISZERO PUSH3 0x11 JUMPI PUSH1 0x0 DUP1 REVERT JUMPDEST POP PUSH1 0x40 MLOAD PUSH3 0x4620 CODESIZE SUB DUP1 PUSH3 0x4620 DUP4 CODECOPY DUP2 ADD DUP1 PUSH1 0x40 MSTORE PUSH3 0x37 SWAP2 SWAP1 DUP2 ADD SWAP1 PUSH3 0x16A JUMP JUMPDEST PUSH1 0x0 DUP1 SLOAD PUSH1 0x1 PUSH1 0xA0 PUSH1 0x2 EXP SUB NOT AND CALLER OR SWAP1 SSTORE DUP1 MLOAD DUP2 SWAP1 PUSH3 0x60 SWAP1 PUSH1 0x4 SWAP1 PUSH1 0x20 DUP5 ADD SWAP1 PUSH3 0x69 JUMP JUMPDEST POP POP POP PUSH3 0x22C JUMP JUMPDEST DUP3 DUP1 SLOAD PUSH1 0x1 DUP2 PUSH1 0x1 AND ISZERO PUSH2 0x100 MUL SUB AND PUSH1 0x2 SWAP1 DIV SWAP1 PUSH1 0x0 MSTORE PUSH1 0x20 PUSH1 0x0 KECCAK256 SWAP1 PUSH1 0x1F ADD PUSH1 0x20 SWAP1 DIV DUP2 ADD SWAP3 DUP3 PUSH1 0x1F LT PUSH3 0xAC JUMPI DUP1 MLOAD PUSH1 0xFF NOT AND DUP4 DUP1 ADD OR DUP6 SSTORE PUSH3 0xDC JUMP JUMPDEST DUP3 DUP1 ADD PUSH1 0x1 ADD DUP6 SSTORE DUP3 ISZERO PUSH3 0xDC JUMPI SWAP2 DUP3 ADD JUMPDEST DUP3 DUP2 GT ISZERO PUSH3 0xDC JUMPI DUP3 MLOAD DUP3 SSTORE SWAP2 PUSH1 0x20 ADD SWAP2 SWAP1 PUSH1 0x1 ADD SWAP1 PUSH3 0xBF JUMP JUMPDEST POP PUSH3 0xEA SWAP3 SWAP2 POP PUSH3 0xEE JUMP JUMPDEST POP SWAP1 JUMP JUMPDEST PUSH3 0x10B SWAP2 SWAP1 JUMPDEST DUP1 DUP3 GT ISZERO PUSH3 0xEA JUMPI PUSH1 0x0 DUP2 SSTORE PUSH1 0x1 ADD PUSH3 0xF5 JUMP JUMPDEST SWAP1 JUMP JUMPDEST PUSH1 0x0 PUSH1 0x1F DUP3 ADD DUP4 SGT PUSH3 0x120 JUMPI PUSH1 0x0 DUP1 REVERT JUMPDEST DUP2 MLOAD PUSH3 0x137 PUSH3 0x131 DUP3 PUSH3 0x1D1 JUMP JUMPDEST PUSH3 0x1AA JUMP JUMPDEST SWAP2 POP DUP1 DUP3 MSTORE PUSH1 0x20 DUP4 ADD PUSH1 0x20 DUP4 ADD DUP6 DUP4 DUP4 ADD GT ISZERO PUSH3 0x154 JUMPI PUSH1 0x0 DUP1 REVERT JUMPDEST PUSH3 0x161 DUP4 DUP3 DUP5 PUSH3 0x1F9 JUMP JUMPDEST POP POP POP SWAP3 SWAP2 POP POP JUMP JUMPDEST PUSH1 0x0 PUSH1 0x20 DUP3 DUP5 SUB SLT ISZERO PUSH3 0x17D JUMPI PUSH1 0x0 DUP1 REVERT JUMPDEST DUP2 MLOAD PUSH1 0x1 PUSH1 0x40 PUSH1 0x2 EXP SUB DUP2 GT ISZERO PUSH3 0x194 JUMPI PUSH1 0x0 DUP1 REVERT JUMPDEST PUSH3 0x1A2 DUP5 DUP3 DUP6 ADD PUSH3 0x10E JUMP JUMPDEST SWAP5 SWAP4 POP POP POP POP JUMP JUMPDEST PUSH1 0x40 MLOAD DUP2 DUP2 ADD PUSH1 0x1 PUSH1 0x40 PUSH1 0x2 EXP SUB DUP2 GT DUP3 DUP3 LT OR ISZERO PUSH3 0x1C9 JUMPI PUSH1 0x0 DUP1 REVERT JUMPDEST PUSH1 0x40 MSTORE SWAP2 SWAP1 POP JUMP JUMPDEST PUSH1 0x0 PUSH1 0x1 PUSH1 0x40 PUSH1 0x2 EXP SUB DUP3 GT ISZERO PUSH3 0x1E8 JUMPI PUSH1 0x0 DUP1 REVERT JUMPDEST POP PUSH1 0x20 PUSH1 0x1F SWAP2 SWAP1 SWAP2 ADD PUSH1 0x1F NOT AND ADD SWAP1 JUMP JUMPDEST PUSH1 0x0 JUMPDEST DUP4 DUP2 LT ISZERO PUSH3 0x216 JUMPI DUP2 DUP2 ADD MLOAD DUP4 DUP3 ADD MSTORE PUSH1 0x20 ADD PUSH3 0x1FC JUMP JUMPDEST DUP4 DUP2 GT ISZERO PUSH3 0x226 JUMPI PUSH1 0x0 DUP5 DUP5 ADD MSTORE JUMPDEST POP POP POP POP JUMP JUMPDEST PUSH2 0x43E4 DUP1 PUSH3 0x23C PUSH1 0x0 CODECOPY PUSH1 0x0 RETURN STOP PUSH1 0x80 PUSH1 0x40 MSTORE PUSH1 0x4 CALLDATASIZE LT PUSH2 0x18A JUMPI PUSH4 0xFFFFFFFF PUSH29 0x100000000000000000000000000000000000000000000000000000000 PUSH1 0x0 CALLDATALOAD DIV AND PUSH4 0x288CDC91 DUP2 EQ PUSH2 0x18F JUMPI DUP1 PUSH4 0x297BB70B EQ PUSH2 0x1C5 JUMPI DUP1 PUSH4 0x2AC12622 EQ PUSH2 0x1E7 JUMPI DUP1 PUSH4 0x3683EF8E EQ PUSH2 0x214 JUMPI DUP1 PUSH4 0x38077164 EQ PUSH2 0x234 JUMPI DUP1 PUSH4 0x3C28D861 EQ PUSH2 0x261 JUMPI DUP1 PUSH4 0x3E228BAE EQ PUSH2 0x28E JUMPI DUP1 PUSH4 0x4AC14782 EQ PUSH2 0x2BB JUMPI DUP1 PUSH4 0x4D0AE546 EQ PUSH2 0x2DB JUMPI DUP1 PUSH4 0x4F9559B1 EQ PUSH2 0x2FB JUMPI DUP1 PUSH4 0x50DDE190 EQ PUSH2 0x31B JUMPI DUP1 PUSH4 0x5C78D0C7 EQ PUSH2 0x33B JUMPI DUP1 PUSH4 0x642F2EAF EQ PUSH2 0x35B JUMPI DUP1 PUSH4 0x64A3BC15 EQ PUSH2 0x37B JUMPI DUP1 PUSH4 0x77FCCE68 EQ PUSH2 0x39B JUMPI DUP1 PUSH4 0x7B8E3514 EQ PUSH2 0x3BB JUMPI DUP1 PUSH4 0x7E1D9808 EQ PUSH2 0x3DB JUMPI DUP1 PUSH4 0x82C174D0 EQ PUSH2 0x3FB JUMPI DUP1 PUSH4 0x8DA5CB5B EQ PUSH2 0x41B JUMPI DUP1 PUSH4 0x92C1421E EQ PUSH2 0x43D JUMPI DUP1 PUSH4 0xA3E20380 EQ PUSH2 0x45D JUMPI DUP1 PUSH4 0xB4BE83D5 EQ PUSH2 0x47D JUMPI DUP1 PUSH4 0xBFC8BFCE EQ PUSH2 0x49D JUMPI DUP1 PUSH4 0xC75E0A81 EQ PUSH2 0x4BD JUMPI DUP1 PUSH4 0xD46B02C3 EQ PUSH2 0x4EA JUMPI DUP1 PUSH4 0xD9BFA73E EQ PUSH2 0x50A JUMPI DUP1 PUSH4 0xDD1C7D18 EQ PUSH2 0x52A JUMPI DUP1 PUSH4 0xE5FA431B EQ PUSH2 0x54A JUMPI DUP1 PUSH4 0xEEA086BA EQ PUSH2 0x56A JUMPI DUP1 PUSH4 0xF2FDE38B EQ PUSH2 0x57F JUMPI DUP1 PUSH4 0xFFA1AD74 EQ PUSH2 0x59F JUMPI JUMPDEST PUSH1 0x0 DUP1 REVERT JUMPDEST CALLVALUE DUP1 ISZERO PUSH2 0x19B JUMPI PUSH1 0x0 DUP1 REVERT JUMPDEST POP PUSH2 0x1AF PUSH2 0x1AA CALLDATASIZE PUSH1 0x4 PUSH2 0x3C35 JUMP JUMPDEST PUSH2 0x5C1 JUMP JUMPDEST PUSH1 0x40 MLOAD PUSH2 0x1BC SWAP2 SWAP1 PUSH2 0x4299 JUMP JUMPDEST PUSH1 0x40 MLOAD DUP1 SWAP2 SUB SWAP1 RETURN JUMPDEST CALLVALUE DUP1 ISZERO PUSH2 0x1D1 JUMPI PUSH1 0x0 DUP1 REVERT JUMPDEST POP PUSH2 0x1E5 PUSH2 0x1E0 CALLDATASIZE PUSH1 0x4 PUSH2 0x3B3A JUMP JUMPDEST PUSH2 0x5D3 JUMP JUMPDEST STOP JUMPDEST CALLVALUE DUP1 ISZERO PUSH2 0x1F3 JUMPI PUSH1 0x0 DUP1 REVERT JUMPDEST POP PUSH2 0x207 PUSH2 0x202 CALLDATASIZE PUSH1 0x4 PUSH2 0x3C35 JUMP JUMPDEST PUSH2 0x63E JUMP JUMPDEST PUSH1 0x40 MLOAD PUSH2 0x1BC SWAP2 SWAP1 PUSH2 0x4154 JUMP JUMPDEST CALLVALUE DUP1 ISZERO PUSH2 0x220 JUMPI PUSH1 0x0 DUP1 REVERT JUMPDEST POP PUSH2 0x1E5 PUSH2 0x22F CALLDATASIZE PUSH1 0x4 PUSH2 0x3C72 JUMP JUMPDEST PUSH2 0x653 JUMP JUMPDEST CALLVALUE DUP1 ISZERO PUSH2 0x240 JUMPI PUSH1 0x0 DUP1 REVERT JUMPDEST POP PUSH2 0x254 PUSH2 0x24F CALLDATASIZE PUSH1 0x4 PUSH2 0x3EDA JUMP JUMPDEST PUSH2 0x721 JUMP JUMPDEST PUSH1 0x40 MLOAD PUSH2 0x1BC SWAP2 SWAP1 PUSH2 0x423F JUMP JUMPDEST CALLVALUE DUP1 ISZERO PUSH2 0x26D JUMPI PUSH1 0x0 DUP1 REVERT JUMPDEST POP PUSH2 0x281 PUSH2 0x27C CALLDATASIZE PUSH1 0x4 PUSH2 0x3D0F JUMP JUMPDEST PUSH2 0x73C JUMP JUMPDEST PUSH1 0x40 MLOAD PUSH2 0x1BC SWAP2 SWAP1 PUSH2 0x427C JUMP JUMPDEST CALLVALUE DUP1 ISZERO PUSH2 0x29A JUMPI PUSH1 0x0 DUP1 REVERT JUMPDEST POP PUSH2 0x2AE PUSH2 0x2A9 CALLDATASIZE PUSH1 0x4 PUSH2 0x3DCF JUMP JUMPDEST PUSH2 0x828 JUMP JUMPDEST PUSH1 0x40 MLOAD PUSH2 0x1BC SWAP2 SWAP1 PUSH2 0x426E JUMP JUMPDEST CALLVALUE DUP1 ISZERO PUSH2 0x2C7 JUMPI PUSH1 0x0 DUP1 REVERT JUMPDEST POP PUSH2 0x1E5 PUSH2 0x2D6 CALLDATASIZE PUSH1 0x4 PUSH2 0x3B05 JUMP JUMPDEST PUSH2 0xA38 JUMP JUMPDEST CALLVALUE DUP1 ISZERO PUSH2 0x2E7 JUMPI PUSH1 0x0 DUP1 REVERT JUMPDEST POP PUSH2 0x1E5 PUSH2 0x2F6 CALLDATASIZE PUSH1 0x4 PUSH2 0x3B3A JUMP JUMPDEST PUSH2 0xA70 JUMP JUMPDEST CALLVALUE DUP1 ISZERO PUSH2 0x307 JUMPI PUSH1 0x0 DUP1 REVERT JUMPDEST POP PUSH2 0x1E5 PUSH2 0x316 CALLDATASIZE PUSH1 0x4 PUSH2 0x3C35 JUMP JUMPDEST PUSH2 0xAD5 JUMP JUMPDEST CALLVALUE DUP1 ISZERO PUSH2 0x327 JUMPI PUSH1 0x0 DUP1 REVERT JUMPDEST POP PUSH2 0x1E5 PUSH2 0x336 CALLDATASIZE PUSH1 0x4 PUSH2 0x3B3A JUMP JUMPDEST PUSH2 0xBF5 JUMP JUMPDEST CALLVALUE DUP1 ISZERO PUSH2 0x347 JUMPI PUSH1 0x0 DUP1 REVERT JUMPDEST POP PUSH2 0x1E5 PUSH2 0x356 CALLDATASIZE PUSH1 0x4 PUSH2 0x3F16 JUMP JUMPDEST PUSH2 0xC5A JUMP JUMPDEST CALLVALUE DUP1 ISZERO PUSH2 0x367 JUMPI PUSH1 0x0 DUP1 REVERT JUMPDEST POP PUSH2 0x207 PUSH2 0x376 CALLDATASIZE PUSH1 0x4 PUSH2 0x3C35 JUMP JUMPDEST PUSH2 0xE88 JUMP JUMPDEST CALLVALUE DUP1 ISZERO PUSH2 0x387 JUMPI PUSH1 0x0 DUP1 REVERT JUMPDEST POP PUSH2 0x2AE PUSH2 0x396 CALLDATASIZE PUSH1 0x4 PUSH2 0x3DCF JUMP JUMPDEST PUSH2 0xE9D JUMP JUMPDEST CALLVALUE DUP1 ISZERO PUSH2 0x3A7 JUMPI PUSH1 0x0 DUP1 REVERT JUMPDEST POP PUSH2 0x1E5 PUSH2 0x3B6 CALLDATASIZE PUSH1 0x4 PUSH2 0x3AD5 JUMP JUMPDEST PUSH2 0xF1A JUMP JUMPDEST CALLVALUE DUP1 ISZERO PUSH2 0x3C7 JUMPI PUSH1 0x0 DUP1 REVERT JUMPDEST POP PUSH2 0x207 PUSH2 0x3D6 CALLDATASIZE PUSH1 0x4 PUSH2 0x3A9B JUMP JUMPDEST PUSH2 0xF5F JUMP JUMPDEST CALLVALUE DUP1 ISZERO PUSH2 0x3E7 JUMPI PUSH1 0x0 DUP1 REVERT JUMPDEST POP PUSH2 0x2AE PUSH2 0x3F6 CALLDATASIZE PUSH1 0x4 PUSH2 0x3BCE JUMP JUMPDEST PUSH2 0xF7F JUMP JUMPDEST CALLVALUE DUP1 ISZERO PUSH2 0x407 JUMPI PUSH1 0x0 DUP1 REVERT JUMPDEST POP PUSH2 0x207 PUSH2 0x416 CALLDATASIZE PUSH1 0x4 PUSH2 0x3C53 JUMP JUMPDEST PUSH2 0x1057 JUMP JUMPDEST CALLVALUE DUP1 ISZERO PUSH2 0x427 JUMPI PUSH1 0x0 DUP1 REVERT JUMPDEST POP PUSH2 0x430 PUSH2 0x1077 JUMP JUMPDEST PUSH1 0x40 MLOAD PUSH2 0x1BC SWAP2 SWAP1 PUSH2 0x40D1 JUMP JUMPDEST CALLVALUE DUP1 ISZERO PUSH2 0x449 JUMPI PUSH1 0x0 DUP1 REVERT JUMPDEST POP PUSH2 0x430 PUSH2 0x458 CALLDATASIZE PUSH1 0x4 PUSH2 0x3EDA JUMP JUMPDEST PUSH2 0x1086 JUMP JUMPDEST CALLVALUE DUP1 ISZERO PUSH2 0x469 JUMPI PUSH1 0x0 DUP1 REVERT JUMPDEST POP PUSH2 0x2AE PUSH2 0x478 CALLDATASIZE PUSH1 0x4 PUSH2 0x3BCE JUMP JUMPDEST PUSH2 0x10A4 JUMP JUMPDEST CALLVALUE DUP1 ISZERO PUSH2 0x489 JUMPI PUSH1 0x0 DUP1 REVERT JUMPDEST POP PUSH2 0x2AE PUSH2 0x498 CALLDATASIZE PUSH1 0x4 PUSH2 0x3DCF JUMP JUMPDEST PUSH2 0x11B4 JUMP JUMPDEST CALLVALUE DUP1 ISZERO PUSH2 0x4A9 JUMPI PUSH1 0x0 DUP1 REVERT JUMPDEST POP PUSH2 0x1E5 PUSH2 0x4B8 CALLDATASIZE PUSH1 0x4 PUSH2 0x3E41 JUMP JUMPDEST PUSH2 0x1238 JUMP JUMPDEST CALLVALUE DUP1 ISZERO PUSH2 0x4C9 JUMPI PUSH1 0x0 DUP1 REVERT JUMPDEST POP PUSH2 0x4DD PUSH2 0x4D8 CALLDATASIZE PUSH1 0x4 PUSH2 0x3CDA JUMP JUMPDEST PUSH2 0x156A JUMP JUMPDEST PUSH1 0x40 MLOAD PUSH2 0x1BC SWAP2 SWAP1 PUSH2 0x428B JUMP JUMPDEST CALLVALUE DUP1 ISZERO PUSH2 0x4F6 JUMPI PUSH1 0x0 DUP1 REVERT JUMPDEST POP PUSH2 0x1E5 PUSH2 0x505 CALLDATASIZE PUSH1 0x4 PUSH2 0x3CDA JUMP JUMPDEST PUSH2 0x1659 JUMP JUMPDEST CALLVALUE DUP1 ISZERO PUSH2 0x516 JUMPI PUSH1 0x0 DUP1 REVERT JUMPDEST POP PUSH2 0x1AF PUSH2 0x525 CALLDATASIZE PUSH1 0x4 PUSH2 0x3A9B JUMP JUMPDEST PUSH2 0x1684 JUMP JUMPDEST CALLVALUE DUP1 ISZERO PUSH2 0x536 JUMPI PUSH1 0x0 DUP1 REVERT JUMPDEST POP PUSH2 0x2AE PUSH2 0x545 CALLDATASIZE PUSH1 0x4 PUSH2 0x3BCE JUMP JUMPDEST PUSH2 0x16A1 JUMP JUMPDEST CALLVALUE DUP1 ISZERO PUSH2 0x556 JUMPI PUSH1 0x0 DUP1 REVERT JUMPDEST POP PUSH2 0x2AE PUSH2 0x565 CALLDATASIZE PUSH1 0x4 PUSH2 0x3BCE JUMP JUMPDEST PUSH2 0x1767 JUMP JUMPDEST CALLVALUE DUP1 ISZERO PUSH2 0x576 JUMPI PUSH1 0x0 DUP1 REVERT JUMPDEST POP PUSH2 0x430 PUSH2 0x1842 JUMP JUMPDEST CALLVALUE DUP1 ISZERO PUSH2 0x58B JUMPI PUSH1 0x0 DUP1 REVERT JUMPDEST POP PUSH2 0x1E5 PUSH2 0x59A CALLDATASIZE PUSH1 0x4 PUSH2 0x3A7D JUMP JUMPDEST PUSH2 0x1851 JUMP JUMPDEST CALLVALUE DUP1 ISZERO PUSH2 0x5AB JUMPI PUSH1 0x0 DUP1 REVERT JUMPDEST POP PUSH2 0x5B4 PUSH2 0x18B9 JUMP JUMPDEST PUSH1 0x40 MLOAD PUSH2 0x1BC SWAP2 SWAP1 PUSH2 0x424D JUMP JUMPDEST PUSH1 0x1 PUSH1 0x20 MSTORE PUSH1 0x0 SWAP1 DUP2 MSTORE PUSH1 0x40 SWAP1 KECCAK256 SLOAD DUP2 JUMP JUMPDEST PUSH1 0x0 JUMPDEST DUP4 MLOAD DUP2 LT ISZERO PUSH2 0x638 JUMPI PUSH2 0x62F DUP5 DUP3 DUP2 MLOAD DUP2 LT ISZERO ISZERO PUSH2 0x5F0 JUMPI INVALID JUMPDEST SWAP1 PUSH1 0x20 ADD SWAP1 PUSH1 0x20 MUL ADD MLOAD DUP5 DUP4 DUP2 MLOAD DUP2 LT ISZERO ISZERO PUSH2 0x608 JUMPI INVALID JUMPDEST SWAP1 PUSH1 0x20 ADD SWAP1 PUSH1 0x20 MUL ADD MLOAD DUP5 DUP5 DUP2 MLOAD DUP2 LT ISZERO ISZERO PUSH2 0x620 JUMPI INVALID JUMPDEST SWAP1 PUSH1 0x20 ADD SWAP1 PUSH1 0x20 MUL ADD MLOAD PUSH2 0x11B4 JUMP JUMPDEST POP PUSH1 0x1 ADD PUSH2 0x5D6 JUMP JUMPDEST POP POP POP POP JUMP JUMPDEST PUSH1 0x2 PUSH1 0x20 MSTORE PUSH1 0x0 SWAP1 DUP2 MSTORE PUSH1 0x40 SWAP1 KECCAK256 SLOAD PUSH1 0xFF AND DUP2 JUMP JUMPDEST PUSH2 0x68E DUP5 DUP5 DUP5 DUP5 DUP1 DUP1 PUSH1 0x1F ADD PUSH1 0x20 DUP1 SWAP2 DIV MUL PUSH1 0x20 ADD PUSH1 0x40 MLOAD SWAP1 DUP2 ADD PUSH1 0x40 MSTORE DUP1 SWAP4 SWAP3 SWAP2 SWAP1 DUP2 DUP2 MSTORE PUSH1 0x20 ADD DUP4 DUP4 DUP1 DUP3 DUP5 CALLDATACOPY POP PUSH2 0x18F0 SWAP5 POP POP POP POP POP JUMP JUMPDEST PUSH1 0x40 DUP1 MLOAD DUP1 DUP3 ADD SWAP1 SWAP2 MSTORE PUSH1 0x11 DUP2 MSTORE PUSH32 0x494E56414C49445F5349474E4154555245000000000000000000000000000000 PUSH1 0x20 DUP3 ADD MSTORE SWAP1 ISZERO ISZERO PUSH2 0x6EE JUMPI PUSH1 0x40 MLOAD PUSH1 0xE5 PUSH1 0x2 EXP PUSH3 0x461BCD MUL DUP2 MSTORE PUSH1 0x4 ADD PUSH2 0x6E5 SWAP2 SWAP1 PUSH2 0x424D JUMP JUMPDEST PUSH1 0x40 MLOAD DUP1 SWAP2 SUB SWAP1 REVERT JUMPDEST POP POP POP PUSH1 0x0 SWAP2 DUP3 MSTORE PUSH1 0x5 PUSH1 0x20 SWAP1 DUP2 MSTORE PUSH1 0x40 DUP1 DUP5 KECCAK256 PUSH1 0x1 PUSH1 0xA0 PUSH1 0x2 EXP SUB SWAP1 SWAP4 AND DUP5 MSTORE SWAP2 SWAP1 MSTORE SWAP1 KECCAK256 DUP1 SLOAD PUSH1 0xFF NOT AND PUSH1 0x1 OR SWAP1 SSTORE JUMP JUMPDEST PUSH1 0x9 PUSH1 0x20 MSTORE PUSH1 0x0 SWAP1 DUP2 MSTORE PUSH1 0x40 SWAP1 KECCAK256 SLOAD PUSH1 0x1 PUSH1 0xA0 PUSH1 0x2 EXP SUB AND DUP2 JUMP JUMPDEST PUSH2 0x744 PUSH2 0x36A3 JUMP JUMPDEST PUSH2 0x74C PUSH2 0x36D2 JUMP JUMPDEST PUSH2 0x754 PUSH2 0x36D2 JUMP JUMPDEST PUSH2 0x160 DUP1 DUP9 ADD MLOAD PUSH2 0x140 DUP1 DUP10 ADD SWAP2 SWAP1 SWAP2 MSTORE DUP9 ADD MLOAD SWAP1 DUP8 ADD MSTORE PUSH1 0x0 PUSH2 0x777 DUP9 PUSH2 0x156A JUMP JUMPDEST SWAP3 POP PUSH2 0x782 DUP8 PUSH2 0x156A JUMP JUMPDEST SWAP2 POP PUSH2 0x78C PUSH2 0x20CC JUMP JUMPDEST SWAP1 POP PUSH2 0x798 DUP9 DUP9 PUSH2 0x20FB JUMP JUMPDEST PUSH2 0x7AC DUP9 DUP9 DUP6 PUSH1 0x40 ADD MLOAD DUP6 PUSH1 0x40 ADD MLOAD PUSH2 0x217B JUMP JUMPDEST DUP1 MLOAD PUSH1 0x20 ADD MLOAD SWAP1 SWAP5 POP PUSH2 0x7C6 SWAP1 DUP10 SWAP1 DUP6 SWAP1 DUP5 SWAP1 DUP1 DUP12 PUSH2 0x223F JUMP JUMPDEST PUSH1 0x20 DUP1 DUP6 ADD MLOAD ADD MLOAD PUSH2 0x7DF SWAP1 DUP9 SWAP1 DUP5 SWAP1 DUP5 SWAP1 DUP1 DUP11 PUSH2 0x223F JUMP JUMPDEST PUSH2 0x7F8 DUP9 DUP3 DUP6 PUSH1 0x20 ADD MLOAD DUP7 PUSH1 0x40 ADD MLOAD DUP9 PUSH1 0x0 ADD MLOAD PUSH2 0x24DF JUMP JUMPDEST PUSH2 0x811 DUP8 DUP3 DUP5 PUSH1 0x20 ADD MLOAD DUP6 PUSH1 0x40 ADD MLOAD DUP9 PUSH1 0x20 ADD MLOAD PUSH2 0x24DF JUMP JUMPDEST PUSH2 0x81D DUP9 DUP9 DUP4 DUP8 PUSH2 0x257E JUMP JUMPDEST POP POP POP SWAP5 SWAP4 POP POP POP POP JUMP JUMPDEST PUSH2 0x830 PUSH2 0x36F2 JUMP JUMPDEST PUSH1 0x40 DUP1 MLOAD PUSH32 0xB4BE83D500000000000000000000000000000000000000000000000000000000 DUP1 DUP3 MSTORE PUSH1 0x60 PUSH1 0x4 DUP4 ADD DUP2 DUP2 MSTORE DUP9 MLOAD PUSH1 0x64 DUP6 ADD SWAP1 DUP2 MSTORE PUSH1 0x20 DUP1 DUP12 ADD MLOAD PUSH1 0x84 DUP8 ADD MSTORE SWAP6 DUP11 ADD MLOAD PUSH1 0xA4 DUP7 ADD MSTORE SWAP2 DUP10 ADD MLOAD PUSH1 0xC4 DUP6 ADD MSTORE PUSH1 0x80 DUP10 ADD MLOAD PUSH1 0xE4 DUP6 ADD MSTORE PUSH1 0xA0 DUP10 ADD MLOAD PUSH2 0x104 DUP6 ADD MSTORE PUSH1 0xC0 DUP10 ADD MLOAD PUSH2 0x124 DUP6 ADD MSTORE PUSH1 0xE0 DUP10 ADD MLOAD PUSH2 0x144 DUP6 ADD MSTORE PUSH2 0x100 DUP10 ADD MLOAD PUSH2 0x164 DUP6 ADD MSTORE PUSH2 0x120 DUP10 ADD MLOAD PUSH2 0x184 DUP6 ADD MSTORE PUSH2 0x140 DUP10 ADD DUP1 MLOAD PUSH2 0x1A4 DUP7 ADD SWAP1 DUP2 MSTORE PUSH2 0x160 DUP12 ADD MLOAD PUSH2 0x1C4 DUP8 ADD MSTORE PUSH2 0x180 SWAP1 MSTORE MLOAD DUP1 MLOAD PUSH2 0x1E4 DUP7 ADD DUP2 SWAP1 MSTORE SWAP4 SWAP6 SWAP2 SWAP4 DUP5 SWAP4 SWAP3 PUSH1 0x24 DUP8 ADD SWAP3 DUP5 SWAP3 PUSH2 0x204 DUP10 ADD SWAP3 SWAP2 DUP3 ADD SWAP2 PUSH1 0x1F DUP3 ADD DIV PUSH1 0x0 JUMPDEST DUP2 DUP2 LT ISZERO PUSH2 0x933 JUMPI DUP4 MLOAD DUP6 MSTORE PUSH1 0x20 SWAP5 DUP6 ADD SWAP5 SWAP1 SWAP4 ADD SWAP3 PUSH1 0x1 ADD PUSH2 0x915 JUMP JUMPDEST POP POP POP POP DUP2 DUP2 SUB PUSH2 0x160 DUP1 DUP5 ADD SWAP2 SWAP1 SWAP2 MSTORE DUP13 ADD MLOAD DUP1 MLOAD DUP1 DUP4 MSTORE PUSH1 0x20 SWAP3 DUP4 ADD SWAP3 SWAP2 DUP3 ADD SWAP2 PUSH1 0x1F DUP3 ADD DIV PUSH1 0x0 JUMPDEST DUP2 DUP2 LT ISZERO PUSH2 0x97C JUMPI DUP4 MLOAD DUP6 MSTORE PUSH1 0x20 SWAP5 DUP6 ADD SWAP5 SWAP1 SWAP4 ADD SWAP3 PUSH1 0x1 ADD PUSH2 0x95E JUMP JUMPDEST POP POP POP DUP12 DUP5 MSTORE POP DUP5 DUP2 SUB PUSH1 0x20 SWAP4 DUP5 ADD SWAP1 DUP2 MSTORE DUP11 MLOAD DUP1 DUP4 MSTORE SWAP1 SWAP4 SWAP2 DUP3 ADD SWAP2 DUP12 DUP2 ADD SWAP2 SWAP1 PUSH1 0x1F DUP3 ADD DIV PUSH1 0x0 JUMPDEST DUP2 DUP2 LT ISZERO PUSH2 0x9C4 JUMPI DUP4 MLOAD DUP6 MSTORE PUSH1 0x20 SWAP5 DUP6 ADD SWAP5 SWAP1 SWAP4 ADD SWAP3 PUSH1 0x1 ADD PUSH2 0x9A6 JUMP JUMPDEST POP PUSH1 0x80 DUP11 DUP12 DUP7 SUB DUP13 ADDRESS GAS DELEGATECALL DUP1 DUP1 ISZERO PUSH2 0x9E3 JUMPI PUSH1 0x1 DUP2 EQ PUSH2 0xA01 JUMPI PUSH2 0xA24 JUMP JUMPDEST PUSH1 0x0 DUP15 MSTORE PUSH1 0x0 PUSH1 0x20 DUP16 ADD MSTORE PUSH1 0x0 PUSH1 0x40 DUP16 ADD MSTORE PUSH1 0x0 PUSH1 0x60 DUP16 ADD MSTORE PUSH2 0xA24 JUMP JUMPDEST DUP12 MLOAD DUP15 MSTORE PUSH1 0x20 DUP13 ADD MLOAD PUSH1 0x20 DUP16 ADD MSTORE PUSH1 0x40 DUP13 ADD MLOAD PUSH1 0x40 DUP16 ADD MSTORE PUSH1 0x60 DUP13 ADD MLOAD PUSH1 0x60 DUP16 ADD MSTORE JUMPDEST POP POP POP POP POP POP POP POP POP POP POP POP POP SWAP4 SWAP3 POP POP POP JUMP JUMPDEST PUSH1 0x0 JUMPDEST DUP2 MLOAD DUP2 LT ISZERO PUSH2 0xA6C JUMPI PUSH2 0xA64 DUP3 DUP3 DUP2 MLOAD DUP2 LT ISZERO ISZERO PUSH2 0xA55 JUMPI INVALID JUMPDEST SWAP1 PUSH1 0x20 ADD SWAP1 PUSH1 0x20 MUL ADD MLOAD PUSH2 0x1659 JUMP JUMPDEST PUSH1 0x1 ADD PUSH2 0xA3B JUMP JUMPDEST POP POP JUMP JUMPDEST PUSH1 0x0 JUMPDEST DUP4 MLOAD DUP2 LT ISZERO PUSH2 0x638 JUMPI PUSH2 0xACC DUP5 DUP3 DUP2 MLOAD DUP2 LT ISZERO ISZERO PUSH2 0xA8D JUMPI INVALID JUMPDEST SWAP1 PUSH1 0x20 ADD SWAP1 PUSH1 0x20 MUL ADD MLOAD DUP5 DUP4 DUP2 MLOAD DUP2 LT ISZERO ISZERO PUSH2 0xAA5 JUMPI INVALID JUMPDEST SWAP1 PUSH1 0x20 ADD SWAP1 PUSH1 0x20 MUL ADD MLOAD DUP5 DUP5 DUP2 MLOAD DUP2 LT ISZERO ISZERO PUSH2 0xABD JUMPI INVALID JUMPDEST SWAP1 PUSH1 0x20 ADD SWAP1 PUSH1 0x20 MUL ADD MLOAD PUSH2 0xE9D JUMP JUMPDEST POP PUSH1 0x1 ADD PUSH2 0xA73 JUMP JUMPDEST PUSH1 0x0 DUP1 PUSH1 0x0 DUP1 PUSH2 0xAE3 PUSH2 0x20CC JUMP JUMPDEST SWAP4 POP PUSH1 0x1 PUSH1 0xA0 PUSH1 0x2 EXP SUB DUP5 AND CALLER EQ PUSH2 0xAFB JUMPI CALLER PUSH2 0xAFE JUMP JUMPDEST PUSH1 0x0 JUMPDEST PUSH1 0x1 PUSH1 0xA0 PUSH1 0x2 EXP SUB DUP1 DUP7 AND PUSH1 0x0 SWAP1 DUP2 MSTORE PUSH1 0x3 PUSH1 0x20 SWAP1 DUP2 MSTORE PUSH1 0x40 DUP1 DUP4 KECCAK256 SWAP4 DUP6 AND DUP4 MSTORE SWAP3 DUP2 MSTORE SWAP1 DUP3 SWAP1 KECCAK256 SLOAD DUP3 MLOAD DUP1 DUP5 ADD SWAP1 SWAP4 MSTORE PUSH1 0x17 DUP4 MSTORE PUSH32 0x494E56414C49445F4E45575F4F524445525F45504F4348000000000000000000 SWAP2 DUP4 ADD SWAP2 SWAP1 SWAP2 MSTORE SWAP2 SWAP5 POP PUSH1 0x1 DUP8 ADD SWAP4 POP SWAP1 SWAP2 POP DUP2 DUP4 GT PUSH2 0xB8A JUMPI PUSH1 0x40 MLOAD PUSH1 0xE5 PUSH1 0x2 EXP PUSH3 0x461BCD MUL DUP2 MSTORE PUSH1 0x4 ADD PUSH2 0x6E5 SWAP2 SWAP1 PUSH2 0x424D JUMP JUMPDEST POP PUSH1 0x1 PUSH1 0xA0 PUSH1 0x2 EXP SUB DUP1 DUP6 AND PUSH1 0x0 DUP2 DUP2 MSTORE PUSH1 0x3 PUSH1 0x20 SWAP1 DUP2 MSTORE PUSH1 0x40 DUP1 DUP4 KECCAK256 SWAP5 DUP9 AND DUP1 DUP5 MSTORE SWAP5 SWAP1 SWAP2 MSTORE SWAP1 DUP2 SWAP1 KECCAK256 DUP6 SWAP1 SSTORE MLOAD PUSH32 0x82AF639571738F4EBD4268FB0363D8957EBE1BBB9E78DBA5EBD69EED39B154F0 SWAP1 PUSH2 0xBE6 SWAP1 DUP7 SWAP1 PUSH2 0x4299 JUMP JUMPDEST PUSH1 0x40 MLOAD DUP1 SWAP2 SUB SWAP1 LOG3 POP POP POP POP POP JUMP JUMPDEST PUSH1 0x0 JUMPDEST DUP4 MLOAD DUP2 LT ISZERO PUSH2 0x638 JUMPI PUSH2 0xC51 DUP5 DUP3 DUP2 MLOAD DUP2 LT ISZERO ISZERO PUSH2 0xC12 JUMPI INVALID JUMPDEST SWAP1 PUSH1 0x20 ADD SWAP1 PUSH1 0x20 MUL ADD MLOAD DUP5 DUP4 DUP2 MLOAD DUP2 LT ISZERO ISZERO PUSH2 0xC2A JUMPI INVALID JUMPDEST SWAP1 PUSH1 0x20 ADD SWAP1 PUSH1 0x20 MUL ADD MLOAD DUP5 DUP5 DUP2 MLOAD DUP2 LT ISZERO ISZERO PUSH2 0xC42 JUMPI INVALID JUMPDEST SWAP1 PUSH1 0x20 ADD SWAP1 PUSH1 0x20 MUL ADD MLOAD PUSH2 0x828 JUMP JUMPDEST POP PUSH1 0x1 ADD PUSH2 0xBF8 JUMP JUMPDEST PUSH1 0x0 DUP1 SLOAD DUP2 SWAP1 DUP2 SWAP1 PUSH1 0x1 PUSH1 0xA0 PUSH1 0x2 EXP SUB AND CALLER EQ PUSH2 0xC8C JUMPI PUSH1 0x40 MLOAD PUSH1 0xE5 PUSH1 0x2 EXP PUSH3 0x461BCD MUL DUP2 MSTORE PUSH1 0x4 ADD PUSH2 0x6E5 SWAP1 PUSH2 0x425E JUMP JUMPDEST PUSH1 0xFF DUP7 AND PUSH1 0x0 SWAP1 DUP2 MSTORE PUSH1 0x9 PUSH1 0x20 SWAP1 DUP2 MSTORE PUSH1 0x40 SWAP2 DUP3 SWAP1 KECCAK256 SLOAD DUP3 MLOAD DUP1 DUP5 ADD SWAP1 SWAP4 MSTORE PUSH1 0x14 DUP4 MSTORE PUSH32 0x41535345545F50524F58595F4D49534D41544348000000000000000000000000 SWAP2 DUP4 ADD SWAP2 SWAP1 SWAP2 MSTORE PUSH1 0x1 PUSH1 0xA0 PUSH1 0x2 EXP SUB SWAP1 DUP2 AND SWAP5 POP DUP6 AND DUP5 EQ PUSH2 0xD08 JUMPI PUSH1 0x40 MLOAD PUSH1 0xE5 PUSH1 0x2 EXP PUSH3 0x461BCD MUL DUP2 MSTORE PUSH1 0x4 ADD PUSH2 0x6E5 SWAP2 SWAP1 PUSH2 0x424D JUMP JUMPDEST POP DUP5 SWAP2 POP PUSH1 0x1 PUSH1 0xA0 PUSH1 0x2 EXP SUB DUP3 AND ISZERO PUSH2 0xE0C JUMPI DUP2 PUSH1 0x1 PUSH1 0xA0 PUSH1 0x2 EXP SUB AND PUSH4 0xAE25532E PUSH1 0x40 MLOAD DUP2 PUSH4 0xFFFFFFFF AND PUSH29 0x100000000000000000000000000000000000000000000000000000000 MUL DUP2 MSTORE PUSH1 0x4 ADD PUSH1 0x20 PUSH1 0x40 MLOAD DUP1 DUP4 SUB DUP2 PUSH1 0x0 DUP8 DUP1 EXTCODESIZE ISZERO DUP1 ISZERO PUSH2 0xD72 JUMPI PUSH1 0x0 DUP1 REVERT JUMPDEST POP GAS CALL ISZERO DUP1 ISZERO PUSH2 0xD86 JUMPI RETURNDATASIZE PUSH1 0x0 DUP1 RETURNDATACOPY RETURNDATASIZE PUSH1 0x0 REVERT JUMPDEST POP POP POP POP PUSH1 0x40 MLOAD RETURNDATASIZE PUSH1 0x1F NOT PUSH1 0x1F DUP3 ADD AND DUP3 ADD DUP1 PUSH1 0x40 MSTORE POP PUSH2 0xDAA SWAP2 SWAP1 DUP2 ADD SWAP1 PUSH2 0x3EF8 JUMP JUMPDEST PUSH1 0x40 DUP1 MLOAD DUP1 DUP3 ADD SWAP1 SWAP2 MSTORE PUSH1 0x17 DUP2 MSTORE PUSH32 0x41535345545F50524F58595F49445F4D49534D41544348000000000000000000 PUSH1 0x20 DUP3 ADD MSTORE SWAP1 SWAP2 POP PUSH1 0xFF DUP1 DUP4 AND SWAP1 DUP9 AND EQ PUSH2 0xE0A JUMPI PUSH1 0x40 MLOAD PUSH1 0xE5 PUSH1 0x2 EXP PUSH3 0x461BCD MUL DUP2 MSTORE PUSH1 0x4 ADD PUSH2 0x6E5 SWAP2 SWAP1 PUSH2 0x424D JUMP JUMPDEST POP JUMPDEST PUSH1 0xFF DUP7 AND PUSH1 0x0 SWAP1 DUP2 MSTORE PUSH1 0x9 PUSH1 0x20 MSTORE PUSH1 0x40 SWAP1 DUP2 SWAP1 KECCAK256 DUP1 SLOAD PUSH20 0xFFFFFFFFFFFFFFFFFFFFFFFFFFFFFFFFFFFFFFFF NOT AND PUSH1 0x1 PUSH1 0xA0 PUSH1 0x2 EXP SUB DUP6 AND OR SWAP1 SSTORE MLOAD PUSH32 0x27EF5F484E50F2DAF7C2D82C60FE4CE409009541176EB64095BEAC369DB1D260 SWAP1 PUSH2 0xE78 SWAP1 DUP9 SWAP1 DUP9 SWAP1 DUP9 SWAP1 PUSH2 0x42A7 JUMP JUMPDEST PUSH1 0x40 MLOAD DUP1 SWAP2 SUB SWAP1 LOG1 POP POP POP POP POP POP JUMP JUMPDEST PUSH1 0x7 PUSH1 0x20 MSTORE PUSH1 0x0 SWAP1 DUP2 MSTORE PUSH1 0x40 SWAP1 KECCAK256 SLOAD PUSH1 0xFF AND DUP2 JUMP JUMPDEST PUSH2 0xEA5 PUSH2 0x36F2 JUMP JUMPDEST PUSH2 0xEB0 DUP5 DUP5 DUP5 PUSH2 0x11B4 JUMP JUMPDEST SWAP1 POP DUP3 DUP2 PUSH1 0x20 ADD MLOAD EQ PUSH1 0x40 DUP1 MLOAD SWAP1 DUP2 ADD PUSH1 0x40 MSTORE DUP1 PUSH1 0x14 DUP2 MSTORE PUSH1 0x20 ADD PUSH32 0x434F4D504C4554455F46494C4C5F4641494C4544000000000000000000000000 DUP2 MSTORE POP SWAP1 ISZERO ISZERO PUSH2 0xF12 JUMPI PUSH1 0x40 MLOAD PUSH1 0xE5 PUSH1 0x2 EXP PUSH3 0x461BCD MUL DUP2 MSTORE PUSH1 0x4 ADD PUSH2 0x6E5 SWAP2 SWAP1 PUSH2 0x424D JUMP JUMPDEST POP SWAP4 SWAP3 POP POP POP JUMP JUMPDEST PUSH1 0x0 PUSH2 0xF24 PUSH2 0x20CC JUMP JUMPDEST PUSH1 0x1 PUSH1 0xA0 PUSH1 0x2 EXP SUB SWAP1 DUP2 AND PUSH1 0x0 SWAP1 DUP2 MSTORE PUSH1 0x6 PUSH1 0x20 SWAP1 DUP2 MSTORE PUSH1 0x40 DUP1 DUP4 KECCAK256 SWAP7 SWAP1 SWAP4 AND DUP3 MSTORE SWAP5 SWAP1 SWAP5 MSTORE SWAP1 SWAP3 KECCAK256 DUP1 SLOAD PUSH1 0xFF NOT AND SWAP2 ISZERO ISZERO SWAP2 SWAP1 SWAP2 OR SWAP1 SSTORE POP JUMP JUMPDEST PUSH1 0x6 PUSH1 0x20 SWAP1 DUP2 MSTORE PUSH1 0x0 SWAP3 DUP4 MSTORE PUSH1 0x40 DUP1 DUP5 KECCAK256 SWAP1 SWAP2 MSTORE SWAP1 DUP3 MSTORE SWAP1 KECCAK256 SLOAD PUSH1 0xFF AND DUP2 JUMP JUMPDEST PUSH2 0xF87 PUSH2 0x36F2 JUMP JUMPDEST PUSH1 0x60 PUSH1 0x0 DUP1 PUSH2 0xF94 PUSH2 0x36F2 JUMP JUMPDEST DUP8 PUSH1 0x0 DUP2 MLOAD DUP2 LT ISZERO ISZERO PUSH2 0xFA3 JUMPI INVALID JUMPDEST SWAP1 PUSH1 0x20 ADD SWAP1 PUSH1 0x20 MUL ADD MLOAD PUSH2 0x160 ADD MLOAD SWAP4 POP PUSH1 0x0 SWAP3 POP JUMPDEST DUP8 MLOAD DUP4 LT ISZERO PUSH2 0x104C JUMPI DUP4 DUP9 DUP5 DUP2 MLOAD DUP2 LT ISZERO ISZERO PUSH2 0xFD1 JUMPI INVALID JUMPDEST SWAP1 PUSH1 0x20 ADD SWAP1 PUSH1 0x20 MUL ADD MLOAD PUSH2 0x160 ADD DUP2 SWAP1 MSTORE POP PUSH2 0xFF1 DUP8 DUP7 PUSH1 0x20 ADD MLOAD PUSH2 0x275A JUMP JUMPDEST SWAP2 POP PUSH2 0x101D DUP9 DUP5 DUP2 MLOAD DUP2 LT ISZERO ISZERO PUSH2 0x1004 JUMPI INVALID JUMPDEST SWAP1 PUSH1 0x20 ADD SWAP1 PUSH1 0x20 MUL ADD MLOAD DUP4 DUP9 DUP7 DUP2 MLOAD DUP2 LT ISZERO ISZERO PUSH2 0x620 JUMPI INVALID JUMPDEST DUP5 MLOAD PUSH1 0x1 ADD DUP6 MSTORE SWAP1 POP PUSH2 0x1030 DUP6 DUP3 PUSH2 0x276C JUMP JUMPDEST DUP7 DUP6 PUSH1 0x20 ADD MLOAD EQ ISZERO PUSH2 0x1041 JUMPI PUSH2 0x104C JUMP JUMPDEST PUSH1 0x1 SWAP1 SWAP3 ADD SWAP2 PUSH2 0xFB9 JUMP JUMPDEST POP POP POP POP SWAP4 SWAP3 POP POP POP JUMP JUMPDEST PUSH1 0x5 PUSH1 0x20 SWAP1 DUP2 MSTORE PUSH1 0x0 SWAP3 DUP4 MSTORE PUSH1 0x40 DUP1 DUP5 KECCAK256 SWAP1 SWAP2 MSTORE SWAP1 DUP3 MSTORE SWAP1 KECCAK256 SLOAD PUSH1 0xFF AND DUP2 JUMP JUMPDEST PUSH1 0x0 SLOAD PUSH1 0x1 PUSH1 0xA0 PUSH1 0x2 EXP SUB AND DUP2 JUMP JUMPDEST PUSH1 0xFF AND PUSH1 0x0 SWAP1 DUP2 MSTORE PUSH1 0x9 PUSH1 0x20 MSTORE PUSH1 0x40 SWAP1 KECCAK256 SLOAD PUSH1 0x1 PUSH1 0xA0 PUSH1 0x2 EXP SUB AND SWAP1 JUMP JUMPDEST PUSH2 0x10AC PUSH2 0x36F2 JUMP JUMPDEST PUSH1 0x60 PUSH1 0x0 DUP1 PUSH1 0x0 PUSH2 0x10BB PUSH2 0x36F2 JUMP JUMPDEST DUP9 PUSH1 0x0 DUP2 MLOAD DUP2 LT ISZERO ISZERO PUSH2 0x10CA JUMPI INVALID JUMPDEST SWAP1 PUSH1 0x20 ADD SWAP1 PUSH1 0x20 MUL ADD MLOAD PUSH2 0x140 ADD MLOAD SWAP5 POP PUSH1 0x0 SWAP4 POP JUMPDEST DUP9 MLOAD DUP5 LT ISZERO PUSH2 0x11A8 JUMPI DUP5 DUP10 DUP6 DUP2 MLOAD DUP2 LT ISZERO ISZERO PUSH2 0x10F8 JUMPI INVALID JUMPDEST PUSH1 0x20 SWAP1 DUP2 MUL SWAP1 SWAP2 ADD ADD MLOAD PUSH2 0x140 ADD MSTORE DUP6 MLOAD PUSH2 0x1114 SWAP1 DUP10 SWAP1 PUSH2 0x275A JUMP JUMPDEST SWAP3 POP PUSH2 0x1157 DUP10 DUP6 DUP2 MLOAD DUP2 LT ISZERO ISZERO PUSH2 0x1127 JUMPI INVALID JUMPDEST SWAP1 PUSH1 0x20 ADD SWAP1 PUSH1 0x20 MUL ADD MLOAD PUSH1 0xA0 ADD MLOAD DUP11 DUP7 DUP2 MLOAD DUP2 LT ISZERO ISZERO PUSH2 0x1143 JUMPI INVALID JUMPDEST SWAP1 PUSH1 0x20 ADD SWAP1 PUSH1 0x20 MUL ADD MLOAD PUSH1 0x80 ADD MLOAD DUP6 PUSH2 0x27CE JUMP JUMPDEST SWAP2 POP PUSH2 0x1183 DUP10 DUP6 DUP2 MLOAD DUP2 LT ISZERO ISZERO PUSH2 0x116A JUMPI INVALID JUMPDEST SWAP1 PUSH1 0x20 ADD SWAP1 PUSH1 0x20 MUL ADD MLOAD DUP4 DUP10 DUP8 DUP2 MLOAD DUP2 LT ISZERO ISZERO PUSH2 0xC42 JUMPI INVALID JUMPDEST SWAP1 POP PUSH2 0x118F DUP7 DUP3 PUSH2 0x276C JUMP JUMPDEST DUP6 MLOAD DUP9 EQ ISZERO PUSH2 0x119D JUMPI PUSH2 0x11A8 JUMP JUMPDEST PUSH1 0x1 SWAP1 SWAP4 ADD SWAP3 PUSH2 0x10E0 JUMP JUMPDEST POP POP POP POP POP SWAP4 SWAP3 POP POP POP JUMP JUMPDEST PUSH2 0x11BC PUSH2 0x36F2 JUMP JUMPDEST PUSH2 0x11C4 PUSH2 0x36D2 JUMP JUMPDEST PUSH1 0x0 DUP1 PUSH1 0x0 PUSH2 0x11D2 DUP9 PUSH2 0x156A JUMP JUMPDEST SWAP4 POP PUSH2 0x11DC PUSH2 0x20CC JUMP JUMPDEST SWAP3 POP PUSH2 0x11F0 DUP9 PUSH1 0xA0 ADD MLOAD DUP6 PUSH1 0x40 ADD MLOAD PUSH2 0x275A JUMP JUMPDEST SWAP2 POP PUSH2 0x11FC DUP8 DUP4 PUSH2 0x27EB JUMP JUMPDEST SWAP1 POP PUSH2 0x120C DUP9 DUP6 DUP6 DUP11 DUP6 DUP12 PUSH2 0x223F JUMP JUMPDEST PUSH2 0x1216 DUP9 DUP3 PUSH2 0x2803 JUMP JUMPDEST SWAP5 POP PUSH2 0x122D DUP9 DUP5 DUP7 PUSH1 0x20 ADD MLOAD DUP8 PUSH1 0x40 ADD MLOAD DUP10 PUSH2 0x24DF JUMP JUMPDEST PUSH2 0x104C DUP9 DUP5 DUP8 PUSH2 0x286D JUMP JUMPDEST PUSH1 0x8 SLOAD PUSH1 0x40 DUP1 MLOAD DUP1 DUP3 ADD SWAP1 SWAP2 MSTORE PUSH1 0x12 DUP2 MSTORE PUSH32 0x5245454E5452414E43595F494C4C4547414C0000000000000000000000000000 PUSH1 0x20 DUP3 ADD MSTORE PUSH1 0x0 SWAP2 PUSH1 0x1 PUSH1 0xA0 PUSH1 0x2 EXP SUB AND ISZERO PUSH2 0x129C JUMPI PUSH1 0x40 MLOAD PUSH1 0xE5 PUSH1 0x2 EXP PUSH3 0x461BCD MUL DUP2 MSTORE PUSH1 0x4 ADD PUSH2 0x6E5 SWAP2 SWAP1 PUSH2 0x424D JUMP JUMPDEST POP ADDRESS DUP7 DUP9 DUP8 DUP8 PUSH1 0x40 MLOAD PUSH1 0x20 ADD DUP1 DUP7 PUSH1 0x1 PUSH1 0xA0 PUSH1 0x2 EXP SUB AND PUSH1 0x1 PUSH1 0xA0 PUSH1 0x2 EXP SUB AND PUSH13 0x1000000000000000000000000 MUL DUP2 MSTORE PUSH1 0x14 ADD DUP6 PUSH1 0x1 PUSH1 0xA0 PUSH1 0x2 EXP SUB AND PUSH1 0x1 PUSH1 0xA0 PUSH1 0x2 EXP SUB AND PUSH13 0x1000000000000000000000000 MUL DUP2 MSTORE PUSH1 0x14 ADD DUP5 DUP2 MSTORE PUSH1 0x20 ADD DUP4 DUP4 DUP1 DUP3 DUP5 CALLDATACOPY DUP3 ADD SWAP2 POP POP SWAP6 POP POP POP POP POP POP PUSH1 0x40 MLOAD PUSH1 0x20 DUP2 DUP4 SUB SUB DUP2 MSTORE SWAP1 PUSH1 0x40 MSTORE PUSH1 0x40 MLOAD DUP1 DUP3 DUP1 MLOAD SWAP1 PUSH1 0x20 ADD SWAP1 DUP1 DUP4 DUP4 JUMPDEST PUSH1 0x20 DUP4 LT PUSH2 0x134D JUMPI DUP1 MLOAD DUP3 MSTORE PUSH1 0x1F NOT SWAP1 SWAP3 ADD SWAP2 PUSH1 0x20 SWAP2 DUP3 ADD SWAP2 ADD PUSH2 0x132E JUMP JUMPDEST MLOAD DUP2 MLOAD PUSH1 0x20 SWAP4 DUP5 SUB PUSH2 0x100 EXP PUSH1 0x0 NOT ADD DUP1 NOT SWAP1 SWAP3 AND SWAP2 AND OR SWAP1 MSTORE PUSH1 0x40 DUP1 MLOAD SWAP3 SWAP1 SWAP5 ADD DUP3 SWAP1 SUB DUP3 KECCAK256 PUSH1 0x0 DUP2 DUP2 MSTORE PUSH1 0x7 DUP4 MSTORE DUP6 SWAP1 KECCAK256 SLOAD DUP4 DUP7 ADD SWAP1 SWAP6 MSTORE PUSH1 0xF DUP4 MSTORE PUSH32 0x494E56414C49445F54585F484153480000000000000000000000000000000000 SWAP2 DUP4 ADD SWAP2 SWAP1 SWAP2 MSTORE SWAP6 POP SWAP4 POP POP PUSH1 0xFF AND ISZERO SWAP1 POP PUSH2 0x13DE JUMPI PUSH1 0x40 MLOAD PUSH1 0xE5 PUSH1 0x2 EXP PUSH3 0x461BCD MUL DUP2 MSTORE PUSH1 0x4 ADD PUSH2 0x6E5 SWAP2 SWAP1 PUSH2 0x424D JUMP JUMPDEST POP PUSH1 0x1 PUSH1 0xA0 PUSH1 0x2 EXP SUB DUP7 AND CALLER EQ PUSH2 0x14AB JUMPI PUSH2 0x142A DUP2 DUP8 DUP6 DUP6 DUP1 DUP1 PUSH1 0x1F ADD PUSH1 0x20 DUP1 SWAP2 DIV MUL PUSH1 0x20 ADD PUSH1 0x40 MLOAD SWAP1 DUP2 ADD PUSH1 0x40 MSTORE DUP1 SWAP4 SWAP3 SWAP2 SWAP1 DUP2 DUP2 MSTORE PUSH1 0x20 ADD DUP4 DUP4 DUP1 DUP3 DUP5 CALLDATACOPY POP PUSH2 0x18F0 SWAP5 POP POP POP POP POP JUMP JUMPDEST PUSH1 0x40 DUP1 MLOAD DUP1 DUP3 ADD SWAP1 SWAP2 MSTORE PUSH1 0x14 DUP2 MSTORE PUSH32 0x494E56414C49445F54585F5349474E4154555245000000000000000000000000 PUSH1 0x20 DUP3 ADD MSTORE SWAP1 ISZERO ISZERO PUSH2 0x1481 JUMPI PUSH1 0x40 MLOAD PUSH1 0xE5 PUSH1 0x2 EXP PUSH3 0x461BCD MUL DUP2 MSTORE PUSH1 0x4 ADD PUSH2 0x6E5 SWAP2 SWAP1 PUSH2 0x424D JUMP JUMPDEST POP PUSH1 0x8 DUP1 SLOAD PUSH20 0xFFFFFFFFFFFFFFFFFFFFFFFFFFFFFFFFFFFFFFFF NOT AND PUSH1 0x1 PUSH1 0xA0 PUSH1 0x2 EXP SUB DUP9 AND OR SWAP1 SSTORE JUMPDEST PUSH1 0x0 DUP2 DUP2 MSTORE PUSH1 0x7 PUSH1 0x20 MSTORE PUSH1 0x40 SWAP1 DUP2 SWAP1 KECCAK256 DUP1 SLOAD PUSH1 0xFF NOT AND PUSH1 0x1 OR SWAP1 SSTORE MLOAD ADDRESS SWAP1 DUP7 SWAP1 DUP7 SWAP1 DUP1 DUP4 DUP4 DUP1 DUP3 DUP5 CALLDATACOPY DUP3 ADD SWAP2 POP POP SWAP3 POP POP POP PUSH1 0x0 PUSH1 0x40 MLOAD DUP1 DUP4 SUB DUP2 DUP6 GAS DELEGATECALL PUSH1 0x40 DUP1 MLOAD DUP1 DUP3 ADD SWAP1 SWAP2 MSTORE PUSH1 0x10 DUP2 MSTORE PUSH32 0x4641494C45445F455845435554494F4E00000000000000000000000000000000 PUSH1 0x20 DUP3 ADD MSTORE SWAP3 POP ISZERO ISZERO SWAP1 POP PUSH2 0x1543 JUMPI PUSH1 0x40 MLOAD PUSH1 0xE5 PUSH1 0x2 EXP PUSH3 0x461BCD MUL DUP2 MSTORE PUSH1 0x4 ADD PUSH2 0x6E5 SWAP2 SWAP1 PUSH2 0x424D JUMP JUMPDEST POP POP PUSH1 0x8 DUP1 SLOAD PUSH20 0xFFFFFFFFFFFFFFFFFFFFFFFFFFFFFFFFFFFFFFFF NOT AND SWAP1 SSTORE POP POP POP POP POP POP JUMP JUMPDEST PUSH2 0x1572 PUSH2 0x36D2 JUMP JUMPDEST PUSH2 0x157B DUP3 PUSH2 0x2999 JUMP JUMPDEST PUSH1 0x20 DUP3 ADD MSTORE PUSH1 0x80 DUP3 ADD MLOAD ISZERO ISZERO PUSH2 0x1598 JUMPI PUSH1 0x1 JUMPDEST PUSH1 0xFF AND DUP2 MSTORE PUSH2 0x1654 JUMP JUMPDEST PUSH1 0xA0 DUP3 ADD MLOAD ISZERO ISZERO PUSH2 0x15AA JUMPI PUSH1 0x2 PUSH2 0x158E JUMP JUMPDEST PUSH2 0x100 DUP3 ADD MLOAD TIMESTAMP LT PUSH2 0x15BD JUMPI PUSH1 0x4 PUSH2 0x158E JUMP JUMPDEST PUSH1 0x20 DUP1 DUP3 ADD MLOAD PUSH1 0x0 SWAP1 DUP2 MSTORE PUSH1 0x2 SWAP1 SWAP2 MSTORE PUSH1 0x40 SWAP1 KECCAK256 SLOAD PUSH1 0xFF AND ISZERO PUSH2 0x15E1 JUMPI PUSH1 0x6 PUSH2 0x158E JUMP JUMPDEST PUSH2 0x120 DUP3 ADD MLOAD DUP3 MLOAD PUSH1 0x1 PUSH1 0xA0 PUSH1 0x2 EXP SUB SWAP1 DUP2 AND PUSH1 0x0 SWAP1 DUP2 MSTORE PUSH1 0x3 PUSH1 0x20 SWAP1 DUP2 MSTORE PUSH1 0x40 DUP1 DUP4 KECCAK256 PUSH1 0x60 DUP9 ADD MLOAD SWAP1 SWAP5 AND DUP4 MSTORE SWAP3 SWAP1 MSTORE KECCAK256 SLOAD GT ISZERO PUSH2 0x1621 JUMPI PUSH1 0x6 PUSH2 0x158E JUMP JUMPDEST PUSH1 0x20 DUP1 DUP3 ADD MLOAD PUSH1 0x0 SWAP1 DUP2 MSTORE PUSH1 0x1 SWAP1 SWAP2 MSTORE PUSH1 0x40 SWAP1 DUP2 SWAP1 KECCAK256 SLOAD SWAP1 DUP3 ADD DUP2 SWAP1 MSTORE PUSH1 0xA0 DUP4 ADD MLOAD GT PUSH2 0x164F JUMPI PUSH1 0x5 PUSH2 0x158E JUMP JUMPDEST PUSH1 0x3 DUP2 MSTORE JUMPDEST SWAP2 SWAP1 POP JUMP JUMPDEST PUSH2 0x1661 PUSH2 0x36D2 JUMP JUMPDEST PUSH2 0x166A DUP3 PUSH2 0x156A JUMP JUMPDEST SWAP1 POP PUSH2 0x1676 DUP3 DUP3 PUSH2 0x310D JUMP JUMPDEST PUSH2 0xA6C DUP3 DUP3 PUSH1 0x20 ADD MLOAD PUSH2 0x3256 JUMP JUMPDEST PUSH1 0x3 PUSH1 0x20 SWAP1 DUP2 MSTORE PUSH1 0x0 SWAP3 DUP4 MSTORE PUSH1 0x40 DUP1 DUP5 KECCAK256 SWAP1 SWAP2 MSTORE SWAP1 DUP3 MSTORE SWAP1 KECCAK256 SLOAD DUP2 JUMP JUMPDEST PUSH2 0x16A9 PUSH2 0x36F2 JUMP JUMPDEST PUSH1 0x60 PUSH1 0x0 DUP1 PUSH2 0x16B6 PUSH2 0x36F2 JUMP JUMPDEST DUP8 PUSH1 0x0 DUP2 MLOAD DUP2 LT ISZERO ISZERO PUSH2 0x16C5 JUMPI INVALID JUMPDEST SWAP1 PUSH1 0x20 ADD SWAP1 PUSH1 0x20 MUL ADD MLOAD PUSH2 0x160 ADD MLOAD SWAP4 POP PUSH1 0x0 SWAP3 POP JUMPDEST DUP8 MLOAD DUP4 LT ISZERO PUSH2 0x104C JUMPI DUP4 DUP9 DUP5 DUP2 MLOAD DUP2 LT ISZERO ISZERO PUSH2 0x16F3 JUMPI INVALID JUMPDEST SWAP1 PUSH1 0x20 ADD SWAP1 PUSH1 0x20 MUL ADD MLOAD PUSH2 0x160 ADD DUP2 SWAP1 MSTORE POP PUSH2 0x1713 DUP8 DUP7 PUSH1 0x20 ADD MLOAD PUSH2 0x275A JUMP JUMPDEST SWAP2 POP PUSH2 0x173F DUP9 DUP5 DUP2 MLOAD DUP2 LT ISZERO ISZERO PUSH2 0x1726 JUMPI INVALID JUMPDEST SWAP1 PUSH1 0x20 ADD SWAP1 PUSH1 0x20 MUL ADD MLOAD DUP4 DUP9 DUP7 DUP2 MLOAD DUP2 LT ISZERO ISZERO PUSH2 0xC42 JUMPI INVALID JUMPDEST SWAP1 POP PUSH2 0x174B DUP6 DUP3 PUSH2 0x276C JUMP JUMPDEST DUP7 DUP6 PUSH1 0x20 ADD MLOAD EQ ISZERO PUSH2 0x175C JUMPI PUSH2 0x104C JUMP JUMPDEST PUSH1 0x1 SWAP1 SWAP3 ADD SWAP2 PUSH2 0x16DB JUMP JUMPDEST PUSH2 0x176F PUSH2 0x36F2 JUMP JUMPDEST PUSH1 0x60 PUSH1 0x0 DUP1 PUSH1 0x0 PUSH2 0x177E PUSH2 0x36F2 JUMP JUMPDEST DUP9 PUSH1 0x0 DUP2 MLOAD DUP2 LT ISZERO ISZERO PUSH2 0x178D JUMPI INVALID JUMPDEST SWAP1 PUSH1 0x20 ADD SWAP1 PUSH1 0x20 MUL ADD MLOAD PUSH2 0x140 ADD MLOAD SWAP5 POP PUSH1 0x0 SWAP4 POP JUMPDEST DUP9 MLOAD DUP5 LT ISZERO PUSH2 0x11A8 JUMPI DUP5 DUP10 DUP6 DUP2 MLOAD DUP2 LT ISZERO ISZERO PUSH2 0x17BB JUMPI INVALID JUMPDEST PUSH1 0x20 SWAP1 DUP2 MUL SWAP1 SWAP2 ADD ADD MLOAD PUSH2 0x140 ADD MSTORE DUP6 MLOAD PUSH2 0x17D7 SWAP1 DUP10 SWAP1 PUSH2 0x275A JUMP JUMPDEST SWAP3 POP PUSH2 0x17EA DUP10 DUP6 DUP2 MLOAD DUP2 LT ISZERO ISZERO PUSH2 0x1127 JUMPI INVALID JUMPDEST SWAP2 POP PUSH2 0x1816 DUP10 DUP6 DUP2 MLOAD DUP2 LT ISZERO ISZERO PUSH2 0x17FD JUMPI INVALID JUMPDEST SWAP1 PUSH1 0x20 ADD SWAP1 PUSH1 0x20 MUL ADD MLOAD DUP4 DUP10 DUP8 DUP2 MLOAD DUP2 LT ISZERO ISZERO PUSH2 0x620 JUMPI INVALID JUMPDEST DUP6 MLOAD PUSH1 0x1 ADD DUP7 MSTORE SWAP1 POP PUSH2 0x1829 DUP7 DUP3 PUSH2 0x276C JUMP JUMPDEST DUP6 MLOAD DUP9 EQ ISZERO PUSH2 0x1837 JUMPI PUSH2 0x11A8 JUMP JUMPDEST PUSH1 0x1 SWAP1 SWAP4 ADD SWAP3 PUSH2 0x17A3 JUMP JUMPDEST PUSH1 0x8 SLOAD PUSH1 0x1 PUSH1 0xA0 PUSH1 0x2 EXP SUB AND DUP2 JUMP JUMPDEST PUSH1 0x0 SLOAD PUSH1 0x1 PUSH1 0xA0 PUSH1 0x2 EXP SUB AND CALLER EQ PUSH2 0x187E JUMPI PUSH1 0x40 MLOAD PUSH1 0xE5 PUSH1 0x2 EXP PUSH3 0x461BCD MUL DUP2 MSTORE PUSH1 0x4 ADD PUSH2 0x6E5 SWAP1 PUSH2 0x425E JUMP JUMPDEST PUSH1 0x1 PUSH1 0xA0 PUSH1 0x2 EXP SUB DUP2 AND ISZERO PUSH2 0x18B6 JUMPI PUSH1 0x0 DUP1 SLOAD PUSH20 0xFFFFFFFFFFFFFFFFFFFFFFFFFFFFFFFFFFFFFFFF NOT AND PUSH1 0x1 PUSH1 0xA0 PUSH1 0x2 EXP SUB DUP4 AND OR SWAP1 SSTORE JUMPDEST POP JUMP JUMPDEST PUSH1 0x40 DUP1 MLOAD DUP1 DUP3 ADD SWAP1 SWAP2 MSTORE PUSH1 0xB DUP2 MSTORE PUSH32 0x322E302E312D616C706861000000000000000000000000000000000000000000 PUSH1 0x20 DUP3 ADD MSTORE DUP2 JUMP JUMPDEST PUSH1 0x0 DUP1 PUSH1 0x0 DUP1 PUSH1 0x0 DUP1 PUSH1 0x0 DUP1 DUP9 MLOAD GT PUSH1 0x40 DUP1 MLOAD SWAP1 DUP2 ADD PUSH1 0x40 MSTORE DUP1 PUSH1 0x1E DUP2 MSTORE PUSH1 0x20 ADD PUSH32 0x4C454E4754485F475245415445525F5448414E5F305F52455155495245440000 DUP2 MSTORE POP SWAP1 ISZERO ISZERO PUSH2 0x1958 JUMPI PUSH1 0x40 MLOAD PUSH1 0xE5 PUSH1 0x2 EXP PUSH3 0x461BCD MUL DUP2 MSTORE PUSH1 0x4 ADD PUSH2 0x6E5 SWAP2 SWAP1 PUSH2 0x424D JUMP JUMPDEST POP PUSH2 0x1962 DUP9 PUSH2 0x32D2 JUMP JUMPDEST PUSH1 0xF8 PUSH1 0x2 EXP SWAP1 DIV PUSH1 0xFF AND PUSH1 0x8 DUP2 GT ISZERO PUSH2 0x1977 JUMPI INVALID JUMPDEST SWAP6 POP PUSH1 0x0 DUP7 PUSH1 0x8 DUP2 GT ISZERO PUSH2 0x1987 JUMPI INVALID JUMPDEST EQ ISZERO PUSH2 0x19DB JUMPI PUSH1 0x40 DUP1 MLOAD DUP1 DUP3 ADD DUP3 MSTORE PUSH1 0x11 DUP2 MSTORE PUSH32 0x5349474E41545552455F494C4C4547414C000000000000000000000000000000 PUSH1 0x20 DUP3 ADD MSTORE SWAP1 MLOAD PUSH1 0xE5 PUSH1 0x2 EXP PUSH3 0x461BCD MUL DUP2 MSTORE PUSH2 0x6E5 SWAP2 SWAP1 PUSH1 0x4 ADD PUSH2 0x424D JUMP JUMPDEST PUSH1 0x1 DUP7 PUSH1 0x8 DUP2 GT ISZERO PUSH2 0x19E9 JUMPI INVALID JUMPDEST EQ ISZERO PUSH2 0x1A51 JUMPI DUP8 MLOAD PUSH1 0x40 DUP1 MLOAD DUP1 DUP3 ADD SWAP1 SWAP2 MSTORE PUSH1 0x11 DUP2 MSTORE PUSH32 0x4C454E4754485F315F5245515549524544000000000000000000000000000000 PUSH1 0x20 DUP3 ADD MSTORE SWAP1 ISZERO PUSH2 0x1A47 JUMPI PUSH1 0x40 MLOAD PUSH1 0xE5 PUSH1 0x2 EXP PUSH3 0x461BCD MUL DUP2 MSTORE PUSH1 0x4 ADD PUSH2 0x6E5 SWAP2 SWAP1 PUSH2 0x424D JUMP JUMPDEST POP PUSH1 0x0 SWAP7 POP PUSH2 0x20BF JUMP JUMPDEST PUSH1 0x2 DUP7 PUSH1 0x8 DUP2 GT ISZERO PUSH2 0x1A5F JUMPI INVALID JUMPDEST EQ ISZERO PUSH2 0x1B67 JUMPI DUP8 MLOAD PUSH1 0x40 DUP1 MLOAD DUP1 DUP3 ADD SWAP1 SWAP2 MSTORE PUSH1 0x12 DUP2 MSTORE PUSH32 0x4C454E4754485F36365F52455155495245440000000000000000000000000000 PUSH1 0x20 DUP3 ADD MSTORE SWAP1 PUSH1 0x41 EQ PUSH2 0x1ABF JUMPI PUSH1 0x40 MLOAD PUSH1 0xE5 PUSH1 0x2 EXP PUSH3 0x461BCD MUL DUP2 MSTORE PUSH1 0x4 ADD PUSH2 0x6E5 SWAP2 SWAP1 PUSH2 0x424D JUMP JUMPDEST POP DUP8 PUSH1 0x0 DUP2 MLOAD DUP2 LT ISZERO ISZERO PUSH2 0x1ACF JUMPI INVALID JUMPDEST ADD PUSH1 0x20 ADD MLOAD PUSH1 0xF8 PUSH1 0x2 EXP SWAP1 DUP2 SWAP1 DIV DUP2 MUL DIV SWAP5 POP PUSH2 0x1AED DUP9 PUSH1 0x1 PUSH2 0x3387 JUMP JUMPDEST SWAP4 POP PUSH2 0x1AFA DUP9 PUSH1 0x21 PUSH2 0x3387 JUMP JUMPDEST SWAP3 POP PUSH1 0x1 DUP11 DUP7 DUP7 DUP7 PUSH1 0x40 MLOAD PUSH1 0x0 DUP2 MSTORE PUSH1 0x20 ADD PUSH1 0x40 MSTORE PUSH1 0x40 MLOAD PUSH2 0x1B1F SWAP5 SWAP4 SWAP3 SWAP2 SWAP1 PUSH2 0x41B8 JUMP JUMPDEST PUSH1 0x20 PUSH1 0x40 MLOAD PUSH1 0x20 DUP2 SUB SWAP1 DUP1 DUP5 SUB SWAP1 PUSH1 0x0 DUP7 GAS CALL ISZERO DUP1 ISZERO PUSH2 0x1B43 JUMPI RETURNDATASIZE PUSH1 0x0 DUP1 RETURNDATACOPY RETURNDATASIZE PUSH1 0x0 REVERT JUMPDEST POP POP PUSH1 0x40 MLOAD PUSH1 0x1F NOT ADD MLOAD PUSH1 0x1 PUSH1 0xA0 PUSH1 0x2 EXP SUB DUP12 DUP2 AND SWAP1 DUP3 AND EQ SWAP9 POP SWAP3 POP PUSH2 0x20BF SWAP1 POP JUMP JUMPDEST PUSH1 0x3 DUP7 PUSH1 0x8 DUP2 GT ISZERO PUSH2 0x1B75 JUMPI INVALID JUMPDEST EQ ISZERO PUSH2 0x1D21 JUMPI DUP8 MLOAD PUSH1 0x40 DUP1 MLOAD DUP1 DUP3 ADD SWAP1 SWAP2 MSTORE PUSH1 0x12 DUP2 MSTORE PUSH32 0x4C454E4754485F36365F52455155495245440000000000000000000000000000 PUSH1 0x20 DUP3 ADD MSTORE SWAP1 PUSH1 0x41 EQ PUSH2 0x1BD5 JUMPI PUSH1 0x40 MLOAD PUSH1 0xE5 PUSH1 0x2 EXP PUSH3 0x461BCD MUL DUP2 MSTORE PUSH1 0x4 ADD PUSH2 0x6E5 SWAP2 SWAP1 PUSH2 0x424D JUMP JUMPDEST POP DUP8 PUSH1 0x0 DUP2 MLOAD DUP2 LT ISZERO ISZERO PUSH2 0x1BE5 JUMPI INVALID JUMPDEST ADD PUSH1 0x20 ADD MLOAD PUSH1 0xF8 PUSH1 0x2 EXP SWAP1 DUP2 SWAP1 DIV DUP2 MUL DIV SWAP5 POP PUSH2 0x1C03 DUP9 PUSH1 0x1 PUSH2 0x3387 JUMP JUMPDEST SWAP4 POP PUSH2 0x1C10 DUP9 PUSH1 0x21 PUSH2 0x3387 JUMP JUMPDEST SWAP3 POP PUSH1 0x1 PUSH1 0x40 DUP1 MLOAD SWAP1 DUP2 ADD PUSH1 0x40 MSTORE DUP1 PUSH1 0x1C DUP2 MSTORE PUSH1 0x20 ADD PUSH32 0x19457468657265756D205369676E6564204D6573736167653A0A333200000000 DUP2 MSTORE POP DUP12 PUSH1 0x40 MLOAD PUSH1 0x20 ADD DUP1 DUP4 DUP1 MLOAD SWAP1 PUSH1 0x20 ADD SWAP1 DUP1 DUP4 DUP4 JUMPDEST PUSH1 0x20 DUP4 LT PUSH2 0x1C7D JUMPI DUP1 MLOAD DUP3 MSTORE PUSH1 0x1F NOT SWAP1 SWAP3 ADD SWAP2 PUSH1 0x20 SWAP2 DUP3 ADD SWAP2 ADD PUSH2 0x1C5E JUMP JUMPDEST MLOAD DUP2 MLOAD PUSH1 0x20 SWAP4 DUP5 SUB PUSH2 0x100 EXP PUSH1 0x0 NOT ADD DUP1 NOT SWAP1 SWAP3 AND SWAP2 AND OR SWAP1 MSTORE SWAP3 ADD SWAP4 DUP5 MSTORE POP PUSH1 0x40 DUP1 MLOAD DUP1 DUP6 SUB DUP2 MSTORE SWAP4 DUP3 ADD SWAP1 DUP2 SWAP1 MSTORE DUP4 MLOAD SWAP4 SWAP5 POP SWAP3 DUP4 SWAP3 POP SWAP1 DUP5 ADD SWAP1 DUP1 DUP4 DUP4 JUMPDEST PUSH1 0x20 DUP4 LT PUSH2 0x1CDD JUMPI DUP1 MLOAD DUP3 MSTORE PUSH1 0x1F NOT SWAP1 SWAP3 ADD SWAP2 PUSH1 0x20 SWAP2 DUP3 ADD SWAP2 ADD PUSH2 0x1CBE JUMP JUMPDEST MLOAD DUP2 MLOAD PUSH1 0x20 SWAP4 DUP5 SUB PUSH2 0x100 EXP PUSH1 0x0 NOT ADD DUP1 NOT SWAP1 SWAP3 AND SWAP2 AND OR SWAP1 MSTORE PUSH1 0x40 DUP1 MLOAD SWAP3 SWAP1 SWAP5 ADD DUP3 SWAP1 SUB DUP3 KECCAK256 PUSH1 0x0 DUP4 MSTORE SWAP2 ADD SWAP3 DUP4 SWAP1 MSTORE PUSH2 0x1B1F SWAP5 POP SWAP3 POP DUP10 SWAP2 DUP10 SWAP2 POP DUP9 SWAP1 PUSH2 0x41B8 JUMP JUMPDEST PUSH1 0x4 DUP7 PUSH1 0x8 DUP2 GT ISZERO PUSH2 0x1D2F JUMPI INVALID JUMPDEST EQ ISZERO PUSH2 0x1DA1 JUMPI DUP8 MLOAD PUSH1 0x40 DUP1 MLOAD DUP1 DUP3 ADD SWAP1 SWAP2 MSTORE PUSH1 0x11 DUP2 MSTORE PUSH32 0x4C454E4754485F315F5245515549524544000000000000000000000000000000 PUSH1 0x20 DUP3 ADD MSTORE SWAP1 ISZERO PUSH2 0x1D8D JUMPI PUSH1 0x40 MLOAD PUSH1 0xE5 PUSH1 0x2 EXP PUSH3 0x461BCD MUL DUP2 MSTORE PUSH1 0x4 ADD PUSH2 0x6E5 SWAP2 SWAP1 PUSH2 0x424D JUMP JUMPDEST POP PUSH1 0x1 PUSH1 0xA0 PUSH1 0x2 EXP SUB DUP10 AND CALLER EQ SWAP7 POP PUSH2 0x20BF JUMP JUMPDEST PUSH1 0x5 DUP7 PUSH1 0x8 DUP2 GT ISZERO PUSH2 0x1DAF JUMPI INVALID JUMPDEST EQ ISZERO PUSH2 0x1E55 JUMPI PUSH1 0x40 MLOAD PUSH32 0x1626BA7E00000000000000000000000000000000000000000000000000000000 DUP2 MSTORE PUSH1 0x1 PUSH1 0xA0 PUSH1 0x2 EXP SUB DUP11 AND SWAP1 PUSH4 0x1626BA7E SWAP1 PUSH2 0x1DFC SWAP1 DUP14 SWAP1 DUP13 SWAP1 PUSH1 0x4 ADD PUSH2 0x4198 JUMP JUMPDEST PUSH1 0x20 PUSH1 0x40 MLOAD DUP1 DUP4 SUB DUP2 PUSH1 0x0 DUP8 DUP1 EXTCODESIZE ISZERO DUP1 ISZERO PUSH2 0x1E16 JUMPI PUSH1 0x0 DUP1 REVERT JUMPDEST POP GAS CALL ISZERO DUP1 ISZERO PUSH2 0x1E2A JUMPI RETURNDATASIZE PUSH1 0x0 DUP1 RETURNDATACOPY RETURNDATASIZE PUSH1 0x0 REVERT JUMPDEST POP POP POP POP PUSH1 0x40 MLOAD RETURNDATASIZE PUSH1 0x1F NOT PUSH1 0x1F DUP3 ADD AND DUP3 ADD DUP1 PUSH1 0x40 MSTORE POP PUSH2 0x1E4E SWAP2 SWAP1 DUP2 ADD SWAP1 PUSH2 0x3C17 JUMP JUMPDEST SWAP7 POP PUSH2 0x20BF JUMP JUMPDEST PUSH1 0x6 DUP7 PUSH1 0x8 DUP2 GT ISZERO PUSH2 0x1E63 JUMPI INVALID JUMPDEST EQ ISZERO PUSH2 0x1EF6 JUMPI PUSH2 0x1E72 DUP9 PUSH2 0x341B JUMP JUMPDEST PUSH1 0x1 PUSH1 0xA0 PUSH1 0x2 EXP SUB DUP1 DUP12 AND PUSH1 0x0 SWAP1 DUP2 MSTORE PUSH1 0x6 PUSH1 0x20 SWAP1 DUP2 MSTORE PUSH1 0x40 DUP1 DUP4 KECCAK256 SWAP4 DUP6 AND DUP4 MSTORE SWAP3 SWAP1 MSTORE KECCAK256 SLOAD SWAP1 SWAP2 POP PUSH1 0xFF AND ISZERO ISZERO PUSH2 0x1EAD JUMPI PUSH1 0x0 SWAP7 POP PUSH2 0x20BF JUMP JUMPDEST PUSH1 0x40 MLOAD PUSH32 0x9363470200000000000000000000000000000000000000000000000000000000 DUP2 MSTORE PUSH1 0x1 PUSH1 0xA0 PUSH1 0x2 EXP SUB DUP3 AND SWAP1 PUSH4 0x93634702 SWAP1 PUSH2 0x1DFC SWAP1 DUP14 SWAP1 DUP14 SWAP1 DUP14 SWAP1 PUSH1 0x4 ADD PUSH2 0x4162 JUMP JUMPDEST PUSH1 0x7 DUP7 PUSH1 0x8 DUP2 GT ISZERO PUSH2 0x1F04 JUMPI INVALID JUMPDEST EQ ISZERO PUSH2 0x1F37 JUMPI PUSH1 0x0 DUP11 DUP2 MSTORE PUSH1 0x5 PUSH1 0x20 SWAP1 DUP2 MSTORE PUSH1 0x40 DUP1 DUP4 KECCAK256 PUSH1 0x1 PUSH1 0xA0 PUSH1 0x2 EXP SUB DUP14 AND DUP5 MSTORE SWAP1 SWAP2 MSTORE SWAP1 KECCAK256 SLOAD PUSH1 0xFF AND SWAP7 POP PUSH2 0x20BF JUMP JUMPDEST PUSH1 0x8 DUP7 PUSH1 0x8 DUP2 GT ISZERO PUSH2 0x1F45 JUMPI INVALID JUMPDEST EQ ISZERO PUSH2 0x2030 JUMPI DUP8 MLOAD PUSH1 0x40 DUP1 MLOAD DUP1 DUP3 ADD SWAP1 SWAP2 MSTORE PUSH1 0x12 DUP2 MSTORE PUSH32 0x4C454E4754485F36365F52455155495245440000000000000000000000000000 PUSH1 0x20 DUP3 ADD MSTORE SWAP1 PUSH1 0x41 EQ PUSH2 0x1FA5 JUMPI PUSH1 0x40 MLOAD PUSH1 0xE5 PUSH1 0x2 EXP PUSH3 0x461BCD MUL DUP2 MSTORE PUSH1 0x4 ADD PUSH2 0x6E5 SWAP2 SWAP1 PUSH2 0x424D JUMP JUMPDEST POP DUP8 PUSH1 0x0 DUP2 MLOAD DUP2 LT ISZERO ISZERO PUSH2 0x1FB5 JUMPI INVALID JUMPDEST ADD PUSH1 0x20 ADD MLOAD PUSH1 0xF8 PUSH1 0x2 EXP SWAP1 DUP2 SWAP1 DIV DUP2 MUL DIV SWAP5 POP PUSH2 0x1FD3 DUP9 PUSH1 0x1 PUSH2 0x3387 JUMP JUMPDEST SWAP4 POP PUSH2 0x1FE0 DUP9 PUSH1 0x21 PUSH2 0x3387 JUMP JUMPDEST PUSH1 0x40 DUP1 MLOAD DUP1 DUP3 ADD DUP3 MSTORE PUSH1 0x1B DUP1 DUP3 MSTORE PUSH32 0x19457468657265756D205369676E6564204D6573736167653A0A410000000000 PUSH1 0x20 DUP1 DUP5 ADD SWAP2 DUP3 MSTORE SWAP4 MLOAD SWAP5 SWAP8 POP PUSH1 0x1 SWAP5 SWAP3 SWAP4 DUP16 SWAP4 ADD SWAP2 DUP3 SWAP2 SWAP1 DUP1 DUP4 DUP4 PUSH2 0x1C7D JUMP JUMPDEST PUSH1 0x7 DUP7 PUSH1 0x8 DUP2 GT ISZERO PUSH2 0x203E JUMPI INVALID JUMPDEST EQ ISZERO PUSH2 0x2071 JUMPI PUSH1 0x0 DUP11 DUP2 MSTORE PUSH1 0x5 PUSH1 0x20 SWAP1 DUP2 MSTORE PUSH1 0x40 DUP1 DUP4 KECCAK256 PUSH1 0x1 PUSH1 0xA0 PUSH1 0x2 EXP SUB DUP14 AND DUP5 MSTORE SWAP1 SWAP2 MSTORE SWAP1 KECCAK256 SLOAD PUSH1 0xFF AND SWAP7 POP PUSH2 0x20BF JUMP JUMPDEST PUSH1 0x40 DUP1 MLOAD DUP1 DUP3 ADD DUP3 MSTORE PUSH1 0x15 DUP2 MSTORE PUSH32 0x5349474E41545552455F554E535550504F525445440000000000000000000000 PUSH1 0x20 DUP3 ADD MSTORE SWAP1 MLOAD PUSH1 0xE5 PUSH1 0x2 EXP PUSH3 0x461BCD MUL DUP2 MSTORE PUSH2 0x6E5 SWAP2 SWAP1 PUSH1 0x4 ADD PUSH2 0x424D JUMP JUMPDEST POP POP POP POP POP POP SWAP4 SWAP3 POP POP POP JUMP JUMPDEST PUSH1 0x8 SLOAD PUSH1 0x0 SWAP1 DUP2 SWAP1 PUSH1 0x1 PUSH1 0xA0 PUSH1 0x2 EXP SUB AND ISZERO PUSH2 0x20F3 JUMPI PUSH1 0x8 SLOAD PUSH1 0x1 PUSH1 0xA0 PUSH1 0x2 EXP SUB AND PUSH2 0x20F5 JUMP JUMPDEST CALLER JUMPDEST SWAP3 SWAP2 POP POP JUMP JUMPDEST PUSH2 0x210D DUP3 PUSH1 0xA0 ADD MLOAD DUP3 PUSH1 0xA0 ADD MLOAD PUSH2 0x34BF JUMP JUMPDEST PUSH2 0x211F DUP4 PUSH1 0x80 ADD MLOAD DUP4 PUSH1 0x80 ADD MLOAD PUSH2 0x34BF JUMP JUMPDEST PUSH1 0x40 DUP1 MLOAD DUP1 DUP3 ADD SWAP1 SWAP2 MSTORE PUSH1 0x18 DUP2 MSTORE PUSH32 0x4E454741544956455F5350524541445F52455155495245440000000000000000 PUSH1 0x20 DUP3 ADD MSTORE SWAP2 GT ISZERO PUSH2 0x2176 JUMPI PUSH1 0x40 MLOAD PUSH1 0xE5 PUSH1 0x2 EXP PUSH3 0x461BCD MUL DUP2 MSTORE PUSH1 0x4 ADD PUSH2 0x6E5 SWAP2 SWAP1 PUSH2 0x424D JUMP JUMPDEST POP POP POP JUMP JUMPDEST PUSH2 0x2183 PUSH2 0x36A3 JUMP JUMPDEST PUSH1 0x0 DUP1 PUSH1 0x0 DUP1 PUSH2 0x2197 DUP10 PUSH1 0xA0 ADD MLOAD DUP9 PUSH2 0x275A JUMP JUMPDEST SWAP4 POP PUSH2 0x21A7 DUP9 PUSH1 0xA0 ADD MLOAD DUP8 PUSH2 0x275A JUMP JUMPDEST SWAP3 POP PUSH2 0x21B7 DUP4 DUP10 PUSH1 0x80 ADD MLOAD PUSH2 0x34BF JUMP JUMPDEST PUSH2 0x21C5 DUP6 DUP11 PUSH1 0xA0 ADD MLOAD PUSH2 0x34BF JUMP JUMPDEST GT PUSH2 0x21E7 JUMPI DUP4 SWAP2 POP PUSH2 0x21E0 DUP9 PUSH1 0xA0 ADD MLOAD DUP10 PUSH1 0x80 ADD MLOAD DUP5 PUSH2 0x27CE JUMP JUMPDEST SWAP1 POP PUSH2 0x2200 JUMP JUMPDEST DUP3 SWAP1 POP PUSH2 0x21FD DUP9 PUSH1 0x80 ADD MLOAD DUP10 PUSH1 0xA0 ADD MLOAD DUP4 PUSH2 0x27CE JUMP JUMPDEST SWAP2 POP JUMPDEST PUSH2 0x220A DUP10 DUP4 PUSH2 0x2803 JUMP JUMPDEST DUP6 MSTORE PUSH2 0x2216 DUP9 DUP3 PUSH2 0x2803 JUMP JUMPDEST PUSH1 0x20 DUP1 DUP8 ADD DUP3 SWAP1 MSTORE DUP7 MLOAD MLOAD SWAP2 ADD MLOAD PUSH2 0x222E SWAP2 SWAP1 PUSH2 0x275A JUMP JUMPDEST PUSH1 0x40 DUP7 ADD MSTORE POP POP POP POP SWAP5 SWAP4 POP POP POP POP JUMP JUMPDEST DUP5 MLOAD PUSH1 0x40 DUP1 MLOAD DUP1 DUP3 ADD SWAP1 SWAP2 MSTORE PUSH1 0x10 DUP2 MSTORE PUSH32 0x4F524445525F554E46494C4C41424C4500000000000000000000000000000000 PUSH1 0x20 DUP3 ADD MSTORE SWAP1 PUSH1 0xFF AND PUSH1 0x3 EQ PUSH2 0x229C JUMPI PUSH1 0x40 MLOAD PUSH1 0xE5 PUSH1 0x2 EXP PUSH3 0x461BCD MUL DUP2 MSTORE PUSH1 0x4 ADD PUSH2 0x6E5 SWAP2 SWAP1 PUSH2 0x424D JUMP JUMPDEST POP PUSH1 0x40 DUP1 MLOAD DUP1 DUP3 ADD SWAP1 SWAP2 MSTORE PUSH1 0x14 DUP2 MSTORE PUSH32 0x494E56414C49445F54414B45525F414D4F554E54000000000000000000000000 PUSH1 0x20 DUP3 ADD MSTORE DUP4 ISZERO ISZERO PUSH2 0x22F4 JUMPI PUSH1 0x40 MLOAD PUSH1 0xE5 PUSH1 0x2 EXP PUSH3 0x461BCD MUL DUP2 MSTORE PUSH1 0x4 ADD PUSH2 0x6E5 SWAP2 SWAP1 PUSH2 0x424D JUMP JUMPDEST POP PUSH1 0x60 DUP7 ADD MLOAD PUSH1 0x1 PUSH1 0xA0 PUSH1 0x2 EXP SUB AND ISZERO PUSH2 0x236F JUMPI PUSH1 0x60 DUP7 ADD MLOAD PUSH1 0x40 DUP1 MLOAD DUP1 DUP3 ADD SWAP1 SWAP2 MSTORE PUSH1 0xE DUP2 MSTORE PUSH32 0x494E56414C49445F53454E444552000000000000000000000000000000000000 PUSH1 0x20 DUP3 ADD MSTORE SWAP1 PUSH1 0x1 PUSH1 0xA0 PUSH1 0x2 EXP SUB AND CALLER EQ PUSH2 0x236D JUMPI PUSH1 0x40 MLOAD PUSH1 0xE5 PUSH1 0x2 EXP PUSH3 0x461BCD MUL DUP2 MSTORE PUSH1 0x4 ADD PUSH2 0x6E5 SWAP2 SWAP1 PUSH2 0x424D JUMP JUMPDEST POP JUMPDEST PUSH1 0x20 DUP7 ADD MLOAD PUSH1 0x1 PUSH1 0xA0 PUSH1 0x2 EXP SUB AND ISZERO PUSH2 0x23F6 JUMPI DUP4 PUSH1 0x1 PUSH1 0xA0 PUSH1 0x2 EXP SUB AND DUP7 PUSH1 0x20 ADD MLOAD PUSH1 0x1 PUSH1 0xA0 PUSH1 0x2 EXP SUB AND EQ PUSH1 0x40 DUP1 MLOAD SWAP1 DUP2 ADD PUSH1 0x40 MSTORE DUP1 PUSH1 0xD DUP2 MSTORE PUSH1 0x20 ADD PUSH32 0x494E56414C49445F54414B455200000000000000000000000000000000000000 DUP2 MSTORE POP SWAP1 ISZERO ISZERO PUSH2 0x23F4 JUMPI PUSH1 0x40 MLOAD PUSH1 0xE5 PUSH1 0x2 EXP PUSH3 0x461BCD MUL DUP2 MSTORE PUSH1 0x4 ADD PUSH2 0x6E5 SWAP2 SWAP1 PUSH2 0x424D JUMP JUMPDEST POP JUMPDEST PUSH1 0x40 DUP6 ADD MLOAD ISZERO ISZERO PUSH2 0x246D JUMPI PUSH2 0x2414 DUP6 PUSH1 0x20 ADD MLOAD DUP8 PUSH1 0x0 ADD MLOAD DUP4 PUSH2 0x18F0 JUMP JUMPDEST PUSH1 0x40 DUP1 MLOAD DUP1 DUP3 ADD SWAP1 SWAP2 MSTORE PUSH1 0x17 DUP2 MSTORE PUSH32 0x494E56414C49445F4F524445525F5349474E4154555245000000000000000000 PUSH1 0x20 DUP3 ADD MSTORE SWAP1 ISZERO ISZERO PUSH2 0x246B JUMPI PUSH1 0x40 MLOAD PUSH1 0xE5 PUSH1 0x2 EXP PUSH3 0x461BCD MUL DUP2 MSTORE PUSH1 0x4 ADD PUSH2 0x6E5 SWAP2 SWAP1 PUSH2 0x424D JUMP JUMPDEST POP JUMPDEST PUSH2 0x2480 DUP3 DUP8 PUSH1 0xA0 ADD MLOAD DUP9 PUSH1 0x80 ADD MLOAD PUSH2 0x34E3 JUMP JUMPDEST PUSH1 0x40 DUP1 MLOAD DUP1 DUP3 ADD SWAP1 SWAP2 MSTORE PUSH1 0xE DUP2 MSTORE PUSH32 0x524F554E44494E475F4552524F52000000000000000000000000000000000000 PUSH1 0x20 DUP3 ADD MSTORE SWAP1 ISZERO PUSH2 0x24D6 JUMPI PUSH1 0x40 MLOAD PUSH1 0xE5 PUSH1 0x2 EXP PUSH3 0x461BCD MUL DUP2 MSTORE PUSH1 0x4 ADD PUSH2 0x6E5 SWAP2 SWAP1 PUSH2 0x424D JUMP JUMPDEST POP POP POP POP POP POP POP JUMP JUMPDEST PUSH2 0x24ED DUP3 DUP3 PUSH1 0x20 ADD MLOAD PUSH2 0x3539 JUMP JUMPDEST PUSH1 0x0 DUP5 DUP2 MSTORE PUSH1 0x1 PUSH1 0x20 SWAP1 DUP2 MSTORE PUSH1 0x40 SWAP2 DUP3 SWAP1 KECCAK256 SWAP3 SWAP1 SWAP3 SSTORE DUP7 DUP2 ADD MLOAD DUP8 MLOAD DUP5 MLOAD SWAP4 DUP6 ADD MLOAD DUP6 DUP5 ADD MLOAD PUSH1 0x60 DUP8 ADD MLOAD PUSH2 0x140 DUP13 ADD MLOAD PUSH2 0x160 DUP14 ADD MLOAD SWAP7 MLOAD DUP12 SWAP9 PUSH1 0x1 PUSH1 0xA0 PUSH1 0x2 EXP SUB SWAP8 DUP9 AND SWAP9 SWAP8 SWAP1 SWAP7 AND SWAP7 PUSH32 0xDE19F18E1B56E6EADA7ED95CCA8398B602BE32F5864640537EE9A9A3532BB29D SWAP7 PUSH2 0x256F SWAP7 DUP16 SWAP7 SWAP2 SWAP6 SWAP1 SWAP5 SWAP2 SWAP4 SWAP1 SWAP3 SWAP1 PUSH2 0x40DF JUMP JUMPDEST PUSH1 0x40 MLOAD DUP1 SWAP2 SUB SWAP1 LOG4 POP POP POP POP POP JUMP JUMPDEST PUSH1 0x0 DUP1 PUSH1 0x60 PUSH2 0x2591 DUP8 PUSH2 0x140 ADD MLOAD PUSH2 0x32D2 JUMP JUMPDEST PUSH1 0xF8 PUSH1 0x2 EXP SWAP1 DIV SWAP3 POP PUSH2 0x25A8 DUP7 PUSH2 0x140 ADD MLOAD PUSH2 0x32D2 JUMP JUMPDEST PUSH1 0x4 DUP1 SLOAD PUSH1 0x40 DUP1 MLOAD PUSH1 0x20 PUSH1 0x1F PUSH1 0x2 PUSH1 0x0 NOT PUSH2 0x100 PUSH1 0x1 DUP9 AND ISZERO MUL ADD SWAP1 SWAP6 AND SWAP5 SWAP1 SWAP5 DIV SWAP4 DUP5 ADD DUP2 SWAP1 DIV DUP2 MUL DUP3 ADD DUP2 ADD SWAP1 SWAP3 MSTORE DUP3 DUP2 MSTORE PUSH1 0xF8 PUSH1 0x2 EXP SWAP1 SWAP5 DIV SWAP6 POP DUP4 ADD DUP3 DUP3 DUP1 ISZERO PUSH2 0x2637 JUMPI DUP1 PUSH1 0x1F LT PUSH2 0x260C JUMPI PUSH2 0x100 DUP1 DUP4 SLOAD DIV MUL DUP4 MSTORE SWAP2 PUSH1 0x20 ADD SWAP2 PUSH2 0x2637 JUMP JUMPDEST DUP3 ADD SWAP2 SWAP1 PUSH1 0x0 MSTORE PUSH1 0x20 PUSH1 0x0 KECCAK256 SWAP1 JUMPDEST DUP2 SLOAD DUP2 MSTORE SWAP1 PUSH1 0x1 ADD SWAP1 PUSH1 0x20 ADD DUP1 DUP4 GT PUSH2 0x261A JUMPI DUP3 SWAP1 SUB PUSH1 0x1F AND DUP3 ADD SWAP2 JUMPDEST POP POP POP POP POP SWAP1 POP PUSH2 0x2660 DUP8 PUSH2 0x140 ADD MLOAD DUP5 DUP10 PUSH1 0x0 ADD MLOAD DUP10 PUSH1 0x0 ADD MLOAD DUP9 PUSH1 0x20 ADD MLOAD PUSH1 0x20 ADD MLOAD PUSH2 0x3548 JUMP JUMPDEST PUSH2 0x140 DUP7 ADD MLOAD DUP7 MLOAD DUP9 MLOAD DUP7 MLOAD PUSH1 0x20 ADD MLOAD PUSH2 0x267E SWAP4 SWAP3 DUP7 SWAP3 SWAP1 SWAP2 PUSH2 0x3548 JUMP JUMPDEST PUSH2 0x2698 DUP8 PUSH2 0x140 ADD MLOAD DUP5 DUP10 PUSH1 0x0 ADD MLOAD DUP9 DUP9 PUSH1 0x40 ADD MLOAD PUSH2 0x3548 JUMP JUMPDEST PUSH2 0x26B6 DUP2 PUSH1 0x1 DUP10 PUSH1 0x0 ADD MLOAD DUP11 PUSH1 0x40 ADD MLOAD DUP9 PUSH1 0x0 ADD MLOAD PUSH1 0x40 ADD MLOAD PUSH2 0x3548 JUMP JUMPDEST PUSH2 0x26D4 DUP2 PUSH1 0x1 DUP9 PUSH1 0x0 ADD MLOAD DUP10 PUSH1 0x40 ADD MLOAD DUP9 PUSH1 0x20 ADD MLOAD PUSH1 0x40 ADD MLOAD PUSH2 0x3548 JUMP JUMPDEST DUP6 PUSH1 0x40 ADD MLOAD PUSH1 0x1 PUSH1 0xA0 PUSH1 0x2 EXP SUB AND DUP8 PUSH1 0x40 ADD MLOAD PUSH1 0x1 PUSH1 0xA0 PUSH1 0x2 EXP SUB AND EQ ISZERO PUSH2 0x2726 JUMPI PUSH2 0x2721 DUP2 PUSH1 0x1 DUP8 DUP11 PUSH1 0x40 ADD MLOAD PUSH2 0x271C DUP10 PUSH1 0x0 ADD MLOAD PUSH1 0x60 ADD MLOAD DUP11 PUSH1 0x20 ADD MLOAD PUSH1 0x60 ADD MLOAD PUSH2 0x3539 JUMP JUMPDEST PUSH2 0x3548 JUMP JUMPDEST PUSH2 0x24D6 JUMP JUMPDEST PUSH2 0x2740 DUP2 PUSH1 0x1 DUP8 DUP11 PUSH1 0x40 ADD MLOAD DUP9 PUSH1 0x0 ADD MLOAD PUSH1 0x60 ADD MLOAD PUSH2 0x3548 JUMP JUMPDEST PUSH2 0x24D6 DUP2 PUSH1 0x1 DUP8 DUP10 PUSH1 0x40 ADD MLOAD DUP9 PUSH1 0x20 ADD MLOAD PUSH1 0x60 ADD MLOAD PUSH2 0x3548 JUMP JUMPDEST PUSH1 0x0 DUP3 DUP3 GT ISZERO PUSH2 0x2766 JUMPI INVALID JUMPDEST POP SWAP1 SUB SWAP1 JUMP JUMPDEST DUP2 MLOAD DUP2 MLOAD PUSH2 0x277A SWAP2 SWAP1 PUSH2 0x3539 JUMP JUMPDEST DUP3 MSTORE PUSH1 0x20 DUP1 DUP4 ADD MLOAD SWAP1 DUP3 ADD MLOAD PUSH2 0x2790 SWAP2 SWAP1 PUSH2 0x3539 JUMP JUMPDEST PUSH1 0x20 DUP4 ADD MSTORE PUSH1 0x40 DUP1 DUP4 ADD MLOAD SWAP1 DUP3 ADD MLOAD PUSH2 0x27A9 SWAP2 SWAP1 PUSH2 0x3539 JUMP JUMPDEST PUSH1 0x40 DUP4 ADD MSTORE PUSH1 0x60 DUP1 DUP4 ADD MLOAD SWAP1 DUP3 ADD MLOAD PUSH2 0x27C2 SWAP2 SWAP1 PUSH2 0x3539 JUMP JUMPDEST PUSH1 0x60 SWAP1 SWAP3 ADD SWAP2 SWAP1 SWAP2 MSTORE POP JUMP JUMPDEST PUSH1 0x0 PUSH2 0x27E3 PUSH2 0x27DD DUP6 DUP5 PUSH2 0x34BF JUMP JUMPDEST DUP5 PUSH2 0x35EF JUMP JUMPDEST SWAP5 SWAP4 POP POP POP POP JUMP JUMPDEST PUSH1 0x0 DUP2 DUP4 LT PUSH2 0x27FA JUMPI DUP2 PUSH2 0x27FC JUMP JUMPDEST DUP3 JUMPDEST SWAP4 SWAP3 POP POP POP JUMP JUMPDEST PUSH2 0x280B PUSH2 0x36F2 JUMP JUMPDEST PUSH1 0x20 DUP2 ADD DUP3 SWAP1 MSTORE PUSH1 0xA0 DUP4 ADD MLOAD PUSH1 0x80 DUP5 ADD MLOAD PUSH2 0x2827 SWAP2 DUP5 SWAP2 PUSH2 0x27CE JUMP JUMPDEST DUP2 MSTORE PUSH1 0x20 DUP2 ADD MLOAD PUSH1 0xA0 DUP5 ADD MLOAD PUSH1 0xC0 DUP6 ADD MLOAD PUSH2 0x2843 SWAP3 SWAP2 SWAP1 PUSH2 0x27CE JUMP JUMPDEST PUSH1 0x40 DUP3 ADD MSTORE PUSH1 0x20 DUP2 ADD MLOAD PUSH1 0xA0 DUP5 ADD MLOAD PUSH1 0xE0 DUP6 ADD MLOAD PUSH2 0x2862 SWAP3 SWAP2 SWAP1 PUSH2 0x27CE JUMP JUMPDEST PUSH1 0x60 DUP3 ADD MSTORE SWAP3 SWAP2 POP POP JUMP JUMPDEST PUSH1 0x0 DUP1 PUSH1 0x60 PUSH2 0x2880 DUP7 PUSH2 0x140 ADD MLOAD PUSH2 0x32D2 JUMP JUMPDEST PUSH1 0xF8 PUSH1 0x2 EXP SWAP1 DIV SWAP3 POP PUSH2 0x2897 DUP7 PUSH2 0x160 ADD MLOAD PUSH2 0x32D2 JUMP JUMPDEST PUSH1 0x4 DUP1 SLOAD PUSH1 0x40 DUP1 MLOAD PUSH1 0x20 PUSH1 0x1F PUSH1 0x2 PUSH1 0x0 NOT PUSH2 0x100 PUSH1 0x1 DUP9 AND ISZERO MUL ADD SWAP1 SWAP6 AND SWAP5 SWAP1 SWAP5 DIV SWAP4 DUP5 ADD DUP2 SWAP1 DIV DUP2 MUL DUP3 ADD DUP2 ADD SWAP1 SWAP3 MSTORE DUP3 DUP2 MSTORE PUSH1 0xF8 PUSH1 0x2 EXP SWAP1 SWAP5 DIV SWAP6 POP DUP4 ADD DUP3 DUP3 DUP1 ISZERO PUSH2 0x2926 JUMPI DUP1 PUSH1 0x1F LT PUSH2 0x28FB JUMPI PUSH2 0x100 DUP1 DUP4 SLOAD DIV MUL DUP4 MSTORE SWAP2 PUSH1 0x20 ADD SWAP2 PUSH2 0x2926 JUMP JUMPDEST DUP3 ADD SWAP2 SWAP1 PUSH1 0x0 MSTORE PUSH1 0x20 PUSH1 0x0 KECCAK256 SWAP1 JUMPDEST DUP2 SLOAD DUP2 MSTORE SWAP1 PUSH1 0x1 ADD SWAP1 PUSH1 0x20 ADD DUP1 DUP4 GT PUSH2 0x2909 JUMPI DUP3 SWAP1 SUB PUSH1 0x1F AND DUP3 ADD SWAP2 JUMPDEST POP POP POP POP POP SWAP1 POP PUSH2 0x2947 DUP7 PUSH2 0x140 ADD MLOAD DUP5 DUP9 PUSH1 0x0 ADD MLOAD DUP9 DUP9 PUSH1 0x0 ADD MLOAD PUSH2 0x3548 JUMP JUMPDEST PUSH2 0x2961 DUP7 PUSH2 0x160 ADD MLOAD DUP4 DUP8 DUP10 PUSH1 0x0 ADD MLOAD DUP9 PUSH1 0x20 ADD MLOAD PUSH2 0x3548 JUMP JUMPDEST PUSH2 0x297B DUP2 PUSH1 0x1 DUP9 PUSH1 0x0 ADD MLOAD DUP10 PUSH1 0x40 ADD MLOAD DUP9 PUSH1 0x40 ADD MLOAD PUSH2 0x3548 JUMP JUMPDEST PUSH2 0x2991 DUP2 PUSH1 0x1 DUP8 DUP10 PUSH1 0x40 ADD MLOAD DUP9 PUSH1 0x60 ADD MLOAD PUSH2 0x3548 JUMP JUMPDEST POP POP POP POP POP POP JUMP JUMPDEST PUSH1 0x0 PUSH1 0x40 MLOAD PUSH1 0x20 ADD DUP1 DUP1 PUSH32 0x446F6D61696E536570617261746F72286164647265737320636F6E7472616374 DUP2 MSTORE PUSH1 0x20 ADD PUSH32 0x2900000000000000000000000000000000000000000000000000000000000000 DUP2 MSTORE POP PUSH1 0x21 ADD SWAP1 POP PUSH1 0x40 MLOAD PUSH1 0x20 DUP2 DUP4 SUB SUB DUP2 MSTORE SWAP1 PUSH1 0x40 MSTORE PUSH1 0x40 MLOAD DUP1 DUP3 DUP1 MLOAD SWAP1 PUSH1 0x20 ADD SWAP1 DUP1 DUP4 DUP4 JUMPDEST PUSH1 0x20 DUP4 LT PUSH2 0x2A30 JUMPI DUP1 MLOAD DUP3 MSTORE PUSH1 0x1F NOT SWAP1 SWAP3 ADD SWAP2 PUSH1 0x20 SWAP2 DUP3 ADD SWAP2 ADD PUSH2 0x2A11 JUMP JUMPDEST MLOAD DUP2 MLOAD PUSH1 0x20 SWAP4 DUP5 SUB PUSH2 0x100 EXP PUSH1 0x0 NOT ADD DUP1 NOT SWAP1 SWAP3 AND SWAP2 AND OR SWAP1 MSTORE PUSH1 0x40 DUP1 MLOAD SWAP3 SWAP1 SWAP5 ADD DUP3 SWAP1 SUB DUP3 KECCAK256 ADDRESS PUSH13 0x1000000000000000000000000 MUL DUP4 DUP4 ADD MSTORE DUP5 MLOAD PUSH1 0x14 DUP2 DUP6 SUB ADD DUP2 MSTORE PUSH1 0x34 SWAP1 SWAP4 ADD SWAP5 DUP6 SWAP1 MSTORE DUP3 MLOAD SWAP1 SWAP7 POP SWAP2 SWAP5 POP DUP4 SWAP3 POP DUP5 ADD SWAP1 DUP1 DUP4 DUP4 JUMPDEST PUSH1 0x20 DUP4 LT PUSH2 0x2AAF JUMPI DUP1 MLOAD DUP3 MSTORE PUSH1 0x1F NOT SWAP1 SWAP3 ADD SWAP2 PUSH1 0x20 SWAP2 DUP3 ADD SWAP2 ADD PUSH2 0x2A90 JUMP JUMPDEST MLOAD DUP2 MLOAD PUSH1 0x20 SWAP4 DUP5 SUB PUSH2 0x100 EXP PUSH1 0x0 NOT ADD DUP1 NOT SWAP1 SWAP3 AND SWAP2 AND OR SWAP1 MSTORE PUSH1 0x40 DUP1 MLOAD SWAP3 SWAP1 SWAP5 ADD DUP3 SWAP1 SUB DUP3 KECCAK256 PUSH32 0x4F72646572280000000000000000000000000000000000000000000000000000 DUP4 DUP4 ADD MSTORE PUSH32 0x61646472657373206D616B6572416464726573732C0000000000000000000000 PUSH1 0x26 DUP5 ADD MSTORE PUSH32 0x616464726573732074616B6572416464726573732C0000000000000000000000 PUSH1 0x3B DUP5 ADD MSTORE PUSH32 0x6164647265737320666565526563697069656E74416464726573732C00000000 PUSH1 0x50 DUP5 ADD MSTORE PUSH32 0x616464726573732073656E646572416464726573732C00000000000000000000 PUSH1 0x6C DUP5 ADD MSTORE PUSH32 0x75696E74323536206D616B65724173736574416D6F756E742C00000000000000 PUSH1 0x82 DUP5 ADD MSTORE PUSH32 0x75696E743235362074616B65724173736574416D6F756E742C00000000000000 PUSH1 0x9B DUP5 ADD MSTORE PUSH32 0x75696E74323536206D616B65724665652C000000000000000000000000000000 PUSH1 0xB4 DUP5 ADD MSTORE PUSH32 0x75696E743235362074616B65724665652C000000000000000000000000000000 PUSH1 0xC5 DUP5 ADD MSTORE PUSH32 0x75696E743235362065787069726174696F6E54696D655365636F6E64732C0000 PUSH1 0xD6 DUP5 ADD MSTORE PUSH32 0x75696E743235362073616C742C00000000000000000000000000000000000000 PUSH1 0xF4 DUP5 ADD MSTORE PUSH32 0x6279746573206D616B65724173736574446174612C0000000000000000000000 PUSH2 0x101 DUP5 ADD MSTORE PUSH32 0x62797465732074616B65724173736574446174612C0000000000000000000000 PUSH2 0x116 DUP5 ADD MSTORE PUSH32 0x2900000000000000000000000000000000000000000000000000000000000000 PUSH2 0x12B DUP5 ADD MSTORE DUP5 MLOAD DUP1 DUP5 SUB PUSH2 0x10C ADD DUP2 MSTORE PUSH2 0x12C SWAP1 SWAP4 ADD SWAP5 DUP6 SWAP1 MSTORE DUP3 MLOAD SWAP1 SWAP7 POP SWAP2 SWAP5 POP DUP4 SWAP3 POP DUP5 ADD SWAP1 DUP1 DUP4 DUP4 JUMPDEST PUSH1 0x20 DUP4 LT PUSH2 0x2D32 JUMPI DUP1 MLOAD DUP3 MSTORE PUSH1 0x1F NOT SWAP1 SWAP3 ADD SWAP2 PUSH1 0x20 SWAP2 DUP3 ADD SWAP2 ADD PUSH2 0x2D13 JUMP JUMPDEST PUSH1 0x1 DUP4 PUSH1 0x20 SUB PUSH2 0x100 EXP SUB DUP1 NOT DUP3 MLOAD AND DUP2 DUP5 MLOAD AND DUP1 DUP3 OR DUP6 MSTORE POP POP POP POP POP POP SWAP1 POP ADD SWAP2 POP POP PUSH1 0x40 MLOAD DUP1 SWAP2 SUB SWAP1 KECCAK256 DUP5 PUSH1 0x0 ADD MLOAD DUP6 PUSH1 0x20 ADD MLOAD DUP7 PUSH1 0x40 ADD MLOAD DUP8 PUSH1 0x60 ADD MLOAD DUP9 PUSH1 0x80 ADD MLOAD DUP10 PUSH1 0xA0 ADD MLOAD DUP11 PUSH1 0xC0 ADD MLOAD DUP12 PUSH1 0xE0 ADD MLOAD DUP13 PUSH2 0x100 ADD MLOAD DUP14 PUSH2 0x120 ADD MLOAD DUP15 PUSH2 0x140 ADD MLOAD PUSH1 0x40 MLOAD PUSH1 0x20 ADD DUP1 DUP3 DUP1 MLOAD SWAP1 PUSH1 0x20 ADD SWAP1 DUP1 DUP4 DUP4 JUMPDEST PUSH1 0x20 DUP4 LT PUSH2 0x2DCB JUMPI DUP1 MLOAD DUP3 MSTORE PUSH1 0x1F NOT SWAP1 SWAP3 ADD SWAP2 PUSH1 0x20 SWAP2 DUP3 ADD SWAP2 ADD PUSH2 0x2DAC JUMP JUMPDEST PUSH1 0x1 DUP4 PUSH1 0x20 SUB PUSH2 0x100 EXP SUB DUP1 NOT DUP3 MLOAD AND DUP2 DUP5 MLOAD AND DUP1 DUP3 OR DUP6 MSTORE POP POP POP POP POP POP SWAP1 POP ADD SWAP2 POP POP PUSH1 0x40 MLOAD PUSH1 0x20 DUP2 DUP4 SUB SUB DUP2 MSTORE SWAP1 PUSH1 0x40 MSTORE PUSH1 0x40 MLOAD DUP1 DUP3 DUP1 MLOAD SWAP1 PUSH1 0x20 ADD SWAP1 DUP1 DUP4 DUP4 JUMPDEST PUSH1 0x20 DUP4 LT PUSH2 0x2E2E JUMPI DUP1 MLOAD DUP3 MSTORE PUSH1 0x1F NOT SWAP1 SWAP3 ADD SWAP2 PUSH1 0x20 SWAP2 DUP3 ADD SWAP2 ADD PUSH2 0x2E0F JUMP JUMPDEST PUSH1 0x1 DUP4 PUSH1 0x20 SUB PUSH2 0x100 EXP SUB DUP1 NOT DUP3 MLOAD AND DUP2 DUP5 MLOAD AND DUP1 DUP3 OR DUP6 MSTORE POP POP POP POP POP POP SWAP1 POP ADD SWAP2 POP POP PUSH1 0x40 MLOAD DUP1 SWAP2 SUB SWAP1 KECCAK256 DUP16 PUSH2 0x160 ADD MLOAD PUSH1 0x40 MLOAD PUSH1 0x20 ADD DUP1 DUP3 DUP1 MLOAD SWAP1 PUSH1 0x20 ADD SWAP1 DUP1 DUP4 DUP4 JUMPDEST PUSH1 0x20 DUP4 LT PUSH2 0x2E93 JUMPI DUP1 MLOAD DUP3 MSTORE PUSH1 0x1F NOT SWAP1 SWAP3 ADD SWAP2 PUSH1 0x20 SWAP2 DUP3 ADD SWAP2 ADD PUSH2 0x2E74 JUMP JUMPDEST PUSH1 0x1 DUP4 PUSH1 0x20 SUB PUSH2 0x100 EXP SUB DUP1 NOT DUP3 MLOAD AND DUP2 DUP5 MLOAD AND DUP1 DUP3 OR DUP6 MSTORE POP POP POP POP POP POP SWAP1 POP ADD SWAP2 POP POP PUSH1 0x40 MLOAD PUSH1 0x20 DUP2 DUP4 SUB SUB DUP2 MSTORE SWAP1 PUSH1 0x40 MSTORE PUSH1 0x40 MLOAD DUP1 DUP3 DUP1 MLOAD SWAP1 PUSH1 0x20 ADD SWAP1 DUP1 DUP4 DUP4 JUMPDEST PUSH1 0x20 DUP4 LT PUSH2 0x2EF6 JUMPI DUP1 MLOAD DUP3 MSTORE PUSH1 0x1F NOT SWAP1 SWAP3 ADD SWAP2 PUSH1 0x20 SWAP2 DUP3 ADD SWAP2 ADD PUSH2 0x2ED7 JUMP JUMPDEST PUSH1 0x1 DUP4 PUSH1 0x20 SUB PUSH2 0x100 EXP SUB DUP1 NOT DUP3 MLOAD AND DUP2 DUP5 MLOAD AND DUP1 DUP3 OR DUP6 MSTORE POP POP POP POP POP POP SWAP1 POP ADD SWAP2 POP POP PUSH1 0x40 MLOAD DUP1 SWAP2 SUB SWAP1 KECCAK256 PUSH1 0x40 MLOAD PUSH1 0x20 ADD DUP1 DUP14 PUSH1 0x1 PUSH1 0xA0 PUSH1 0x2 EXP SUB AND PUSH1 0x1 PUSH1 0xA0 PUSH1 0x2 EXP SUB AND PUSH13 0x1000000000000000000000000 MUL DUP2 MSTORE PUSH1 0x14 ADD DUP13 PUSH1 0x1 PUSH1 0xA0 PUSH1 0x2 EXP SUB AND PUSH1 0x1 PUSH1 0xA0 PUSH1 0x2 EXP SUB AND PUSH13 0x1000000000000000000000000 MUL DUP2 MSTORE PUSH1 0x14 ADD DUP12 PUSH1 0x1 PUSH1 0xA0 PUSH1 0x2 EXP SUB AND PUSH1 0x1 PUSH1 0xA0 PUSH1 0x2 EXP SUB AND PUSH13 0x1000000000000000000000000 MUL DUP2 MSTORE PUSH1 0x14 ADD DUP11 PUSH1 0x1 PUSH1 0xA0 PUSH1 0x2 EXP SUB AND PUSH1 0x1 PUSH1 0xA0 PUSH1 0x2 EXP SUB AND PUSH13 0x1000000000000000000000000 MUL DUP2 MSTORE PUSH1 0x14 ADD DUP10 DUP2 MSTORE PUSH1 0x20 ADD DUP9 DUP2 MSTORE PUSH1 0x20 ADD DUP8 DUP2 MSTORE PUSH1 0x20 ADD DUP7 DUP2 MSTORE PUSH1 0x20 ADD DUP6 DUP2 MSTORE PUSH1 0x20 ADD DUP5 DUP2 MSTORE PUSH1 0x20 ADD DUP4 PUSH1 0x0 NOT AND PUSH1 0x0 NOT AND DUP2 MSTORE PUSH1 0x20 ADD DUP3 PUSH1 0x0 NOT AND PUSH1 0x0 NOT AND DUP2 MSTORE PUSH1 0x20 ADD SWAP13 POP POP POP POP POP POP POP POP POP POP POP POP POP PUSH1 0x40 MLOAD PUSH1 0x20 DUP2 DUP4 SUB SUB DUP2 MSTORE SWAP1 PUSH1 0x40 MSTORE PUSH1 0x40 MLOAD DUP1 DUP3 DUP1 MLOAD SWAP1 PUSH1 0x20 ADD SWAP1 DUP1 DUP4 DUP4 JUMPDEST PUSH1 0x20 DUP4 LT PUSH2 0x3052 JUMPI DUP1 MLOAD DUP3 MSTORE PUSH1 0x1F NOT SWAP1 SWAP3 ADD SWAP2 PUSH1 0x20 SWAP2 DUP3 ADD SWAP2 ADD PUSH2 0x3033 JUMP JUMPDEST MLOAD DUP2 MLOAD PUSH1 0x0 NOT PUSH1 0x20 SWAP5 DUP6 SUB PUSH2 0x100 EXP ADD SWAP1 DUP2 AND SWAP1 NOT SWAP2 SWAP1 SWAP2 AND OR SWAP1 MSTORE PUSH1 0x40 DUP1 MLOAD SWAP5 SWAP1 SWAP3 ADD DUP5 SWAP1 SUB DUP5 KECCAK256 DUP5 DUP3 ADD SWAP10 SWAP1 SWAP10 MSTORE DUP4 DUP3 ADD SWAP8 SWAP1 SWAP8 MSTORE PUSH1 0x60 DUP4 ADD SWAP6 SWAP1 SWAP6 MSTORE POP PUSH1 0x80 DUP1 DUP3 ADD SWAP7 SWAP1 SWAP7 MSTORE DUP4 MLOAD DUP1 DUP3 SUB SWAP1 SWAP7 ADD DUP7 MSTORE PUSH1 0xA0 ADD SWAP3 DUP4 SWAP1 MSTORE POP POP DUP3 MLOAD SWAP1 SWAP2 DUP3 SWAP2 SWAP1 DUP5 ADD SWAP1 DUP1 DUP4 DUP4 JUMPDEST PUSH1 0x20 DUP4 LT PUSH2 0x30DB JUMPI DUP1 MLOAD DUP3 MSTORE PUSH1 0x1F NOT SWAP1 SWAP3 ADD SWAP2 PUSH1 0x20 SWAP2 DUP3 ADD SWAP2 ADD PUSH2 0x30BC JUMP JUMPDEST MLOAD DUP2 MLOAD PUSH1 0x20 SWAP4 SWAP1 SWAP4 SUB PUSH2 0x100 EXP PUSH1 0x0 NOT ADD DUP1 NOT SWAP1 SWAP2 AND SWAP3 AND SWAP2 SWAP1 SWAP2 OR SWAP1 MSTORE PUSH1 0x40 MLOAD SWAP3 ADD DUP3 SWAP1 SUB SWAP1 SWAP2 KECCAK256 SWAP6 SWAP5 POP POP POP POP POP JUMP JUMPDEST DUP1 MLOAD PUSH1 0x40 DUP1 MLOAD DUP1 DUP3 ADD SWAP1 SWAP2 MSTORE PUSH1 0x10 DUP2 MSTORE PUSH32 0x4F524445525F554E46494C4C41424C4500000000000000000000000000000000 PUSH1 0x20 DUP3 ADD MSTORE PUSH1 0x0 SWAP2 PUSH1 0xFF AND PUSH1 0x3 EQ PUSH2 0x316C JUMPI PUSH1 0x40 MLOAD PUSH1 0xE5 PUSH1 0x2 EXP PUSH3 0x461BCD MUL DUP2 MSTORE PUSH1 0x4 ADD PUSH2 0x6E5 SWAP2 SWAP1 PUSH2 0x424D JUMP JUMPDEST POP PUSH1 0x60 DUP4 ADD MLOAD PUSH1 0x1 PUSH1 0xA0 PUSH1 0x2 EXP SUB AND ISZERO PUSH2 0x31E7 JUMPI PUSH1 0x60 DUP4 ADD MLOAD PUSH1 0x40 DUP1 MLOAD DUP1 DUP3 ADD SWAP1 SWAP2 MSTORE PUSH1 0xE DUP2 MSTORE PUSH32 0x494E56414C49445F53454E444552000000000000000000000000000000000000 PUSH1 0x20 DUP3 ADD MSTORE SWAP1 PUSH1 0x1 PUSH1 0xA0 PUSH1 0x2 EXP SUB AND CALLER EQ PUSH2 0x31E5 JUMPI PUSH1 0x40 MLOAD PUSH1 0xE5 PUSH1 0x2 EXP PUSH3 0x461BCD MUL DUP2 MSTORE PUSH1 0x4 ADD PUSH2 0x6E5 SWAP2 SWAP1 PUSH2 0x424D JUMP JUMPDEST POP JUMPDEST PUSH2 0x31EF PUSH2 0x20CC JUMP JUMPDEST DUP4 MLOAD PUSH1 0x40 DUP1 MLOAD DUP1 DUP3 ADD SWAP1 SWAP2 MSTORE PUSH1 0xD DUP2 MSTORE PUSH32 0x494E56414C49445F4D414B455200000000000000000000000000000000000000 PUSH1 0x20 DUP3 ADD MSTORE SWAP2 SWAP3 POP PUSH1 0x1 PUSH1 0xA0 PUSH1 0x2 EXP SUB DUP1 DUP5 AND SWAP2 AND EQ PUSH2 0x638 JUMPI PUSH1 0x40 MLOAD PUSH1 0xE5 PUSH1 0x2 EXP PUSH3 0x461BCD MUL DUP2 MSTORE PUSH1 0x4 ADD PUSH2 0x6E5 SWAP2 SWAP1 PUSH2 0x424D JUMP JUMPDEST PUSH1 0x0 DUP2 DUP2 MSTORE PUSH1 0x2 PUSH1 0x20 MSTORE PUSH1 0x40 SWAP1 DUP2 SWAP1 KECCAK256 DUP1 SLOAD PUSH1 0xFF NOT AND PUSH1 0x1 OR SWAP1 SSTORE DUP3 DUP2 ADD MLOAD DUP4 MLOAD PUSH2 0x140 DUP6 ADD MLOAD PUSH2 0x160 DUP7 ADD MLOAD SWAP4 MLOAD DUP6 SWAP5 PUSH1 0x1 PUSH1 0xA0 PUSH1 0x2 EXP SUB SWAP5 DUP6 AND SWAP5 SWAP4 SWAP1 SWAP4 AND SWAP3 PUSH32 0xB1AD640E9E79B6FDBC3C415DC2914AB54E753D2971F51EAB910F7AA317A3163A SWAP3 PUSH2 0x32C6 SWAP3 SWAP1 SWAP2 SWAP1 PUSH2 0x421A JUMP JUMPDEST PUSH1 0x40 MLOAD DUP1 SWAP2 SUB SWAP1 LOG4 POP POP JUMP JUMPDEST PUSH1 0x0 DUP1 DUP3 MLOAD GT PUSH1 0x60 PUSH1 0x40 MLOAD SWAP1 DUP2 ADD PUSH1 0x40 MSTORE DUP1 PUSH1 0x21 DUP2 MSTORE PUSH1 0x20 ADD PUSH32 0x475245415445525F5448414E5F5A45524F5F4C454E4754485F52455155495245 DUP2 MSTORE PUSH1 0x20 ADD PUSH32 0x4400000000000000000000000000000000000000000000000000000000000000 DUP2 MSTORE POP SWAP1 ISZERO ISZERO PUSH2 0x3358 JUMPI PUSH1 0x40 MLOAD PUSH1 0xE5 PUSH1 0x2 EXP PUSH3 0x461BCD MUL DUP2 MSTORE PUSH1 0x4 ADD PUSH2 0x6E5 SWAP2 SWAP1 PUSH2 0x424D JUMP JUMPDEST POP DUP2 MLOAD DUP3 SWAP1 PUSH1 0x0 NOT DUP2 ADD SWAP1 DUP2 LT PUSH2 0x336B JUMPI INVALID JUMPDEST ADD PUSH1 0x20 ADD MLOAD DUP3 MLOAD PUSH1 0x0 NOT ADD SWAP1 SWAP3 MSTORE POP PUSH1 0xF8 PUSH1 0x2 EXP SWAP1 DUP2 SWAP1 DIV MUL SWAP1 JUMP JUMPDEST PUSH1 0x0 DUP2 PUSH1 0x20 ADD DUP4 MLOAD LT ISZERO PUSH1 0x60 PUSH1 0x40 MLOAD SWAP1 DUP2 ADD PUSH1 0x40 MSTORE DUP1 PUSH1 0x26 DUP2 MSTORE PUSH1 0x20 ADD PUSH32 0x475245415445525F4F525F455155414C5F544F5F33325F4C454E4754485F5245 DUP2 MSTORE PUSH1 0x20 ADD PUSH32 0x5155495245440000000000000000000000000000000000000000000000000000 DUP2 MSTORE POP SWAP1 ISZERO ISZERO PUSH2 0x3411 JUMPI PUSH1 0x40 MLOAD PUSH1 0xE5 PUSH1 0x2 EXP PUSH3 0x461BCD MUL DUP2 MSTORE PUSH1 0x4 ADD PUSH2 0x6E5 SWAP2 SWAP1 PUSH2 0x424D JUMP JUMPDEST POP POP ADD PUSH1 0x20 ADD MLOAD SWAP1 JUMP JUMPDEST PUSH1 0x0 PUSH1 0x14 DUP3 MLOAD LT ISZERO PUSH1 0x60 PUSH1 0x40 MLOAD SWAP1 DUP2 ADD PUSH1 0x40 MSTORE DUP1 PUSH1 0x26 DUP2 MSTORE PUSH1 0x20 ADD PUSH32 0x475245415445525F4F525F455155414C5F544F5F32305F4C454E4754485F5245 DUP2 MSTORE PUSH1 0x20 ADD PUSH32 0x5155495245440000000000000000000000000000000000000000000000000000 DUP2 MSTORE POP SWAP1 ISZERO ISZERO PUSH2 0x34A3 JUMPI PUSH1 0x40 MLOAD PUSH1 0xE5 PUSH1 0x2 EXP PUSH3 0x461BCD MUL DUP2 MSTORE PUSH1 0x4 ADD PUSH2 0x6E5 SWAP2 SWAP1 PUSH2 0x424D JUMP JUMPDEST POP PUSH2 0x34B2 DUP3 PUSH1 0x14 DUP5 MLOAD SUB PUSH2 0x3606 JUMP JUMPDEST DUP3 MLOAD PUSH1 0x13 NOT ADD SWAP1 SWAP3 MSTORE POP SWAP1 JUMP JUMPDEST PUSH1 0x0 DUP3 DUP3 MUL DUP4 ISZERO DUP1 PUSH2 0x34DB JUMPI POP DUP3 DUP5 DUP3 DUP2 ISZERO ISZERO PUSH2 0x34D8 JUMPI INVALID JUMPDEST DIV EQ JUMPDEST ISZERO ISZERO PUSH2 0x27FC JUMPI INVALID JUMPDEST PUSH1 0x0 DUP1 PUSH1 0x0 DUP5 DUP1 ISZERO ISZERO PUSH2 0x34F2 JUMPI INVALID JUMPDEST DUP7 DUP6 MULMOD SWAP2 POP DUP2 ISZERO ISZERO PUSH2 0x3507 JUMPI PUSH1 0x0 SWAP3 POP PUSH2 0x3530 JUMP JUMPDEST PUSH2 0x3526 PUSH2 0x3517 DUP4 PUSH3 0xF4240 PUSH2 0x34BF JUMP JUMPDEST PUSH2 0x3521 DUP9 DUP8 PUSH2 0x34BF JUMP JUMPDEST PUSH2 0x35EF JUMP JUMPDEST PUSH2 0x3E8 DUP2 GT SWAP4 POP SWAP1 POP JUMPDEST POP POP SWAP4 SWAP3 POP POP POP JUMP JUMPDEST PUSH1 0x0 DUP3 DUP3 ADD DUP4 DUP2 LT ISZERO PUSH2 0x27FC JUMPI INVALID JUMPDEST PUSH1 0x0 DUP1 DUP3 GT ISZERO PUSH2 0x2991 JUMPI POP PUSH1 0xFF DUP5 AND PUSH1 0x0 SWAP1 DUP2 MSTORE PUSH1 0x9 PUSH1 0x20 MSTORE PUSH1 0x40 SWAP1 DUP2 SWAP1 KECCAK256 SLOAD SWAP1 MLOAD PUSH32 0xA85E59E400000000000000000000000000000000000000000000000000000000 DUP2 MSTORE PUSH1 0x1 PUSH1 0xA0 PUSH1 0x2 EXP SUB SWAP1 SWAP2 AND SWAP1 DUP2 SWAP1 PUSH4 0xA85E59E4 SWAP1 PUSH2 0x35B5 SWAP1 DUP10 SWAP1 DUP9 SWAP1 DUP9 SWAP1 DUP9 SWAP1 PUSH1 0x4 ADD PUSH2 0x41ED JUMP JUMPDEST PUSH1 0x0 PUSH1 0x40 MLOAD DUP1 DUP4 SUB DUP2 PUSH1 0x0 DUP8 DUP1 EXTCODESIZE ISZERO DUP1 ISZERO PUSH2 0x35CF JUMPI PUSH1 0x0 DUP1 REVERT JUMPDEST POP GAS CALL ISZERO DUP1 ISZERO PUSH2 0x35E3 JUMPI RETURNDATASIZE PUSH1 0x0 DUP1 RETURNDATACOPY RETURNDATASIZE PUSH1 0x0 REVERT JUMPDEST POP POP POP POP POP POP POP POP POP POP JUMP JUMPDEST PUSH1 0x0 DUP1 DUP3 DUP5 DUP2 ISZERO ISZERO PUSH2 0x35FD JUMPI INVALID JUMPDEST DIV SWAP5 SWAP4 POP POP POP POP JUMP JUMPDEST PUSH1 0x0 DUP2 PUSH1 0x14 ADD DUP4 MLOAD LT ISZERO PUSH1 0x60 PUSH1 0x40 MLOAD SWAP1 DUP2 ADD PUSH1 0x40 MSTORE DUP1 PUSH1 0x26 DUP2 MSTORE PUSH1 0x20 ADD PUSH32 0x475245415445525F4F525F455155414C5F544F5F32305F4C454E4754485F5245 DUP2 MSTORE PUSH1 0x20 ADD PUSH32 0x5155495245440000000000000000000000000000000000000000000000000000 DUP2 MSTORE POP SWAP1 ISZERO ISZERO PUSH2 0x3690 JUMPI PUSH1 0x40 MLOAD PUSH1 0xE5 PUSH1 0x2 EXP PUSH3 0x461BCD MUL DUP2 MSTORE PUSH1 0x4 ADD PUSH2 0x6E5 SWAP2 SWAP1 PUSH2 0x424D JUMP JUMPDEST POP POP ADD PUSH1 0x14 ADD MLOAD PUSH1 0x1 PUSH1 0xA0 PUSH1 0x2 EXP SUB AND SWAP1 JUMP JUMPDEST PUSH2 0x120 PUSH1 0x40 MLOAD SWAP1 DUP2 ADD PUSH1 0x40 MSTORE DUP1 PUSH2 0x36B8 PUSH2 0x36F2 JUMP JUMPDEST DUP2 MSTORE PUSH1 0x20 ADD PUSH2 0x36C5 PUSH2 0x36F2 JUMP JUMPDEST DUP2 MSTORE PUSH1 0x20 ADD PUSH1 0x0 DUP2 MSTORE POP SWAP1 JUMP JUMPDEST PUSH1 0x40 DUP1 MLOAD PUSH1 0x60 DUP2 ADD DUP3 MSTORE PUSH1 0x0 DUP1 DUP3 MSTORE PUSH1 0x20 DUP3 ADD DUP2 SWAP1 MSTORE SWAP2 DUP2 ADD SWAP2 SWAP1 SWAP2 MSTORE SWAP1 JUMP JUMPDEST PUSH1 0x80 PUSH1 0x40 MLOAD SWAP1 DUP2 ADD PUSH1 0x40 MSTORE DUP1 PUSH1 0x0 DUP2 MSTORE PUSH1 0x20 ADD PUSH1 0x0 DUP2 MSTORE PUSH1 0x20 ADD PUSH1 0x0 DUP2 MSTORE PUSH1 0x20 ADD PUSH1 0x0 DUP2 MSTORE POP SWAP1 JUMP JUMPDEST PUSH1 0x0 PUSH2 0x27FC DUP3 CALLDATALOAD PUSH2 0x4343 JUMP JUMPDEST PUSH1 0x0 PUSH1 0x1F DUP3 ADD DUP4 SGT PUSH2 0x3738 JUMPI PUSH1 0x0 DUP1 REVERT JUMPDEST DUP2 CALLDATALOAD PUSH2 0x374B PUSH2 0x3746 DUP3 PUSH2 0x42F6 JUMP JUMPDEST PUSH2 0x42CF JUMP JUMPDEST DUP2 DUP2 MSTORE PUSH1 0x20 SWAP4 DUP5 ADD SWAP4 SWAP1 SWAP3 POP DUP3 ADD DUP4 PUSH1 0x0 JUMPDEST DUP4 DUP2 LT ISZERO PUSH2 0x3789 JUMPI DUP2 CALLDATALOAD DUP7 ADD PUSH2 0x3773 DUP9 DUP3 PUSH2 0x38CD JUMP JUMPDEST DUP5 MSTORE POP PUSH1 0x20 SWAP3 DUP4 ADD SWAP3 SWAP2 SWAP1 SWAP2 ADD SWAP1 PUSH1 0x1 ADD PUSH2 0x375D JUMP JUMPDEST POP POP POP POP SWAP3 SWAP2 POP POP JUMP JUMPDEST PUSH1 0x0 PUSH1 0x1F DUP3 ADD DUP4 SGT PUSH2 0x37A4 JUMPI PUSH1 0x0 DUP1 REVERT JUMPDEST DUP2 CALLDATALOAD PUSH2 0x37B2 PUSH2 0x3746 DUP3 PUSH2 0x42F6 JUMP JUMPDEST DUP2 DUP2 MSTORE PUSH1 0x20 SWAP4 DUP5 ADD SWAP4 SWAP1 SWAP3 POP DUP3 ADD DUP4 PUSH1 0x0 JUMPDEST DUP4 DUP2 LT ISZERO PUSH2 0x3789 JUMPI DUP2 CALLDATALOAD DUP7 ADD PUSH2 0x37DA DUP9 DUP3 PUSH2 0x391C JUMP JUMPDEST DUP5 MSTORE POP PUSH1 0x20 SWAP3 DUP4 ADD SWAP3 SWAP2 SWAP1 SWAP2 ADD SWAP1 PUSH1 0x1 ADD PUSH2 0x37C4 JUMP JUMPDEST PUSH1 0x0 PUSH1 0x1F DUP3 ADD DUP4 SGT PUSH2 0x3801 JUMPI PUSH1 0x0 DUP1 REVERT JUMPDEST DUP2 CALLDATALOAD PUSH2 0x380F PUSH2 0x3746 DUP3 PUSH2 0x42F6 JUMP JUMPDEST SWAP2 POP DUP2 DUP2 DUP4 MSTORE PUSH1 0x20 DUP5 ADD SWAP4 POP PUSH1 0x20 DUP2 ADD SWAP1 POP DUP4 DUP6 PUSH1 0x20 DUP5 MUL DUP3 ADD GT ISZERO PUSH2 0x3834 JUMPI PUSH1 0x0 DUP1 REVERT JUMPDEST PUSH1 0x0 JUMPDEST DUP4 DUP2 LT ISZERO PUSH2 0x3789 JUMPI DUP2 PUSH2 0x384A DUP9 DUP3 PUSH2 0x3878 JUMP JUMPDEST DUP5 MSTORE POP PUSH1 0x20 SWAP3 DUP4 ADD SWAP3 SWAP2 SWAP1 SWAP2 ADD SWAP1 PUSH1 0x1 ADD PUSH2 0x3837 JUMP JUMPDEST PUSH1 0x0 PUSH2 0x27FC DUP3 CALLDATALOAD PUSH2 0x434F JUMP JUMPDEST PUSH1 0x0 PUSH2 0x27FC DUP3 MLOAD PUSH2 0x434F JUMP JUMPDEST PUSH1 0x0 PUSH2 0x27FC DUP3 CALLDATALOAD PUSH2 0x4354 JUMP JUMPDEST PUSH1 0x0 DUP1 PUSH1 0x1F DUP4 ADD DUP5 SGT PUSH2 0x3896 JUMPI PUSH1 0x0 DUP1 REVERT JUMPDEST POP DUP2 CALLDATALOAD PUSH8 0xFFFFFFFFFFFFFFFF DUP2 GT ISZERO PUSH2 0x38AE JUMPI PUSH1 0x0 DUP1 REVERT JUMPDEST PUSH1 0x20 DUP4 ADD SWAP2 POP DUP4 PUSH1 0x1 DUP3 MUL DUP4 ADD GT ISZERO PUSH2 0x38C6 JUMPI PUSH1 0x0 DUP1 REVERT JUMPDEST SWAP3 POP SWAP3 SWAP1 POP JUMP JUMPDEST PUSH1 0x0 PUSH1 0x1F DUP3 ADD DUP4 SGT PUSH2 0x38DE JUMPI PUSH1 0x0 DUP1 REVERT JUMPDEST DUP2 CALLDATALOAD PUSH2 0x38EC PUSH2 0x3746 DUP3 PUSH2 0x4317 JUMP JUMPDEST SWAP2 POP DUP1 DUP3 MSTORE PUSH1 0x20 DUP4 ADD PUSH1 0x20 DUP4 ADD DUP6 DUP4 DUP4 ADD GT ISZERO PUSH2 0x3908 JUMPI PUSH1 0x0 DUP1 REVERT JUMPDEST PUSH2 0x3913 DUP4 DUP3 DUP5 PUSH2 0x4368 JUMP JUMPDEST POP POP POP SWAP3 SWAP2 POP POP JUMP JUMPDEST PUSH1 0x0 PUSH2 0x180 DUP3 DUP5 SUB SLT ISZERO PUSH2 0x392F JUMPI PUSH1 0x0 DUP1 REVERT JUMPDEST PUSH2 0x393A PUSH2 0x180 PUSH2 0x42CF JUMP JUMPDEST SWAP1 POP PUSH1 0x0 PUSH2 0x3948 DUP5 DUP5 PUSH2 0x371B JUMP JUMPDEST DUP3 MSTORE POP PUSH1 0x20 PUSH2 0x3959 DUP5 DUP5 DUP4 ADD PUSH2 0x371B JUMP JUMPDEST PUSH1 0x20 DUP4 ADD MSTORE POP PUSH1 0x40 PUSH2 0x396D DUP5 DUP3 DUP6 ADD PUSH2 0x371B JUMP JUMPDEST PUSH1 0x40 DUP4 ADD MSTORE POP PUSH1 0x60 PUSH2 0x3981 DUP5 DUP3 DUP6 ADD PUSH2 0x371B JUMP JUMPDEST PUSH1 0x60 DUP4 ADD MSTORE POP PUSH1 0x80 PUSH2 0x3995 DUP5 DUP3 DUP6 ADD PUSH2 0x3878 JUMP JUMPDEST PUSH1 0x80 DUP4 ADD MSTORE POP PUSH1 0xA0 PUSH2 0x39A9 DUP5 DUP3 DUP6 ADD PUSH2 0x3878 JUMP JUMPDEST PUSH1 0xA0 DUP4 ADD MSTORE POP PUSH1 0xC0 PUSH2 0x39BD DUP5 DUP3 DUP6 ADD PUSH2 0x3878 JUMP JUMPDEST PUSH1 0xC0 DUP4 ADD MSTORE POP PUSH1 0xE0 PUSH2 0x39D1 DUP5 DUP3 DUP6 ADD PUSH2 0x3878 JUMP JUMPDEST PUSH1 0xE0 DUP4 ADD MSTORE POP PUSH2 0x100 PUSH2 0x39E6 DUP5 DUP3 DUP6 ADD PUSH2 0x3878 JUMP JUMPDEST PUSH2 0x100 DUP4 ADD MSTORE POP PUSH2 0x120 PUSH2 0x39FC DUP5 DUP3 DUP6 ADD PUSH2 0x3878 JUMP JUMPDEST PUSH2 0x120 DUP4 ADD MSTORE POP PUSH2 0x140 DUP3 ADD CALLDATALOAD PUSH8 0xFFFFFFFFFFFFFFFF DUP2 GT ISZERO PUSH2 0x3A1E JUMPI PUSH1 0x0 DUP1 REVERT JUMPDEST PUSH2 0x3A2A DUP5 DUP3 DUP6 ADD PUSH2 0x38CD JUMP JUMPDEST PUSH2 0x140 DUP4 ADD MSTORE POP PUSH2 0x160 DUP3 ADD CALLDATALOAD PUSH8 0xFFFFFFFFFFFFFFFF DUP2 GT ISZERO PUSH2 0x3A4C JUMPI PUSH1 0x0 DUP1 REVERT JUMPDEST PUSH2 0x3A58 DUP5 DUP3 DUP6 ADD PUSH2 0x38CD JUMP JUMPDEST PUSH2 0x160 DUP4 ADD MSTORE POP SWAP3 SWAP2 POP POP JUMP JUMPDEST PUSH1 0x0 PUSH2 0x27FC DUP3 CALLDATALOAD PUSH2 0x4357 JUMP JUMPDEST PUSH1 0x0 PUSH2 0x27FC DUP3 MLOAD PUSH2 0x4357 JUMP JUMPDEST PUSH1 0x0 PUSH1 0x20 DUP3 DUP5 SUB SLT ISZERO PUSH2 0x3A8F JUMPI PUSH1 0x0 DUP1 REVERT JUMPDEST PUSH1 0x0 PUSH2 0x27E3 DUP5 DUP5 PUSH2 0x371B JUMP JUMPDEST PUSH1 0x0 DUP1 PUSH1 0x40 DUP4 DUP6 SUB SLT ISZERO PUSH2 0x3AAE JUMPI PUSH1 0x0 DUP1 REVERT JUMPDEST PUSH1 0x0 PUSH2 0x3ABA DUP6 DUP6 PUSH2 0x371B JUMP JUMPDEST SWAP3 POP POP PUSH1 0x20 PUSH2 0x3ACB DUP6 DUP3 DUP7 ADD PUSH2 0x371B JUMP JUMPDEST SWAP2 POP POP SWAP3 POP SWAP3 SWAP1 POP JUMP JUMPDEST PUSH1 0x0 DUP1 PUSH1 0x40 DUP4 DUP6 SUB SLT ISZERO PUSH2 0x3AE8 JUMPI PUSH1 0x0 DUP1 REVERT JUMPDEST PUSH1 0x0 PUSH2 0x3AF4 DUP6 DUP6 PUSH2 0x371B JUMP JUMPDEST SWAP3 POP POP PUSH1 0x20 PUSH2 0x3ACB DUP6 DUP3 DUP7 ADD PUSH2 0x3860 JUMP JUMPDEST PUSH1 0x0 PUSH1 0x20 DUP3 DUP5 SUB SLT ISZERO PUSH2 0x3B17 JUMPI PUSH1 0x0 DUP1 REVERT JUMPDEST DUP2 CALLDATALOAD PUSH8 0xFFFFFFFFFFFFFFFF DUP2 GT ISZERO PUSH2 0x3B2E JUMPI PUSH1 0x0 DUP1 REVERT JUMPDEST PUSH2 0x27E3 DUP5 DUP3 DUP6 ADD PUSH2 0x3793 JUMP JUMPDEST PUSH1 0x0 DUP1 PUSH1 0x0 PUSH1 0x60 DUP5 DUP7 SUB SLT ISZERO PUSH2 0x3B4F JUMPI PUSH1 0x0 DUP1 REVERT JUMPDEST DUP4 CALLDATALOAD PUSH8 0xFFFFFFFFFFFFFFFF DUP2 GT ISZERO PUSH2 0x3B66 JUMPI PUSH1 0x0 DUP1 REVERT JUMPDEST PUSH2 0x3B72 DUP7 DUP3 DUP8 ADD PUSH2 0x3793 JUMP JUMPDEST SWAP4 POP POP PUSH1 0x20 DUP5 ADD CALLDATALOAD PUSH8 0xFFFFFFFFFFFFFFFF DUP2 GT ISZERO PUSH2 0x3B8F JUMPI PUSH1 0x0 DUP1 REVERT JUMPDEST PUSH2 0x3B9B DUP7 DUP3 DUP8 ADD PUSH2 0x37F0 JUMP JUMPDEST SWAP3 POP POP PUSH1 0x40 DUP5 ADD CALLDATALOAD PUSH8 0xFFFFFFFFFFFFFFFF DUP2 GT ISZERO PUSH2 0x3BB8 JUMPI PUSH1 0x0 DUP1 REVERT JUMPDEST PUSH2 0x3BC4 DUP7 DUP3 DUP8 ADD PUSH2 0x3727 JUMP JUMPDEST SWAP2 POP POP SWAP3 POP SWAP3 POP SWAP3 JUMP JUMPDEST PUSH1 0x0 DUP1 PUSH1 0x0 PUSH1 0x60 DUP5 DUP7 SUB SLT ISZERO PUSH2 0x3BE3 JUMPI PUSH1 0x0 DUP1 REVERT JUMPDEST DUP4 CALLDATALOAD PUSH8 0xFFFFFFFFFFFFFFFF DUP2 GT ISZERO PUSH2 0x3BFA JUMPI PUSH1 0x0 DUP1 REVERT JUMPDEST PUSH2 0x3C06 DUP7 DUP3 DUP8 ADD PUSH2 0x3793 JUMP JUMPDEST SWAP4 POP POP PUSH1 0x20 PUSH2 0x3B9B DUP7 DUP3 DUP8 ADD PUSH2 0x3878 JUMP JUMPDEST PUSH1 0x0 PUSH1 0x20 DUP3 DUP5 SUB SLT ISZERO PUSH2 0x3C29 JUMPI PUSH1 0x0 DUP1 REVERT JUMPDEST PUSH1 0x0 PUSH2 0x27E3 DUP5 DUP5 PUSH2 0x386C JUMP JUMPDEST PUSH1 0x0 PUSH1 0x20 DUP3 DUP5 SUB SLT ISZERO PUSH2 0x3C47 JUMPI PUSH1 0x0 DUP1 REVERT JUMPDEST PUSH1 0x0 PUSH2 0x27E3 DUP5 DUP5 PUSH2 0x3878 JUMP JUMPDEST PUSH1 0x0 DUP1 PUSH1 0x40 DUP4 DUP6 SUB SLT ISZERO PUSH2 0x3C66 JUMPI PUSH1 0x0 DUP1 REVERT JUMPDEST PUSH1 0x0 PUSH2 0x3ABA DUP6 DUP6 PUSH2 0x3878 JUMP JUMPDEST PUSH1 0x0 DUP1 PUSH1 0x0 DUP1 PUSH1 0x60 DUP6 DUP8 SUB SLT ISZERO PUSH2 0x3C88 JUMPI PUSH1 0x0 DUP1 REVERT JUMPDEST PUSH1 0x0 PUSH2 0x3C94 DUP8 DUP8 PUSH2 0x3878 JUMP JUMPDEST SWAP5 POP POP PUSH1 0x20 PUSH2 0x3CA5 DUP8 DUP3 DUP9 ADD PUSH2 0x371B JUMP JUMPDEST SWAP4 POP POP PUSH1 0x40 DUP6 ADD CALLDATALOAD PUSH8 0xFFFFFFFFFFFFFFFF DUP2 GT ISZERO PUSH2 0x3CC2 JUMPI PUSH1 0x0 DUP1 REVERT JUMPDEST PUSH2 0x3CCE DUP8 DUP3 DUP9 ADD PUSH2 0x3884 JUMP JUMPDEST SWAP6 SWAP9 SWAP5 SWAP8 POP SWAP6 POP POP POP POP JUMP JUMPDEST PUSH1 0x0 PUSH1 0x20 DUP3 DUP5 SUB SLT ISZERO PUSH2 0x3CEC JUMPI PUSH1 0x0 DUP1 REVERT JUMPDEST DUP2 CALLDATALOAD PUSH8 0xFFFFFFFFFFFFFFFF DUP2 GT ISZERO PUSH2 0x3D03 JUMPI PUSH1 0x0 DUP1 REVERT JUMPDEST PUSH2 0x27E3 DUP5 DUP3 DUP6 ADD PUSH2 0x391C JUMP JUMPDEST PUSH1 0x0 DUP1 PUSH1 0x0 DUP1 PUSH1 0x80 DUP6 DUP8 SUB SLT ISZERO PUSH2 0x3D25 JUMPI PUSH1 0x0 DUP1 REVERT JUMPDEST DUP5 CALLDATALOAD PUSH8 0xFFFFFFFFFFFFFFFF DUP2 GT ISZERO PUSH2 0x3D3C JUMPI PUSH1 0x0 DUP1 REVERT JUMPDEST PUSH2 0x3D48 DUP8 DUP3 DUP9 ADD PUSH2 0x391C JUMP JUMPDEST SWAP5 POP POP PUSH1 0x20 DUP6 ADD CALLDATALOAD PUSH8 0xFFFFFFFFFFFFFFFF DUP2 GT ISZERO PUSH2 0x3D65 JUMPI PUSH1 0x0 DUP1 REVERT JUMPDEST PUSH2 0x3D71 DUP8 DUP3 DUP9 ADD PUSH2 0x391C JUMP JUMPDEST SWAP4 POP POP PUSH1 0x40 DUP6 ADD CALLDATALOAD PUSH8 0xFFFFFFFFFFFFFFFF DUP2 GT ISZERO PUSH2 0x3D8E JUMPI PUSH1 0x0 DUP1 REVERT JUMPDEST PUSH2 0x3D9A DUP8 DUP3 DUP9 ADD PUSH2 0x38CD JUMP JUMPDEST SWAP3 POP POP PUSH1 0x60 DUP6 ADD CALLDATALOAD PUSH8 0xFFFFFFFFFFFFFFFF DUP2 GT ISZERO PUSH2 0x3DB7 JUMPI PUSH1 0x0 DUP1 REVERT JUMPDEST PUSH2 0x3DC3 DUP8 DUP3 DUP9 ADD PUSH2 0x38CD JUMP JUMPDEST SWAP2 POP POP SWAP3 SWAP6 SWAP2 SWAP5 POP SWAP3 POP JUMP JUMPDEST PUSH1 0x0 DUP1 PUSH1 0x0 PUSH1 0x60 DUP5 DUP7 SUB SLT ISZERO PUSH2 0x3DE4 JUMPI PUSH1 0x0 DUP1 REVERT JUMPDEST DUP4 CALLDATALOAD PUSH8 0xFFFFFFFFFFFFFFFF DUP2 GT ISZERO PUSH2 0x3DFB JUMPI PUSH1 0x0 DUP1 REVERT JUMPDEST PUSH2 0x3E07 DUP7 DUP3 DUP8 ADD PUSH2 0x391C JUMP JUMPDEST SWAP4 POP POP PUSH1 0x20 PUSH2 0x3E18 DUP7 DUP3 DUP8 ADD PUSH2 0x3878 JUMP JUMPDEST SWAP3 POP POP PUSH1 0x40 DUP5 ADD CALLDATALOAD PUSH8 0xFFFFFFFFFFFFFFFF DUP2 GT ISZERO PUSH2 0x3E35 JUMPI PUSH1 0x0 DUP1 REVERT JUMPDEST PUSH2 0x3BC4 DUP7 DUP3 DUP8 ADD PUSH2 0x38CD JUMP JUMPDEST PUSH1 0x0 DUP1 PUSH1 0x0 DUP1 PUSH1 0x0 DUP1 PUSH1 0x80 DUP8 DUP10 SUB SLT ISZERO PUSH2 0x3E5A JUMPI PUSH1 0x0 DUP1 REVERT JUMPDEST PUSH1 0x0 PUSH2 0x3E66 DUP10 DUP10 PUSH2 0x3878 JUMP JUMPDEST SWAP7 POP POP PUSH1 0x20 PUSH2 0x3E77 DUP10 DUP3 DUP11 ADD PUSH2 0x371B JUMP JUMPDEST SWAP6 POP POP PUSH1 0x40 DUP8 ADD CALLDATALOAD PUSH8 0xFFFFFFFFFFFFFFFF DUP2 GT ISZERO PUSH2 0x3E94 JUMPI PUSH1 0x0 DUP1 REVERT JUMPDEST PUSH2 0x3EA0 DUP10 DUP3 DUP11 ADD PUSH2 0x3884 JUMP JUMPDEST SWAP5 POP SWAP5 POP POP PUSH1 0x60 DUP8 ADD CALLDATALOAD PUSH8 0xFFFFFFFFFFFFFFFF DUP2 GT ISZERO PUSH2 0x3EBF JUMPI PUSH1 0x0 DUP1 REVERT JUMPDEST PUSH2 0x3ECB DUP10 DUP3 DUP11 ADD PUSH2 0x3884 JUMP JUMPDEST SWAP3 POP SWAP3 POP POP SWAP3 SWAP6 POP SWAP3 SWAP6 POP SWAP3 SWAP6 JUMP JUMPDEST PUSH1 0x0 PUSH1 0x20 DUP3 DUP5 SUB SLT ISZERO PUSH2 0x3EEC JUMPI PUSH1 0x0 DUP1 REVERT JUMPDEST PUSH1 0x0 PUSH2 0x27E3 DUP5 DUP5 PUSH2 0x3A65 JUMP JUMPDEST PUSH1 0x0 PUSH1 0x20 DUP3 DUP5 SUB SLT ISZERO PUSH2 0x3F0A JUMPI PUSH1 0x0 DUP1 REVERT JUMPDEST PUSH1 0x0 PUSH2 0x27E3 DUP5 DUP5 PUSH2 0x3A71 JUMP JUMPDEST PUSH1 0x0 DUP1 PUSH1 0x0 PUSH1 0x60 DUP5 DUP7 SUB SLT ISZERO PUSH2 0x3F2B JUMPI PUSH1 0x0 DUP1 REVERT JUMPDEST PUSH1 0x0 PUSH2 0x3F37 DUP7 DUP7 PUSH2 0x3A65 JUMP JUMPDEST SWAP4 POP POP PUSH1 0x20 PUSH2 0x3F48 DUP7 DUP3 DUP8 ADD PUSH2 0x371B JUMP JUMPDEST SWAP3 POP POP PUSH1 0x40 PUSH2 0x3BC4 DUP7 DUP3 DUP8 ADD PUSH2 0x371B JUMP JUMPDEST PUSH2 0x3F62 DUP2 PUSH2 0x4343 JUMP JUMPDEST DUP3 MSTORE POP POP JUMP JUMPDEST PUSH2 0x3F62 DUP2 PUSH2 0x434F JUMP JUMPDEST PUSH2 0x3F62 DUP2 PUSH2 0x4354 JUMP JUMPDEST PUSH1 0x0 PUSH2 0x3F85 DUP3 PUSH2 0x433F JUMP JUMPDEST DUP1 DUP5 MSTORE PUSH2 0x3F99 DUP2 PUSH1 0x20 DUP7 ADD PUSH1 0x20 DUP7 ADD PUSH2 0x4374 JUMP JUMPDEST PUSH2 0x3FA2 DUP2 PUSH2 0x43A0 JUMP JUMPDEST SWAP1 SWAP4 ADD PUSH1 0x20 ADD SWAP4 SWAP3 POP POP POP JUMP JUMPDEST PUSH2 0x3F62 DUP2 PUSH2 0x435D JUMP JUMPDEST PUSH1 0x33 DUP2 MSTORE PUSH32 0x4F6E6C7920636F6E7472616374206F776E657220697320616C6C6F7765642074 PUSH1 0x20 DUP3 ADD MSTORE PUSH32 0x6F2063616C6C2074686973206D6574686F642E00000000000000000000000000 PUSH1 0x40 DUP3 ADD MSTORE PUSH1 0x60 ADD SWAP1 JUMP JUMPDEST DUP1 MLOAD PUSH1 0x80 DUP4 ADD SWAP1 PUSH2 0x401F DUP5 DUP3 PUSH2 0x3F71 JUMP JUMPDEST POP PUSH1 0x20 DUP3 ADD MLOAD PUSH2 0x4032 PUSH1 0x20 DUP6 ADD DUP3 PUSH2 0x3F71 JUMP JUMPDEST POP PUSH1 0x40 DUP3 ADD MLOAD PUSH2 0x4045 PUSH1 0x40 DUP6 ADD DUP3 PUSH2 0x3F71 JUMP JUMPDEST POP PUSH1 0x60 DUP3 ADD MLOAD PUSH2 0x638 PUSH1 0x60 DUP6 ADD DUP3 PUSH2 0x3F71 JUMP JUMPDEST DUP1 MLOAD PUSH2 0x120 DUP4 ADD SWAP1 PUSH2 0x406A DUP5 DUP3 PUSH2 0x400E JUMP JUMPDEST POP PUSH1 0x20 DUP3 ADD MLOAD PUSH2 0x407D PUSH1 0x80 DUP6 ADD DUP3 PUSH2 0x400E JUMP JUMPDEST POP PUSH1 0x40 DUP3 ADD MLOAD PUSH2 0x638 PUSH2 0x100 DUP6 ADD DUP3 PUSH2 0x3F71 JUMP JUMPDEST DUP1 MLOAD PUSH1 0x60 DUP4 ADD SWAP1 PUSH2 0x40A2 DUP5 DUP3 PUSH2 0x40C8 JUMP JUMPDEST POP PUSH1 0x20 DUP3 ADD MLOAD PUSH2 0x40B5 PUSH1 0x20 DUP6 ADD DUP3 PUSH2 0x3F71 JUMP JUMPDEST POP PUSH1 0x40 DUP3 ADD MLOAD PUSH2 0x638 PUSH1 0x40 DUP6 ADD DUP3 PUSH2 0x3F71 JUMP JUMPDEST PUSH2 0x3F62 DUP2 PUSH2 0x4357 JUMP JUMPDEST PUSH1 0x20 DUP2 ADD PUSH2 0x20F5 DUP3 DUP5 PUSH2 0x3F59 JUMP JUMPDEST PUSH1 0xE0 DUP2 ADD PUSH2 0x40ED DUP3 DUP11 PUSH2 0x3F59 JUMP JUMPDEST PUSH2 0x40FA PUSH1 0x20 DUP4 ADD DUP10 PUSH2 0x3F71 JUMP JUMPDEST PUSH2 0x4107 PUSH1 0x40 DUP4 ADD DUP9 PUSH2 0x3F71 JUMP JUMPDEST PUSH2 0x4114 PUSH1 0x60 DUP4 ADD DUP8 PUSH2 0x3F71 JUMP JUMPDEST PUSH2 0x4121 PUSH1 0x80 DUP4 ADD DUP7 PUSH2 0x3F71 JUMP JUMPDEST DUP2 DUP2 SUB PUSH1 0xA0 DUP4 ADD MSTORE PUSH2 0x4133 DUP2 DUP6 PUSH2 0x3F7A JUMP JUMPDEST SWAP1 POP DUP2 DUP2 SUB PUSH1 0xC0 DUP4 ADD MSTORE PUSH2 0x4147 DUP2 DUP5 PUSH2 0x3F7A JUMP JUMPDEST SWAP10 SWAP9 POP POP POP POP POP POP POP POP POP JUMP JUMPDEST PUSH1 0x20 DUP2 ADD PUSH2 0x20F5 DUP3 DUP5 PUSH2 0x3F68 JUMP JUMPDEST PUSH1 0x60 DUP2 ADD PUSH2 0x4170 DUP3 DUP7 PUSH2 0x3F71 JUMP JUMPDEST PUSH2 0x417D PUSH1 0x20 DUP4 ADD DUP6 PUSH2 0x3F59 JUMP JUMPDEST DUP2 DUP2 SUB PUSH1 0x40 DUP4 ADD MSTORE PUSH2 0x418F DUP2 DUP5 PUSH2 0x3F7A JUMP JUMPDEST SWAP6 SWAP5 POP POP POP POP POP JUMP JUMPDEST PUSH1 0x40 DUP2 ADD PUSH2 0x41A6 DUP3 DUP6 PUSH2 0x3F71 JUMP JUMPDEST DUP2 DUP2 SUB PUSH1 0x20 DUP4 ADD MSTORE PUSH2 0x27E3 DUP2 DUP5 PUSH2 0x3F7A JUMP JUMPDEST PUSH1 0x80 DUP2 ADD PUSH2 0x41C6 DUP3 DUP8 PUSH2 0x3F71 JUMP JUMPDEST PUSH2 0x41D3 PUSH1 0x20 DUP4 ADD DUP7 PUSH2 0x40C8 JUMP JUMPDEST PUSH2 0x41E0 PUSH1 0x40 DUP4 ADD DUP6 PUSH2 0x3F71 JUMP JUMPDEST PUSH2 0x418F PUSH1 0x60 DUP4 ADD DUP5 PUSH2 0x3F71 JUMP JUMPDEST PUSH1 0x80 DUP1 DUP3 MSTORE DUP2 ADD PUSH2 0x41FE DUP2 DUP8 PUSH2 0x3F7A JUMP JUMPDEST SWAP1 POP PUSH2 0x420D PUSH1 0x20 DUP4 ADD DUP7 PUSH2 0x3F59 JUMP JUMPDEST PUSH2 0x41E0 PUSH1 0x40 DUP4 ADD DUP6 PUSH2 0x3F59 JUMP JUMPDEST PUSH1 0x40 DUP1 DUP3 MSTORE DUP2 ADD PUSH2 0x422B DUP2 DUP6 PUSH2 0x3F7A JUMP JUMPDEST SWAP1 POP DUP2 DUP2 SUB PUSH1 0x20 DUP4 ADD MSTORE PUSH2 0x27E3 DUP2 DUP5 PUSH2 0x3F7A JUMP JUMPDEST PUSH1 0x20 DUP2 ADD PUSH2 0x20F5 DUP3 DUP5 PUSH2 0x3FAF JUMP JUMPDEST PUSH1 0x20 DUP1 DUP3 MSTORE DUP2 ADD PUSH2 0x27FC DUP2 DUP5 PUSH2 0x3F7A JUMP JUMPDEST PUSH1 0x20 DUP1 DUP3 MSTORE DUP2 ADD PUSH2 0x20F5 DUP2 PUSH2 0x3FB8 JUMP JUMPDEST PUSH1 0x80 DUP2 ADD PUSH2 0x20F5 DUP3 DUP5 PUSH2 0x400E JUMP JUMPDEST PUSH2 0x120 DUP2 ADD PUSH2 0x20F5 DUP3 DUP5 PUSH2 0x4058 JUMP JUMPDEST PUSH1 0x60 DUP2 ADD PUSH2 0x20F5 DUP3 DUP5 PUSH2 0x4091 JUMP JUMPDEST PUSH1 0x20 DUP2 ADD PUSH2 0x20F5 DUP3 DUP5 PUSH2 0x3F71 JUMP JUMPDEST PUSH1 0x60 DUP2 ADD PUSH2 0x42B5 DUP3 DUP7 PUSH2 0x40C8 JUMP JUMPDEST PUSH2 0x42C2 PUSH1 0x20 DUP4 ADD DUP6 PUSH2 0x3F59 JUMP JUMPDEST PUSH2 0x27E3 PUSH1 0x40 DUP4 ADD DUP5 PUSH2 0x3F59 JUMP JUMPDEST PUSH1 0x40 MLOAD DUP2 DUP2 ADD PUSH8 0xFFFFFFFFFFFFFFFF DUP2 GT DUP3 DUP3 LT OR ISZERO PUSH2 0x42EE JUMPI PUSH1 0x0 DUP1 REVERT JUMPDEST PUSH1 0x40 MSTORE SWAP2 SWAP1 POP JUMP JUMPDEST PUSH1 0x0 PUSH8 0xFFFFFFFFFFFFFFFF DUP3 GT ISZERO PUSH2 0x430D JUMPI PUSH1 0x0 DUP1 REVERT JUMPDEST POP PUSH1 0x20 SWAP1 DUP2 MUL ADD SWAP1 JUMP JUMPDEST PUSH1 0x0 PUSH8 0xFFFFFFFFFFFFFFFF DUP3 GT ISZERO PUSH2 0x432E JUMPI PUSH1 0x0 DUP1 REVERT JUMPDEST POP PUSH1 0x20 PUSH1 0x1F SWAP2 SWAP1 SWAP2 ADD PUSH1 0x1F NOT AND ADD SWAP1 JUMP JUMPDEST MLOAD SWAP1 JUMP JUMPDEST PUSH1 0x1 PUSH1 0xA0 PUSH1 0x2 EXP SUB AND SWAP1 JUMP JUMPDEST ISZERO ISZERO SWAP1 JUMP JUMPDEST SWAP1 JUMP JUMPDEST PUSH1 0xFF AND SWAP1 JUMP JUMPDEST PUSH1 0x0 PUSH2 0x20F5 DUP3 PUSH2 0x4343 JUMP JUMPDEST DUP3 DUP2 DUP4 CALLDATACOPY POP PUSH1 0x0 SWAP2 ADD MSTORE JUMP JUMPDEST PUSH1 0x0 JUMPDEST DUP4 DUP2 LT ISZERO PUSH2 0x438F JUMPI DUP2 DUP2 ADD MLOAD DUP4 DUP3 ADD MSTORE PUSH1 0x20 ADD PUSH2 0x4377 JUMP JUMPDEST DUP4 DUP2 GT ISZERO PUSH2 0x638 JUMPI POP POP PUSH1 0x0 SWAP2 ADD MSTORE JUMP JUMPDEST PUSH1 0x1F ADD PUSH1 0x1F NOT AND SWAP1 JUMP STOP LOG2 PUSH6 0x627A7A723058 KECCAK256 DUP7 0xc9 ADD 0x29 0xc0 0xb2 XOR 0x28 0x26 0xe4 0xb2 0x4f 0xf8 GAS 0xea 0xd7 DUP10 CREATE 0xa8 0x46 MUL 0xe9 SWAP4 SWAP3 0xb1 SWAP8 PUSH11 0x504DA002936C6578706572 PUSH10 0x6D656E74616CF5003700 "
			}
		}
	},
	"sourceTreeHashHex": "0x630764968aa759f29847d90ff54d6ac7619cd3c48280662f420d00bd4aef23c8",
	"compiler": {
		"name": "solc",
		"version": "soljson-v0.4.24+commit.e67f0147.js",
		"settings": {
			"optimizer": {
				"enabled": true,
				"runs": 200
			},
			"outputSelection": {
				"*": {
					"*": [
						"abi",
						"evm.bytecode.object",
						"evm.bytecode.sourceMap",
						"evm.deployedBytecode.object",
						"evm.deployedBytecode.sourceMap"
					]
				}
			}
		}
	}
}